{"contracts/mock/SafeERC20UniversalHarness.sol":{"SafeERC20UniversalHarness":{"abi":[{"inputs":[{"internalType":"address","name":"token","type":"address"}],"name":"SafeERC20UniversalFailedOperation","type":"error"},{"inputs":[{"internalType":"address","name":"token","type":"address"},{"internalType":"uint256","name":"expected","type":"uint256"},{"internalType":"uint256","name":"received","type":"uint256"}],"name":"SafeERC20UniversalInsufficientReceived","type":"error"},{"anonymous":false,"inputs":[{"indexed":false,"internalType":"address","name":"token","type":"address"},{"indexed":false,"internalType":"address","name":"spender","type":"address"},{"indexed":false,"internalType":"uint256","name":"amount","type":"uint256"}],"name":"ApprovalCompleted","type":"event"},{"anonymous":false,"inputs":[{"indexed":false,"internalType":"address","name":"token","type":"address"},{"indexed":false,"internalType":"address","name":"to","type":"address"},{"indexed":false,"internalType":"uint256","name":"amount","type":"uint256"}],"name":"TransferCompleted","type":"event"},{"anonymous":false,"inputs":[{"indexed":false,"internalType":"address","name":"token","type":"address"},{"indexed":false,"internalType":"address","name":"from","type":"address"},{"indexed":false,"internalType":"address","name":"to","type":"address"},{"indexed":false,"internalType":"uint256","name":"amount","type":"uint256"}],"name":"TransferFromCompleted","type":"event"},{"inputs":[{"internalType":"contract IERC20","name":"token","type":"address"},{"internalType":"address","name":"spender","type":"address"},{"internalType":"uint256","name":"amount","type":"uint256"}],"name":"testForceApprove","outputs":[],"stateMutability":"nonpayable","type":"function"},{"inputs":[{"internalType":"contract IERC20","name":"token","type":"address"},{"internalType":"address","name":"spender","type":"address"},{"internalType":"uint256","name":"amount","type":"uint256"}],"name":"testSafeApprove","outputs":[],"stateMutability":"nonpayable","type":"function"},{"inputs":[{"internalType":"contract IERC20","name":"token","type":"address"},{"internalType":"address","name":"spender","type":"address"},{"internalType":"uint256","name":"subtractedValue","type":"uint256"}],"name":"testSafeDecreaseAllowance","outputs":[],"stateMutability":"nonpayable","type":"function"},{"inputs":[{"internalType":"contract IERC20","name":"token","type":"address"},{"internalType":"address","name":"spender","type":"address"},{"internalType":"uint256","name":"addedValue","type":"uint256"}],"name":"testSafeIncreaseAllowance","outputs":[],"stateMutability":"nonpayable","type":"function"},{"inputs":[{"internalType":"contract IERC20","name":"token","type":"address"},{"internalType":"address","name":"to","type":"address"},{"internalType":"uint256","name":"amount","type":"uint256"}],"name":"testSafeTransfer","outputs":[],"stateMutability":"nonpayable","type":"function"},{"inputs":[{"internalType":"contract IERC20","name":"token","type":"address"},{"internalType":"address","name":"to","type":"address"},{"internalType":"uint256","name":"amount","type":"uint256"}],"name":"testSafeTransferExact","outputs":[],"stateMutability":"nonpayable","type":"function"},{"inputs":[{"internalType":"contract IERC20","name":"token","type":"address"},{"internalType":"address","name":"from","type":"address"},{"internalType":"address","name":"to","type":"address"},{"internalType":"uint256","name":"amount","type":"uint256"}],"name":"testSafeTransferFrom","outputs":[],"stateMutability":"nonpayable","type":"function"},{"inputs":[{"internalType":"contract IERC20","name":"token","type":"address"},{"internalType":"address","name":"from","type":"address"},{"internalType":"address","name":"to","type":"address"},{"internalType":"uint256","name":"amount","type":"uint256"}],"name":"testSafeTransferFromExact","outputs":[],"stateMutability":"nonpayable","type":"function"},{"inputs":[{"internalType":"contract IERC20","name":"token","type":"address"},{"internalType":"uint256","name":"amount","type":"uint256"}],"name":"testSelfTransfer","outputs":[],"stateMutability":"nonpayable","type":"function"},{"inputs":[{"internalType":"contract IERC20","name":"token","type":"address"},{"internalType":"uint256","name":"amount","type":"uint256"}],"name":"testSelfTransferExact","outputs":[],"stateMutability":"nonpayable","type":"function"},{"inputs":[{"internalType":"contract IERC20","name":"token","type":"address"},{"internalType":"address","name":"account","type":"address"},{"internalType":"uint256","name":"amount","type":"uint256"}],"name":"testSelfTransferFrom","outputs":[],"stateMutability":"nonpayable","type":"function"},{"inputs":[{"internalType":"contract IERC20","name":"token","type":"address"},{"internalType":"address","name":"account","type":"address"},{"internalType":"uint256","name":"amount","type":"uint256"}],"name":"testSelfTransferFromExact","outputs":[],"stateMutability":"nonpayable","type":"function"},{"stateMutability":"payable","type":"receive"}],"devdoc":{"details":"Used for comprehensive testing of the library including edge cases","kind":"dev","methods":{"testForceApprove(address,address,uint256)":{"details":"Test forceApprove function"},"testSafeApprove(address,address,uint256)":{"details":"Test safeApprove function"},"testSafeDecreaseAllowance(address,address,uint256)":{"details":"Test safeDecreaseAllowance function"},"testSafeIncreaseAllowance(address,address,uint256)":{"details":"Test safeIncreaseAllowance function"},"testSafeTransfer(address,address,uint256)":{"details":"Test safeTransfer function"},"testSafeTransferExact(address,address,uint256)":{"details":"Test safeTransferExact function"},"testSafeTransferFrom(address,address,address,uint256)":{"details":"Test safeTransferFrom function"},"testSafeTransferFromExact(address,address,address,uint256)":{"details":"Test safeTransferFromExact function"},"testSelfTransfer(address,uint256)":{"details":"Test self-transfer edge case (transfer to self)"},"testSelfTransferExact(address,uint256)":{"details":"Test safeTransferExact self-transfer (to == address(this))"},"testSelfTransferFrom(address,address,uint256)":{"details":"Test self-transferFrom edge case (from == to)"},"testSelfTransferFromExact(address,address,uint256)":{"details":"Test self-transferFromExact edge case (from == to)"}},"title":"SafeERC20UniversalHarness","version":1},"evm":{"bytecode":{"linkReferences":{},"object":"6080806040523461001657610d09908161001c8239f35b600080fdfe6080604081815260049182361015610022575b505050361561002057600080fd5b005b600092833560e01c918263060a0bbb146104ff5750816308315314146104cd578163269016e2146103a25781636729ff111461036e57816375231e611461033b578163771f9559146103085781639ce0ba011461022157508063b6b821ee146101f0578063eb05d7b4146101b5578063eb30046414610165578063f4cac4fe146101035763f705d961146100b65780610012565b346100ff576100f9600080516020610c94833981519152916100d7366106bc565b909391926100e6828686610ba4565b519384936001600160a01b03168461074e565b0390a180f35b5080fd5b50346100ff576100f9600080516020610c7483398151915291610125366106bc565b9082936101368383808099976109d7565b516001600160a01b03948516815294841660208601529092166040840152606083019190915281906080820190565b50346100ff57806003193601126100ff57600080516020610c948339815191529061018e610698565b6100f9602435926101a0843085610b12565b5192839230906001600160a01b03168461074e565b50346100ff57806003193601126100ff57600080516020610c94833981519152906101de610698565b6100f9602435926101a0843085610ba4565b50346100ff576100f9600080516020610c9483398151915291610212366106bc565b909391926100e6828686610b12565b8383346100ff57610231366106bc565b8351636eb1769f60e11b8152308782019081526001600160a01b038085166020838101919091529496908616959394909391839081906040010381885afa9182156102fe5787926102c6575b508382018092116102b357916102a986959492600080516020610cb4833981519152976100f9956107e8565b519384938461074e565b634e487b7160e01b875260118852602487fd5b9091506020813d6020116102f6575b816102e260209383610770565b810103126102f25751908861027d565b8680fd5b3d91506102d5565b83513d89823e3d90fd5b5050346100ff576100f9600080516020610c748339815191529161032b366106fd565b9194929361013683838888610850565b5050346100ff576100f9600080516020610c748339815191529161035e366106fd565b91949293610136838388886109d7565b5050346100ff576100f9600080516020610c7483398151915291610391366106bc565b908293610136838380809997610850565b839150346100ff576103b3366106bc565b8551636eb1769f60e11b8152308186019081526001600160a01b0380851660208381019190915294969086169593949091839081906040010381885afa9182156104c357879261048f575b508382106104315750956102a983928661042b6100f996600080516020610cb48339815191529a9b61082d565b916107e8565b608490602089519162461bcd60e51b8352820152603260248201527f536166654552433230556e6976657273616c3a2064656372656173656420616c6044820152716c6f77616e63652062656c6f77207a65726f60701b6064820152fd5b9091506020813d6020116104bb575b816104ab60209383610770565b810103126102f2575190886103fe565b3d915061049e565b88513d89823e3d90fd5b5050346100ff576100f9600080516020610cb4833981519152916104f0366106bc565b909391926100e68286866107e8565b8490843461069457610510366106bc565b63095ea7b360e01b602086018181526001600160a01b0384811660248901526044808901859052885293968585169693959394601f19949290918a918291610559606482610770565b5190828b5af16105676107a8565b9015908115610657575b50610598575b88600080516020610cb483398151915289896100f98a8a519384938461074e565b84519083602083015288166024820152886044820152604481526080810181811067ffffffffffffffff82111761064457600080516020610cb4833981519152999a5085949392916105f0916100f998975282610c30565b84610602575b89985083949550610577565b835160208101929092526001600160a01b0388166024830152604482018590526064928301825261063c926106379083610770565b610c30565b8780806105f6565b634e487b7160e01b8a5260418b5260248afd5b805180151592508261066c575b50508b610571565b81925090602091810103126106905760200151801590811503610690578b80610664565b8980fd5b8280fd5b6004356001600160a81b03811681036106b7576001600160a01b031690565b600080fd5b60609060031901126106b7576001600160a81b039060043582811681036106b7576001600160a01b039081169260243590811681036106b757169060443590565b60809060031901126106b757600435906001600160a81b039081831683036106b7576001600160a01b039283169260243583811681036106b75781169260443590811681036106b757169060643590565b6001600160a01b03918216815291166020820152604081019190915260600190565b90601f8019910116810190811067ffffffffffffffff82111761079257604052565b634e487b7160e01b600052604160045260246000fd5b3d156107e3573d9067ffffffffffffffff821161079257604051916107d7601f8201601f191660200184610770565b82523d6000602084013e565b606090565b60405163095ea7b360e01b60208201526001600160a01b039092166024830152604482019290925261082b9161063782606481015b03601f198101845283610770565b565b9190820391821161083a57565b634e487b7160e01b600052601160045260246000fd5b91909183156109d1576040918251906020906323b872dd60e01b8284015261088f8361088189848a6024850161074e565b03601f198101855284610770565b6001600160a01b0390811695811686146109c1578316948451926370a0823160e01b9485855282600486015283856024818b5afa9485156109b657600095610983575b50906108dd91610c30565b845193845260048401528083602481885afa90811561097857600091610948575b50610909925061082d565b908382036109175750505050565b516360a9c06560e11b81526001600160a01b0392909216600483015260248201929092526044810191909152606490fd5b905082813d8311610971575b61095e8183610770565b810103126106b7576109099151386108fe565b503d610954565b84513d6000823e3d90fd5b919094508382813d83116109af575b61099c8183610770565b810103126106b7579051936108dd6108d2565b503d610992565b87513d6000823e3d90fd5b50509250905061082b9250610c30565b50505050565b90929182156109d157604092835191610a07836108816020946323b872dd60e01b86840152848a6024850161074e565b6001600160a01b039081169581168614610b04578316948451926370a0823160e01b9485855282600486015283856024818b5afa9485156109b657600095610ad1575b5090610a5591610c30565b845193845260048401528083602481885afa90811561097857600091610aa1575b50610a81925061082d565b15610a8a575050565b602492505190631321be3f60e21b82526004820152fd5b905082813d8311610aca575b610ab78183610770565b810103126106b757610a81915138610a76565b503d610aad565b919094508382813d8311610afd575b610aea8183610770565b810103126106b757905193610a55610a4a565b503d610ae0565b5050915061082b9250610c30565b8215610b9f576040805163a9059cbb60e01b6020808301919091526001600160a01b038516602483015260448201869052919291610b53826064810161081d565b6001600160a01b03948516943086146109c1578316948451926370a0823160e01b9485855282600486015283856024818b5afa9485156109b6576000956109835750906108dd91610c30565b505050565b9190918115610b9f576040805163a9059cbb60e01b6020808301919091526001600160a01b038616602483015260448201949094529092610be8826064810161081d565b6001600160a01b0394851694308614610b04578316948451926370a0823160e01b9485855282600486015283856024818b5afa9485156109b657600095610ad1575090610a55915b81516001600160a01b0390911691600091829160200182855af1610c526107a8565b5015610c5b5750565b60249060405190631321be3f60e21b82526004820152fdfe3b08826e54bbc0c367efe1f423c2c31d695c94c94def34042b31f265d482ffcb0300ac1392a8a3b96b8b9c8eb7bf6ad973c028c4cea499a0936076cbdbe87ecfe981a08dd3c1cdf62f187c2181f3209ec4141d36faa1283ffefcd51cddc64edfa26474726f6e5822122063e14544cc574dac8d3866edeb51a6fca252bfe12f88daa083d2919d2041ebff64736f6c63430008180033","opcodes":"PUSH1 0x80 DUP1 PUSH1 0x40 MSTORE CALLVALUE PUSH2 0x16 JUMPI PUSH2 0xD09 SWAP1 DUP2 PUSH2 0x1C DUP3 CODECOPY RETURN JUMPDEST PUSH1 0x0 DUP1 REVERT INVALID PUSH1 0x80 PUSH1 0x40 DUP2 DUP2 MSTORE PUSH1 0x4 SWAP2 DUP3 CALLDATASIZE LT ISZERO PUSH2 0x22 JUMPI JUMPDEST POP POP POP CALLDATASIZE ISZERO PUSH2 0x20 JUMPI PUSH1 0x0 DUP1 REVERT JUMPDEST STOP JUMPDEST PUSH1 0x0 SWAP3 DUP4 CALLDATALOAD PUSH1 0xE0 SHR SWAP2 DUP3 PUSH4 0x60A0BBB EQ PUSH2 0x4FF JUMPI POP DUP2 PUSH4 0x8315314 EQ PUSH2 0x4CD JUMPI DUP2 PUSH4 0x269016E2 EQ PUSH2 0x3A2 JUMPI DUP2 PUSH4 0x6729FF11 EQ PUSH2 0x36E JUMPI DUP2 PUSH4 0x75231E61 EQ PUSH2 0x33B JUMPI DUP2 PUSH4 0x771F9559 EQ PUSH2 0x308 JUMPI DUP2 PUSH4 0x9CE0BA01 EQ PUSH2 0x221 JUMPI POP DUP1 PUSH4 0xB6B821EE EQ PUSH2 0x1F0 JUMPI DUP1 PUSH4 0xEB05D7B4 EQ PUSH2 0x1B5 JUMPI DUP1 PUSH4 0xEB300464 EQ PUSH2 0x165 JUMPI DUP1 PUSH4 0xF4CAC4FE EQ PUSH2 0x103 JUMPI PUSH4 0xF705D961 EQ PUSH2 0xB6 JUMPI DUP1 PUSH2 0x12 JUMP JUMPDEST CALLVALUE PUSH2 0xFF JUMPI PUSH2 0xF9 PUSH1 0x0 DUP1 MLOAD PUSH1 0x20 PUSH2 0xC94 DUP4 CODECOPY DUP2 MLOAD SWAP2 MSTORE SWAP2 PUSH2 0xD7 CALLDATASIZE PUSH2 0x6BC JUMP JUMPDEST SWAP1 SWAP4 SWAP2 SWAP3 PUSH2 0xE6 DUP3 DUP7 DUP7 PUSH2 0xBA4 JUMP JUMPDEST MLOAD SWAP4 DUP5 SWAP4 PUSH1 0x1 PUSH1 0x1 PUSH1 0xA0 SHL SUB AND DUP5 PUSH2 0x74E JUMP JUMPDEST SUB SWAP1 LOG1 DUP1 RETURN JUMPDEST POP DUP1 REVERT JUMPDEST POP CALLVALUE PUSH2 0xFF JUMPI PUSH2 0xF9 PUSH1 0x0 DUP1 MLOAD PUSH1 0x20 PUSH2 0xC74 DUP4 CODECOPY DUP2 MLOAD SWAP2 MSTORE SWAP2 PUSH2 0x125 CALLDATASIZE PUSH2 0x6BC JUMP JUMPDEST SWAP1 DUP3 SWAP4 PUSH2 0x136 DUP4 DUP4 DUP1 DUP1 SWAP10 SWAP8 PUSH2 0x9D7 JUMP JUMPDEST MLOAD PUSH1 0x1 PUSH1 0x1 PUSH1 0xA0 SHL SUB SWAP5 DUP6 AND DUP2 MSTORE SWAP5 DUP5 AND PUSH1 0x20 DUP7 ADD MSTORE SWAP1 SWAP3 AND PUSH1 0x40 DUP5 ADD MSTORE PUSH1 0x60 DUP4 ADD SWAP2 SWAP1 SWAP2 MSTORE DUP2 SWAP1 PUSH1 0x80 DUP3 ADD SWAP1 JUMP JUMPDEST POP CALLVALUE PUSH2 0xFF JUMPI DUP1 PUSH1 0x3 NOT CALLDATASIZE ADD SLT PUSH2 0xFF JUMPI PUSH1 0x0 DUP1 MLOAD PUSH1 0x20 PUSH2 0xC94 DUP4 CODECOPY DUP2 MLOAD SWAP2 MSTORE SWAP1 PUSH2 0x18E PUSH2 0x698 JUMP JUMPDEST PUSH2 0xF9 PUSH1 0x24 CALLDATALOAD SWAP3 PUSH2 0x1A0 DUP5 ADDRESS DUP6 PUSH2 0xB12 JUMP JUMPDEST MLOAD SWAP3 DUP4 SWAP3 ADDRESS SWAP1 PUSH1 0x1 PUSH1 0x1 PUSH1 0xA0 SHL SUB AND DUP5 PUSH2 0x74E JUMP JUMPDEST POP CALLVALUE PUSH2 0xFF JUMPI DUP1 PUSH1 0x3 NOT CALLDATASIZE ADD SLT PUSH2 0xFF JUMPI PUSH1 0x0 DUP1 MLOAD PUSH1 0x20 PUSH2 0xC94 DUP4 CODECOPY DUP2 MLOAD SWAP2 MSTORE SWAP1 PUSH2 0x1DE PUSH2 0x698 JUMP JUMPDEST PUSH2 0xF9 PUSH1 0x24 CALLDATALOAD SWAP3 PUSH2 0x1A0 DUP5 ADDRESS DUP6 PUSH2 0xBA4 JUMP JUMPDEST POP CALLVALUE PUSH2 0xFF JUMPI PUSH2 0xF9 PUSH1 0x0 DUP1 MLOAD PUSH1 0x20 PUSH2 0xC94 DUP4 CODECOPY DUP2 MLOAD SWAP2 MSTORE SWAP2 PUSH2 0x212 CALLDATASIZE PUSH2 0x6BC JUMP JUMPDEST SWAP1 SWAP4 SWAP2 SWAP3 PUSH2 0xE6 DUP3 DUP7 DUP7 PUSH2 0xB12 JUMP JUMPDEST DUP4 DUP4 CALLVALUE PUSH2 0xFF JUMPI PUSH2 0x231 CALLDATASIZE PUSH2 0x6BC JUMP JUMPDEST DUP4 MLOAD PUSH4 0x6EB1769F PUSH1 0xE1 SHL DUP2 MSTORE ADDRESS DUP8 DUP3 ADD SWAP1 DUP2 MSTORE PUSH1 0x1 PUSH1 0x1 PUSH1 0xA0 SHL SUB DUP1 DUP6 AND PUSH1 0x20 DUP4 DUP2 ADD SWAP2 SWAP1 SWAP2 MSTORE SWAP5 SWAP7 SWAP1 DUP7 AND SWAP6 SWAP4 SWAP5 SWAP1 SWAP4 SWAP2 DUP4 SWAP1 DUP2 SWAP1 PUSH1 0x40 ADD SUB DUP2 DUP9 GAS STATICCALL SWAP2 DUP3 ISZERO PUSH2 0x2FE JUMPI DUP8 SWAP3 PUSH2 0x2C6 JUMPI JUMPDEST POP DUP4 DUP3 ADD DUP1 SWAP3 GT PUSH2 0x2B3 JUMPI SWAP2 PUSH2 0x2A9 DUP7 SWAP6 SWAP5 SWAP3 PUSH1 0x0 DUP1 MLOAD PUSH1 0x20 PUSH2 0xCB4 DUP4 CODECOPY DUP2 MLOAD SWAP2 MSTORE SWAP8 PUSH2 0xF9 SWAP6 PUSH2 0x7E8 JUMP JUMPDEST MLOAD SWAP4 DUP5 SWAP4 DUP5 PUSH2 0x74E JUMP JUMPDEST PUSH4 0x4E487B71 PUSH1 0xE0 SHL DUP8 MSTORE PUSH1 0x11 DUP9 MSTORE PUSH1 0x24 DUP8 REVERT JUMPDEST SWAP1 SWAP2 POP PUSH1 0x20 DUP2 RETURNDATASIZE PUSH1 0x20 GT PUSH2 0x2F6 JUMPI JUMPDEST DUP2 PUSH2 0x2E2 PUSH1 0x20 SWAP4 DUP4 PUSH2 0x770 JUMP JUMPDEST DUP2 ADD SUB SLT PUSH2 0x2F2 JUMPI MLOAD SWAP1 DUP9 PUSH2 0x27D JUMP JUMPDEST DUP7 DUP1 REVERT JUMPDEST RETURNDATASIZE SWAP2 POP PUSH2 0x2D5 JUMP JUMPDEST DUP4 MLOAD RETURNDATASIZE DUP10 DUP3 RETURNDATACOPY RETURNDATASIZE SWAP1 REVERT JUMPDEST POP POP CALLVALUE PUSH2 0xFF JUMPI PUSH2 0xF9 PUSH1 0x0 DUP1 MLOAD PUSH1 0x20 PUSH2 0xC74 DUP4 CODECOPY DUP2 MLOAD SWAP2 MSTORE SWAP2 PUSH2 0x32B CALLDATASIZE PUSH2 0x6FD JUMP JUMPDEST SWAP2 SWAP5 SWAP3 SWAP4 PUSH2 0x136 DUP4 DUP4 DUP9 DUP9 PUSH2 0x850 JUMP JUMPDEST POP POP CALLVALUE PUSH2 0xFF JUMPI PUSH2 0xF9 PUSH1 0x0 DUP1 MLOAD PUSH1 0x20 PUSH2 0xC74 DUP4 CODECOPY DUP2 MLOAD SWAP2 MSTORE SWAP2 PUSH2 0x35E CALLDATASIZE PUSH2 0x6FD JUMP JUMPDEST SWAP2 SWAP5 SWAP3 SWAP4 PUSH2 0x136 DUP4 DUP4 DUP9 DUP9 PUSH2 0x9D7 JUMP JUMPDEST POP POP CALLVALUE PUSH2 0xFF JUMPI PUSH2 0xF9 PUSH1 0x0 DUP1 MLOAD PUSH1 0x20 PUSH2 0xC74 DUP4 CODECOPY DUP2 MLOAD SWAP2 MSTORE SWAP2 PUSH2 0x391 CALLDATASIZE PUSH2 0x6BC JUMP JUMPDEST SWAP1 DUP3 SWAP4 PUSH2 0x136 DUP4 DUP4 DUP1 DUP1 SWAP10 SWAP8 PUSH2 0x850 JUMP JUMPDEST DUP4 SWAP2 POP CALLVALUE PUSH2 0xFF JUMPI PUSH2 0x3B3 CALLDATASIZE PUSH2 0x6BC JUMP JUMPDEST DUP6 MLOAD PUSH4 0x6EB1769F PUSH1 0xE1 SHL DUP2 MSTORE ADDRESS DUP2 DUP7 ADD SWAP1 DUP2 MSTORE PUSH1 0x1 PUSH1 0x1 PUSH1 0xA0 SHL SUB DUP1 DUP6 AND PUSH1 0x20 DUP4 DUP2 ADD SWAP2 SWAP1 SWAP2 MSTORE SWAP5 SWAP7 SWAP1 DUP7 AND SWAP6 SWAP4 SWAP5 SWAP1 SWAP2 DUP4 SWAP1 DUP2 SWAP1 PUSH1 0x40 ADD SUB DUP2 DUP9 GAS STATICCALL SWAP2 DUP3 ISZERO PUSH2 0x4C3 JUMPI DUP8 SWAP3 PUSH2 0x48F JUMPI JUMPDEST POP DUP4 DUP3 LT PUSH2 0x431 JUMPI POP SWAP6 PUSH2 0x2A9 DUP4 SWAP3 DUP7 PUSH2 0x42B PUSH2 0xF9 SWAP7 PUSH1 0x0 DUP1 MLOAD PUSH1 0x20 PUSH2 0xCB4 DUP4 CODECOPY DUP2 MLOAD SWAP2 MSTORE SWAP11 SWAP12 PUSH2 0x82D JUMP JUMPDEST SWAP2 PUSH2 0x7E8 JUMP JUMPDEST PUSH1 0x84 SWAP1 PUSH1 0x20 DUP10 MLOAD SWAP2 PUSH3 0x461BCD PUSH1 0xE5 SHL DUP4 MSTORE DUP3 ADD MSTORE PUSH1 0x32 PUSH1 0x24 DUP3 ADD MSTORE PUSH32 0x536166654552433230556E6976657273616C3A2064656372656173656420616C PUSH1 0x44 DUP3 ADD MSTORE PUSH18 0x6C6F77616E63652062656C6F77207A65726F PUSH1 0x70 SHL PUSH1 0x64 DUP3 ADD MSTORE REVERT JUMPDEST SWAP1 SWAP2 POP PUSH1 0x20 DUP2 RETURNDATASIZE PUSH1 0x20 GT PUSH2 0x4BB JUMPI JUMPDEST DUP2 PUSH2 0x4AB PUSH1 0x20 SWAP4 DUP4 PUSH2 0x770 JUMP JUMPDEST DUP2 ADD SUB SLT PUSH2 0x2F2 JUMPI MLOAD SWAP1 DUP9 PUSH2 0x3FE JUMP JUMPDEST RETURNDATASIZE SWAP2 POP PUSH2 0x49E JUMP JUMPDEST DUP9 MLOAD RETURNDATASIZE DUP10 DUP3 RETURNDATACOPY RETURNDATASIZE SWAP1 REVERT JUMPDEST POP POP CALLVALUE PUSH2 0xFF JUMPI PUSH2 0xF9 PUSH1 0x0 DUP1 MLOAD PUSH1 0x20 PUSH2 0xCB4 DUP4 CODECOPY DUP2 MLOAD SWAP2 MSTORE SWAP2 PUSH2 0x4F0 CALLDATASIZE PUSH2 0x6BC JUMP JUMPDEST SWAP1 SWAP4 SWAP2 SWAP3 PUSH2 0xE6 DUP3 DUP7 DUP7 PUSH2 0x7E8 JUMP JUMPDEST DUP5 SWAP1 DUP5 CALLVALUE PUSH2 0x694 JUMPI PUSH2 0x510 CALLDATASIZE PUSH2 0x6BC JUMP JUMPDEST PUSH4 0x95EA7B3 PUSH1 0xE0 SHL PUSH1 0x20 DUP7 ADD DUP2 DUP2 MSTORE PUSH1 0x1 PUSH1 0x1 PUSH1 0xA0 SHL SUB DUP5 DUP2 AND PUSH1 0x24 DUP10 ADD MSTORE PUSH1 0x44 DUP1 DUP10 ADD DUP6 SWAP1 MSTORE DUP9 MSTORE SWAP4 SWAP7 DUP6 DUP6 AND SWAP7 SWAP4 SWAP6 SWAP4 SWAP5 PUSH1 0x1F NOT SWAP5 SWAP3 SWAP1 SWAP2 DUP11 SWAP2 DUP3 SWAP2 PUSH2 0x559 PUSH1 0x64 DUP3 PUSH2 0x770 JUMP JUMPDEST MLOAD SWAP1 DUP3 DUP12 GAS CALL PUSH2 0x567 PUSH2 0x7A8 JUMP JUMPDEST SWAP1 ISZERO SWAP1 DUP2 ISZERO PUSH2 0x657 JUMPI JUMPDEST POP PUSH2 0x598 JUMPI JUMPDEST DUP9 PUSH1 0x0 DUP1 MLOAD PUSH1 0x20 PUSH2 0xCB4 DUP4 CODECOPY DUP2 MLOAD SWAP2 MSTORE DUP10 DUP10 PUSH2 0xF9 DUP11 DUP11 MLOAD SWAP4 DUP5 SWAP4 DUP5 PUSH2 0x74E JUMP JUMPDEST DUP5 MLOAD SWAP1 DUP4 PUSH1 0x20 DUP4 ADD MSTORE DUP9 AND PUSH1 0x24 DUP3 ADD MSTORE DUP9 PUSH1 0x44 DUP3 ADD MSTORE PUSH1 0x44 DUP2 MSTORE PUSH1 0x80 DUP2 ADD DUP2 DUP2 LT PUSH8 0xFFFFFFFFFFFFFFFF DUP3 GT OR PUSH2 0x644 JUMPI PUSH1 0x0 DUP1 MLOAD PUSH1 0x20 PUSH2 0xCB4 DUP4 CODECOPY DUP2 MLOAD SWAP2 MSTORE SWAP10 SWAP11 POP DUP6 SWAP5 SWAP4 SWAP3 SWAP2 PUSH2 0x5F0 SWAP2 PUSH2 0xF9 SWAP9 SWAP8 MSTORE DUP3 PUSH2 0xC30 JUMP JUMPDEST DUP5 PUSH2 0x602 JUMPI JUMPDEST DUP10 SWAP9 POP DUP4 SWAP5 SWAP6 POP PUSH2 0x577 JUMP JUMPDEST DUP4 MLOAD PUSH1 0x20 DUP2 ADD SWAP3 SWAP1 SWAP3 MSTORE PUSH1 0x1 PUSH1 0x1 PUSH1 0xA0 SHL SUB DUP9 AND PUSH1 0x24 DUP4 ADD MSTORE PUSH1 0x44 DUP3 ADD DUP6 SWAP1 MSTORE PUSH1 0x64 SWAP3 DUP4 ADD DUP3 MSTORE PUSH2 0x63C SWAP3 PUSH2 0x637 SWAP1 DUP4 PUSH2 0x770 JUMP JUMPDEST PUSH2 0xC30 JUMP JUMPDEST DUP8 DUP1 DUP1 PUSH2 0x5F6 JUMP JUMPDEST PUSH4 0x4E487B71 PUSH1 0xE0 SHL DUP11 MSTORE PUSH1 0x41 DUP12 MSTORE PUSH1 0x24 DUP11 REVERT JUMPDEST DUP1 MLOAD DUP1 ISZERO ISZERO SWAP3 POP DUP3 PUSH2 0x66C JUMPI JUMPDEST POP POP DUP12 PUSH2 0x571 JUMP JUMPDEST DUP2 SWAP3 POP SWAP1 PUSH1 0x20 SWAP2 DUP2 ADD SUB SLT PUSH2 0x690 JUMPI PUSH1 0x20 ADD MLOAD DUP1 ISZERO SWAP1 DUP2 ISZERO SUB PUSH2 0x690 JUMPI DUP12 DUP1 PUSH2 0x664 JUMP JUMPDEST DUP10 DUP1 REVERT JUMPDEST DUP3 DUP1 REVERT JUMPDEST PUSH1 0x4 CALLDATALOAD PUSH1 0x1 PUSH1 0x1 PUSH1 0xA8 SHL SUB DUP2 AND DUP2 SUB PUSH2 0x6B7 JUMPI PUSH1 0x1 PUSH1 0x1 PUSH1 0xA0 SHL SUB AND SWAP1 JUMP JUMPDEST PUSH1 0x0 DUP1 REVERT JUMPDEST PUSH1 0x60 SWAP1 PUSH1 0x3 NOT ADD SLT PUSH2 0x6B7 JUMPI PUSH1 0x1 PUSH1 0x1 PUSH1 0xA8 SHL SUB SWAP1 PUSH1 0x4 CALLDATALOAD DUP3 DUP2 AND DUP2 SUB PUSH2 0x6B7 JUMPI PUSH1 0x1 PUSH1 0x1 PUSH1 0xA0 SHL SUB SWAP1 DUP2 AND SWAP3 PUSH1 0x24 CALLDATALOAD SWAP1 DUP2 AND DUP2 SUB PUSH2 0x6B7 JUMPI AND SWAP1 PUSH1 0x44 CALLDATALOAD SWAP1 JUMP JUMPDEST PUSH1 0x80 SWAP1 PUSH1 0x3 NOT ADD SLT PUSH2 0x6B7 JUMPI PUSH1 0x4 CALLDATALOAD SWAP1 PUSH1 0x1 PUSH1 0x1 PUSH1 0xA8 SHL SUB SWAP1 DUP2 DUP4 AND DUP4 SUB PUSH2 0x6B7 JUMPI PUSH1 0x1 PUSH1 0x1 PUSH1 0xA0 SHL SUB SWAP3 DUP4 AND SWAP3 PUSH1 0x24 CALLDATALOAD DUP4 DUP2 AND DUP2 SUB PUSH2 0x6B7 JUMPI DUP2 AND SWAP3 PUSH1 0x44 CALLDATALOAD SWAP1 DUP2 AND DUP2 SUB PUSH2 0x6B7 JUMPI AND SWAP1 PUSH1 0x64 CALLDATALOAD SWAP1 JUMP JUMPDEST PUSH1 0x1 PUSH1 0x1 PUSH1 0xA0 SHL SUB SWAP2 DUP3 AND DUP2 MSTORE SWAP2 AND PUSH1 0x20 DUP3 ADD MSTORE PUSH1 0x40 DUP2 ADD SWAP2 SWAP1 SWAP2 MSTORE PUSH1 0x60 ADD SWAP1 JUMP JUMPDEST SWAP1 PUSH1 0x1F DUP1 NOT SWAP2 ADD AND DUP2 ADD SWAP1 DUP2 LT PUSH8 0xFFFFFFFFFFFFFFFF DUP3 GT OR PUSH2 0x792 JUMPI PUSH1 0x40 MSTORE JUMP JUMPDEST PUSH4 0x4E487B71 PUSH1 0xE0 SHL PUSH1 0x0 MSTORE PUSH1 0x41 PUSH1 0x4 MSTORE PUSH1 0x24 PUSH1 0x0 REVERT JUMPDEST RETURNDATASIZE ISZERO PUSH2 0x7E3 JUMPI RETURNDATASIZE SWAP1 PUSH8 0xFFFFFFFFFFFFFFFF DUP3 GT PUSH2 0x792 JUMPI PUSH1 0x40 MLOAD SWAP2 PUSH2 0x7D7 PUSH1 0x1F DUP3 ADD PUSH1 0x1F NOT AND PUSH1 0x20 ADD DUP5 PUSH2 0x770 JUMP JUMPDEST DUP3 MSTORE RETURNDATASIZE PUSH1 0x0 PUSH1 0x20 DUP5 ADD RETURNDATACOPY JUMP JUMPDEST PUSH1 0x60 SWAP1 JUMP JUMPDEST PUSH1 0x40 MLOAD PUSH4 0x95EA7B3 PUSH1 0xE0 SHL PUSH1 0x20 DUP3 ADD MSTORE PUSH1 0x1 PUSH1 0x1 PUSH1 0xA0 SHL SUB SWAP1 SWAP3 AND PUSH1 0x24 DUP4 ADD MSTORE PUSH1 0x44 DUP3 ADD SWAP3 SWAP1 SWAP3 MSTORE PUSH2 0x82B SWAP2 PUSH2 0x637 DUP3 PUSH1 0x64 DUP2 ADD JUMPDEST SUB PUSH1 0x1F NOT DUP2 ADD DUP5 MSTORE DUP4 PUSH2 0x770 JUMP JUMPDEST JUMP JUMPDEST SWAP2 SWAP1 DUP3 SUB SWAP2 DUP3 GT PUSH2 0x83A JUMPI JUMP JUMPDEST PUSH4 0x4E487B71 PUSH1 0xE0 SHL PUSH1 0x0 MSTORE PUSH1 0x11 PUSH1 0x4 MSTORE PUSH1 0x24 PUSH1 0x0 REVERT JUMPDEST SWAP2 SWAP1 SWAP2 DUP4 ISZERO PUSH2 0x9D1 JUMPI PUSH1 0x40 SWAP2 DUP3 MLOAD SWAP1 PUSH1 0x20 SWAP1 PUSH4 0x23B872DD PUSH1 0xE0 SHL DUP3 DUP5 ADD MSTORE PUSH2 0x88F DUP4 PUSH2 0x881 DUP10 DUP5 DUP11 PUSH1 0x24 DUP6 ADD PUSH2 0x74E JUMP JUMPDEST SUB PUSH1 0x1F NOT DUP2 ADD DUP6 MSTORE DUP5 PUSH2 0x770 JUMP JUMPDEST PUSH1 0x1 PUSH1 0x1 PUSH1 0xA0 SHL SUB SWAP1 DUP2 AND SWAP6 DUP2 AND DUP7 EQ PUSH2 0x9C1 JUMPI DUP4 AND SWAP5 DUP5 MLOAD SWAP3 PUSH4 0x70A08231 PUSH1 0xE0 SHL SWAP5 DUP6 DUP6 MSTORE DUP3 PUSH1 0x4 DUP7 ADD MSTORE DUP4 DUP6 PUSH1 0x24 DUP2 DUP12 GAS STATICCALL SWAP5 DUP6 ISZERO PUSH2 0x9B6 JUMPI PUSH1 0x0 SWAP6 PUSH2 0x983 JUMPI JUMPDEST POP SWAP1 PUSH2 0x8DD SWAP2 PUSH2 0xC30 JUMP JUMPDEST DUP5 MLOAD SWAP4 DUP5 MSTORE PUSH1 0x4 DUP5 ADD MSTORE DUP1 DUP4 PUSH1 0x24 DUP2 DUP9 GAS STATICCALL SWAP1 DUP2 ISZERO PUSH2 0x978 JUMPI PUSH1 0x0 SWAP2 PUSH2 0x948 JUMPI JUMPDEST POP PUSH2 0x909 SWAP3 POP PUSH2 0x82D JUMP JUMPDEST SWAP1 DUP4 DUP3 SUB PUSH2 0x917 JUMPI POP POP POP POP JUMP JUMPDEST MLOAD PUSH4 0x60A9C065 PUSH1 0xE1 SHL DUP2 MSTORE PUSH1 0x1 PUSH1 0x1 PUSH1 0xA0 SHL SUB SWAP3 SWAP1 SWAP3 AND PUSH1 0x4 DUP4 ADD MSTORE PUSH1 0x24 DUP3 ADD SWAP3 SWAP1 SWAP3 MSTORE PUSH1 0x44 DUP2 ADD SWAP2 SWAP1 SWAP2 MSTORE PUSH1 0x64 SWAP1 REVERT JUMPDEST SWAP1 POP DUP3 DUP2 RETURNDATASIZE DUP4 GT PUSH2 0x971 JUMPI JUMPDEST PUSH2 0x95E DUP2 DUP4 PUSH2 0x770 JUMP JUMPDEST DUP2 ADD SUB SLT PUSH2 0x6B7 JUMPI PUSH2 0x909 SWAP2 MLOAD CODESIZE PUSH2 0x8FE JUMP JUMPDEST POP RETURNDATASIZE PUSH2 0x954 JUMP JUMPDEST DUP5 MLOAD RETURNDATASIZE PUSH1 0x0 DUP3 RETURNDATACOPY RETURNDATASIZE SWAP1 REVERT JUMPDEST SWAP2 SWAP1 SWAP5 POP DUP4 DUP3 DUP2 RETURNDATASIZE DUP4 GT PUSH2 0x9AF JUMPI JUMPDEST PUSH2 0x99C DUP2 DUP4 PUSH2 0x770 JUMP JUMPDEST DUP2 ADD SUB SLT PUSH2 0x6B7 JUMPI SWAP1 MLOAD SWAP4 PUSH2 0x8DD PUSH2 0x8D2 JUMP JUMPDEST POP RETURNDATASIZE PUSH2 0x992 JUMP JUMPDEST DUP8 MLOAD RETURNDATASIZE PUSH1 0x0 DUP3 RETURNDATACOPY RETURNDATASIZE SWAP1 REVERT JUMPDEST POP POP SWAP3 POP SWAP1 POP PUSH2 0x82B SWAP3 POP PUSH2 0xC30 JUMP JUMPDEST POP POP POP POP JUMP JUMPDEST SWAP1 SWAP3 SWAP2 DUP3 ISZERO PUSH2 0x9D1 JUMPI PUSH1 0x40 SWAP3 DUP4 MLOAD SWAP2 PUSH2 0xA07 DUP4 PUSH2 0x881 PUSH1 0x20 SWAP5 PUSH4 0x23B872DD PUSH1 0xE0 SHL DUP7 DUP5 ADD MSTORE DUP5 DUP11 PUSH1 0x24 DUP6 ADD PUSH2 0x74E JUMP JUMPDEST PUSH1 0x1 PUSH1 0x1 PUSH1 0xA0 SHL SUB SWAP1 DUP2 AND SWAP6 DUP2 AND DUP7 EQ PUSH2 0xB04 JUMPI DUP4 AND SWAP5 DUP5 MLOAD SWAP3 PUSH4 0x70A08231 PUSH1 0xE0 SHL SWAP5 DUP6 DUP6 MSTORE DUP3 PUSH1 0x4 DUP7 ADD MSTORE DUP4 DUP6 PUSH1 0x24 DUP2 DUP12 GAS STATICCALL SWAP5 DUP6 ISZERO PUSH2 0x9B6 JUMPI PUSH1 0x0 SWAP6 PUSH2 0xAD1 JUMPI JUMPDEST POP SWAP1 PUSH2 0xA55 SWAP2 PUSH2 0xC30 JUMP JUMPDEST DUP5 MLOAD SWAP4 DUP5 MSTORE PUSH1 0x4 DUP5 ADD MSTORE DUP1 DUP4 PUSH1 0x24 DUP2 DUP9 GAS STATICCALL SWAP1 DUP2 ISZERO PUSH2 0x978 JUMPI PUSH1 0x0 SWAP2 PUSH2 0xAA1 JUMPI JUMPDEST POP PUSH2 0xA81 SWAP3 POP PUSH2 0x82D JUMP JUMPDEST ISZERO PUSH2 0xA8A JUMPI POP POP JUMP JUMPDEST PUSH1 0x24 SWAP3 POP MLOAD SWAP1 PUSH4 0x1321BE3F PUSH1 0xE2 SHL DUP3 MSTORE PUSH1 0x4 DUP3 ADD MSTORE REVERT JUMPDEST SWAP1 POP DUP3 DUP2 RETURNDATASIZE DUP4 GT PUSH2 0xACA JUMPI JUMPDEST PUSH2 0xAB7 DUP2 DUP4 PUSH2 0x770 JUMP JUMPDEST DUP2 ADD SUB SLT PUSH2 0x6B7 JUMPI PUSH2 0xA81 SWAP2 MLOAD CODESIZE PUSH2 0xA76 JUMP JUMPDEST POP RETURNDATASIZE PUSH2 0xAAD JUMP JUMPDEST SWAP2 SWAP1 SWAP5 POP DUP4 DUP3 DUP2 RETURNDATASIZE DUP4 GT PUSH2 0xAFD JUMPI JUMPDEST PUSH2 0xAEA DUP2 DUP4 PUSH2 0x770 JUMP JUMPDEST DUP2 ADD SUB SLT PUSH2 0x6B7 JUMPI SWAP1 MLOAD SWAP4 PUSH2 0xA55 PUSH2 0xA4A JUMP JUMPDEST POP RETURNDATASIZE PUSH2 0xAE0 JUMP JUMPDEST POP POP SWAP2 POP PUSH2 0x82B SWAP3 POP PUSH2 0xC30 JUMP JUMPDEST DUP3 ISZERO PUSH2 0xB9F JUMPI PUSH1 0x40 DUP1 MLOAD PUSH4 0xA9059CBB PUSH1 0xE0 SHL PUSH1 0x20 DUP1 DUP4 ADD SWAP2 SWAP1 SWAP2 MSTORE PUSH1 0x1 PUSH1 0x1 PUSH1 0xA0 SHL SUB DUP6 AND PUSH1 0x24 DUP4 ADD MSTORE PUSH1 0x44 DUP3 ADD DUP7 SWAP1 MSTORE SWAP2 SWAP3 SWAP2 PUSH2 0xB53 DUP3 PUSH1 0x64 DUP2 ADD PUSH2 0x81D JUMP JUMPDEST PUSH1 0x1 PUSH1 0x1 PUSH1 0xA0 SHL SUB SWAP5 DUP6 AND SWAP5 ADDRESS DUP7 EQ PUSH2 0x9C1 JUMPI DUP4 AND SWAP5 DUP5 MLOAD SWAP3 PUSH4 0x70A08231 PUSH1 0xE0 SHL SWAP5 DUP6 DUP6 MSTORE DUP3 PUSH1 0x4 DUP7 ADD MSTORE DUP4 DUP6 PUSH1 0x24 DUP2 DUP12 GAS STATICCALL SWAP5 DUP6 ISZERO PUSH2 0x9B6 JUMPI PUSH1 0x0 SWAP6 PUSH2 0x983 JUMPI POP SWAP1 PUSH2 0x8DD SWAP2 PUSH2 0xC30 JUMP JUMPDEST POP POP POP JUMP JUMPDEST SWAP2 SWAP1 SWAP2 DUP2 ISZERO PUSH2 0xB9F JUMPI PUSH1 0x40 DUP1 MLOAD PUSH4 0xA9059CBB PUSH1 0xE0 SHL PUSH1 0x20 DUP1 DUP4 ADD SWAP2 SWAP1 SWAP2 MSTORE PUSH1 0x1 PUSH1 0x1 PUSH1 0xA0 SHL SUB DUP7 AND PUSH1 0x24 DUP4 ADD MSTORE PUSH1 0x44 DUP3 ADD SWAP5 SWAP1 SWAP5 MSTORE SWAP1 SWAP3 PUSH2 0xBE8 DUP3 PUSH1 0x64 DUP2 ADD PUSH2 0x81D JUMP JUMPDEST PUSH1 0x1 PUSH1 0x1 PUSH1 0xA0 SHL SUB SWAP5 DUP6 AND SWAP5 ADDRESS DUP7 EQ PUSH2 0xB04 JUMPI DUP4 AND SWAP5 DUP5 MLOAD SWAP3 PUSH4 0x70A08231 PUSH1 0xE0 SHL SWAP5 DUP6 DUP6 MSTORE DUP3 PUSH1 0x4 DUP7 ADD MSTORE DUP4 DUP6 PUSH1 0x24 DUP2 DUP12 GAS STATICCALL SWAP5 DUP6 ISZERO PUSH2 0x9B6 JUMPI PUSH1 0x0 SWAP6 PUSH2 0xAD1 JUMPI POP SWAP1 PUSH2 0xA55 SWAP2 JUMPDEST DUP2 MLOAD PUSH1 0x1 PUSH1 0x1 PUSH1 0xA0 SHL SUB SWAP1 SWAP2 AND SWAP2 PUSH1 0x0 SWAP2 DUP3 SWAP2 PUSH1 0x20 ADD DUP3 DUP6 GAS CALL PUSH2 0xC52 PUSH2 0x7A8 JUMP JUMPDEST POP ISZERO PUSH2 0xC5B JUMPI POP JUMP JUMPDEST PUSH1 0x24 SWAP1 PUSH1 0x40 MLOAD SWAP1 PUSH4 0x1321BE3F PUSH1 0xE2 SHL DUP3 MSTORE PUSH1 0x4 DUP3 ADD MSTORE REVERT INVALID EXTCODESIZE ADDMOD DUP3 PUSH15 0x54BBC0C367EFE1F423C2C31D695C94 0xC9 0x4D 0xEF CALLVALUE DIV 0x2B BALANCE CALLCODE PUSH6 0xD482FFCB0300 0xAC SGT SWAP3 0xA8 LOG3 0xB9 PUSH12 0x8B9C8EB7BF6AD973C028C4CE LOG4 SWAP10 LOG0 SWAP4 PUSH1 0x76 0xCB NATIVEUNFREEZEBALANCEV2 0xE8 PUSH31 0xCFE981A08DD3C1CDF62F187C2181F3209EC4141D36FAA1283FFEFCD51CDDC6 0x4E NATIVEUNDELEGATERESOURCE LOG2 PUSH5 0x74726F6E58 0x22 SLT KECCAK256 PUSH4 0xE14544CC JUMPI 0x4D 0xAC DUP14 CODESIZE PUSH7 0xEDEB51A6FCA252 0xBF 0xE1 0x2F DUP9 NATIVEFREEZEBALANCEV2 LOG0 DUP4 CALLTOKENVALUE SWAP2 SWAP14 KECCAK256 COINBASE 0xEB SELFDESTRUCT PUSH5 0x736F6C6343 STOP ADDMOD XOR STOP CALLER "},"gasEstimates":{"creation":{"codeDepositCost":"667400","executionCost":"710","totalCost":"668110"},"external":{"testForceApprove(address,address,uint256)":"infinite","testSafeApprove(address,address,uint256)":"infinite","testSafeDecreaseAllowance(address,address,uint256)":"infinite","testSafeIncreaseAllowance(address,address,uint256)":"infinite","testSafeTransfer(address,address,uint256)":"infinite","testSafeTransferExact(address,address,uint256)":"infinite","testSafeTransferFrom(address,address,address,uint256)":"infinite","testSafeTransferFromExact(address,address,address,uint256)":"infinite","testSelfTransfer(address,uint256)":"infinite","testSelfTransferExact(address,uint256)":"infinite","testSelfTransferFrom(address,address,uint256)":"infinite","testSelfTransferFromExact(address,address,uint256)":"infinite"}},"methodIdentifiers":{"testForceApprove(address,address,uint256)":"060a0bbb","testSafeApprove(address,address,uint256)":"08315314","testSafeDecreaseAllowance(address,address,uint256)":"269016e2","testSafeIncreaseAllowance(address,address,uint256)":"9ce0ba01","testSafeTransfer(address,address,uint256)":"f705d961","testSafeTransferExact(address,address,uint256)":"b6b821ee","testSafeTransferFrom(address,address,address,uint256)":"75231e61","testSafeTransferFromExact(address,address,address,uint256)":"771f9559","testSelfTransfer(address,uint256)":"eb05d7b4","testSelfTransferExact(address,uint256)":"eb300464","testSelfTransferFrom(address,address,uint256)":"f4cac4fe","testSelfTransferFromExact(address,address,uint256)":"6729ff11"}},"storageLayout":{"storage":[],"types":null},"userdoc":{"kind":"user","methods":{},"notice":"Test harness contract to expose SafeERC20Universal library functions","version":1}}}}