{"contracts/mock/MockFeeOnTransferToken.sol":{"MockFeeOnTransferToken":{"abi":[{"inputs":[{"internalType":"string","name":"name_","type":"string"},{"internalType":"string","name":"symbol_","type":"string"},{"internalType":"uint8","name":"decimals_","type":"uint8"}],"stateMutability":"nonpayable","type":"constructor"},{"anonymous":false,"inputs":[{"indexed":true,"internalType":"address","name":"owner","type":"address"},{"indexed":true,"internalType":"address","name":"spender","type":"address"},{"indexed":false,"internalType":"uint256","name":"value","type":"uint256"}],"name":"Approval","type":"event"},{"anonymous":false,"inputs":[{"indexed":true,"internalType":"address","name":"from","type":"address"},{"indexed":true,"internalType":"address","name":"to","type":"address"},{"indexed":false,"internalType":"uint256","name":"value","type":"uint256"}],"name":"Transfer","type":"event"},{"inputs":[{"internalType":"address","name":"","type":"address"},{"internalType":"address","name":"","type":"address"}],"name":"allowance","outputs":[{"internalType":"uint256","name":"","type":"uint256"}],"stateMutability":"view","type":"function"},{"inputs":[{"internalType":"address","name":"spender","type":"address"},{"internalType":"uint256","name":"amount","type":"uint256"}],"name":"approve","outputs":[{"internalType":"bool","name":"","type":"bool"}],"stateMutability":"nonpayable","type":"function"},{"inputs":[{"internalType":"address","name":"","type":"address"}],"name":"balanceOf","outputs":[{"internalType":"uint256","name":"","type":"uint256"}],"stateMutability":"view","type":"function"},{"inputs":[],"name":"decimals","outputs":[{"internalType":"uint8","name":"","type":"uint8"}],"stateMutability":"view","type":"function"},{"inputs":[],"name":"feePercent","outputs":[{"internalType":"uint256","name":"","type":"uint256"}],"stateMutability":"view","type":"function"},{"inputs":[{"internalType":"address","name":"to","type":"address"},{"internalType":"uint256","name":"amount","type":"uint256"}],"name":"mint","outputs":[],"stateMutability":"nonpayable","type":"function"},{"inputs":[],"name":"name","outputs":[{"internalType":"string","name":"","type":"string"}],"stateMutability":"view","type":"function"},{"inputs":[{"internalType":"uint256","name":"fee","type":"uint256"}],"name":"setFeePercent","outputs":[],"stateMutability":"nonpayable","type":"function"},{"inputs":[],"name":"symbol","outputs":[{"internalType":"string","name":"","type":"string"}],"stateMutability":"view","type":"function"},{"inputs":[],"name":"totalSupply","outputs":[{"internalType":"uint256","name":"","type":"uint256"}],"stateMutability":"view","type":"function"},{"inputs":[{"internalType":"address","name":"to","type":"address"},{"internalType":"uint256","name":"amount","type":"uint256"}],"name":"transfer","outputs":[{"internalType":"bool","name":"","type":"bool"}],"stateMutability":"nonpayable","type":"function"},{"inputs":[{"internalType":"address","name":"from","type":"address"},{"internalType":"address","name":"to","type":"address"},{"internalType":"uint256","name":"amount","type":"uint256"}],"name":"transferFrom","outputs":[{"internalType":"bool","name":"","type":"bool"}],"stateMutability":"nonpayable","type":"function"}],"devdoc":{"details":"Deducts a fee from every transfer, so received amount < sent amount","kind":"dev","methods":{},"title":"MockFeeOnTransferToken","version":1},"evm":{"bytecode":{"linkReferences":{},"object":"6080604052346200033f5762000c00803803806200001d8162000344565b9283398101906060818303126200033f5780516001600160401b0391908281116200033f5783620000509183016200036a565b91602093848301518281116200033f57604091620000709185016200036a565b9201519260ff84168094036200033f5760019283600455815183811162000329576000908154938685811c951680156200031e575b898610146200030a578190601f95868111620002b7575b5089908683116001146200025357849262000247575b5050600019600383901b1c191690861b1781555b8151938411620002335784548581811c9116801562000228575b888210146200021457838111620001cc575b508692841160011462000166578394959650926200015a575b5050600019600383901b1c191690821b1790555b60ff1960025416176002556040516108239081620003dd8239f35b0151905038806200012b565b9190601f1984169685845280842093905b888210620001b457505083859697106200019a575b505050811b0190556200013f565b015160001960f88460031b161c191690553880806200018c565b80878596829496860151815501950193019062000177565b8582528782208480870160051c8201928a88106200020a575b0160051c019086905b828110620001fe57505062000112565b838155018690620001ee565b92508192620001e5565b634e487b7160e01b82526022600452602482fd5b90607f169062000100565b634e487b7160e01b81526041600452602490fd5b015190503880620000d2565b8480528a85208994509190601f198416865b8d828210620002a0575050841162000286575b505050811b018155620000e6565b015160001960f88460031b161c1916905538808062000278565b8385015186558c9790950194938401930162000265565b9091508380528984208680850160051c8201928c861062000300575b918a91869594930160051c01915b828110620002f1575050620000bc565b8681558594508a9101620002e1565b92508192620002d3565b634e487b7160e01b83526022600452602483fd5b94607f1694620000a5565b634e487b7160e01b600052604160045260246000fd5b600080fd5b6040519190601f01601f191682016001600160401b038111838210176200032957604052565b919080601f840112156200033f5782516001600160401b0381116200032957602090620003a0601f8201601f1916830162000344565b928184528282870101116200033f5760005b818110620003c857508260009394955001015290565b8581018301518482018401528201620003b256fe608060408181526004918236101561001657600080fd5b600092833560e01c91826306fdde03146105b957508163095ea7b31461054857816318160ddd1461052957816323b872dd146103f2578163313ce567146103d057816340c10f191461036957816370a08231146103315781637ce3489b146102dc5781637fd6f15c146102be57816395d89b41146101b8578163a9059cbb146100f4575063dd62ed3e146100a957600080fd5b346100f057806003193601126100f057806020926100c56106bd565b6100cd6106e1565b6001600160a01b0391821683526006865283832091168252845220549051908152f35b5080fd5b9050346101b457816003193601126101b4576020926101926101146106bd565b918460646101516024359533855260058a5261013587858720541015610700565b6001600160a01b03169661014a881515610743565b548661078a565b049161015d83866107b3565b94338252600589526101738383209182546107b3565b905585815260058852206101888482546107c0565b90556003546107b3565b60035582519081526000805160206107ce833981519152843392a35160018152f35b8280fd5b8383346100f057816003193601126100f0578051908260018054908160011c90600183169283156102b4575b60209384841081146102a157838852908115610285575060011461024c575b505050829003601f01601f191682019267ffffffffffffffff8411838510176102395750829182610235925282610674565b0390f35b634e487b7160e01b815260418552602490fd5b91925060018652828620918387935b8385106102715750505050830101858080610203565b80548886018301529301928490820161025b565b60ff1916878501525050151560051b8401019050858080610203565b634e487b7160e01b895260228a52602489fd5b91607f16916101e4565b9050346101b457826003193601126101b45760209250549051908152f35b9050346101b45760203660031901126101b457803591603283116102ff57505580f35b906020606492519162461bcd60e51b8352820152600c60248201526b08ccaca40e8dede40d0d2ced60a31b6044820152fd5b5050346100f05760203660031901126100f05760209181906001600160a01b036103596106bd565b1681526005845220549051908152f35b5050346100f057806003193601126100f057816000805160206107ce83398151915260206103956106bd565b6024359060018060a01b031694858552600583528085206103b78382546107c0565b90556103c5826003546107c0565b60035551908152a380f35b5050346100f057816003193601126100f05760209060ff600254169051908152f35b9050346101b45760603660031901126101b45761040d6106bd565b6104156106e1565b9360443560018060a01b03809316928383526020966005885261043d83888620541015610700565b8484526006885286842033855288528287852054106104ed57879260646104866000805160206107ce83398151915296946104dd94169861047f8a1515610743565b548361078a565b04906101888961049684846107b3565b95898152600588528181206104ac8582546107b3565b90558a8152600588528181206104c38882546107c0565b9055898152600688528181203382528852209182546107b3565b6003558551908152a35160018152f35b865162461bcd60e51b81528087018990526016602482015275496e73756666696369656e7420616c6c6f77616e636560501b6044820152606490fd5b5050346100f057816003193601126100f0576020906003549051908152f35b5050346100f057806003193601126100f057602091816105666106bd565b91602435918291338152600687528181209460018060a01b0316948582528752205582519081527f8c5be1e5ebec7d5bd14f71427d1e84f3dd0314c0f7b2291e5b200ac8c7c3b925843392a35160018152f35b849084346101b457826003193601126101b45782835460018160011c906001831692831561066a575b60209384841081146102a157838852908115610285575060011461063257505050829003601f01601f191682019267ffffffffffffffff8411838510176102395750829182610235925282610674565b919250858052828620918387935b8385106106565750505050830101858080610203565b805488860183015293019284908201610640565b91607f16916105e2565b6020808252825181830181905290939260005b8281106106a957505060409293506000838284010152601f8019910116010190565b818101860151848201604001528501610687565b6004356001600160a81b03811681036106dc576001600160a01b031690565b600080fd5b6024356001600160a81b03811681036106dc576001600160a01b031690565b1561070757565b60405162461bcd60e51b8152602060048201526014602482015273496e73756666696369656e742062616c616e636560601b6044820152606490fd5b1561074a57565b60405162461bcd60e51b81526020600482015260186024820152775472616e7366657220746f207a65726f206164647265737360401b6044820152606490fd5b8181029291811591840414171561079d57565b634e487b7160e01b600052601160045260246000fd5b9190820391821161079d57565b9190820180921161079d5756feddf252ad1be2c89b69c2b068fc378daa952ba7f163c4a11628f55a4df523b3efa26474726f6e58221220a289d655f6bb285112e206185dc75def78405329c10005b85b3f4a87e2343fc364736f6c63430008180033","opcodes":"PUSH1 0x80 PUSH1 0x40 MSTORE CALLVALUE PUSH3 0x33F JUMPI PUSH3 0xC00 DUP1 CODESIZE SUB DUP1 PUSH3 0x1D DUP2 PUSH3 0x344 JUMP JUMPDEST SWAP3 DUP4 CODECOPY DUP2 ADD SWAP1 PUSH1 0x60 DUP2 DUP4 SUB SLT PUSH3 0x33F JUMPI DUP1 MLOAD PUSH1 0x1 PUSH1 0x1 PUSH1 0x40 SHL SUB SWAP2 SWAP1 DUP3 DUP2 GT PUSH3 0x33F JUMPI DUP4 PUSH3 0x50 SWAP2 DUP4 ADD PUSH3 0x36A JUMP JUMPDEST SWAP2 PUSH1 0x20 SWAP4 DUP5 DUP4 ADD MLOAD DUP3 DUP2 GT PUSH3 0x33F JUMPI PUSH1 0x40 SWAP2 PUSH3 0x70 SWAP2 DUP6 ADD PUSH3 0x36A JUMP JUMPDEST SWAP3 ADD MLOAD SWAP3 PUSH1 0xFF DUP5 AND DUP1 SWAP5 SUB PUSH3 0x33F JUMPI PUSH1 0x1 SWAP3 DUP4 PUSH1 0x4 SSTORE DUP2 MLOAD DUP4 DUP2 GT PUSH3 0x329 JUMPI PUSH1 0x0 SWAP1 DUP2 SLOAD SWAP4 DUP7 DUP6 DUP2 SHR SWAP6 AND DUP1 ISZERO PUSH3 0x31E JUMPI JUMPDEST DUP10 DUP7 LT EQ PUSH3 0x30A JUMPI DUP2 SWAP1 PUSH1 0x1F SWAP6 DUP7 DUP2 GT PUSH3 0x2B7 JUMPI JUMPDEST POP DUP10 SWAP1 DUP7 DUP4 GT PUSH1 0x1 EQ PUSH3 0x253 JUMPI DUP5 SWAP3 PUSH3 0x247 JUMPI JUMPDEST POP POP PUSH1 0x0 NOT PUSH1 0x3 DUP4 SWAP1 SHL SHR NOT AND SWAP1 DUP7 SHL OR DUP2 SSTORE JUMPDEST DUP2 MLOAD SWAP4 DUP5 GT PUSH3 0x233 JUMPI DUP5 SLOAD DUP6 DUP2 DUP2 SHR SWAP2 AND DUP1 ISZERO PUSH3 0x228 JUMPI JUMPDEST DUP9 DUP3 LT EQ PUSH3 0x214 JUMPI DUP4 DUP2 GT PUSH3 0x1CC JUMPI JUMPDEST POP DUP7 SWAP3 DUP5 GT PUSH1 0x1 EQ PUSH3 0x166 JUMPI DUP4 SWAP5 SWAP6 SWAP7 POP SWAP3 PUSH3 0x15A JUMPI JUMPDEST POP POP PUSH1 0x0 NOT PUSH1 0x3 DUP4 SWAP1 SHL SHR NOT AND SWAP1 DUP3 SHL OR SWAP1 SSTORE JUMPDEST PUSH1 0xFF NOT PUSH1 0x2 SLOAD AND OR PUSH1 0x2 SSTORE PUSH1 0x40 MLOAD PUSH2 0x823 SWAP1 DUP2 PUSH3 0x3DD DUP3 CODECOPY RETURN JUMPDEST ADD MLOAD SWAP1 POP CODESIZE DUP1 PUSH3 0x12B JUMP JUMPDEST SWAP2 SWAP1 PUSH1 0x1F NOT DUP5 AND SWAP7 DUP6 DUP5 MSTORE DUP1 DUP5 KECCAK256 SWAP4 SWAP1 JUMPDEST DUP9 DUP3 LT PUSH3 0x1B4 JUMPI POP POP DUP4 DUP6 SWAP7 SWAP8 LT PUSH3 0x19A JUMPI JUMPDEST POP POP POP DUP2 SHL ADD SWAP1 SSTORE PUSH3 0x13F JUMP JUMPDEST ADD MLOAD PUSH1 0x0 NOT PUSH1 0xF8 DUP5 PUSH1 0x3 SHL AND SHR NOT AND SWAP1 SSTORE CODESIZE DUP1 DUP1 PUSH3 0x18C JUMP JUMPDEST DUP1 DUP8 DUP6 SWAP7 DUP3 SWAP5 SWAP7 DUP7 ADD MLOAD DUP2 SSTORE ADD SWAP6 ADD SWAP4 ADD SWAP1 PUSH3 0x177 JUMP JUMPDEST DUP6 DUP3 MSTORE DUP8 DUP3 KECCAK256 DUP5 DUP1 DUP8 ADD PUSH1 0x5 SHR DUP3 ADD SWAP3 DUP11 DUP9 LT PUSH3 0x20A JUMPI JUMPDEST ADD PUSH1 0x5 SHR ADD SWAP1 DUP7 SWAP1 JUMPDEST DUP3 DUP2 LT PUSH3 0x1FE JUMPI POP POP PUSH3 0x112 JUMP JUMPDEST DUP4 DUP2 SSTORE ADD DUP7 SWAP1 PUSH3 0x1EE JUMP JUMPDEST SWAP3 POP DUP2 SWAP3 PUSH3 0x1E5 JUMP JUMPDEST PUSH4 0x4E487B71 PUSH1 0xE0 SHL DUP3 MSTORE PUSH1 0x22 PUSH1 0x4 MSTORE PUSH1 0x24 DUP3 REVERT JUMPDEST SWAP1 PUSH1 0x7F AND SWAP1 PUSH3 0x100 JUMP JUMPDEST PUSH4 0x4E487B71 PUSH1 0xE0 SHL DUP2 MSTORE PUSH1 0x41 PUSH1 0x4 MSTORE PUSH1 0x24 SWAP1 REVERT JUMPDEST ADD MLOAD SWAP1 POP CODESIZE DUP1 PUSH3 0xD2 JUMP JUMPDEST DUP5 DUP1 MSTORE DUP11 DUP6 KECCAK256 DUP10 SWAP5 POP SWAP2 SWAP1 PUSH1 0x1F NOT DUP5 AND DUP7 JUMPDEST DUP14 DUP3 DUP3 LT PUSH3 0x2A0 JUMPI POP POP DUP5 GT PUSH3 0x286 JUMPI JUMPDEST POP POP POP DUP2 SHL ADD DUP2 SSTORE PUSH3 0xE6 JUMP JUMPDEST ADD MLOAD PUSH1 0x0 NOT PUSH1 0xF8 DUP5 PUSH1 0x3 SHL AND SHR NOT AND SWAP1 SSTORE CODESIZE DUP1 DUP1 PUSH3 0x278 JUMP JUMPDEST DUP4 DUP6 ADD MLOAD DUP7 SSTORE DUP13 SWAP8 SWAP1 SWAP6 ADD SWAP5 SWAP4 DUP5 ADD SWAP4 ADD PUSH3 0x265 JUMP JUMPDEST SWAP1 SWAP2 POP DUP4 DUP1 MSTORE DUP10 DUP5 KECCAK256 DUP7 DUP1 DUP6 ADD PUSH1 0x5 SHR DUP3 ADD SWAP3 DUP13 DUP7 LT PUSH3 0x300 JUMPI JUMPDEST SWAP2 DUP11 SWAP2 DUP7 SWAP6 SWAP5 SWAP4 ADD PUSH1 0x5 SHR ADD SWAP2 JUMPDEST DUP3 DUP2 LT PUSH3 0x2F1 JUMPI POP POP PUSH3 0xBC JUMP JUMPDEST DUP7 DUP2 SSTORE DUP6 SWAP5 POP DUP11 SWAP2 ADD PUSH3 0x2E1 JUMP JUMPDEST SWAP3 POP DUP2 SWAP3 PUSH3 0x2D3 JUMP JUMPDEST PUSH4 0x4E487B71 PUSH1 0xE0 SHL DUP4 MSTORE PUSH1 0x22 PUSH1 0x4 MSTORE PUSH1 0x24 DUP4 REVERT JUMPDEST SWAP5 PUSH1 0x7F AND SWAP5 PUSH3 0xA5 JUMP JUMPDEST PUSH4 0x4E487B71 PUSH1 0xE0 SHL PUSH1 0x0 MSTORE PUSH1 0x41 PUSH1 0x4 MSTORE PUSH1 0x24 PUSH1 0x0 REVERT JUMPDEST PUSH1 0x0 DUP1 REVERT JUMPDEST PUSH1 0x40 MLOAD SWAP2 SWAP1 PUSH1 0x1F ADD PUSH1 0x1F NOT AND DUP3 ADD PUSH1 0x1 PUSH1 0x1 PUSH1 0x40 SHL SUB DUP2 GT DUP4 DUP3 LT OR PUSH3 0x329 JUMPI PUSH1 0x40 MSTORE JUMP JUMPDEST SWAP2 SWAP1 DUP1 PUSH1 0x1F DUP5 ADD SLT ISZERO PUSH3 0x33F JUMPI DUP3 MLOAD PUSH1 0x1 PUSH1 0x1 PUSH1 0x40 SHL SUB DUP2 GT PUSH3 0x329 JUMPI PUSH1 0x20 SWAP1 PUSH3 0x3A0 PUSH1 0x1F DUP3 ADD PUSH1 0x1F NOT AND DUP4 ADD PUSH3 0x344 JUMP JUMPDEST SWAP3 DUP2 DUP5 MSTORE DUP3 DUP3 DUP8 ADD ADD GT PUSH3 0x33F JUMPI PUSH1 0x0 JUMPDEST DUP2 DUP2 LT PUSH3 0x3C8 JUMPI POP DUP3 PUSH1 0x0 SWAP4 SWAP5 SWAP6 POP ADD ADD MSTORE SWAP1 JUMP JUMPDEST DUP6 DUP2 ADD DUP4 ADD MLOAD DUP5 DUP3 ADD DUP5 ADD MSTORE DUP3 ADD PUSH3 0x3B2 JUMP INVALID PUSH1 0x80 PUSH1 0x40 DUP2 DUP2 MSTORE PUSH1 0x4 SWAP2 DUP3 CALLDATASIZE LT ISZERO PUSH2 0x16 JUMPI PUSH1 0x0 DUP1 REVERT JUMPDEST PUSH1 0x0 SWAP3 DUP4 CALLDATALOAD PUSH1 0xE0 SHR SWAP2 DUP3 PUSH4 0x6FDDE03 EQ PUSH2 0x5B9 JUMPI POP DUP2 PUSH4 0x95EA7B3 EQ PUSH2 0x548 JUMPI DUP2 PUSH4 0x18160DDD EQ PUSH2 0x529 JUMPI DUP2 PUSH4 0x23B872DD EQ PUSH2 0x3F2 JUMPI DUP2 PUSH4 0x313CE567 EQ PUSH2 0x3D0 JUMPI DUP2 PUSH4 0x40C10F19 EQ PUSH2 0x369 JUMPI DUP2 PUSH4 0x70A08231 EQ PUSH2 0x331 JUMPI DUP2 PUSH4 0x7CE3489B EQ PUSH2 0x2DC JUMPI DUP2 PUSH4 0x7FD6F15C EQ PUSH2 0x2BE JUMPI DUP2 PUSH4 0x95D89B41 EQ PUSH2 0x1B8 JUMPI DUP2 PUSH4 0xA9059CBB EQ PUSH2 0xF4 JUMPI POP PUSH4 0xDD62ED3E EQ PUSH2 0xA9 JUMPI PUSH1 0x0 DUP1 REVERT JUMPDEST CALLVALUE PUSH2 0xF0 JUMPI DUP1 PUSH1 0x3 NOT CALLDATASIZE ADD SLT PUSH2 0xF0 JUMPI DUP1 PUSH1 0x20 SWAP3 PUSH2 0xC5 PUSH2 0x6BD JUMP JUMPDEST PUSH2 0xCD PUSH2 0x6E1 JUMP JUMPDEST PUSH1 0x1 PUSH1 0x1 PUSH1 0xA0 SHL SUB SWAP2 DUP3 AND DUP4 MSTORE PUSH1 0x6 DUP7 MSTORE DUP4 DUP4 KECCAK256 SWAP2 AND DUP3 MSTORE DUP5 MSTORE KECCAK256 SLOAD SWAP1 MLOAD SWAP1 DUP2 MSTORE RETURN JUMPDEST POP DUP1 REVERT JUMPDEST SWAP1 POP CALLVALUE PUSH2 0x1B4 JUMPI DUP2 PUSH1 0x3 NOT CALLDATASIZE ADD SLT PUSH2 0x1B4 JUMPI PUSH1 0x20 SWAP3 PUSH2 0x192 PUSH2 0x114 PUSH2 0x6BD JUMP JUMPDEST SWAP2 DUP5 PUSH1 0x64 PUSH2 0x151 PUSH1 0x24 CALLDATALOAD SWAP6 CALLER DUP6 MSTORE PUSH1 0x5 DUP11 MSTORE PUSH2 0x135 DUP8 DUP6 DUP8 KECCAK256 SLOAD LT ISZERO PUSH2 0x700 JUMP JUMPDEST PUSH1 0x1 PUSH1 0x1 PUSH1 0xA0 SHL SUB AND SWAP7 PUSH2 0x14A DUP9 ISZERO ISZERO PUSH2 0x743 JUMP JUMPDEST SLOAD DUP7 PUSH2 0x78A JUMP JUMPDEST DIV SWAP2 PUSH2 0x15D DUP4 DUP7 PUSH2 0x7B3 JUMP JUMPDEST SWAP5 CALLER DUP3 MSTORE PUSH1 0x5 DUP10 MSTORE PUSH2 0x173 DUP4 DUP4 KECCAK256 SWAP2 DUP3 SLOAD PUSH2 0x7B3 JUMP JUMPDEST SWAP1 SSTORE DUP6 DUP2 MSTORE PUSH1 0x5 DUP9 MSTORE KECCAK256 PUSH2 0x188 DUP5 DUP3 SLOAD PUSH2 0x7C0 JUMP JUMPDEST SWAP1 SSTORE PUSH1 0x3 SLOAD PUSH2 0x7B3 JUMP JUMPDEST PUSH1 0x3 SSTORE DUP3 MLOAD SWAP1 DUP2 MSTORE PUSH1 0x0 DUP1 MLOAD PUSH1 0x20 PUSH2 0x7CE DUP4 CODECOPY DUP2 MLOAD SWAP2 MSTORE DUP5 CALLER SWAP3 LOG3 MLOAD PUSH1 0x1 DUP2 MSTORE RETURN JUMPDEST DUP3 DUP1 REVERT JUMPDEST DUP4 DUP4 CALLVALUE PUSH2 0xF0 JUMPI DUP2 PUSH1 0x3 NOT CALLDATASIZE ADD SLT PUSH2 0xF0 JUMPI DUP1 MLOAD SWAP1 DUP3 PUSH1 0x1 DUP1 SLOAD SWAP1 DUP2 PUSH1 0x1 SHR SWAP1 PUSH1 0x1 DUP4 AND SWAP3 DUP4 ISZERO PUSH2 0x2B4 JUMPI JUMPDEST PUSH1 0x20 SWAP4 DUP5 DUP5 LT DUP2 EQ PUSH2 0x2A1 JUMPI DUP4 DUP9 MSTORE SWAP1 DUP2 ISZERO PUSH2 0x285 JUMPI POP PUSH1 0x1 EQ PUSH2 0x24C JUMPI JUMPDEST POP POP POP DUP3 SWAP1 SUB PUSH1 0x1F ADD PUSH1 0x1F NOT AND DUP3 ADD SWAP3 PUSH8 0xFFFFFFFFFFFFFFFF DUP5 GT DUP4 DUP6 LT OR PUSH2 0x239 JUMPI POP DUP3 SWAP2 DUP3 PUSH2 0x235 SWAP3 MSTORE DUP3 PUSH2 0x674 JUMP JUMPDEST SUB SWAP1 RETURN JUMPDEST PUSH4 0x4E487B71 PUSH1 0xE0 SHL DUP2 MSTORE PUSH1 0x41 DUP6 MSTORE PUSH1 0x24 SWAP1 REVERT JUMPDEST SWAP2 SWAP3 POP PUSH1 0x1 DUP7 MSTORE DUP3 DUP7 KECCAK256 SWAP2 DUP4 DUP8 SWAP4 JUMPDEST DUP4 DUP6 LT PUSH2 0x271 JUMPI POP POP POP POP DUP4 ADD ADD DUP6 DUP1 DUP1 PUSH2 0x203 JUMP JUMPDEST DUP1 SLOAD DUP9 DUP7 ADD DUP4 ADD MSTORE SWAP4 ADD SWAP3 DUP5 SWAP1 DUP3 ADD PUSH2 0x25B JUMP JUMPDEST PUSH1 0xFF NOT AND DUP8 DUP6 ADD MSTORE POP POP ISZERO ISZERO PUSH1 0x5 SHL DUP5 ADD ADD SWAP1 POP DUP6 DUP1 DUP1 PUSH2 0x203 JUMP JUMPDEST PUSH4 0x4E487B71 PUSH1 0xE0 SHL DUP10 MSTORE PUSH1 0x22 DUP11 MSTORE PUSH1 0x24 DUP10 REVERT JUMPDEST SWAP2 PUSH1 0x7F AND SWAP2 PUSH2 0x1E4 JUMP JUMPDEST SWAP1 POP CALLVALUE PUSH2 0x1B4 JUMPI DUP3 PUSH1 0x3 NOT CALLDATASIZE ADD SLT PUSH2 0x1B4 JUMPI PUSH1 0x20 SWAP3 POP SLOAD SWAP1 MLOAD SWAP1 DUP2 MSTORE RETURN JUMPDEST SWAP1 POP CALLVALUE PUSH2 0x1B4 JUMPI PUSH1 0x20 CALLDATASIZE PUSH1 0x3 NOT ADD SLT PUSH2 0x1B4 JUMPI DUP1 CALLDATALOAD SWAP2 PUSH1 0x32 DUP4 GT PUSH2 0x2FF JUMPI POP SSTORE DUP1 RETURN JUMPDEST SWAP1 PUSH1 0x20 PUSH1 0x64 SWAP3 MLOAD SWAP2 PUSH3 0x461BCD PUSH1 0xE5 SHL DUP4 MSTORE DUP3 ADD MSTORE PUSH1 0xC PUSH1 0x24 DUP3 ADD MSTORE PUSH12 0x8CCACA40E8DEDE40D0D2CED PUSH1 0xA3 SHL PUSH1 0x44 DUP3 ADD MSTORE REVERT JUMPDEST POP POP CALLVALUE PUSH2 0xF0 JUMPI PUSH1 0x20 CALLDATASIZE PUSH1 0x3 NOT ADD SLT PUSH2 0xF0 JUMPI PUSH1 0x20 SWAP2 DUP2 SWAP1 PUSH1 0x1 PUSH1 0x1 PUSH1 0xA0 SHL SUB PUSH2 0x359 PUSH2 0x6BD JUMP JUMPDEST AND DUP2 MSTORE PUSH1 0x5 DUP5 MSTORE KECCAK256 SLOAD SWAP1 MLOAD SWAP1 DUP2 MSTORE RETURN JUMPDEST POP POP CALLVALUE PUSH2 0xF0 JUMPI DUP1 PUSH1 0x3 NOT CALLDATASIZE ADD SLT PUSH2 0xF0 JUMPI DUP2 PUSH1 0x0 DUP1 MLOAD PUSH1 0x20 PUSH2 0x7CE DUP4 CODECOPY DUP2 MLOAD SWAP2 MSTORE PUSH1 0x20 PUSH2 0x395 PUSH2 0x6BD JUMP JUMPDEST PUSH1 0x24 CALLDATALOAD SWAP1 PUSH1 0x1 DUP1 PUSH1 0xA0 SHL SUB AND SWAP5 DUP6 DUP6 MSTORE PUSH1 0x5 DUP4 MSTORE DUP1 DUP6 KECCAK256 PUSH2 0x3B7 DUP4 DUP3 SLOAD PUSH2 0x7C0 JUMP JUMPDEST SWAP1 SSTORE PUSH2 0x3C5 DUP3 PUSH1 0x3 SLOAD PUSH2 0x7C0 JUMP JUMPDEST PUSH1 0x3 SSTORE MLOAD SWAP1 DUP2 MSTORE LOG3 DUP1 RETURN JUMPDEST POP POP CALLVALUE PUSH2 0xF0 JUMPI DUP2 PUSH1 0x3 NOT CALLDATASIZE ADD SLT PUSH2 0xF0 JUMPI PUSH1 0x20 SWAP1 PUSH1 0xFF PUSH1 0x2 SLOAD AND SWAP1 MLOAD SWAP1 DUP2 MSTORE RETURN JUMPDEST SWAP1 POP CALLVALUE PUSH2 0x1B4 JUMPI PUSH1 0x60 CALLDATASIZE PUSH1 0x3 NOT ADD SLT PUSH2 0x1B4 JUMPI PUSH2 0x40D PUSH2 0x6BD JUMP JUMPDEST PUSH2 0x415 PUSH2 0x6E1 JUMP JUMPDEST SWAP4 PUSH1 0x44 CALLDATALOAD PUSH1 0x1 DUP1 PUSH1 0xA0 SHL SUB DUP1 SWAP4 AND SWAP3 DUP4 DUP4 MSTORE PUSH1 0x20 SWAP7 PUSH1 0x5 DUP9 MSTORE PUSH2 0x43D DUP4 DUP9 DUP7 KECCAK256 SLOAD LT ISZERO PUSH2 0x700 JUMP JUMPDEST DUP5 DUP5 MSTORE PUSH1 0x6 DUP9 MSTORE DUP7 DUP5 KECCAK256 CALLER DUP6 MSTORE DUP9 MSTORE DUP3 DUP8 DUP6 KECCAK256 SLOAD LT PUSH2 0x4ED JUMPI DUP8 SWAP3 PUSH1 0x64 PUSH2 0x486 PUSH1 0x0 DUP1 MLOAD PUSH1 0x20 PUSH2 0x7CE DUP4 CODECOPY DUP2 MLOAD SWAP2 MSTORE SWAP7 SWAP5 PUSH2 0x4DD SWAP5 AND SWAP9 PUSH2 0x47F DUP11 ISZERO ISZERO PUSH2 0x743 JUMP JUMPDEST SLOAD DUP4 PUSH2 0x78A JUMP JUMPDEST DIV SWAP1 PUSH2 0x188 DUP10 PUSH2 0x496 DUP5 DUP5 PUSH2 0x7B3 JUMP JUMPDEST SWAP6 DUP10 DUP2 MSTORE PUSH1 0x5 DUP9 MSTORE DUP2 DUP2 KECCAK256 PUSH2 0x4AC DUP6 DUP3 SLOAD PUSH2 0x7B3 JUMP JUMPDEST SWAP1 SSTORE DUP11 DUP2 MSTORE PUSH1 0x5 DUP9 MSTORE DUP2 DUP2 KECCAK256 PUSH2 0x4C3 DUP9 DUP3 SLOAD PUSH2 0x7C0 JUMP JUMPDEST SWAP1 SSTORE DUP10 DUP2 MSTORE PUSH1 0x6 DUP9 MSTORE DUP2 DUP2 KECCAK256 CALLER DUP3 MSTORE DUP9 MSTORE KECCAK256 SWAP2 DUP3 SLOAD PUSH2 0x7B3 JUMP JUMPDEST PUSH1 0x3 SSTORE DUP6 MLOAD SWAP1 DUP2 MSTORE LOG3 MLOAD PUSH1 0x1 DUP2 MSTORE RETURN JUMPDEST DUP7 MLOAD PUSH3 0x461BCD PUSH1 0xE5 SHL DUP2 MSTORE DUP1 DUP8 ADD DUP10 SWAP1 MSTORE PUSH1 0x16 PUSH1 0x24 DUP3 ADD MSTORE PUSH22 0x496E73756666696369656E7420616C6C6F77616E6365 PUSH1 0x50 SHL PUSH1 0x44 DUP3 ADD MSTORE PUSH1 0x64 SWAP1 REVERT JUMPDEST POP POP CALLVALUE PUSH2 0xF0 JUMPI DUP2 PUSH1 0x3 NOT CALLDATASIZE ADD SLT PUSH2 0xF0 JUMPI PUSH1 0x20 SWAP1 PUSH1 0x3 SLOAD SWAP1 MLOAD SWAP1 DUP2 MSTORE RETURN JUMPDEST POP POP CALLVALUE PUSH2 0xF0 JUMPI DUP1 PUSH1 0x3 NOT CALLDATASIZE ADD SLT PUSH2 0xF0 JUMPI PUSH1 0x20 SWAP2 DUP2 PUSH2 0x566 PUSH2 0x6BD JUMP JUMPDEST SWAP2 PUSH1 0x24 CALLDATALOAD SWAP2 DUP3 SWAP2 CALLER DUP2 MSTORE PUSH1 0x6 DUP8 MSTORE DUP2 DUP2 KECCAK256 SWAP5 PUSH1 0x1 DUP1 PUSH1 0xA0 SHL SUB AND SWAP5 DUP6 DUP3 MSTORE DUP8 MSTORE KECCAK256 SSTORE DUP3 MLOAD SWAP1 DUP2 MSTORE PUSH32 0x8C5BE1E5EBEC7D5BD14F71427D1E84F3DD0314C0F7B2291E5B200AC8C7C3B925 DUP5 CALLER SWAP3 LOG3 MLOAD PUSH1 0x1 DUP2 MSTORE RETURN JUMPDEST DUP5 SWAP1 DUP5 CALLVALUE PUSH2 0x1B4 JUMPI DUP3 PUSH1 0x3 NOT CALLDATASIZE ADD SLT PUSH2 0x1B4 JUMPI DUP3 DUP4 SLOAD PUSH1 0x1 DUP2 PUSH1 0x1 SHR SWAP1 PUSH1 0x1 DUP4 AND SWAP3 DUP4 ISZERO PUSH2 0x66A JUMPI JUMPDEST PUSH1 0x20 SWAP4 DUP5 DUP5 LT DUP2 EQ PUSH2 0x2A1 JUMPI DUP4 DUP9 MSTORE SWAP1 DUP2 ISZERO PUSH2 0x285 JUMPI POP PUSH1 0x1 EQ PUSH2 0x632 JUMPI POP POP POP DUP3 SWAP1 SUB PUSH1 0x1F ADD PUSH1 0x1F NOT AND DUP3 ADD SWAP3 PUSH8 0xFFFFFFFFFFFFFFFF DUP5 GT DUP4 DUP6 LT OR PUSH2 0x239 JUMPI POP DUP3 SWAP2 DUP3 PUSH2 0x235 SWAP3 MSTORE DUP3 PUSH2 0x674 JUMP JUMPDEST SWAP2 SWAP3 POP DUP6 DUP1 MSTORE DUP3 DUP7 KECCAK256 SWAP2 DUP4 DUP8 SWAP4 JUMPDEST DUP4 DUP6 LT PUSH2 0x656 JUMPI POP POP POP POP DUP4 ADD ADD DUP6 DUP1 DUP1 PUSH2 0x203 JUMP JUMPDEST DUP1 SLOAD DUP9 DUP7 ADD DUP4 ADD MSTORE SWAP4 ADD SWAP3 DUP5 SWAP1 DUP3 ADD PUSH2 0x640 JUMP JUMPDEST SWAP2 PUSH1 0x7F AND SWAP2 PUSH2 0x5E2 JUMP JUMPDEST PUSH1 0x20 DUP1 DUP3 MSTORE DUP3 MLOAD DUP2 DUP4 ADD DUP2 SWAP1 MSTORE SWAP1 SWAP4 SWAP3 PUSH1 0x0 JUMPDEST DUP3 DUP2 LT PUSH2 0x6A9 JUMPI POP POP PUSH1 0x40 SWAP3 SWAP4 POP PUSH1 0x0 DUP4 DUP3 DUP5 ADD ADD MSTORE PUSH1 0x1F DUP1 NOT SWAP2 ADD AND ADD ADD SWAP1 JUMP JUMPDEST DUP2 DUP2 ADD DUP7 ADD MLOAD DUP5 DUP3 ADD PUSH1 0x40 ADD MSTORE DUP6 ADD PUSH2 0x687 JUMP JUMPDEST PUSH1 0x4 CALLDATALOAD PUSH1 0x1 PUSH1 0x1 PUSH1 0xA8 SHL SUB DUP2 AND DUP2 SUB PUSH2 0x6DC JUMPI PUSH1 0x1 PUSH1 0x1 PUSH1 0xA0 SHL SUB AND SWAP1 JUMP JUMPDEST PUSH1 0x0 DUP1 REVERT JUMPDEST PUSH1 0x24 CALLDATALOAD PUSH1 0x1 PUSH1 0x1 PUSH1 0xA8 SHL SUB DUP2 AND DUP2 SUB PUSH2 0x6DC JUMPI PUSH1 0x1 PUSH1 0x1 PUSH1 0xA0 SHL SUB AND SWAP1 JUMP JUMPDEST ISZERO PUSH2 0x707 JUMPI JUMP JUMPDEST PUSH1 0x40 MLOAD PUSH3 0x461BCD PUSH1 0xE5 SHL DUP2 MSTORE PUSH1 0x20 PUSH1 0x4 DUP3 ADD MSTORE PUSH1 0x14 PUSH1 0x24 DUP3 ADD MSTORE PUSH20 0x496E73756666696369656E742062616C616E6365 PUSH1 0x60 SHL PUSH1 0x44 DUP3 ADD MSTORE PUSH1 0x64 SWAP1 REVERT JUMPDEST ISZERO PUSH2 0x74A JUMPI JUMP JUMPDEST PUSH1 0x40 MLOAD PUSH3 0x461BCD PUSH1 0xE5 SHL DUP2 MSTORE PUSH1 0x20 PUSH1 0x4 DUP3 ADD MSTORE PUSH1 0x18 PUSH1 0x24 DUP3 ADD MSTORE PUSH24 0x5472616E7366657220746F207A65726F2061646472657373 PUSH1 0x40 SHL PUSH1 0x44 DUP3 ADD MSTORE PUSH1 0x64 SWAP1 REVERT JUMPDEST DUP2 DUP2 MUL SWAP3 SWAP2 DUP2 ISZERO SWAP2 DUP5 DIV EQ OR ISZERO PUSH2 0x79D JUMPI JUMP JUMPDEST PUSH4 0x4E487B71 PUSH1 0xE0 SHL PUSH1 0x0 MSTORE PUSH1 0x11 PUSH1 0x4 MSTORE PUSH1 0x24 PUSH1 0x0 REVERT JUMPDEST SWAP2 SWAP1 DUP3 SUB SWAP2 DUP3 GT PUSH2 0x79D JUMPI JUMP JUMPDEST SWAP2 SWAP1 DUP3 ADD DUP1 SWAP3 GT PUSH2 0x79D JUMPI JUMP INVALID NATIVEWITHDRAWEXPIREUNFREEZE CALLCODE MSTORE 0xAD SHL 0xE2 0xC8 SWAP12 PUSH10 0xC2B068FC378DAA952BA7 CALL PUSH4 0xC4A11628 CREATE2 GAS 0x4D CREATE2 0x23 0xB3 0xEF LOG2 PUSH5 0x74726F6E58 0x22 SLT KECCAK256 LOG2 DUP10 NATIVEUNFREEZE SSTORE 0xF6 0xBB 0x28 MLOAD SLT 0xE2 MOD XOR TSTORE 0xC7 TSTORE 0xEF PUSH25 0x405329C10005B85B3F4A87E2343FC364736F6C634300081800 CALLER "},"gasEstimates":{"creation":{"codeDepositCost":"416600","executionCost":"infinite","totalCost":"infinite"},"external":{"allowance(address,address)":"2846","approve(address,uint256)":"24336","balanceOf(address)":"2581","decimals()":"2374","feePercent()":"2456","mint(address,uint256)":"infinite","name()":"infinite","setFeePercent(uint256)":"22441","symbol()":"infinite","totalSupply()":"2324","transfer(address,uint256)":"infinite","transferFrom(address,address,uint256)":"infinite"}},"methodIdentifiers":{"allowance(address,address)":"dd62ed3e","approve(address,uint256)":"095ea7b3","balanceOf(address)":"70a08231","decimals()":"313ce567","feePercent()":"7fd6f15c","mint(address,uint256)":"40c10f19","name()":"06fdde03","setFeePercent(uint256)":"7ce3489b","symbol()":"95d89b41","totalSupply()":"18160ddd","transfer(address,uint256)":"a9059cbb","transferFrom(address,address,uint256)":"23b872dd"}},"storageLayout":{"storage":[{"astId":953,"contract":"contracts/mock/MockFeeOnTransferToken.sol:MockFeeOnTransferToken","label":"name","offset":0,"slot":"0","type":"t_string_storage"},{"astId":955,"contract":"contracts/mock/MockFeeOnTransferToken.sol:MockFeeOnTransferToken","label":"symbol","offset":0,"slot":"1","type":"t_string_storage"},{"astId":957,"contract":"contracts/mock/MockFeeOnTransferToken.sol:MockFeeOnTransferToken","label":"decimals","offset":0,"slot":"2","type":"t_uint8"},{"astId":959,"contract":"contracts/mock/MockFeeOnTransferToken.sol:MockFeeOnTransferToken","label":"totalSupply","offset":0,"slot":"3","type":"t_uint256"},{"astId":962,"contract":"contracts/mock/MockFeeOnTransferToken.sol:MockFeeOnTransferToken","label":"feePercent","offset":0,"slot":"4","type":"t_uint256"},{"astId":966,"contract":"contracts/mock/MockFeeOnTransferToken.sol:MockFeeOnTransferToken","label":"balanceOf","offset":0,"slot":"5","type":"t_mapping(t_address,t_uint256)"},{"astId":972,"contract":"contracts/mock/MockFeeOnTransferToken.sol:MockFeeOnTransferToken","label":"allowance","offset":0,"slot":"6","type":"t_mapping(t_address,t_mapping(t_address,t_uint256))"}],"types":{"t_address":{"encoding":"inplace","label":"address","numberOfBytes":"20"},"t_mapping(t_address,t_mapping(t_address,t_uint256))":{"encoding":"mapping","key":"t_address","label":"mapping(address => mapping(address => uint256))","numberOfBytes":"32","value":"t_mapping(t_address,t_uint256)"},"t_mapping(t_address,t_uint256)":{"encoding":"mapping","key":"t_address","label":"mapping(address => uint256)","numberOfBytes":"32","value":"t_uint256"},"t_string_storage":{"encoding":"bytes","label":"string","numberOfBytes":"32"},"t_uint256":{"encoding":"inplace","label":"uint256","numberOfBytes":"32"},"t_uint8":{"encoding":"inplace","label":"uint8","numberOfBytes":"1"}}},"userdoc":{"kind":"user","methods":{},"notice":"Simulates a fee-on-transfer token for testing","version":1}}}}