{"contracts/mock/MockBuggyUSDT.sol":{"MockBuggyUSDT":{"abi":[{"inputs":[{"internalType":"string","name":"name_","type":"string"},{"internalType":"string","name":"symbol_","type":"string"},{"internalType":"uint8","name":"decimals_","type":"uint8"}],"stateMutability":"nonpayable","type":"constructor"},{"anonymous":false,"inputs":[{"indexed":true,"internalType":"address","name":"owner","type":"address"},{"indexed":true,"internalType":"address","name":"spender","type":"address"},{"indexed":false,"internalType":"uint256","name":"value","type":"uint256"}],"name":"Approval","type":"event"},{"anonymous":false,"inputs":[{"indexed":true,"internalType":"address","name":"from","type":"address"},{"indexed":true,"internalType":"address","name":"to","type":"address"},{"indexed":false,"internalType":"uint256","name":"value","type":"uint256"}],"name":"Transfer","type":"event"},{"inputs":[{"internalType":"address","name":"","type":"address"},{"internalType":"address","name":"","type":"address"}],"name":"allowance","outputs":[{"internalType":"uint256","name":"","type":"uint256"}],"stateMutability":"view","type":"function"},{"inputs":[{"internalType":"address","name":"spender","type":"address"},{"internalType":"uint256","name":"amount","type":"uint256"}],"name":"approve","outputs":[{"internalType":"bool","name":"","type":"bool"}],"stateMutability":"nonpayable","type":"function"},{"inputs":[{"internalType":"address","name":"","type":"address"}],"name":"balanceOf","outputs":[{"internalType":"uint256","name":"","type":"uint256"}],"stateMutability":"view","type":"function"},{"inputs":[{"internalType":"address","name":"from","type":"address"},{"internalType":"uint256","name":"amount","type":"uint256"}],"name":"burn","outputs":[],"stateMutability":"nonpayable","type":"function"},{"inputs":[],"name":"decimals","outputs":[{"internalType":"uint8","name":"","type":"uint8"}],"stateMutability":"view","type":"function"},{"inputs":[{"internalType":"address","name":"to","type":"address"},{"internalType":"uint256","name":"amount","type":"uint256"}],"name":"mint","outputs":[],"stateMutability":"nonpayable","type":"function"},{"inputs":[],"name":"name","outputs":[{"internalType":"string","name":"","type":"string"}],"stateMutability":"view","type":"function"},{"inputs":[],"name":"requireZeroAllowanceFirst","outputs":[{"internalType":"bool","name":"","type":"bool"}],"stateMutability":"view","type":"function"},{"inputs":[],"name":"returnFalseOnApprove","outputs":[{"internalType":"bool","name":"","type":"bool"}],"stateMutability":"view","type":"function"},{"inputs":[],"name":"returnFalseOnTransfer","outputs":[{"internalType":"bool","name":"","type":"bool"}],"stateMutability":"view","type":"function"},{"inputs":[{"internalType":"bool","name":"value","type":"bool"}],"name":"setRequireZeroAllowanceFirst","outputs":[],"stateMutability":"nonpayable","type":"function"},{"inputs":[{"internalType":"bool","name":"value","type":"bool"}],"name":"setReturnFalseOnApprove","outputs":[],"stateMutability":"nonpayable","type":"function"},{"inputs":[{"internalType":"bool","name":"value","type":"bool"}],"name":"setReturnFalseOnTransfer","outputs":[],"stateMutability":"nonpayable","type":"function"},{"inputs":[],"name":"symbol","outputs":[{"internalType":"string","name":"","type":"string"}],"stateMutability":"view","type":"function"},{"inputs":[],"name":"totalSupply","outputs":[{"internalType":"uint256","name":"","type":"uint256"}],"stateMutability":"view","type":"function"},{"inputs":[{"internalType":"address","name":"to","type":"address"},{"internalType":"uint256","name":"amount","type":"uint256"}],"name":"transfer","outputs":[{"internalType":"bool","name":"","type":"bool"}],"stateMutability":"nonpayable","type":"function"},{"inputs":[{"internalType":"address","name":"from","type":"address"},{"internalType":"address","name":"to","type":"address"},{"internalType":"uint256","name":"amount","type":"uint256"}],"name":"transferFrom","outputs":[{"internalType":"bool","name":"","type":"bool"}],"stateMutability":"nonpayable","type":"function"}],"devdoc":{"details":"This mimics the real TRON USDT contract behavior:      - transfer() declares `returns (bool)` but the function body has no return statement      - In Solidity 0.4.x, this results in returning 0 (false)      - The actual transfer still succeeds, but the return value is incorrect Used for testing SafeERC20Universal library's balance verification approach.","kind":"dev","methods":{"approve(address,uint256)":{"details":"Approve with optional requirement to set to 0 first (like USDT on Ethereum)"},"setRequireZeroAllowanceFirst(bool)":{"details":"Set whether approve requires setting to 0 first (like USDT on Ethereum)"},"setReturnFalseOnApprove(bool)":{"details":"Set whether approve returns false"},"setReturnFalseOnTransfer(bool)":{"details":"Set whether transfer functions return false (default: true, mimics TRON USDT)"},"transfer(address,uint256)":{"details":"Transfer tokens - mimics TRON USDT bug by returning false even on success The actual transfer succeeds, but the return value is incorrect."},"transferFrom(address,address,uint256)":{"details":"TransferFrom - mimics TRON USDT bug by returning false even on success"}},"title":"MockBuggyUSDT","version":1},"evm":{"bytecode":{"linkReferences":{},"object":"608060405234620003495762000daa803803806200001d816200034e565b928339810190606081830312620003495780516001600160401b0391908281116200034957836200005091830162000374565b916020938483015182811162000349576040916200007091850162000374565b9201519260ff841680940362000349576001928362ffffff196006541617600655815183811162000333576000908154938685811c9516801562000328575b8986101462000314578190601f95868111620002c1575b5089908683116001146200025d57849262000251575b5050600019600383901b1c191690861b1781555b81519384116200023d5784548581811c9116801562000232575b888210146200021e57838111620001d6575b5086928411600114620001705783949596509262000164575b5050600019600383901b1c191690821b1790555b60ff1960025416176002556040516109c39081620003e78239f35b01519050388062000135565b9190601f1984169685845280842093905b888210620001be5750508385969710620001a4575b505050811b01905562000149565b015160001960f88460031b161c1916905538808062000196565b80878596829496860151815501950193019062000181565b8582528782208480870160051c8201928a881062000214575b0160051c019086905b828110620002085750506200011c565b838155018690620001f8565b92508192620001ef565b634e487b7160e01b82526022600452602482fd5b90607f16906200010a565b634e487b7160e01b81526041600452602490fd5b015190503880620000dc565b8480528a85208994509190601f198416865b8d828210620002aa575050841162000290575b505050811b018155620000f0565b015160001960f88460031b161c1916905538808062000282565b8385015186558c979095019493840193016200026f565b9091508380528984208680850160051c8201928c86106200030a575b918a91869594930160051c01915b828110620002fb575050620000c6565b8681558594508a9101620002eb565b92508192620002dd565b634e487b7160e01b83526022600452602483fd5b94607f1694620000af565b634e487b7160e01b600052604160045260246000fd5b600080fd5b6040519190601f01601f191682016001600160401b038111838210176200033357604052565b919080601f84011215620003495782516001600160401b0381116200033357602090620003aa601f8201601f191683016200034e565b92818452828287010111620003495760005b818110620003d257508260009394955001015290565b8581018301518482018401528201620003bc56fe60806040908082526004908136101561001757600080fd5b600092833560e01c9182630462bc87146108035750816306fdde0314610745578163095ea7b31461063957816318160ddd1461061a57816323b872dd146104fb578163313ce567146104d95783826340c10f191461047a57508163565924001461044457816370a082311461040d5781638cf3a01e146103e657816395d89b41146102df578382639dc29fac1461025c57508163a9059cbb146101bb578163a9df7f7714610197578163bf9fee4314610168578163dd62ed3e1461011f575063fbf1945b146100e557600080fd5b3461011b57602036600319011261011b573580151580910361011b5762ff00006006549160101b169062ff000019161760065580f35b5080fd5b83903461011b578060031936011261011b578060209261013d610870565b610145610894565b6001600160a01b0391821683526005865283832091168252845220549051908152f35b50503461011b57602036600319011261011b573580151580910361011b5760ff80196006541691161760065580f35b83903461011b578160031936011261011b5760209060ff6006541690519015158152f35b91905034610258578160031936011261025857602092826101da610870565b91602435923382528487526101f4848484205410156108b3565b6001600160a01b0316936102098515156108f6565b33825280875282822061021d85825461093d565b9055848252865220610230828254610960565b9055825190815260008051602061096e833981519152843392a360ff60065416159051908152f35b8280fd5b929150346102db57806003193601126102db57602060008051602061096e83398151915291610289610870565b6001600160a01b031680865284835281862054909460243592916102af908411156108b3565b85875283528086206102c283825461093d565b90556102d08260035461093d565b60035551908152a380f35b5050fd5b8391503461011b578160031936011261011b578051908260018054908160011c90600183169283156103dc575b60209384841081146103c9578388529081156103ad5750600114610374575b505050829003601f01601f191682019267ffffffffffffffff841183851017610361575082918261035d925282610827565b0390f35b634e487b7160e01b815260418552602490fd5b91925060018652828620918387935b838510610399575050505083010185808061032b565b805488860183015293019284908201610383565b60ff1916878501525050151560051b840101905085808061032b565b634e487b7160e01b895260228a52602489fd5b91607f169161030c565b83903461011b578160031936011261011b5760209060ff60065460101c1690519015158152f35b919050346102585760203660031901126102585760209282916001600160a01b03610436610870565b168252845220549051908152f35b50503461011b57602036600319011261011b573580151580910361011b5761ff006006549160081b169061ff0019161760065580f35b91503461011b578060031936011261011b57602060008051602061096e833981519152916104a6610870565b6001600160a01b031680855294825280842080546024359291906104cb908490610960565b90556102d082600354610960565b83903461011b578160031936011261011b5760209060ff600254169051908152f35b9190503461025857606036600319011261025857610517610870565b61051f610894565b936044359060018060a01b0380931692838252602096858852610547848885205410156108b3565b8483526005885286832033845288528387842054106105de57879260008051602061096e8339815191529492889216966105828815156108f6565b86825280855282822061059685825461093d565b905587825284528181206105ab848254610960565b9055858152600584528181203382528452206105c882825461093d565b90558551908152a360ff60065416159051908152f35b865162461bcd60e51b81528087018990526016602482015275496e73756666696369656e7420616c6c6f77616e636560501b6044820152606490fd5b83903461011b578160031936011261011b576020906003549051908152f35b90508234610742578160031936011261074257610654610870565b906024359060ff60065460101c1680610739575b80610712575b6106cf5760209450838291338152600587528181209460018060a01b0316948582528752205582519081527f8c5be1e5ebec7d5bd14f71427d1e84f3dd0314c0f7b2291e5b200ac8c7c3b925843392a360ff60065460081c16159051908152f35b835162461bcd60e51b8152602081870152601d60248201527f4d7573742073657420616c6c6f77616e636520746f20302066697273740000006044820152606490fd5b50338152600560209081528482206001600160a01b0385168352905283812054151561066e565b50811515610668565b80fd5b8391503461011b578160031936011261011b5780519082835460018160011c90600183169283156107f9575b60209384841081146103c9578388529081156103ad57506001146107c157505050829003601f01601f191682019267ffffffffffffffff841183851017610361575082918261035d925282610827565b919250858052828620918387935b8385106107e5575050505083010185808061032b565b8054888601830152930192849082016107cf565b91607f1691610771565b84903461011b578160031936011261011b5760209060ff60065460081c1615158152f35b6020808252825181830181905290939260005b82811061085c57505060409293506000838284010152601f8019910116010190565b81810186015184820160400152850161083a565b6004356001600160a81b038116810361088f576001600160a01b031690565b600080fd5b6024356001600160a81b038116810361088f576001600160a01b031690565b156108ba57565b60405162461bcd60e51b8152602060048201526014602482015273496e73756666696369656e742062616c616e636560601b6044820152606490fd5b156108fd57565b60405162461bcd60e51b81526020600482015260186024820152775472616e7366657220746f207a65726f206164647265737360401b6044820152606490fd5b9190820391821161094a57565b634e487b7160e01b600052601160045260246000fd5b9190820180921161094a5756feddf252ad1be2c89b69c2b068fc378daa952ba7f163c4a11628f55a4df523b3efa26474726f6e58221220b155b3ac33a0307f3a3f8e6c18df1619196420e3f95f343567272b78d56af03864736f6c63430008180033","opcodes":"PUSH1 0x80 PUSH1 0x40 MSTORE CALLVALUE PUSH3 0x349 JUMPI PUSH3 0xDAA DUP1 CODESIZE SUB DUP1 PUSH3 0x1D DUP2 PUSH3 0x34E JUMP JUMPDEST SWAP3 DUP4 CODECOPY DUP2 ADD SWAP1 PUSH1 0x60 DUP2 DUP4 SUB SLT PUSH3 0x349 JUMPI DUP1 MLOAD PUSH1 0x1 PUSH1 0x1 PUSH1 0x40 SHL SUB SWAP2 SWAP1 DUP3 DUP2 GT PUSH3 0x349 JUMPI DUP4 PUSH3 0x50 SWAP2 DUP4 ADD PUSH3 0x374 JUMP JUMPDEST SWAP2 PUSH1 0x20 SWAP4 DUP5 DUP4 ADD MLOAD DUP3 DUP2 GT PUSH3 0x349 JUMPI PUSH1 0x40 SWAP2 PUSH3 0x70 SWAP2 DUP6 ADD PUSH3 0x374 JUMP JUMPDEST SWAP3 ADD MLOAD SWAP3 PUSH1 0xFF DUP5 AND DUP1 SWAP5 SUB PUSH3 0x349 JUMPI PUSH1 0x1 SWAP3 DUP4 PUSH3 0xFFFFFF NOT PUSH1 0x6 SLOAD AND OR PUSH1 0x6 SSTORE DUP2 MLOAD DUP4 DUP2 GT PUSH3 0x333 JUMPI PUSH1 0x0 SWAP1 DUP2 SLOAD SWAP4 DUP7 DUP6 DUP2 SHR SWAP6 AND DUP1 ISZERO PUSH3 0x328 JUMPI JUMPDEST DUP10 DUP7 LT EQ PUSH3 0x314 JUMPI DUP2 SWAP1 PUSH1 0x1F SWAP6 DUP7 DUP2 GT PUSH3 0x2C1 JUMPI JUMPDEST POP DUP10 SWAP1 DUP7 DUP4 GT PUSH1 0x1 EQ PUSH3 0x25D JUMPI DUP5 SWAP3 PUSH3 0x251 JUMPI JUMPDEST POP POP PUSH1 0x0 NOT PUSH1 0x3 DUP4 SWAP1 SHL SHR NOT AND SWAP1 DUP7 SHL OR DUP2 SSTORE JUMPDEST DUP2 MLOAD SWAP4 DUP5 GT PUSH3 0x23D JUMPI DUP5 SLOAD DUP6 DUP2 DUP2 SHR SWAP2 AND DUP1 ISZERO PUSH3 0x232 JUMPI JUMPDEST DUP9 DUP3 LT EQ PUSH3 0x21E JUMPI DUP4 DUP2 GT PUSH3 0x1D6 JUMPI JUMPDEST POP DUP7 SWAP3 DUP5 GT PUSH1 0x1 EQ PUSH3 0x170 JUMPI DUP4 SWAP5 SWAP6 SWAP7 POP SWAP3 PUSH3 0x164 JUMPI JUMPDEST POP POP PUSH1 0x0 NOT PUSH1 0x3 DUP4 SWAP1 SHL SHR NOT AND SWAP1 DUP3 SHL OR SWAP1 SSTORE JUMPDEST PUSH1 0xFF NOT PUSH1 0x2 SLOAD AND OR PUSH1 0x2 SSTORE PUSH1 0x40 MLOAD PUSH2 0x9C3 SWAP1 DUP2 PUSH3 0x3E7 DUP3 CODECOPY RETURN JUMPDEST ADD MLOAD SWAP1 POP CODESIZE DUP1 PUSH3 0x135 JUMP JUMPDEST SWAP2 SWAP1 PUSH1 0x1F NOT DUP5 AND SWAP7 DUP6 DUP5 MSTORE DUP1 DUP5 KECCAK256 SWAP4 SWAP1 JUMPDEST DUP9 DUP3 LT PUSH3 0x1BE JUMPI POP POP DUP4 DUP6 SWAP7 SWAP8 LT PUSH3 0x1A4 JUMPI JUMPDEST POP POP POP DUP2 SHL ADD SWAP1 SSTORE PUSH3 0x149 JUMP JUMPDEST ADD MLOAD PUSH1 0x0 NOT PUSH1 0xF8 DUP5 PUSH1 0x3 SHL AND SHR NOT AND SWAP1 SSTORE CODESIZE DUP1 DUP1 PUSH3 0x196 JUMP JUMPDEST DUP1 DUP8 DUP6 SWAP7 DUP3 SWAP5 SWAP7 DUP7 ADD MLOAD DUP2 SSTORE ADD SWAP6 ADD SWAP4 ADD SWAP1 PUSH3 0x181 JUMP JUMPDEST DUP6 DUP3 MSTORE DUP8 DUP3 KECCAK256 DUP5 DUP1 DUP8 ADD PUSH1 0x5 SHR DUP3 ADD SWAP3 DUP11 DUP9 LT PUSH3 0x214 JUMPI JUMPDEST ADD PUSH1 0x5 SHR ADD SWAP1 DUP7 SWAP1 JUMPDEST DUP3 DUP2 LT PUSH3 0x208 JUMPI POP POP PUSH3 0x11C JUMP JUMPDEST DUP4 DUP2 SSTORE ADD DUP7 SWAP1 PUSH3 0x1F8 JUMP JUMPDEST SWAP3 POP DUP2 SWAP3 PUSH3 0x1EF JUMP JUMPDEST PUSH4 0x4E487B71 PUSH1 0xE0 SHL DUP3 MSTORE PUSH1 0x22 PUSH1 0x4 MSTORE PUSH1 0x24 DUP3 REVERT JUMPDEST SWAP1 PUSH1 0x7F AND SWAP1 PUSH3 0x10A JUMP JUMPDEST PUSH4 0x4E487B71 PUSH1 0xE0 SHL DUP2 MSTORE PUSH1 0x41 PUSH1 0x4 MSTORE PUSH1 0x24 SWAP1 REVERT JUMPDEST ADD MLOAD SWAP1 POP CODESIZE DUP1 PUSH3 0xDC JUMP JUMPDEST DUP5 DUP1 MSTORE DUP11 DUP6 KECCAK256 DUP10 SWAP5 POP SWAP2 SWAP1 PUSH1 0x1F NOT DUP5 AND DUP7 JUMPDEST DUP14 DUP3 DUP3 LT PUSH3 0x2AA JUMPI POP POP DUP5 GT PUSH3 0x290 JUMPI JUMPDEST POP POP POP DUP2 SHL ADD DUP2 SSTORE PUSH3 0xF0 JUMP JUMPDEST ADD MLOAD PUSH1 0x0 NOT PUSH1 0xF8 DUP5 PUSH1 0x3 SHL AND SHR NOT AND SWAP1 SSTORE CODESIZE DUP1 DUP1 PUSH3 0x282 JUMP JUMPDEST DUP4 DUP6 ADD MLOAD DUP7 SSTORE DUP13 SWAP8 SWAP1 SWAP6 ADD SWAP5 SWAP4 DUP5 ADD SWAP4 ADD PUSH3 0x26F JUMP JUMPDEST SWAP1 SWAP2 POP DUP4 DUP1 MSTORE DUP10 DUP5 KECCAK256 DUP7 DUP1 DUP6 ADD PUSH1 0x5 SHR DUP3 ADD SWAP3 DUP13 DUP7 LT PUSH3 0x30A JUMPI JUMPDEST SWAP2 DUP11 SWAP2 DUP7 SWAP6 SWAP5 SWAP4 ADD PUSH1 0x5 SHR ADD SWAP2 JUMPDEST DUP3 DUP2 LT PUSH3 0x2FB JUMPI POP POP PUSH3 0xC6 JUMP JUMPDEST DUP7 DUP2 SSTORE DUP6 SWAP5 POP DUP11 SWAP2 ADD PUSH3 0x2EB JUMP JUMPDEST SWAP3 POP DUP2 SWAP3 PUSH3 0x2DD JUMP JUMPDEST PUSH4 0x4E487B71 PUSH1 0xE0 SHL DUP4 MSTORE PUSH1 0x22 PUSH1 0x4 MSTORE PUSH1 0x24 DUP4 REVERT JUMPDEST SWAP5 PUSH1 0x7F AND SWAP5 PUSH3 0xAF JUMP JUMPDEST PUSH4 0x4E487B71 PUSH1 0xE0 SHL PUSH1 0x0 MSTORE PUSH1 0x41 PUSH1 0x4 MSTORE PUSH1 0x24 PUSH1 0x0 REVERT JUMPDEST PUSH1 0x0 DUP1 REVERT JUMPDEST PUSH1 0x40 MLOAD SWAP2 SWAP1 PUSH1 0x1F ADD PUSH1 0x1F NOT AND DUP3 ADD PUSH1 0x1 PUSH1 0x1 PUSH1 0x40 SHL SUB DUP2 GT DUP4 DUP3 LT OR PUSH3 0x333 JUMPI PUSH1 0x40 MSTORE JUMP JUMPDEST SWAP2 SWAP1 DUP1 PUSH1 0x1F DUP5 ADD SLT ISZERO PUSH3 0x349 JUMPI DUP3 MLOAD PUSH1 0x1 PUSH1 0x1 PUSH1 0x40 SHL SUB DUP2 GT PUSH3 0x333 JUMPI PUSH1 0x20 SWAP1 PUSH3 0x3AA PUSH1 0x1F DUP3 ADD PUSH1 0x1F NOT AND DUP4 ADD PUSH3 0x34E JUMP JUMPDEST SWAP3 DUP2 DUP5 MSTORE DUP3 DUP3 DUP8 ADD ADD GT PUSH3 0x349 JUMPI PUSH1 0x0 JUMPDEST DUP2 DUP2 LT PUSH3 0x3D2 JUMPI POP DUP3 PUSH1 0x0 SWAP4 SWAP5 SWAP6 POP ADD ADD MSTORE SWAP1 JUMP JUMPDEST DUP6 DUP2 ADD DUP4 ADD MLOAD DUP5 DUP3 ADD DUP5 ADD MSTORE DUP3 ADD PUSH3 0x3BC JUMP INVALID PUSH1 0x80 PUSH1 0x40 SWAP1 DUP1 DUP3 MSTORE PUSH1 0x4 SWAP1 DUP2 CALLDATASIZE LT ISZERO PUSH2 0x17 JUMPI PUSH1 0x0 DUP1 REVERT JUMPDEST PUSH1 0x0 SWAP3 DUP4 CALLDATALOAD PUSH1 0xE0 SHR SWAP2 DUP3 PUSH4 0x462BC87 EQ PUSH2 0x803 JUMPI POP DUP2 PUSH4 0x6FDDE03 EQ PUSH2 0x745 JUMPI DUP2 PUSH4 0x95EA7B3 EQ PUSH2 0x639 JUMPI DUP2 PUSH4 0x18160DDD EQ PUSH2 0x61A JUMPI DUP2 PUSH4 0x23B872DD EQ PUSH2 0x4FB JUMPI DUP2 PUSH4 0x313CE567 EQ PUSH2 0x4D9 JUMPI DUP4 DUP3 PUSH4 0x40C10F19 EQ PUSH2 0x47A JUMPI POP DUP2 PUSH4 0x56592400 EQ PUSH2 0x444 JUMPI DUP2 PUSH4 0x70A08231 EQ PUSH2 0x40D JUMPI DUP2 PUSH4 0x8CF3A01E EQ PUSH2 0x3E6 JUMPI DUP2 PUSH4 0x95D89B41 EQ PUSH2 0x2DF JUMPI DUP4 DUP3 PUSH4 0x9DC29FAC EQ PUSH2 0x25C JUMPI POP DUP2 PUSH4 0xA9059CBB EQ PUSH2 0x1BB JUMPI DUP2 PUSH4 0xA9DF7F77 EQ PUSH2 0x197 JUMPI DUP2 PUSH4 0xBF9FEE43 EQ PUSH2 0x168 JUMPI DUP2 PUSH4 0xDD62ED3E EQ PUSH2 0x11F JUMPI POP PUSH4 0xFBF1945B EQ PUSH2 0xE5 JUMPI PUSH1 0x0 DUP1 REVERT JUMPDEST CALLVALUE PUSH2 0x11B JUMPI PUSH1 0x20 CALLDATASIZE PUSH1 0x3 NOT ADD SLT PUSH2 0x11B JUMPI CALLDATALOAD DUP1 ISZERO ISZERO DUP1 SWAP2 SUB PUSH2 0x11B JUMPI PUSH3 0xFF0000 PUSH1 0x6 SLOAD SWAP2 PUSH1 0x10 SHL AND SWAP1 PUSH3 0xFF0000 NOT AND OR PUSH1 0x6 SSTORE DUP1 RETURN JUMPDEST POP DUP1 REVERT JUMPDEST DUP4 SWAP1 CALLVALUE PUSH2 0x11B JUMPI DUP1 PUSH1 0x3 NOT CALLDATASIZE ADD SLT PUSH2 0x11B JUMPI DUP1 PUSH1 0x20 SWAP3 PUSH2 0x13D PUSH2 0x870 JUMP JUMPDEST PUSH2 0x145 PUSH2 0x894 JUMP JUMPDEST PUSH1 0x1 PUSH1 0x1 PUSH1 0xA0 SHL SUB SWAP2 DUP3 AND DUP4 MSTORE PUSH1 0x5 DUP7 MSTORE DUP4 DUP4 KECCAK256 SWAP2 AND DUP3 MSTORE DUP5 MSTORE KECCAK256 SLOAD SWAP1 MLOAD SWAP1 DUP2 MSTORE RETURN JUMPDEST POP POP CALLVALUE PUSH2 0x11B JUMPI PUSH1 0x20 CALLDATASIZE PUSH1 0x3 NOT ADD SLT PUSH2 0x11B JUMPI CALLDATALOAD DUP1 ISZERO ISZERO DUP1 SWAP2 SUB PUSH2 0x11B JUMPI PUSH1 0xFF DUP1 NOT PUSH1 0x6 SLOAD AND SWAP2 AND OR PUSH1 0x6 SSTORE DUP1 RETURN JUMPDEST DUP4 SWAP1 CALLVALUE PUSH2 0x11B JUMPI DUP2 PUSH1 0x3 NOT CALLDATASIZE ADD SLT PUSH2 0x11B JUMPI PUSH1 0x20 SWAP1 PUSH1 0xFF PUSH1 0x6 SLOAD AND SWAP1 MLOAD SWAP1 ISZERO ISZERO DUP2 MSTORE RETURN JUMPDEST SWAP2 SWAP1 POP CALLVALUE PUSH2 0x258 JUMPI DUP2 PUSH1 0x3 NOT CALLDATASIZE ADD SLT PUSH2 0x258 JUMPI PUSH1 0x20 SWAP3 DUP3 PUSH2 0x1DA PUSH2 0x870 JUMP JUMPDEST SWAP2 PUSH1 0x24 CALLDATALOAD SWAP3 CALLER DUP3 MSTORE DUP5 DUP8 MSTORE PUSH2 0x1F4 DUP5 DUP5 DUP5 KECCAK256 SLOAD LT ISZERO PUSH2 0x8B3 JUMP JUMPDEST PUSH1 0x1 PUSH1 0x1 PUSH1 0xA0 SHL SUB AND SWAP4 PUSH2 0x209 DUP6 ISZERO ISZERO PUSH2 0x8F6 JUMP JUMPDEST CALLER DUP3 MSTORE DUP1 DUP8 MSTORE DUP3 DUP3 KECCAK256 PUSH2 0x21D DUP6 DUP3 SLOAD PUSH2 0x93D JUMP JUMPDEST SWAP1 SSTORE DUP5 DUP3 MSTORE DUP7 MSTORE KECCAK256 PUSH2 0x230 DUP3 DUP3 SLOAD PUSH2 0x960 JUMP JUMPDEST SWAP1 SSTORE DUP3 MLOAD SWAP1 DUP2 MSTORE PUSH1 0x0 DUP1 MLOAD PUSH1 0x20 PUSH2 0x96E DUP4 CODECOPY DUP2 MLOAD SWAP2 MSTORE DUP5 CALLER SWAP3 LOG3 PUSH1 0xFF PUSH1 0x6 SLOAD AND ISZERO SWAP1 MLOAD SWAP1 DUP2 MSTORE RETURN JUMPDEST DUP3 DUP1 REVERT JUMPDEST SWAP3 SWAP2 POP CALLVALUE PUSH2 0x2DB JUMPI DUP1 PUSH1 0x3 NOT CALLDATASIZE ADD SLT PUSH2 0x2DB JUMPI PUSH1 0x20 PUSH1 0x0 DUP1 MLOAD PUSH1 0x20 PUSH2 0x96E DUP4 CODECOPY DUP2 MLOAD SWAP2 MSTORE SWAP2 PUSH2 0x289 PUSH2 0x870 JUMP JUMPDEST PUSH1 0x1 PUSH1 0x1 PUSH1 0xA0 SHL SUB AND DUP1 DUP7 MSTORE DUP5 DUP4 MSTORE DUP2 DUP7 KECCAK256 SLOAD SWAP1 SWAP5 PUSH1 0x24 CALLDATALOAD SWAP3 SWAP2 PUSH2 0x2AF SWAP1 DUP5 GT ISZERO PUSH2 0x8B3 JUMP JUMPDEST DUP6 DUP8 MSTORE DUP4 MSTORE DUP1 DUP7 KECCAK256 PUSH2 0x2C2 DUP4 DUP3 SLOAD PUSH2 0x93D JUMP JUMPDEST SWAP1 SSTORE PUSH2 0x2D0 DUP3 PUSH1 0x3 SLOAD PUSH2 0x93D JUMP JUMPDEST PUSH1 0x3 SSTORE MLOAD SWAP1 DUP2 MSTORE LOG3 DUP1 RETURN JUMPDEST POP POP REVERT JUMPDEST DUP4 SWAP2 POP CALLVALUE PUSH2 0x11B JUMPI DUP2 PUSH1 0x3 NOT CALLDATASIZE ADD SLT PUSH2 0x11B JUMPI DUP1 MLOAD SWAP1 DUP3 PUSH1 0x1 DUP1 SLOAD SWAP1 DUP2 PUSH1 0x1 SHR SWAP1 PUSH1 0x1 DUP4 AND SWAP3 DUP4 ISZERO PUSH2 0x3DC JUMPI JUMPDEST PUSH1 0x20 SWAP4 DUP5 DUP5 LT DUP2 EQ PUSH2 0x3C9 JUMPI DUP4 DUP9 MSTORE SWAP1 DUP2 ISZERO PUSH2 0x3AD JUMPI POP PUSH1 0x1 EQ PUSH2 0x374 JUMPI JUMPDEST POP POP POP DUP3 SWAP1 SUB PUSH1 0x1F ADD PUSH1 0x1F NOT AND DUP3 ADD SWAP3 PUSH8 0xFFFFFFFFFFFFFFFF DUP5 GT DUP4 DUP6 LT OR PUSH2 0x361 JUMPI POP DUP3 SWAP2 DUP3 PUSH2 0x35D SWAP3 MSTORE DUP3 PUSH2 0x827 JUMP JUMPDEST SUB SWAP1 RETURN JUMPDEST PUSH4 0x4E487B71 PUSH1 0xE0 SHL DUP2 MSTORE PUSH1 0x41 DUP6 MSTORE PUSH1 0x24 SWAP1 REVERT JUMPDEST SWAP2 SWAP3 POP PUSH1 0x1 DUP7 MSTORE DUP3 DUP7 KECCAK256 SWAP2 DUP4 DUP8 SWAP4 JUMPDEST DUP4 DUP6 LT PUSH2 0x399 JUMPI POP POP POP POP DUP4 ADD ADD DUP6 DUP1 DUP1 PUSH2 0x32B JUMP JUMPDEST DUP1 SLOAD DUP9 DUP7 ADD DUP4 ADD MSTORE SWAP4 ADD SWAP3 DUP5 SWAP1 DUP3 ADD PUSH2 0x383 JUMP JUMPDEST PUSH1 0xFF NOT AND DUP8 DUP6 ADD MSTORE POP POP ISZERO ISZERO PUSH1 0x5 SHL DUP5 ADD ADD SWAP1 POP DUP6 DUP1 DUP1 PUSH2 0x32B JUMP JUMPDEST PUSH4 0x4E487B71 PUSH1 0xE0 SHL DUP10 MSTORE PUSH1 0x22 DUP11 MSTORE PUSH1 0x24 DUP10 REVERT JUMPDEST SWAP2 PUSH1 0x7F AND SWAP2 PUSH2 0x30C JUMP JUMPDEST DUP4 SWAP1 CALLVALUE PUSH2 0x11B JUMPI DUP2 PUSH1 0x3 NOT CALLDATASIZE ADD SLT PUSH2 0x11B JUMPI PUSH1 0x20 SWAP1 PUSH1 0xFF PUSH1 0x6 SLOAD PUSH1 0x10 SHR AND SWAP1 MLOAD SWAP1 ISZERO ISZERO DUP2 MSTORE RETURN JUMPDEST SWAP2 SWAP1 POP CALLVALUE PUSH2 0x258 JUMPI PUSH1 0x20 CALLDATASIZE PUSH1 0x3 NOT ADD SLT PUSH2 0x258 JUMPI PUSH1 0x20 SWAP3 DUP3 SWAP2 PUSH1 0x1 PUSH1 0x1 PUSH1 0xA0 SHL SUB PUSH2 0x436 PUSH2 0x870 JUMP JUMPDEST AND DUP3 MSTORE DUP5 MSTORE KECCAK256 SLOAD SWAP1 MLOAD SWAP1 DUP2 MSTORE RETURN JUMPDEST POP POP CALLVALUE PUSH2 0x11B JUMPI PUSH1 0x20 CALLDATASIZE PUSH1 0x3 NOT ADD SLT PUSH2 0x11B JUMPI CALLDATALOAD DUP1 ISZERO ISZERO DUP1 SWAP2 SUB PUSH2 0x11B JUMPI PUSH2 0xFF00 PUSH1 0x6 SLOAD SWAP2 PUSH1 0x8 SHL AND SWAP1 PUSH2 0xFF00 NOT AND OR PUSH1 0x6 SSTORE DUP1 RETURN JUMPDEST SWAP2 POP CALLVALUE PUSH2 0x11B JUMPI DUP1 PUSH1 0x3 NOT CALLDATASIZE ADD SLT PUSH2 0x11B JUMPI PUSH1 0x20 PUSH1 0x0 DUP1 MLOAD PUSH1 0x20 PUSH2 0x96E DUP4 CODECOPY DUP2 MLOAD SWAP2 MSTORE SWAP2 PUSH2 0x4A6 PUSH2 0x870 JUMP JUMPDEST PUSH1 0x1 PUSH1 0x1 PUSH1 0xA0 SHL SUB AND DUP1 DUP6 MSTORE SWAP5 DUP3 MSTORE DUP1 DUP5 KECCAK256 DUP1 SLOAD PUSH1 0x24 CALLDATALOAD SWAP3 SWAP2 SWAP1 PUSH2 0x4CB SWAP1 DUP5 SWAP1 PUSH2 0x960 JUMP JUMPDEST SWAP1 SSTORE PUSH2 0x2D0 DUP3 PUSH1 0x3 SLOAD PUSH2 0x960 JUMP JUMPDEST DUP4 SWAP1 CALLVALUE PUSH2 0x11B JUMPI DUP2 PUSH1 0x3 NOT CALLDATASIZE ADD SLT PUSH2 0x11B JUMPI PUSH1 0x20 SWAP1 PUSH1 0xFF PUSH1 0x2 SLOAD AND SWAP1 MLOAD SWAP1 DUP2 MSTORE RETURN JUMPDEST SWAP2 SWAP1 POP CALLVALUE PUSH2 0x258 JUMPI PUSH1 0x60 CALLDATASIZE PUSH1 0x3 NOT ADD SLT PUSH2 0x258 JUMPI PUSH2 0x517 PUSH2 0x870 JUMP JUMPDEST PUSH2 0x51F PUSH2 0x894 JUMP JUMPDEST SWAP4 PUSH1 0x44 CALLDATALOAD SWAP1 PUSH1 0x1 DUP1 PUSH1 0xA0 SHL SUB DUP1 SWAP4 AND SWAP3 DUP4 DUP3 MSTORE PUSH1 0x20 SWAP7 DUP6 DUP9 MSTORE PUSH2 0x547 DUP5 DUP9 DUP6 KECCAK256 SLOAD LT ISZERO PUSH2 0x8B3 JUMP JUMPDEST DUP5 DUP4 MSTORE PUSH1 0x5 DUP9 MSTORE DUP7 DUP4 KECCAK256 CALLER DUP5 MSTORE DUP9 MSTORE DUP4 DUP8 DUP5 KECCAK256 SLOAD LT PUSH2 0x5DE JUMPI DUP8 SWAP3 PUSH1 0x0 DUP1 MLOAD PUSH1 0x20 PUSH2 0x96E DUP4 CODECOPY DUP2 MLOAD SWAP2 MSTORE SWAP5 SWAP3 DUP9 SWAP3 AND SWAP7 PUSH2 0x582 DUP9 ISZERO ISZERO PUSH2 0x8F6 JUMP JUMPDEST DUP7 DUP3 MSTORE DUP1 DUP6 MSTORE DUP3 DUP3 KECCAK256 PUSH2 0x596 DUP6 DUP3 SLOAD PUSH2 0x93D JUMP JUMPDEST SWAP1 SSTORE DUP8 DUP3 MSTORE DUP5 MSTORE DUP2 DUP2 KECCAK256 PUSH2 0x5AB DUP5 DUP3 SLOAD PUSH2 0x960 JUMP JUMPDEST SWAP1 SSTORE DUP6 DUP2 MSTORE PUSH1 0x5 DUP5 MSTORE DUP2 DUP2 KECCAK256 CALLER DUP3 MSTORE DUP5 MSTORE KECCAK256 PUSH2 0x5C8 DUP3 DUP3 SLOAD PUSH2 0x93D JUMP JUMPDEST SWAP1 SSTORE DUP6 MLOAD SWAP1 DUP2 MSTORE LOG3 PUSH1 0xFF PUSH1 0x6 SLOAD AND ISZERO SWAP1 MLOAD SWAP1 DUP2 MSTORE RETURN JUMPDEST DUP7 MLOAD PUSH3 0x461BCD PUSH1 0xE5 SHL DUP2 MSTORE DUP1 DUP8 ADD DUP10 SWAP1 MSTORE PUSH1 0x16 PUSH1 0x24 DUP3 ADD MSTORE PUSH22 0x496E73756666696369656E7420616C6C6F77616E6365 PUSH1 0x50 SHL PUSH1 0x44 DUP3 ADD MSTORE PUSH1 0x64 SWAP1 REVERT JUMPDEST DUP4 SWAP1 CALLVALUE PUSH2 0x11B JUMPI DUP2 PUSH1 0x3 NOT CALLDATASIZE ADD SLT PUSH2 0x11B JUMPI PUSH1 0x20 SWAP1 PUSH1 0x3 SLOAD SWAP1 MLOAD SWAP1 DUP2 MSTORE RETURN JUMPDEST SWAP1 POP DUP3 CALLVALUE PUSH2 0x742 JUMPI DUP2 PUSH1 0x3 NOT CALLDATASIZE ADD SLT PUSH2 0x742 JUMPI PUSH2 0x654 PUSH2 0x870 JUMP JUMPDEST SWAP1 PUSH1 0x24 CALLDATALOAD SWAP1 PUSH1 0xFF PUSH1 0x6 SLOAD PUSH1 0x10 SHR AND DUP1 PUSH2 0x739 JUMPI JUMPDEST DUP1 PUSH2 0x712 JUMPI JUMPDEST PUSH2 0x6CF JUMPI PUSH1 0x20 SWAP5 POP DUP4 DUP3 SWAP2 CALLER DUP2 MSTORE PUSH1 0x5 DUP8 MSTORE DUP2 DUP2 KECCAK256 SWAP5 PUSH1 0x1 DUP1 PUSH1 0xA0 SHL SUB AND SWAP5 DUP6 DUP3 MSTORE DUP8 MSTORE KECCAK256 SSTORE DUP3 MLOAD SWAP1 DUP2 MSTORE PUSH32 0x8C5BE1E5EBEC7D5BD14F71427D1E84F3DD0314C0F7B2291E5B200AC8C7C3B925 DUP5 CALLER SWAP3 LOG3 PUSH1 0xFF PUSH1 0x6 SLOAD PUSH1 0x8 SHR AND ISZERO SWAP1 MLOAD SWAP1 DUP2 MSTORE RETURN JUMPDEST DUP4 MLOAD PUSH3 0x461BCD PUSH1 0xE5 SHL DUP2 MSTORE PUSH1 0x20 DUP2 DUP8 ADD MSTORE PUSH1 0x1D PUSH1 0x24 DUP3 ADD MSTORE PUSH32 0x4D7573742073657420616C6C6F77616E636520746F2030206669727374000000 PUSH1 0x44 DUP3 ADD MSTORE PUSH1 0x64 SWAP1 REVERT JUMPDEST POP CALLER DUP2 MSTORE PUSH1 0x5 PUSH1 0x20 SWAP1 DUP2 MSTORE DUP5 DUP3 KECCAK256 PUSH1 0x1 PUSH1 0x1 PUSH1 0xA0 SHL SUB DUP6 AND DUP4 MSTORE SWAP1 MSTORE DUP4 DUP2 KECCAK256 SLOAD ISZERO ISZERO PUSH2 0x66E JUMP JUMPDEST POP DUP2 ISZERO ISZERO PUSH2 0x668 JUMP JUMPDEST DUP1 REVERT JUMPDEST DUP4 SWAP2 POP CALLVALUE PUSH2 0x11B JUMPI DUP2 PUSH1 0x3 NOT CALLDATASIZE ADD SLT PUSH2 0x11B JUMPI DUP1 MLOAD SWAP1 DUP3 DUP4 SLOAD PUSH1 0x1 DUP2 PUSH1 0x1 SHR SWAP1 PUSH1 0x1 DUP4 AND SWAP3 DUP4 ISZERO PUSH2 0x7F9 JUMPI JUMPDEST PUSH1 0x20 SWAP4 DUP5 DUP5 LT DUP2 EQ PUSH2 0x3C9 JUMPI DUP4 DUP9 MSTORE SWAP1 DUP2 ISZERO PUSH2 0x3AD JUMPI POP PUSH1 0x1 EQ PUSH2 0x7C1 JUMPI POP POP POP DUP3 SWAP1 SUB PUSH1 0x1F ADD PUSH1 0x1F NOT AND DUP3 ADD SWAP3 PUSH8 0xFFFFFFFFFFFFFFFF DUP5 GT DUP4 DUP6 LT OR PUSH2 0x361 JUMPI POP DUP3 SWAP2 DUP3 PUSH2 0x35D SWAP3 MSTORE DUP3 PUSH2 0x827 JUMP JUMPDEST SWAP2 SWAP3 POP DUP6 DUP1 MSTORE DUP3 DUP7 KECCAK256 SWAP2 DUP4 DUP8 SWAP4 JUMPDEST DUP4 DUP6 LT PUSH2 0x7E5 JUMPI POP POP POP POP DUP4 ADD ADD DUP6 DUP1 DUP1 PUSH2 0x32B JUMP JUMPDEST DUP1 SLOAD DUP9 DUP7 ADD DUP4 ADD MSTORE SWAP4 ADD SWAP3 DUP5 SWAP1 DUP3 ADD PUSH2 0x7CF JUMP JUMPDEST SWAP2 PUSH1 0x7F AND SWAP2 PUSH2 0x771 JUMP JUMPDEST DUP5 SWAP1 CALLVALUE PUSH2 0x11B JUMPI DUP2 PUSH1 0x3 NOT CALLDATASIZE ADD SLT PUSH2 0x11B JUMPI PUSH1 0x20 SWAP1 PUSH1 0xFF PUSH1 0x6 SLOAD PUSH1 0x8 SHR AND ISZERO ISZERO DUP2 MSTORE RETURN JUMPDEST PUSH1 0x20 DUP1 DUP3 MSTORE DUP3 MLOAD DUP2 DUP4 ADD DUP2 SWAP1 MSTORE SWAP1 SWAP4 SWAP3 PUSH1 0x0 JUMPDEST DUP3 DUP2 LT PUSH2 0x85C JUMPI POP POP PUSH1 0x40 SWAP3 SWAP4 POP PUSH1 0x0 DUP4 DUP3 DUP5 ADD ADD MSTORE PUSH1 0x1F DUP1 NOT SWAP2 ADD AND ADD ADD SWAP1 JUMP JUMPDEST DUP2 DUP2 ADD DUP7 ADD MLOAD DUP5 DUP3 ADD PUSH1 0x40 ADD MSTORE DUP6 ADD PUSH2 0x83A JUMP JUMPDEST PUSH1 0x4 CALLDATALOAD PUSH1 0x1 PUSH1 0x1 PUSH1 0xA8 SHL SUB DUP2 AND DUP2 SUB PUSH2 0x88F JUMPI PUSH1 0x1 PUSH1 0x1 PUSH1 0xA0 SHL SUB AND SWAP1 JUMP JUMPDEST PUSH1 0x0 DUP1 REVERT JUMPDEST PUSH1 0x24 CALLDATALOAD PUSH1 0x1 PUSH1 0x1 PUSH1 0xA8 SHL SUB DUP2 AND DUP2 SUB PUSH2 0x88F JUMPI PUSH1 0x1 PUSH1 0x1 PUSH1 0xA0 SHL SUB AND SWAP1 JUMP JUMPDEST ISZERO PUSH2 0x8BA JUMPI JUMP JUMPDEST PUSH1 0x40 MLOAD PUSH3 0x461BCD PUSH1 0xE5 SHL DUP2 MSTORE PUSH1 0x20 PUSH1 0x4 DUP3 ADD MSTORE PUSH1 0x14 PUSH1 0x24 DUP3 ADD MSTORE PUSH20 0x496E73756666696369656E742062616C616E6365 PUSH1 0x60 SHL PUSH1 0x44 DUP3 ADD MSTORE PUSH1 0x64 SWAP1 REVERT JUMPDEST ISZERO PUSH2 0x8FD JUMPI JUMP JUMPDEST PUSH1 0x40 MLOAD PUSH3 0x461BCD PUSH1 0xE5 SHL DUP2 MSTORE PUSH1 0x20 PUSH1 0x4 DUP3 ADD MSTORE PUSH1 0x18 PUSH1 0x24 DUP3 ADD MSTORE PUSH24 0x5472616E7366657220746F207A65726F2061646472657373 PUSH1 0x40 SHL PUSH1 0x44 DUP3 ADD MSTORE PUSH1 0x64 SWAP1 REVERT JUMPDEST SWAP2 SWAP1 DUP3 SUB SWAP2 DUP3 GT PUSH2 0x94A JUMPI JUMP JUMPDEST PUSH4 0x4E487B71 PUSH1 0xE0 SHL PUSH1 0x0 MSTORE PUSH1 0x11 PUSH1 0x4 MSTORE PUSH1 0x24 PUSH1 0x0 REVERT JUMPDEST SWAP2 SWAP1 DUP3 ADD DUP1 SWAP3 GT PUSH2 0x94A JUMPI JUMP INVALID NATIVEWITHDRAWEXPIREUNFREEZE CALLCODE MSTORE 0xAD SHL 0xE2 0xC8 SWAP12 PUSH10 0xC2B068FC378DAA952BA7 CALL PUSH4 0xC4A11628 CREATE2 GAS 0x4D CREATE2 0x23 0xB3 0xEF LOG2 PUSH5 0x74726F6E58 0x22 SLT KECCAK256 0xB1 SSTORE 0xB3 0xAC CALLER LOG0 ADDRESS PUSH32 0x3A3F8E6C18DF1619196420E3F95F343567272B78D56AF03864736F6C63430008 XOR STOP CALLER "},"gasEstimates":{"creation":{"codeDepositCost":"499800","executionCost":"infinite","totalCost":"infinite"},"external":{"allowance(address,address)":"2954","approve(address,uint256)":"30945","balanceOf(address)":"2634","burn(address,uint256)":"infinite","decimals()":"2401","mint(address,uint256)":"infinite","name()":"infinite","requireZeroAllowanceFirst()":"2506","returnFalseOnApprove()":"2292","returnFalseOnTransfer()":"2593","setRequireZeroAllowanceFirst(bool)":"24783","setReturnFalseOnApprove(bool)":"24585","setReturnFalseOnTransfer(bool)":"24735","symbol()":"infinite","totalSupply()":"2351","transfer(address,uint256)":"infinite","transferFrom(address,address,uint256)":"infinite"}},"methodIdentifiers":{"allowance(address,address)":"dd62ed3e","approve(address,uint256)":"095ea7b3","balanceOf(address)":"70a08231","burn(address,uint256)":"9dc29fac","decimals()":"313ce567","mint(address,uint256)":"40c10f19","name()":"06fdde03","requireZeroAllowanceFirst()":"8cf3a01e","returnFalseOnApprove()":"0462bc87","returnFalseOnTransfer()":"a9df7f77","setRequireZeroAllowanceFirst(bool)":"fbf1945b","setReturnFalseOnApprove(bool)":"56592400","setReturnFalseOnTransfer(bool)":"bf9fee43","symbol()":"95d89b41","totalSupply()":"18160ddd","transfer(address,uint256)":"a9059cbb","transferFrom(address,address,uint256)":"23b872dd"}},"storageLayout":{"storage":[{"astId":610,"contract":"contracts/mock/MockBuggyUSDT.sol:MockBuggyUSDT","label":"name","offset":0,"slot":"0","type":"t_string_storage"},{"astId":612,"contract":"contracts/mock/MockBuggyUSDT.sol:MockBuggyUSDT","label":"symbol","offset":0,"slot":"1","type":"t_string_storage"},{"astId":614,"contract":"contracts/mock/MockBuggyUSDT.sol:MockBuggyUSDT","label":"decimals","offset":0,"slot":"2","type":"t_uint8"},{"astId":616,"contract":"contracts/mock/MockBuggyUSDT.sol:MockBuggyUSDT","label":"totalSupply","offset":0,"slot":"3","type":"t_uint256"},{"astId":620,"contract":"contracts/mock/MockBuggyUSDT.sol:MockBuggyUSDT","label":"balanceOf","offset":0,"slot":"4","type":"t_mapping(t_address,t_uint256)"},{"astId":626,"contract":"contracts/mock/MockBuggyUSDT.sol:MockBuggyUSDT","label":"allowance","offset":0,"slot":"5","type":"t_mapping(t_address,t_mapping(t_address,t_uint256))"},{"astId":629,"contract":"contracts/mock/MockBuggyUSDT.sol:MockBuggyUSDT","label":"returnFalseOnTransfer","offset":0,"slot":"6","type":"t_bool"},{"astId":632,"contract":"contracts/mock/MockBuggyUSDT.sol:MockBuggyUSDT","label":"returnFalseOnApprove","offset":1,"slot":"6","type":"t_bool"},{"astId":635,"contract":"contracts/mock/MockBuggyUSDT.sol:MockBuggyUSDT","label":"requireZeroAllowanceFirst","offset":2,"slot":"6","type":"t_bool"}],"types":{"t_address":{"encoding":"inplace","label":"address","numberOfBytes":"20"},"t_bool":{"encoding":"inplace","label":"bool","numberOfBytes":"1"},"t_mapping(t_address,t_mapping(t_address,t_uint256))":{"encoding":"mapping","key":"t_address","label":"mapping(address => mapping(address => uint256))","numberOfBytes":"32","value":"t_mapping(t_address,t_uint256)"},"t_mapping(t_address,t_uint256)":{"encoding":"mapping","key":"t_address","label":"mapping(address => uint256)","numberOfBytes":"32","value":"t_uint256"},"t_string_storage":{"encoding":"bytes","label":"string","numberOfBytes":"32"},"t_uint256":{"encoding":"inplace","label":"uint256","numberOfBytes":"32"},"t_uint8":{"encoding":"inplace","label":"uint8","numberOfBytes":"1"}}},"userdoc":{"kind":"user","methods":{},"notice":"Simulates TRON USDT bug where transfer/transferFrom return false instead of true","version":1}}}}