{
  "_format": "hh-sol-artifact-1",
  "contractName": "SafeERC20UniversalHarness",
  "sourceName": "contracts/mock/SafeERC20UniversalHarness.sol",
  "abi": [
    {
      "inputs": [
        {
          "internalType": "address",
          "name": "token",
          "type": "address"
        }
      ],
      "name": "SafeERC20UniversalFailedOperation",
      "type": "error"
    },
    {
      "inputs": [
        {
          "internalType": "address",
          "name": "token",
          "type": "address"
        },
        {
          "internalType": "uint256",
          "name": "expected",
          "type": "uint256"
        },
        {
          "internalType": "uint256",
          "name": "received",
          "type": "uint256"
        }
      ],
      "name": "SafeERC20UniversalInsufficientReceived",
      "type": "error"
    },
    {
      "anonymous": false,
      "inputs": [
        {
          "indexed": false,
          "internalType": "address",
          "name": "token",
          "type": "address"
        },
        {
          "indexed": false,
          "internalType": "address",
          "name": "spender",
          "type": "address"
        },
        {
          "indexed": false,
          "internalType": "uint256",
          "name": "amount",
          "type": "uint256"
        }
      ],
      "name": "ApprovalCompleted",
      "type": "event"
    },
    {
      "anonymous": false,
      "inputs": [
        {
          "indexed": false,
          "internalType": "address",
          "name": "token",
          "type": "address"
        },
        {
          "indexed": false,
          "internalType": "address",
          "name": "to",
          "type": "address"
        },
        {
          "indexed": false,
          "internalType": "uint256",
          "name": "amount",
          "type": "uint256"
        }
      ],
      "name": "TransferCompleted",
      "type": "event"
    },
    {
      "anonymous": false,
      "inputs": [
        {
          "indexed": false,
          "internalType": "address",
          "name": "token",
          "type": "address"
        },
        {
          "indexed": false,
          "internalType": "address",
          "name": "from",
          "type": "address"
        },
        {
          "indexed": false,
          "internalType": "address",
          "name": "to",
          "type": "address"
        },
        {
          "indexed": false,
          "internalType": "uint256",
          "name": "amount",
          "type": "uint256"
        }
      ],
      "name": "TransferFromCompleted",
      "type": "event"
    },
    {
      "inputs": [
        {
          "internalType": "contract IERC20",
          "name": "token",
          "type": "address"
        },
        {
          "internalType": "address",
          "name": "spender",
          "type": "address"
        },
        {
          "internalType": "uint256",
          "name": "amount",
          "type": "uint256"
        }
      ],
      "name": "testForceApprove",
      "outputs": [],
      "stateMutability": "nonpayable",
      "type": "function"
    },
    {
      "inputs": [
        {
          "internalType": "contract IERC20",
          "name": "token",
          "type": "address"
        },
        {
          "internalType": "address",
          "name": "spender",
          "type": "address"
        },
        {
          "internalType": "uint256",
          "name": "amount",
          "type": "uint256"
        }
      ],
      "name": "testSafeApprove",
      "outputs": [],
      "stateMutability": "nonpayable",
      "type": "function"
    },
    {
      "inputs": [
        {
          "internalType": "contract IERC20",
          "name": "token",
          "type": "address"
        },
        {
          "internalType": "address",
          "name": "spender",
          "type": "address"
        },
        {
          "internalType": "uint256",
          "name": "subtractedValue",
          "type": "uint256"
        }
      ],
      "name": "testSafeDecreaseAllowance",
      "outputs": [],
      "stateMutability": "nonpayable",
      "type": "function"
    },
    {
      "inputs": [
        {
          "internalType": "contract IERC20",
          "name": "token",
          "type": "address"
        },
        {
          "internalType": "address",
          "name": "spender",
          "type": "address"
        },
        {
          "internalType": "uint256",
          "name": "addedValue",
          "type": "uint256"
        }
      ],
      "name": "testSafeIncreaseAllowance",
      "outputs": [],
      "stateMutability": "nonpayable",
      "type": "function"
    },
    {
      "inputs": [
        {
          "internalType": "contract IERC20",
          "name": "token",
          "type": "address"
        },
        {
          "internalType": "address",
          "name": "to",
          "type": "address"
        },
        {
          "internalType": "uint256",
          "name": "amount",
          "type": "uint256"
        }
      ],
      "name": "testSafeTransfer",
      "outputs": [],
      "stateMutability": "nonpayable",
      "type": "function"
    },
    {
      "inputs": [
        {
          "internalType": "contract IERC20",
          "name": "token",
          "type": "address"
        },
        {
          "internalType": "address",
          "name": "to",
          "type": "address"
        },
        {
          "internalType": "uint256",
          "name": "amount",
          "type": "uint256"
        }
      ],
      "name": "testSafeTransferExact",
      "outputs": [],
      "stateMutability": "nonpayable",
      "type": "function"
    },
    {
      "inputs": [
        {
          "internalType": "contract IERC20",
          "name": "token",
          "type": "address"
        },
        {
          "internalType": "address",
          "name": "from",
          "type": "address"
        },
        {
          "internalType": "address",
          "name": "to",
          "type": "address"
        },
        {
          "internalType": "uint256",
          "name": "amount",
          "type": "uint256"
        }
      ],
      "name": "testSafeTransferFrom",
      "outputs": [],
      "stateMutability": "nonpayable",
      "type": "function"
    },
    {
      "inputs": [
        {
          "internalType": "contract IERC20",
          "name": "token",
          "type": "address"
        },
        {
          "internalType": "address",
          "name": "from",
          "type": "address"
        },
        {
          "internalType": "address",
          "name": "to",
          "type": "address"
        },
        {
          "internalType": "uint256",
          "name": "amount",
          "type": "uint256"
        }
      ],
      "name": "testSafeTransferFromExact",
      "outputs": [],
      "stateMutability": "nonpayable",
      "type": "function"
    },
    {
      "inputs": [
        {
          "internalType": "contract IERC20",
          "name": "token",
          "type": "address"
        },
        {
          "internalType": "uint256",
          "name": "amount",
          "type": "uint256"
        }
      ],
      "name": "testSelfTransfer",
      "outputs": [],
      "stateMutability": "nonpayable",
      "type": "function"
    },
    {
      "inputs": [
        {
          "internalType": "contract IERC20",
          "name": "token",
          "type": "address"
        },
        {
          "internalType": "uint256",
          "name": "amount",
          "type": "uint256"
        }
      ],
      "name": "testSelfTransferExact",
      "outputs": [],
      "stateMutability": "nonpayable",
      "type": "function"
    },
    {
      "inputs": [
        {
          "internalType": "contract IERC20",
          "name": "token",
          "type": "address"
        },
        {
          "internalType": "address",
          "name": "account",
          "type": "address"
        },
        {
          "internalType": "uint256",
          "name": "amount",
          "type": "uint256"
        }
      ],
      "name": "testSelfTransferFrom",
      "outputs": [],
      "stateMutability": "nonpayable",
      "type": "function"
    },
    {
      "inputs": [
        {
          "internalType": "contract IERC20",
          "name": "token",
          "type": "address"
        },
        {
          "internalType": "address",
          "name": "account",
          "type": "address"
        },
        {
          "internalType": "uint256",
          "name": "amount",
          "type": "uint256"
        }
      ],
      "name": "testSelfTransferFromExact",
      "outputs": [],
      "stateMutability": "nonpayable",
      "type": "function"
    },
    {
      "stateMutability": "payable",
      "type": "receive"
    }
  ],
  "bytecode": "0x6080806040523461001657610d09908161001c8239f35b600080fdfe6080604081815260049182361015610022575b505050361561002057600080fd5b005b600092833560e01c918263060a0bbb146104ff5750816308315314146104cd578163269016e2146103a25781636729ff111461036e57816375231e611461033b578163771f9559146103085781639ce0ba011461022157508063b6b821ee146101f0578063eb05d7b4146101b5578063eb30046414610165578063f4cac4fe146101035763f705d961146100b65780610012565b346100ff576100f9600080516020610c94833981519152916100d7366106bc565b909391926100e6828686610ba4565b519384936001600160a01b03168461074e565b0390a180f35b5080fd5b50346100ff576100f9600080516020610c7483398151915291610125366106bc565b9082936101368383808099976109d7565b516001600160a01b03948516815294841660208601529092166040840152606083019190915281906080820190565b50346100ff57806003193601126100ff57600080516020610c948339815191529061018e610698565b6100f9602435926101a0843085610b12565b5192839230906001600160a01b03168461074e565b50346100ff57806003193601126100ff57600080516020610c94833981519152906101de610698565b6100f9602435926101a0843085610ba4565b50346100ff576100f9600080516020610c9483398151915291610212366106bc565b909391926100e6828686610b12565b8383346100ff57610231366106bc565b8351636eb1769f60e11b8152308782019081526001600160a01b038085166020838101919091529496908616959394909391839081906040010381885afa9182156102fe5787926102c6575b508382018092116102b357916102a986959492600080516020610cb4833981519152976100f9956107e8565b519384938461074e565b634e487b7160e01b875260118852602487fd5b9091506020813d6020116102f6575b816102e260209383610770565b810103126102f25751908861027d565b8680fd5b3d91506102d5565b83513d89823e3d90fd5b5050346100ff576100f9600080516020610c748339815191529161032b366106fd565b9194929361013683838888610850565b5050346100ff576100f9600080516020610c748339815191529161035e366106fd565b91949293610136838388886109d7565b5050346100ff576100f9600080516020610c7483398151915291610391366106bc565b908293610136838380809997610850565b839150346100ff576103b3366106bc565b8551636eb1769f60e11b8152308186019081526001600160a01b0380851660208381019190915294969086169593949091839081906040010381885afa9182156104c357879261048f575b508382106104315750956102a983928661042b6100f996600080516020610cb48339815191529a9b61082d565b916107e8565b608490602089519162461bcd60e51b8352820152603260248201527f536166654552433230556e6976657273616c3a2064656372656173656420616c6044820152716c6f77616e63652062656c6f77207a65726f60701b6064820152fd5b9091506020813d6020116104bb575b816104ab60209383610770565b810103126102f2575190886103fe565b3d915061049e565b88513d89823e3d90fd5b5050346100ff576100f9600080516020610cb4833981519152916104f0366106bc565b909391926100e68286866107e8565b8490843461069457610510366106bc565b63095ea7b360e01b602086018181526001600160a01b0384811660248901526044808901859052885293968585169693959394601f19949290918a918291610559606482610770565b5190828b5af16105676107a8565b9015908115610657575b50610598575b88600080516020610cb483398151915289896100f98a8a519384938461074e565b84519083602083015288166024820152886044820152604481526080810181811067ffffffffffffffff82111761064457600080516020610cb4833981519152999a5085949392916105f0916100f998975282610c30565b84610602575b89985083949550610577565b835160208101929092526001600160a01b0388166024830152604482018590526064928301825261063c926106379083610770565b610c30565b8780806105f6565b634e487b7160e01b8a5260418b5260248afd5b805180151592508261066c575b50508b610571565b81925090602091810103126106905760200151801590811503610690578b80610664565b8980fd5b8280fd5b6004356001600160a81b03811681036106b7576001600160a01b031690565b600080fd5b60609060031901126106b7576001600160a81b039060043582811681036106b7576001600160a01b039081169260243590811681036106b757169060443590565b60809060031901126106b757600435906001600160a81b039081831683036106b7576001600160a01b039283169260243583811681036106b75781169260443590811681036106b757169060643590565b6001600160a01b03918216815291166020820152604081019190915260600190565b90601f8019910116810190811067ffffffffffffffff82111761079257604052565b634e487b7160e01b600052604160045260246000fd5b3d156107e3573d9067ffffffffffffffff821161079257604051916107d7601f8201601f191660200184610770565b82523d6000602084013e565b606090565b60405163095ea7b360e01b60208201526001600160a01b039092166024830152604482019290925261082b9161063782606481015b03601f198101845283610770565b565b9190820391821161083a57565b634e487b7160e01b600052601160045260246000fd5b91909183156109d1576040918251906020906323b872dd60e01b8284015261088f8361088189848a6024850161074e565b03601f198101855284610770565b6001600160a01b0390811695811686146109c1578316948451926370a0823160e01b9485855282600486015283856024818b5afa9485156109b657600095610983575b50906108dd91610c30565b845193845260048401528083602481885afa90811561097857600091610948575b50610909925061082d565b908382036109175750505050565b516360a9c06560e11b81526001600160a01b0392909216600483015260248201929092526044810191909152606490fd5b905082813d8311610971575b61095e8183610770565b810103126106b7576109099151386108fe565b503d610954565b84513d6000823e3d90fd5b919094508382813d83116109af575b61099c8183610770565b810103126106b7579051936108dd6108d2565b503d610992565b87513d6000823e3d90fd5b50509250905061082b9250610c30565b50505050565b90929182156109d157604092835191610a07836108816020946323b872dd60e01b86840152848a6024850161074e565b6001600160a01b039081169581168614610b04578316948451926370a0823160e01b9485855282600486015283856024818b5afa9485156109b657600095610ad1575b5090610a5591610c30565b845193845260048401528083602481885afa90811561097857600091610aa1575b50610a81925061082d565b15610a8a575050565b602492505190631321be3f60e21b82526004820152fd5b905082813d8311610aca575b610ab78183610770565b810103126106b757610a81915138610a76565b503d610aad565b919094508382813d8311610afd575b610aea8183610770565b810103126106b757905193610a55610a4a565b503d610ae0565b5050915061082b9250610c30565b8215610b9f576040805163a9059cbb60e01b6020808301919091526001600160a01b038516602483015260448201869052919291610b53826064810161081d565b6001600160a01b03948516943086146109c1578316948451926370a0823160e01b9485855282600486015283856024818b5afa9485156109b6576000956109835750906108dd91610c30565b505050565b9190918115610b9f576040805163a9059cbb60e01b6020808301919091526001600160a01b038616602483015260448201949094529092610be8826064810161081d565b6001600160a01b0394851694308614610b04578316948451926370a0823160e01b9485855282600486015283856024818b5afa9485156109b657600095610ad1575090610a55915b81516001600160a01b0390911691600091829160200182855af1610c526107a8565b5015610c5b5750565b60249060405190631321be3f60e21b82526004820152fdfe3b08826e54bbc0c367efe1f423c2c31d695c94c94def34042b31f265d482ffcb0300ac1392a8a3b96b8b9c8eb7bf6ad973c028c4cea499a0936076cbdbe87ecfe981a08dd3c1cdf62f187c2181f3209ec4141d36faa1283ffefcd51cddc64edfa26474726f6e5822122063e14544cc574dac8d3866edeb51a6fca252bfe12f88daa083d2919d2041ebff64736f6c63430008180033",
  "linkReferences": {},
  "deployedLinkReferences": {}
}