{
  "_format": "hh-sol-artifact-1",
  "contractName": "SimpleBox",
  "sourceName": "contracts/test/SimpleBox.sol",
  "abi": [
    {
      "inputs": [
        {
          "internalType": "address",
          "name": "owner_",
          "type": "address"
        }
      ],
      "name": "initialize",
      "outputs": [],
      "stateMutability": "nonpayable",
      "type": "function"
    },
    {
      "inputs": [],
      "name": "owner",
      "outputs": [
        {
          "internalType": "address",
          "name": "",
          "type": "address"
        }
      ],
      "stateMutability": "view",
      "type": "function"
    },
    {
      "inputs": [],
      "name": "retrieve",
      "outputs": [
        {
          "internalType": "uint256",
          "name": "",
          "type": "uint256"
        }
      ],
      "stateMutability": "view",
      "type": "function"
    },
    {
      "inputs": [
        {
          "internalType": "uint256",
          "name": "value",
          "type": "uint256"
        }
      ],
      "name": "store",
      "outputs": [],
      "stateMutability": "nonpayable",
      "type": "function"
    },
    {
      "inputs": [],
      "name": "version",
      "outputs": [
        {
          "internalType": "string",
          "name": "",
          "type": "string"
        }
      ],
      "stateMutability": "pure",
      "type": "function"
    }
  ],
  "bytecode": "0x608080604052346100165761021f908161001c8239f35b600080fdfe60806040818152600436101561001457600080fd5b600091823560e01c9081632e64cec1146101cf5750806354fd4d50146101365780636057361d146101195780638da5cb5b146100f15763c4d66de81461005957600080fd5b346100ed5760203660031901126100ed57600435906001600160a81b03821682036100e9576001549060ff8260a01c166100b057506001600160a81b0319166001600160a01b0390911617600160a01b1760015580f35b5162461bcd60e51b8152602060048201526013602482015272105b1c9958591e481a5b9a5d1a585b1a5e9959606a1b6044820152606490fd5b8280fd5b5080fd5b50346100ed57816003193601126100ed5760015490516001600160a01b039091168152602090f35b823461013357602036600319011261013357600435815580f35b80fd5b50346100ed57816003193601126100ed57805181810181811067ffffffffffffffff8211176101bb5782526002815260209061563160f01b6020820152825193849260208452825192836020860152825b8481106101a557505050828201840152601f01601f19168101030190f35b8181018301518882018801528795508201610187565b634e487b7160e01b84526041600452602484fd5b8390346100ed57816003193601126100ed57602091548152f3fea26474726f6e58221220a181cead1029d2f6e3f475c1c40788f9e2b0715c777f71c54cb55a45527e1cde64736f6c63430008180033",
  "linkReferences": {},
  "deployedLinkReferences": {}
}