{
  "_format": "hh-sol-artifact-1",
  "contractName": "SimpleBoxV2",
  "sourceName": "contracts/test/SimpleBox.sol",
  "abi": [
    {
      "inputs": [],
      "name": "increment",
      "outputs": [],
      "stateMutability": "nonpayable",
      "type": "function"
    },
    {
      "inputs": [
        {
          "internalType": "address",
          "name": "owner_",
          "type": "address"
        }
      ],
      "name": "initialize",
      "outputs": [],
      "stateMutability": "nonpayable",
      "type": "function"
    },
    {
      "inputs": [],
      "name": "owner",
      "outputs": [
        {
          "internalType": "address",
          "name": "",
          "type": "address"
        }
      ],
      "stateMutability": "view",
      "type": "function"
    },
    {
      "inputs": [],
      "name": "retrieve",
      "outputs": [
        {
          "internalType": "uint256",
          "name": "",
          "type": "uint256"
        }
      ],
      "stateMutability": "view",
      "type": "function"
    },
    {
      "inputs": [
        {
          "internalType": "uint256",
          "name": "value",
          "type": "uint256"
        }
      ],
      "name": "store",
      "outputs": [],
      "stateMutability": "nonpayable",
      "type": "function"
    },
    {
      "inputs": [],
      "name": "version",
      "outputs": [
        {
          "internalType": "string",
          "name": "",
          "type": "string"
        }
      ],
      "stateMutability": "pure",
      "type": "function"
    }
  ],
  "bytecode": "0x6080806040523461001657610343908161001c8239f35b600080fdfe608060408181526004908136101561001657600080fd5b600092833560e01c9081632e64cec1146102f35750806354fd4d50146102575780636057361d1461023e5780638da5cb5b14610211578063c4d66de8146101805763d09de08a1461006657600080fd5b3461017c578260031936011261017c578051632e64cec160e01b8152916020838281305afa9283156100ff578493610120575b506001830180931161010d57303b1561010957815192636057361d60e01b845281840152838360248183305af180156100ff576100d4578380f35b67ffffffffffffffff83116100ec5750523880808380f35b634e487b7160e01b845260419052602483fd5b82513d86823e3d90fd5b8380fd5b634e487b7160e01b845260119052602483fd5b90925060203d602011610175575b601f8101601f1916820167ffffffffffffffff81118382101761016257602091839185528101031261010957519138610099565b634e487b7160e01b865260418552602486fd5b503d61012e565b8280fd5b503461017c57602036600319011261017c578135916001600160a81b0383168303610109576001549160ff8360a01c166101d85750506001600160a81b0319166001600160a01b0390911617600160a01b1760015580f35b906020606492519162461bcd60e51b83528201526013602482015272105b1c9958591e481a5b9a5d1a585b1a5e9959606a1b6044820152fd5b83823461023a578160031936011261023a5760015490516001600160a01b039091168152602090f35b5080fd5b50503461023a57602036600319011261023a5735815580f35b50903461017c578260031936011261017c578151908282019082821067ffffffffffffffff8311176102e05750825260028152602090612b1960f11b6020820152825193849260208452825192836020860152825b8481106102ca57505050828201840152601f01601f19168101030190f35b81810183015188820188015287955082016102ac565b634e487b7160e01b855260419052602484fd5b84903461023a578160031936011261023a57602091548152f3fea26474726f6e582212205cc3d6617284281bfc0931e62b9144e0073c2fef741c3172ebef7fe47f5606cb64736f6c63430008180033",
  "linkReferences": {},
  "deployedLinkReferences": {}
}