{
  "_format": "hh-sol-artifact-1",
  "contractName": "PayTheFly",
  "sourceName": "contracts/v1/evm/PayTheFly.sol",
  "abi": [
    {
      "inputs": [],
      "stateMutability": "nonpayable",
      "type": "constructor"
    },
    {
      "inputs": [
        {
          "internalType": "address",
          "name": "target",
          "type": "address"
        }
      ],
      "name": "AddressEmptyCode",
      "type": "error"
    },
    {
      "inputs": [],
      "name": "ECDSAInvalidSignature",
      "type": "error"
    },
    {
      "inputs": [
        {
          "internalType": "uint256",
          "name": "length",
          "type": "uint256"
        }
      ],
      "name": "ECDSAInvalidSignatureLength",
      "type": "error"
    },
    {
      "inputs": [
        {
          "internalType": "bytes32",
          "name": "s",
          "type": "bytes32"
        }
      ],
      "name": "ECDSAInvalidSignatureS",
      "type": "error"
    },
    {
      "inputs": [
        {
          "internalType": "address",
          "name": "implementation",
          "type": "address"
        }
      ],
      "name": "ERC1967InvalidImplementation",
      "type": "error"
    },
    {
      "inputs": [],
      "name": "ERC1967NonPayable",
      "type": "error"
    },
    {
      "inputs": [],
      "name": "FailedCall",
      "type": "error"
    },
    {
      "inputs": [
        {
          "internalType": "uint256",
          "name": "balance",
          "type": "uint256"
        },
        {
          "internalType": "uint256",
          "name": "needed",
          "type": "uint256"
        }
      ],
      "name": "InsufficientBalance",
      "type": "error"
    },
    {
      "inputs": [],
      "name": "InvalidInitialization",
      "type": "error"
    },
    {
      "inputs": [],
      "name": "NotInitializing",
      "type": "error"
    },
    {
      "inputs": [
        {
          "internalType": "address",
          "name": "owner",
          "type": "address"
        }
      ],
      "name": "OwnableInvalidOwner",
      "type": "error"
    },
    {
      "inputs": [
        {
          "internalType": "address",
          "name": "account",
          "type": "address"
        }
      ],
      "name": "OwnableUnauthorizedAccount",
      "type": "error"
    },
    {
      "inputs": [],
      "name": "ReentrancyGuardReentrantCall",
      "type": "error"
    },
    {
      "inputs": [
        {
          "internalType": "address",
          "name": "token",
          "type": "address"
        }
      ],
      "name": "SafeERC20FailedOperation",
      "type": "error"
    },
    {
      "inputs": [],
      "name": "UUPSUnauthorizedCallContext",
      "type": "error"
    },
    {
      "inputs": [
        {
          "internalType": "bytes32",
          "name": "slot",
          "type": "bytes32"
        }
      ],
      "name": "UUPSUnsupportedProxiableUUID",
      "type": "error"
    },
    {
      "anonymous": false,
      "inputs": [
        {
          "indexed": false,
          "internalType": "string",
          "name": "projectId",
          "type": "string"
        },
        {
          "indexed": true,
          "internalType": "address",
          "name": "token",
          "type": "address"
        },
        {
          "indexed": false,
          "internalType": "uint256",
          "name": "feeAmount",
          "type": "uint256"
        },
        {
          "indexed": true,
          "internalType": "address",
          "name": "feeVault",
          "type": "address"
        },
        {
          "indexed": false,
          "internalType": "string",
          "name": "serialNo",
          "type": "string"
        }
      ],
      "name": "FeeCollected",
      "type": "event"
    },
    {
      "anonymous": false,
      "inputs": [
        {
          "indexed": false,
          "internalType": "uint256",
          "name": "oldRate",
          "type": "uint256"
        },
        {
          "indexed": false,
          "internalType": "uint256",
          "name": "newRate",
          "type": "uint256"
        }
      ],
      "name": "FeeRateChanged",
      "type": "event"
    },
    {
      "anonymous": false,
      "inputs": [
        {
          "indexed": true,
          "internalType": "address",
          "name": "oldVault",
          "type": "address"
        },
        {
          "indexed": true,
          "internalType": "address",
          "name": "newVault",
          "type": "address"
        }
      ],
      "name": "FeeVaultChanged",
      "type": "event"
    },
    {
      "anonymous": false,
      "inputs": [
        {
          "indexed": false,
          "internalType": "uint64",
          "name": "version",
          "type": "uint64"
        }
      ],
      "name": "Initialized",
      "type": "event"
    },
    {
      "anonymous": false,
      "inputs": [
        {
          "indexed": true,
          "internalType": "address",
          "name": "previousOwner",
          "type": "address"
        },
        {
          "indexed": true,
          "internalType": "address",
          "name": "newOwner",
          "type": "address"
        }
      ],
      "name": "OwnershipTransferred",
      "type": "event"
    },
    {
      "anonymous": false,
      "inputs": [
        {
          "indexed": false,
          "internalType": "enum PayTheFly.PauseLevel",
          "name": "oldLevel",
          "type": "uint8"
        },
        {
          "indexed": false,
          "internalType": "enum PayTheFly.PauseLevel",
          "name": "newLevel",
          "type": "uint8"
        }
      ],
      "name": "PauseLevelChanged",
      "type": "event"
    },
    {
      "anonymous": false,
      "inputs": [
        {
          "indexed": false,
          "internalType": "address",
          "name": "account",
          "type": "address"
        }
      ],
      "name": "Paused",
      "type": "event"
    },
    {
      "anonymous": false,
      "inputs": [
        {
          "indexed": false,
          "internalType": "string",
          "name": "projectId",
          "type": "string"
        },
        {
          "indexed": false,
          "internalType": "string",
          "name": "name",
          "type": "string"
        },
        {
          "indexed": false,
          "internalType": "address",
          "name": "creator",
          "type": "address"
        },
        {
          "indexed": false,
          "internalType": "address",
          "name": "signer",
          "type": "address"
        }
      ],
      "name": "ProjectCreated",
      "type": "event"
    },
    {
      "anonymous": false,
      "inputs": [
        {
          "indexed": false,
          "internalType": "string",
          "name": "projectId",
          "type": "string"
        },
        {
          "indexed": false,
          "internalType": "bool",
          "name": "active",
          "type": "bool"
        }
      ],
      "name": "ProjectStatusChanged",
      "type": "event"
    },
    {
      "anonymous": false,
      "inputs": [
        {
          "indexed": false,
          "internalType": "string",
          "name": "projectId",
          "type": "string"
        },
        {
          "indexed": false,
          "internalType": "string",
          "name": "name",
          "type": "string"
        },
        {
          "indexed": false,
          "internalType": "address",
          "name": "signer",
          "type": "address"
        }
      ],
      "name": "ProjectUpdated",
      "type": "event"
    },
    {
      "anonymous": false,
      "inputs": [
        {
          "indexed": false,
          "internalType": "string",
          "name": "projectId",
          "type": "string"
        },
        {
          "indexed": false,
          "internalType": "address",
          "name": "token",
          "type": "address"
        },
        {
          "indexed": false,
          "internalType": "address",
          "name": "account",
          "type": "address"
        },
        {
          "indexed": false,
          "internalType": "uint256",
          "name": "amount",
          "type": "uint256"
        },
        {
          "indexed": false,
          "internalType": "uint256",
          "name": "fee",
          "type": "uint256"
        },
        {
          "indexed": false,
          "internalType": "string",
          "name": "serialNo",
          "type": "string"
        },
        {
          "indexed": false,
          "internalType": "enum IPayTheFly.TxType",
          "name": "txType",
          "type": "uint8"
        }
      ],
      "name": "Transaction",
      "type": "event"
    },
    {
      "anonymous": false,
      "inputs": [
        {
          "indexed": false,
          "internalType": "address",
          "name": "account",
          "type": "address"
        }
      ],
      "name": "Unpaused",
      "type": "event"
    },
    {
      "anonymous": false,
      "inputs": [
        {
          "indexed": true,
          "internalType": "address",
          "name": "implementation",
          "type": "address"
        }
      ],
      "name": "Upgraded",
      "type": "event"
    },
    {
      "stateMutability": "payable",
      "type": "fallback"
    },
    {
      "inputs": [],
      "name": "DOMAIN_SEPARATOR",
      "outputs": [
        {
          "internalType": "bytes32",
          "name": "",
          "type": "bytes32"
        }
      ],
      "stateMutability": "view",
      "type": "function"
    },
    {
      "inputs": [],
      "name": "UPGRADE_INTERFACE_VERSION",
      "outputs": [
        {
          "internalType": "string",
          "name": "",
          "type": "string"
        }
      ],
      "stateMutability": "view",
      "type": "function"
    },
    {
      "inputs": [
        {
          "internalType": "string",
          "name": "projectId",
          "type": "string"
        },
        {
          "internalType": "address",
          "name": "token",
          "type": "address"
        },
        {
          "internalType": "uint256",
          "name": "amount",
          "type": "uint256"
        },
        {
          "internalType": "address",
          "name": "recipient",
          "type": "address"
        }
      ],
      "name": "adminWithdraw",
      "outputs": [],
      "stateMutability": "nonpayable",
      "type": "function"
    },
    {
      "inputs": [
        {
          "internalType": "string",
          "name": "projectId",
          "type": "string"
        },
        {
          "internalType": "string",
          "name": "name",
          "type": "string"
        },
        {
          "internalType": "address",
          "name": "signer",
          "type": "address"
        }
      ],
      "name": "createProject",
      "outputs": [],
      "stateMutability": "nonpayable",
      "type": "function"
    },
    {
      "inputs": [
        {
          "internalType": "string",
          "name": "projectId",
          "type": "string"
        },
        {
          "internalType": "address",
          "name": "token",
          "type": "address"
        },
        {
          "internalType": "uint256",
          "name": "amount",
          "type": "uint256"
        }
      ],
      "name": "depositToWithdrawalPool",
      "outputs": [],
      "stateMutability": "payable",
      "type": "function"
    },
    {
      "inputs": [
        {
          "internalType": "string",
          "name": "projectId",
          "type": "string"
        }
      ],
      "name": "doesProjectExist",
      "outputs": [
        {
          "internalType": "bool",
          "name": "",
          "type": "bool"
        }
      ],
      "stateMutability": "view",
      "type": "function"
    },
    {
      "inputs": [],
      "name": "feeRate",
      "outputs": [
        {
          "internalType": "uint256",
          "name": "",
          "type": "uint256"
        }
      ],
      "stateMutability": "view",
      "type": "function"
    },
    {
      "inputs": [],
      "name": "feeVault",
      "outputs": [
        {
          "internalType": "address",
          "name": "",
          "type": "address"
        }
      ],
      "stateMutability": "view",
      "type": "function"
    },
    {
      "inputs": [
        {
          "internalType": "address",
          "name": "creator",
          "type": "address"
        }
      ],
      "name": "getCreatorProjectCount",
      "outputs": [
        {
          "internalType": "uint256",
          "name": "",
          "type": "uint256"
        }
      ],
      "stateMutability": "view",
      "type": "function"
    },
    {
      "inputs": [
        {
          "internalType": "address",
          "name": "creator",
          "type": "address"
        }
      ],
      "name": "getCreatorProjects",
      "outputs": [
        {
          "internalType": "string[]",
          "name": "",
          "type": "string[]"
        }
      ],
      "stateMutability": "view",
      "type": "function"
    },
    {
      "inputs": [
        {
          "internalType": "address",
          "name": "creator",
          "type": "address"
        },
        {
          "internalType": "uint256",
          "name": "offset",
          "type": "uint256"
        },
        {
          "internalType": "uint256",
          "name": "limit",
          "type": "uint256"
        }
      ],
      "name": "getCreatorProjectsPaginated",
      "outputs": [
        {
          "internalType": "string[]",
          "name": "projectIds",
          "type": "string[]"
        },
        {
          "internalType": "uint256",
          "name": "total",
          "type": "uint256"
        }
      ],
      "stateMutability": "view",
      "type": "function"
    },
    {
      "inputs": [
        {
          "internalType": "string",
          "name": "projectId",
          "type": "string"
        }
      ],
      "name": "getProject",
      "outputs": [
        {
          "components": [
            {
              "internalType": "string",
              "name": "projectId",
              "type": "string"
            },
            {
              "internalType": "string",
              "name": "name",
              "type": "string"
            },
            {
              "internalType": "address",
              "name": "creator",
              "type": "address"
            },
            {
              "internalType": "address",
              "name": "signer",
              "type": "address"
            },
            {
              "internalType": "bool",
              "name": "active",
              "type": "bool"
            }
          ],
          "internalType": "struct IPayTheFly.Project",
          "name": "",
          "type": "tuple"
        }
      ],
      "stateMutability": "view",
      "type": "function"
    },
    {
      "inputs": [
        {
          "internalType": "string",
          "name": "projectId",
          "type": "string"
        },
        {
          "internalType": "address",
          "name": "token",
          "type": "address"
        }
      ],
      "name": "getProjectBalance",
      "outputs": [
        {
          "components": [
            {
              "internalType": "uint256",
              "name": "paymentBalance",
              "type": "uint256"
            },
            {
              "internalType": "uint256",
              "name": "withdrawalBalance",
              "type": "uint256"
            }
          ],
          "internalType": "struct IPayTheFly.ProjectBalance",
          "name": "",
          "type": "tuple"
        }
      ],
      "stateMutability": "view",
      "type": "function"
    },
    {
      "inputs": [],
      "name": "initialize",
      "outputs": [],
      "stateMutability": "nonpayable",
      "type": "function"
    },
    {
      "inputs": [
        {
          "internalType": "string",
          "name": "projectId",
          "type": "string"
        },
        {
          "internalType": "string",
          "name": "serialNo",
          "type": "string"
        }
      ],
      "name": "isPaymentSerialNoUsed",
      "outputs": [
        {
          "internalType": "bool",
          "name": "",
          "type": "bool"
        }
      ],
      "stateMutability": "view",
      "type": "function"
    },
    {
      "inputs": [
        {
          "internalType": "string",
          "name": "projectId",
          "type": "string"
        },
        {
          "internalType": "string",
          "name": "withdrawalSerialNo",
          "type": "string"
        }
      ],
      "name": "isWithdrawalSerialNoUsed",
      "outputs": [
        {
          "internalType": "bool",
          "name": "",
          "type": "bool"
        }
      ],
      "stateMutability": "view",
      "type": "function"
    },
    {
      "inputs": [],
      "name": "owner",
      "outputs": [
        {
          "internalType": "address",
          "name": "",
          "type": "address"
        }
      ],
      "stateMutability": "view",
      "type": "function"
    },
    {
      "inputs": [],
      "name": "pause",
      "outputs": [],
      "stateMutability": "nonpayable",
      "type": "function"
    },
    {
      "inputs": [],
      "name": "pauseLevel",
      "outputs": [
        {
          "internalType": "enum PayTheFly.PauseLevel",
          "name": "",
          "type": "uint8"
        }
      ],
      "stateMutability": "view",
      "type": "function"
    },
    {
      "inputs": [
        {
          "internalType": "string",
          "name": "projectId",
          "type": "string"
        },
        {
          "internalType": "address",
          "name": "token",
          "type": "address"
        },
        {
          "internalType": "uint256",
          "name": "amount",
          "type": "uint256"
        },
        {
          "internalType": "string",
          "name": "serialNo",
          "type": "string"
        }
      ],
      "name": "pay",
      "outputs": [],
      "stateMutability": "payable",
      "type": "function"
    },
    {
      "inputs": [
        {
          "components": [
            {
              "internalType": "string",
              "name": "projectId",
              "type": "string"
            },
            {
              "internalType": "address",
              "name": "token",
              "type": "address"
            },
            {
              "internalType": "uint256",
              "name": "amount",
              "type": "uint256"
            },
            {
              "internalType": "string",
              "name": "serialNo",
              "type": "string"
            },
            {
              "internalType": "uint256",
              "name": "deadline",
              "type": "uint256"
            }
          ],
          "internalType": "struct IPayTheFly.PaymentRequest",
          "name": "request",
          "type": "tuple"
        },
        {
          "internalType": "bytes",
          "name": "signature",
          "type": "bytes"
        }
      ],
      "name": "payWithSign",
      "outputs": [],
      "stateMutability": "payable",
      "type": "function"
    },
    {
      "inputs": [],
      "name": "proxiableUUID",
      "outputs": [
        {
          "internalType": "bytes32",
          "name": "",
          "type": "bytes32"
        }
      ],
      "stateMutability": "view",
      "type": "function"
    },
    {
      "inputs": [],
      "name": "renounceOwnership",
      "outputs": [],
      "stateMutability": "nonpayable",
      "type": "function"
    },
    {
      "inputs": [
        {
          "internalType": "uint256",
          "name": "newFeeRate",
          "type": "uint256"
        }
      ],
      "name": "setFeeRate",
      "outputs": [],
      "stateMutability": "nonpayable",
      "type": "function"
    },
    {
      "inputs": [
        {
          "internalType": "address",
          "name": "newFeeVault",
          "type": "address"
        }
      ],
      "name": "setFeeVault",
      "outputs": [],
      "stateMutability": "nonpayable",
      "type": "function"
    },
    {
      "inputs": [
        {
          "internalType": "enum PayTheFly.PauseLevel",
          "name": "level",
          "type": "uint8"
        }
      ],
      "name": "setPauseLevel",
      "outputs": [],
      "stateMutability": "nonpayable",
      "type": "function"
    },
    {
      "inputs": [
        {
          "internalType": "string",
          "name": "projectId",
          "type": "string"
        },
        {
          "internalType": "bool",
          "name": "active",
          "type": "bool"
        }
      ],
      "name": "setProjectStatus",
      "outputs": [],
      "stateMutability": "nonpayable",
      "type": "function"
    },
    {
      "inputs": [
        {
          "internalType": "address",
          "name": "newOwner",
          "type": "address"
        }
      ],
      "name": "transferOwnership",
      "outputs": [],
      "stateMutability": "nonpayable",
      "type": "function"
    },
    {
      "inputs": [],
      "name": "unpause",
      "outputs": [],
      "stateMutability": "nonpayable",
      "type": "function"
    },
    {
      "inputs": [
        {
          "internalType": "string",
          "name": "projectId",
          "type": "string"
        },
        {
          "internalType": "string",
          "name": "name",
          "type": "string"
        },
        {
          "internalType": "address",
          "name": "signer",
          "type": "address"
        }
      ],
      "name": "updateProject",
      "outputs": [],
      "stateMutability": "nonpayable",
      "type": "function"
    },
    {
      "inputs": [
        {
          "internalType": "address",
          "name": "newImplementation",
          "type": "address"
        },
        {
          "internalType": "bytes",
          "name": "data",
          "type": "bytes"
        }
      ],
      "name": "upgradeToAndCall",
      "outputs": [],
      "stateMutability": "payable",
      "type": "function"
    },
    {
      "inputs": [
        {
          "components": [
            {
              "internalType": "address",
              "name": "user",
              "type": "address"
            },
            {
              "internalType": "string",
              "name": "projectId",
              "type": "string"
            },
            {
              "internalType": "address",
              "name": "token",
              "type": "address"
            },
            {
              "internalType": "uint256",
              "name": "amount",
              "type": "uint256"
            },
            {
              "internalType": "string",
              "name": "serialNo",
              "type": "string"
            },
            {
              "internalType": "uint256",
              "name": "deadline",
              "type": "uint256"
            }
          ],
          "internalType": "struct IPayTheFly.WithdrawalRequest",
          "name": "request",
          "type": "tuple"
        },
        {
          "internalType": "bytes",
          "name": "signature",
          "type": "bytes"
        }
      ],
      "name": "withdraw",
      "outputs": [],
      "stateMutability": "nonpayable",
      "type": "function"
    },
    {
      "inputs": [
        {
          "internalType": "string",
          "name": "projectId",
          "type": "string"
        },
        {
          "internalType": "address",
          "name": "token",
          "type": "address"
        },
        {
          "internalType": "uint256",
          "name": "amount",
          "type": "uint256"
        },
        {
          "internalType": "address",
          "name": "recipient",
          "type": "address"
        }
      ],
      "name": "withdrawFromWithdrawalPool",
      "outputs": [],
      "stateMutability": "nonpayable",
      "type": "function"
    },
    {
      "stateMutability": "payable",
      "type": "receive"
    }
  ],
  "bytecode": "0x60a08060405234620000d157306080527ff0c57e16840df040f15088dc2f81fe391c3923bec73e23a9662efc9c229c6a009081549060ff8260401c16620000c257506001600160401b036002600160401b0319828216016200007c575b604051613f7c9081620000d7823960805181818161215a01526123390152f35b6001600160401b031990911681179091556040519081527fc7f505b2f371ae2175ee4913f4499e1f2633a7b5936321eed1cdaeb6115181d290602090a13880806200005c565b63f92ee8a960e01b8152600490fd5b600080fdfe608060405260048036101561001a575b503661389d5761389d565b600090813560e01c80630439e24d146129785780631eda82ed146126b65780633644e515146126935780633f4ba83a146125ce57806345596e2e14612529578063478222c2146125005780634f1ef286146122e95780634fa691e2146121af57806352d1902d1461214557806353fc732a1461210c57806360ae1e9214611e7f578063715018a614611e155780637342918814611de1578063765f39f914611c545780638129fc1c14611afc5780638456cb5914611a295780638a2fa607146119e75780638b2bbdd4146119755780638da5cb5b1461193f57806391059ec314611703578063978bbdb9146116e5578063a4944cc61461162a578063a591f97f14611575578063aae435dd146113b8578063ad3cb1cc1461136e578063c36023d914610fd7578063c5b42dcf14610ab7578063c86e61d014610a61578063e5b14e4d14610a16578063e61399b8146109ee578063e7e4a858146108dd578063f2fde38b146108ad5763fca7446314610192575061000f565b6003196040368201126108a9578135906001600160401b0382116108a55760a09082360301126108a9576024356001600160401b0381116108a5576101da9036908401612aee565b6101e26138e2565b61020560ff8654166101f381612ced565b60018114159081610890575b50612e03565b61025960ff6003602061021a888801806134de565b919061023b8560405185848237848187810160028152030190205416612e68565b82604051938492833781016001815203019020015460a01c1661333f565b61026860448401351515612f0a565b6102784260848501351015613524565b610287606484018486016134de565b801515915081610884575b5015610834576102df60ff6102d760206102ae888801806134de565b919082604051938492833781018a8152030190206102d160648801888a016134de565b90612e4f565b54161561338a565b6102eb60418214613565565b60036102f9858501806134de565b91908260405191823760019281019283529182900360200190912001546001600160a01b03169161032b8315156135bd565b61034161033a868601806134de565b3691612ba3565b6020815191012061035460248601613510565b61036661033a60648801888a016134de565b602081519101206040519160208301937ff64ca923ee0c500d90db7e8041fb883cf771d9942df7f423f532e2286021e2718552604084015260018060a01b031660608301526044870135608083015260a0820152608486013560c082015260c0815260e081018181106001600160401b03821117610821576104549361044b9361046e9796936104459360405251902061042c61043a6104046139e2565b92604051928391602083019586909160429261190160f01b8352600283015260228201520190565b03601f198101835282612b67565b519020923691612ba3565b90613d1e565b90929192613d5a565b6001600160a01b0316610468811515613613565b1461365f565b6001600160a01b0361048260248301613510565b166106ba5761057d61058e600080516020613f07833981519152936104ac60448501353414612fd1565b6044840135905b6104e760206104c4838801806134de565b91908260405193849283378101858152030190206102d1606488018885016134de565b600160ff198254161790558682600854801515806106a6575b6105a6575b506020610514848901806134de565b91908260405193849283376003908201908152030190206001600160a01b0361053f60248a01613510565b168a5260205261055460408a2091825461301d565b9055610562828701806134de565b95909261057160248901613510565b976064810191016134de565b93909260405197889733928961348d565b0390a16001600080516020613f278339815191525580f35b61271092506105b691508461344a565b046105c18184612f4f565b816105cd575b38610505565b6001600160a01b036105e160248901613510565b16610676576009546105fd9083906001600160a01b0316613b3f565b610609838801806134de565b907f7a02b4deff3edfde3ad93177f54882008050e0cf01740ca799372bc31a7364c561063760248b01613510565b6009546001600160a01b0316939061066e61065760648e018a8f016134de565b908960405195869560018060a01b0316988661345d565b0390a36105c7565b6106a1826001600160a01b0361068e60248b01613510565b6009546001600160a01b03169116613ac0565b6105fd565b506009546001600160a01b03161515610500565b6106c434156133e8565b6001600160a01b036106d860248301613510565b166040516020816024816370a0823160e01b9586825230898301525afa9081156107e45785916107ef575b5061072b6001600160a01b0361071b60248601613510565b1660448501359030903390613912565b60206001600160a01b0361074160248601613510565b1692602460405180958193825230898301525afa9182156107e457859261079e575b50600080516020613f078339815191529361079361057d9361078d61058e94604488013592612f4f565b14612f72565b6044840135906104b3565b91506020823d6020116107dc575b816107b960209383612b67565b810103126107d857905190600080516020613f07833981519152610763565b8480fd5b3d91506107ac565b6040513d87823e3d90fd5b90506020813d602011610819575b8161080a60209383612b67565b810103126107d8575138610703565b3d91506107fd565b634e487b7160e01b895260418852602489fd5b60405162461bcd60e51b8152602081860152602360248201527f506179546865466c793a20696e76616c69642073657269616c206e6f206c656e6044820152620cee8d60eb1b6064820152608490fd5b60809150111538610292565b6003915061089d81612ced565b1415386101ff565b8380fd5b8280fd5b82346108da5760203660031901126108da576108d76108ca612a06565b6108d2613a87565b613829565b80f35b80fd5b50346109ea5760403660031901126109ea578035906001600160401b0382116108a95761090c91369101612aee565b90602435918215158084036107d8576109c77f65a79a54a7224229f26031445ebd354312b3a2c7934c9433255f2499fdda08279461096160ff6040518688823760208188810160028152030190205416612e68565b610990604051858782376001868201908152602090829003019020600201546001600160a01b03163314612ebe565b6003604051858782376001868201908152819003602001902001805460ff60a01b191691151560a01b60ff60a01b16919091179055565b6109de60405193849360408552604085019161302a565b9060208301520390a180f35b5080fd5b82346108da57806003193601126108da575460405160209160ff16610a1281612ced565b8152f35b82346108da5760603660031901126108da57610a57610a43610a36612a06565b60443590602435906136ed565b604051928392604084526040840190612a91565b9060208301520390f35b5090346108da5760203660031901126108da578135906001600160401b0382116108da57602060ff81610a9636868801612aee565b91908260405193849283378101600281520301902054166040519015158152f35b5090346108da576003196040368201126109ea5782356001600160401b0381116108a95760c08185019282360301126108a9576024356001600160401b0381116108a557610b089036908601612aee565b94610b116138e2565b610b3460ff865416610b2281612ced565b60028114159081610fc2575b50613243565b6024830190610b4c60ff6003602061021a868a6134de565b6001600160a01b039687610b5f87613510565b1615610f8357610b6e86613510565b8833911603610f4557606485013593610b88851515612f0a565b610b984260a48801351015613524565b610ba560848701886134de565b801515915081610f39575b5015610ede5760ff610be96020610bc7878b6134de565b9190826040519384928337810160058152030190206102d160848a018b6134de565b5416610e8557610bfb60418314613565565b8860036020610c0a878b6134de565b91908260405193849283378101600181520301902001541692610c2e8415156135bd565b610c3788613510565b90610c4561033a878b6134de565b6020815191012090888c610c6c61033a8d6084610c6460448701613510565b9501906134de565b6020815191012091604051948260208701977f817e76f3333a82f84312b4f85bcd6e12cc688fdb927f92902aa5cb7a9e0d24f0895216604087015260608601521660808401528860a084015260c083015260a489013560e083015260e082526101008201908282106001600160401b03831117610e725750948b610d2861044b600080516020613f078339815191529d9e97610445610de698610df79e9c98610d3498610e369f9d60405251902061042c61043a6104046139e2565b16610468811515613613565b610d656020610d43838b6134de565b9190826040519384928337810160058152030190206102d1608488018b6134de565b805460ff191660011790556020610d7c828a6134de565b91908260405193849283378101600381520301902083610d9e60448801613510565b168b52602052600160408b2001610dc2858254610dbd828210156132db565b612f4f565b905582610dd160448701613510565b16610e5557610de08433613b3f565b876134de565b9590966084610c6460448701613510565b929091610e1160405198899860e08a5260e08a019161302a565b94166020870152336040870152606086015287608086015284830360a086015261302a565b600260c08301520390a16001600080516020613f278339815191525580f35b610e6d843385610e6760448a01613510565b16613ac0565b610de0565b634e487b7160e01b8c526041905260248bfd5b60405162461bcd60e51b8152602081850152602c60248201527f506179546865466c793a207769746864726177616c2073657269616c206e6f2060448201526b185b1c9958591e481d5cd95960a21b6064820152608490fd5b60405162461bcd60e51b8152602081850152602e60248201527f506179546865466c793a20696e76616c6964207769746864726177616c20736560448201526d0e4d2c2d840dcde40d8cadccee8d60931b6064820152608490fd5b60809150111538610bb0565b60405162461bcd60e51b815260208184015260176024820152762830bcaa3432a3363c9d1034b73b30b634b2103ab9b2b960491b6044820152606490fd5b60405162461bcd60e51b8152602081840152601860248201527714185e551a19519b1e4e881d5cd95c881c995c5d5a5c995960421b6044820152606490fd5b60039150610fcf81612ced565b141538610b2e565b5060803660031901126109ea576001600160401b039080358281116108a5576110039036908301612aee565b9061100c612a2a565b926044359460643590811161136a576110289036908301612aee565b9290916110336138e2565b61104460ff8954166101f381612ced565b604051918581843761106960ff84888101600281526020968791030190205416612e68565b61108f60ff60036040518985823786818b81016001815203019020015460a01c1661333f565b8415158061135f575b6110a19061308b565b6110c360ff6102d76040518985823786818b8101888152030190208888612e4f565b6001600160a01b03928784168015918215611227579061058e9796959493929161112a8c611101600080516020613f078339815191529e1515612f0a565b61110c813414612fd1565b955b828c604051928184928a84378201908152030190208989612e4f565b600160ff198254161790558c9585936008548015158061121a575b611184575b5050506040518a85823781818c81016003815203019020918d525261117460408c2091825461301d565b905560405197889733928961348d565b6127109298506111969195508761344a565b04956111a28787612f4f565b93876111af575b8061114a565b15611206576111c2878260095416613b3f565b60095416827f7a02b4deff3edfde3ad93177f54882008050e0cf01740ca799372bc31a7364c5888d6111fc8d8d6040519485948d8661345d565b0390a338806111a9565b61121587826009541685613ac0565b6111c2565b5082600954161515611145565b61123134156133e8565b61123c8b1515612f0a565b6040516370a0823160e01b80825230878301528d908383602481885afa928315611354578e908394611320575b5061127690303388613912565b60405190815230888201528381602481885afa91821561131457916112c9575b508c6112c3600080516020613f078339815191529e61078d61058e9d9c9b9a999897969561112a95612f4f565b9561110e565b9998979695949392809291508a813d831161130d575b6112e98183612b67565b81010312611309579851979896979596949593949293919290918c611296565b8d80fd5b503d6112df565b604051903d90823e3d90fd5b809450858092503d831161134d575b6113398183612b67565b810103126109ea579151918d611276611269565b503d61132f565b6040513d84823e3d90fd5b506080851115611098565b8680fd5b82346108da57806003193601126108da576113b460405161138e81612b4c565b60058152640352e302e360dc1b6020820152604051918291602083526020830190612a6c565b0390f35b5090346108da576113c836612c8b565b91956113d26138e2565b6113e360ff875416610b2281612ced565b604051968486893761140860ff898781016002815260209b8c91030190205416612e68565b6040519185878437611436868401600181526002858c60018060a01b03978894030190200154163314612ebe565b611441841515612f0a565b8285169261145084151561328f565b604051878982378a818981016003815203019020921691828952895260408820908154908582106115215750916114f395939161149f86600080516020613f078339815191529b9c9795612f4f565b90556114a9613968565b938382611512576114bb915083613b3f565b6114d260405198899860e08a5260e08a019161302a565b948701526040860152606085015286608085015283820360a0850152612a6c565b600360c08301520390a16001600080516020613f278339815191525580f35b61151c9183613ac0565b6114bb565b60405162461bcd60e51b81529081018b9052602760248201527f506179546865466c793a20696e73756666696369656e74207061796d656e742060448201526662616c616e636560c81b6064820152608490fd5b50346109ea5760203660031901126109ea5761158f612a06565b611597613a87565b6001600160a01b039081169182156115e65750600980546001600160a01b031981168417909155167f25c55b2215d19a9695a5d1f34bb79d819da18da1964a380e66bd4a440e4186178380a380f35b60649060206040519162461bcd60e51b8352820152601c60248201527f506179546865466c793a20696e76616c696420666565207661756c74000000006044820152fd5b50346109ea5760403660031901126109ea5780356001600160401b0381116108a9578261165e604094938593369101612aee565b611666612a2a565b9184519061167382612b4c565b848252602096878093015261169d60ff875185848237848187810160028152030190205416612e68565b8286519384928337810160038152030190209060018060a01b031682528352209082516116c981612b4c565b8160018454948584520154910190815283519283525190820152f35b82346108da57806003193601126108da576020600854604051908152f35b5090346108da5761171336612bda565b959161172c60ff87541661172681612ced565b1561304b565b604051968486893761175160ff898781016002815260209b8c91030190205416612e68565b6040518587823760018682018181528290038a019091206002015490916001600160a01b03916117849083163314612ebe565b84151580611933575b6117969061308b565b16936117a38515156130d6565b81604051878982378a818981018481520301902001906001600160401b03851161192057506117dc846117d68354612d24565b8361311e565b87601f8511600114611899578492899a949261183585611882986003957fed738a3707ab8a62363fb0eea6752cb06a7997777e8e7189410c7573b55b86209e9161188e575b508160011b916000199060031b1c19161790565b90555b8460405180928a8c8337818b01908152030190200180546001600160a01b031916861790556040516060808252909788976118759289019161302a565b928684039087015261302a565b9060408301520390a180f35b905086013538611821565b81895289892090601f1986168a5b81811061190b575092600392879592611882987fed738a3707ab8a62363fb0eea6752cb06a7997777e8e7189410c7573b55b86209d9e9896106118f3575b50508185811b019055611838565b85013560001987861b60f8161c1916905538806118e5565b86830135845592850192918c01918c016118a7565b634e487b7160e01b895260419052602488fd5b5061010085111561178d565b82346108da57806003193601126108da57600080516020613ec7833981519152546040516001600160a01b039091168152602090f35b50346109ea5760203660031901126109ea578035908110156109ea576040600080516020613ea7833981519152916119ab613a87565b83549060ff8216916119bc82612ced565b60ff191660ff82161785558251916119d381612ced565b82526119de81612ced565b6020820152a180f35b5090346108da57602060ff611a1d8483611a0036612c41565b939192909483604051948593843782019081520301902091612e4f565b54166040519015158152f35b50346109ea57816003193601126109ea57611a42613a87565b815460ff811691611a5283612ced565b60038314611ab8575060ff1916600317825560408051600080516020613ea783398151915292611a8181612ced565b815260036020820152a17f62e78cea01bee320cd4e420270b5ea74000d11b0c9f74754ebdbfc544b05a2586020604051338152a180f35b60649060206040519162461bcd60e51b8352820152601f60248201527f506179546865466c793a20616c72656164792066756c6c7920706175736564006044820152fd5b50346109ea57816003193601126109ea577ff0c57e16840df040f15088dc2f81fe391c3923bec73e23a9662efc9c229c6a0090815460ff8160401c1615916001600160401b03821680159081611c4c575b6001149081611c42575b159081611c39575b50611c2a575067ffffffffffffffff198116600117835581611c0b575b50611b85613cdd565b611b8d613cdd565b6001600080516020613f2783398151915255611ba7613cdd565b611baf613cdd565b611bb833613829565b611bc0613cdd565b825460ff19168355611bd0575080f35b805460ff60401b19169055604051600181527fc7f505b2f371ae2175ee4913f4499e1f2633a7b5936321eed1cdaeb6115181d290602090a180f35b68ffffffffffffffffff19166801000000000000000117825538611b7c565b60405163f92ee8a960e01b8152fd5b90501538611b5f565b303b159150611b57565b849150611b4d565b82346108da57600080516020613f07833981519152611d9e611c7536612c8b565b90611c82959394956138e2565b611ca460ff895416611c9381612ced565b60028114159081611dcc5750613243565b611cc560ff6040518789823760208189810160028152030190205416612e68565b6040518587823760018187019081528190036020019020600201546001600160a01b0390611cf7903390831614612ebe565b611d02821515612f0a565b80831690611d1182151561328f565b604051878982376020818981016003815203019020941693848a52602052600160408a2001611d48838254610dbd828210156132db565b9055611d52613968565b928285611dbd57611d64915082613b3f565b611d7b60405197889760e0895260e089019161302a565b9360208701526040860152606085015286608085015283820360a0850152612a6c565b600560c08301520390a16001600080516020613f278339815191525580f35b611dc79186613ac0565b611d64565b60039150611dd981612ced565b14158a610b2e565b82346108da57602060ff611a1d82611df836612c41565b928260409592955193849283378101600581520301902091612e4f565b82346108da57806003193601126108da57611e2e613a87565b600080516020613ec783398151915280546001600160a01b0319811690915581906001600160a01b03167f8be0079c531659141344cd1fd0a4f28419497f9722a3daafe3b4186f6b6457e08280a380f35b50346109ea57611e8e36612bda565b9593929190611ea460ff86541661172681612ced565b82151580612101575b611eb69061308b565b801515806120f5575b611ec89061308b565b604051918385843760ff838581016002815260209586910301902054166120a757611fcd85969798859660018060a01b03809216968792611f0a8415156130d6565b6003604051611f1881612b1b565b611f23368587612ba3565b8152611f7a611f33368b8b612ba3565b8b8301908152611f70604084019633885260608501998a528d608086019960018b5282604051938492833781016001815203019020935184613174565b5160018301613174565b92516002840180549184166001600160a01b03199092169190911790559351939091018054925160ff60a01b90151560a01b166001600160a81b03199093169390911660ff60a01b191692909217179055565b6040518587823783818781016002815203019020600160ff19825416179055611ff7368688612ba3565b3388526007845260408820805490600160401b8210156120945790612021916001820181556136ab565b612082577f97ebeb37c95acc6fea5391d9bf850ab044171437c8742de9358297f2968bf6849899506120709493929161205991613174565b61187560405197889760808952608089019161302a565b9033604084015260608301520390a180f35b634e487b7160e01b8952888a52602489fd5b634e487b7160e01b8a5260418b5260248afd5b60405162461bcd60e51b8152808801849052602160248201527f506179546865466c793a2070726f6a65637420616c72656164792065786973746044820152607360f81b6064820152608490fd5b50610100811115611ebf565b506080831115611ead565b82346108da5760203660031901126108da576020906040906001600160a01b03612134612a06565b168152600783522054604051908152f35b5090346108da57806003193601126108da57507f00000000000000000000000000000000000000000000000000000000000000006001600160a01b031630036121a0576020604051600080516020613ee78339815191528152f35b60405163703e46dd60e11b8152fd5b50346109ea57602090816003193601126108a95780356001600160401b0381116108a5576121e460a094928492369101612aee565b9260806040516121f381612b1b565b60608152606085820152826040820152826060820152015261222b60ff60405185848237848187810160028152030190205416612e68565b826040519384928337810160018152030190206040519161224b83612b1b565b61225482612d5e565b835261226260018301612d5e565b90808401918252600180861b0390816122ce60038260028801541696604089019788520154946122bb6060890194848816865260ff60808b01988c1c16151588526040519a8b9a828c5251918b015260c08a0190612a6c565b9051888203601f190160408a0152612a6c565b94511660608601525116608084015251151560a08301520390f35b5060403660031901126109ea576122fe612a06565b916024356001600160401b0381116109ea57366023820112156109ea5761232e9036906024818601359101612ba3565b906001600160a01b037f000000000000000000000000000000000000000000000000000000000000000081163081149081156124e4575b506124d357612372613a87565b841691604051946352d1902d60e01b86526020868681875afa8096849761249f575b506123b157604051634c9c8ce360e01b8152808601859052602490fd5b8484600080516020613ee7833981519152887fc9f76b5ec45e5cdef99837d7b6d2467235c1df8933c8ca56df5c35afa2c7d44481016124885750833b156124705780546001600160a01b031916821790556040518592917fbc7cd75a20ee27fd9adebab32041f755214dbc6bffa90cc0225b39da2e5c2d3b8480a28451156124555750508083602061245195519101845af461244b613b0f565b91613e5f565b5080f35b92509250503461246457505080f35b63b398979f60e01b8152fd5b604051634c9c8ce360e01b8152808401839052602490fd5b8360249160405191632a87526960e21b8352820152fd5b9096506020813d6020116124cb575b816124bb60209383612b67565b810103126108a557519538612394565b3d91506124ae565b60405163703e46dd60e11b81528490fd5b905081600080516020613ee78339815191525416141538612365565b82346108da57806003193601126108da576009546040516001600160a01b039091168152602090f35b50346109ea5760203660031901126109ea57803590612546613a87565b6103e8821161258a575060407fb9ffe02e89fee6f5544ee152a08c2cafbc3a4a89a66737ef42115dcd508aea1091600854908060085582519182526020820152a180f35b60649060206040519162461bcd60e51b8352820152601c60248201527f506179546865466c793a20666565207261746520746f6f2068696768000000006044820152fd5b50346109ea57816003193601126109ea576125e7613a87565b815460ff8116916125f783612ced565b8215612657575060ff1916825560408051600080516020613ea78339815191529261262181612ced565b8152836020820152a17f5db9ee0a495bf2e6ff9c91a7834c1ba4fdd244a5e8aa4e537bd38aeae4b073aa6020604051338152a180f35b60649060206040519162461bcd60e51b8352820152601560248201527414185e551a19519b1e4e881b9bdd081c185d5cd959605a1b6044820152fd5b82346108da57806003193601126108da5760206126ae6139e2565b604051908152f35b5060603660031901126109ea5780356001600160401b0381116108a9576126e09036908301612aee565b6126e8612a2a565b92604435936126f56138e2565b61270660ff8754166101f381612ced565b604051908385833761272b60ff83868101600281526020958691030190205416612e68565b6040519084868337612759858301600181526002848660018060a01b03968794030190200154163314612ebe565b168061281757906127f9918661277f600080516020613f07833981519152981515612f0a565b61278a813414612fd1565b6040518688823783818881016003815203019020828a528352600160408a20016127b582825461301d565b90556127bf613968565b916127d760405198899860e08a5260e08a019161302a565b93870152336040870152606086015287608086015284820360a0860152612a6c565b9060c08301520390a16001600080516020613f278339815191525580f35b3461291e57612827861515612f0a565b6040516370a0823160e01b808252308583015296908381602481865afa9081156128e65789916128f1575b5061285f82303386613912565b60405197885230858901528388602481865afa9788156128e65789986128a9575b50906128a48161078d6127f9969594600080516020613f078339815191529b612f4f565b61278a565b97509291908288813d83116128df575b6128c38183612b67565b810103126128db5796519691929091906128a4612880565b8880fd5b503d6128b9565b6040513d8b823e3d90fd5b90508381813d8311612917575b6129088183612b67565b810103126128db575138612852565b503d6128fe565b60405162461bcd60e51b8152808401839052602d60248201527f506179546865466c793a20455448206e6f7420616363657074656420666f722060448201526c1d1bdad95b8819195c1bdcda5d609a1b6064820152608490fd5b82346108da576020806003193601126109ea576001600160a01b0361299b612a06565b16825260078152604082208054906129b282612d0d565b936129c06040519586612b67565b828552908152828120838086015b8484106129e857604051828152806113b48185018a612a91565b60019182916129f685612d5e565b81520192019201919084906129ce565b6004356001600160a81b0381168103612a25576001600160a01b031690565b600080fd5b6024356001600160a81b0381168103612a25576001600160a01b031690565b60005b838110612a5c5750506000910152565b8181015183820152602001612a4c565b90602091612a8581518092818552858086019101612a49565b601f01601f1916010190565b90808251908181526020809101926020808460051b8301019501936000915b848310612ac05750505050505090565b9091929394958480612ade600193601f198682030187528a51612a6c565b9801930193019194939290612ab0565b9181601f84011215612a25578235916001600160401b038311612a255760208381860195010111612a2557565b60a081019081106001600160401b03821117612b3657604052565b634e487b7160e01b600052604160045260246000fd5b604081019081106001600160401b03821117612b3657604052565b90601f801991011681019081106001600160401b03821117612b3657604052565b6001600160401b038111612b3657601f01601f191660200190565b929192612baf82612b88565b91612bbd6040519384612b67565b829481845281830111612a25578281602093846000960137010152565b6060600319820112612a25576001600160401b0391600435838111612a255782612c0691600401612aee565b93909392602435918211612a2557612c2091600401612aee565b90916044356001600160a81b0381168103612a25576001600160a01b031690565b6040600319820112612a25576001600160401b0391600435838111612a255782612c6d91600401612aee565b93909392602435918211612a2557612c8791600401612aee565b9091565b6080600319820112612a2557600435906001600160401b038211612a2557612cb591600401612aee565b9091602435906001600160a81b03908183168303612a25576001600160a01b0392831692604435926064359081168103612a25571690565b60041115612cf757565b634e487b7160e01b600052602160045260246000fd5b6001600160401b038111612b365760051b60200190565b90600182811c92168015612d54575b6020831014612d3e57565b634e487b7160e01b600052602260045260246000fd5b91607f1691612d33565b90604051918260008254612d7181612d24565b90818452602094600191600181169081600014612de15750600114612da2575b505050612da092500383612b67565b565b600090815285812095935091905b818310612dc9575050612da09350820101388080612d91565b85548884018501529485019487945091830191612db0565b92505050612da094925060ff191682840152151560051b820101388080612d91565b15612e0a57565b60405162461bcd60e51b815260206004820152601a60248201527f506179546865466c793a206465706f73697473207061757365640000000000006044820152606490fd5b6020919283604051948593843782019081520301902090565b15612e6f57565b60405162461bcd60e51b815260206004820152602160248201527f506179546865466c793a2070726f6a65637420646f6573206e6f7420657869736044820152601d60fa1b6064820152608490fd5b15612ec557565b60405162461bcd60e51b815260206004820152601e60248201527f506179546865466c793a206e6f742070726f6a6563742063726561746f7200006044820152606490fd5b15612f1157565b60405162461bcd60e51b815260206004820152601660248201527514185e551a19519b1e4e881e995c9bc8185b5bdd5b9d60521b6044820152606490fd5b91908203918211612f5c57565b634e487b7160e01b600052601160045260246000fd5b15612f7957565b60405162461bcd60e51b815260206004820152602a60248201527f506179546865466c793a20696e636f727265637420746f6b656e20616d6f756e6044820152691d081c9958d95a5d995960b21b6064820152608490fd5b15612fd857565b60405162461bcd60e51b815260206004820152601f60248201527f506179546865466c793a20696e636f72726563742045544820616d6f756e74006044820152606490fd5b91908201809211612f5c57565b908060209392818452848401376000828201840152601f01601f1916010190565b1561305257565b60405162461bcd60e51b815260206004820152601160248201527014185e551a19519b1e4e881c185d5cd959607a1b6044820152606490fd5b1561309257565b606460405162461bcd60e51b815260206004820152602060248201527f506179546865466c793a20696e76616c696420737472696e67206c656e6774686044820152fd5b156130dd57565b60405162461bcd60e51b81526020600482015260196024820152782830bcaa3432a3363c9d1034b73b30b634b21039b4b3b732b960391b6044820152606490fd5b90601f811161312c57505050565b6000916000526020600020906020601f850160051c8301941061316a575b601f0160051c01915b82811061315f57505050565b818155600101613153565b909250829061314a565b91909182516001600160401b038111612b365761319b816131958454612d24565b8461311e565b602080601f83116001146131de575081906131cf9394956000926131d3575b50508160011b916000199060031b1c19161790565b9055565b0151905038806131ba565b90601f19831695846000526020600020926000905b88821061322b57505083600195969710613212575b505050811b019055565b015160001960f88460031b161c19169055388080613208565b806001859682949686015181550195019301906131f3565b1561324a57565b60405162461bcd60e51b815260206004820152601d60248201527f506179546865466c793a207769746864726177616c73207061757365640000006044820152606490fd5b1561329657565b60405162461bcd60e51b815260206004820152601c60248201527f506179546865466c793a20696e76616c696420726563697069656e74000000006044820152606490fd5b156132e257565b60405162461bcd60e51b815260206004820152602f60248201527f506179546865466c793a20696e73756666696369656e7420776974686472617760448201526e616c20706f6f6c2062616c616e636560881b6064820152608490fd5b1561334657565b606460405162461bcd60e51b815260206004820152602060248201527f506179546865466c793a2070726f6a656374206973206e6f74206163746976656044820152fd5b1561339157565b60405162461bcd60e51b815260206004820152602960248201527f506179546865466c793a207061796d656e742073657269616c206e6f20616c726044820152681958591e481d5cd95960ba1b6064820152608490fd5b156133ef57565b60405162461bcd60e51b815260206004820152602d60248201527f506179546865466c793a20455448206e6f7420616363657074656420666f722060448201526c1d1bdad95b881c185e5b595b9d609a1b6064820152608490fd5b81810292918115918404141715612f5c57565b906134779061348a9694959360608452606084019161302a565b936020820152604081850391015261302a565b90565b989792946134d9956134ad60c0989360019a9560e08e818152019161302a565b95898060a01b0380921660208d01521660408b015260608a0152608089015287830360a089015261302a565b930152565b903590601e1981360301821215612a2557018035906001600160401b038211612a2557602001918136038313612a2557565b356001600160a81b0381168103612a255790565b1561352b57565b60405162461bcd60e51b815260206004820152601260248201527114185e551a19519b1e4e88195e1c1a5c995960721b6044820152606490fd5b1561356c57565b60405162461bcd60e51b815260206004820152602360248201527f506179546865466c793a20696e76616c6964207369676e6174757265206c656e6044820152620cee8d60eb1b6064820152608490fd5b156135c457565b60405162461bcd60e51b815260206004820152602160248201527f506179546865466c793a20696e76616c69642070726f6a656374207369676e656044820152603960f91b6064820152608490fd5b1561361a57565b60405162461bcd60e51b815260206004820152601c60248201527f506179546865466c793a20696e76616c6964207369676e6174757265000000006044820152606490fd5b1561366657565b60405162461bcd60e51b815260206004820152601a60248201527f506179546865466c793a207369676e6572206d69736d617463680000000000006044820152606490fd5b80548210156136c35760005260206000200190600090565b634e487b7160e01b600052603260045260246000fd5b80518210156136c35760209160051b010190565b92919260018060a01b03169060009082825260076020926007602052604091604082205497888510801590613821575b6137e35761372b908561301d565b848982116137db575b61373d91612f4f565b9461374786612d0d565b966137556040519889612b67565b868852601f1961376488612d0d565b0182855b8281106137cb57505050835b8781106137875750505050505050509190565b6001908286528484526137af6137a98888206137a3848c61301d565b906136ab565b50612d5e565b6137b9828c6136d9565b526137c4818b6136d9565b5001613774565b606082828d010152018390613768565b899150613734565b5050935050505060405190602082018281106001600160401b0382111761380d5760405281529190565b634e487b7160e01b82526041600452602482fd5b50801561371d565b6001600160a01b0390811690811561388457600080516020613ec783398151915280546001600160a01b031981168417909155167f8be0079c531659141344cd1fd0a4f28419497f9722a3daafe3b4186f6b6457e0600080a3565b604051631e4fbdf760e01b815260006004820152602490fd5b60405162461bcd60e51b815260206004820152601b60248201527f506179546865466c793a20757365207061792066756e6374696f6e00000000006044820152606490fd5b600080516020613f2783398151915260028154146139005760029055565b604051633ee5aeb560e01b8152600490fd5b6040516323b872dd60e01b60208201526001600160a01b039283166024820152929091166044830152606480830193909352918152612da09161395482612b1b565b613b8f565b6000198114612f5c5760010190565b613973600654613959565b8060065561348a602361398e61398846613bf7565b93613bf7565b9260405193849161575f60f01b60208401526139b4815180926020602287019101612a49565b8201605f60f81b60228201526139d38251809360208785019101612a49565b01036003810184520182612b67565b600960206040516139f281612b4c565b8281520168506179546865466c7960b81b81522060016020604051613a1681612b4c565b82815201603160f81b8152206040519060208201927f8b73c3c69bb8fe3d512ecc4cf759cc79239f7b179b0ffacaa9a75d522b39400f8452604083015260608201524660808201523060a082015260a0815260c081018181106001600160401b03821117612b365760405251902090565b600080516020613ec7833981519152546001600160a01b03163303613aa857565b60405163118cdaa760e01b8152336004820152602490fd5b60405163a9059cbb60e01b60208201526001600160a01b03909216602483015260448083019390935291815260808101916001600160401b03831182841017612b3657612da092604052613b8f565b3d15613b3a573d90613b2082612b88565b91613b2e6040519384612b67565b82523d6000602084013e565b606090565b814710613b70576000918291829182916001600160a01b03165af1613b62613b0f565b9015613b6b5750565b613cbc565b60405163cf47918160e01b815247600482015260248101839052604490fd5b906000602091828151910182855af115613beb576000513d613be257506001600160a01b0381163b155b613bc05750565b604051635274afe760e01b81526001600160a01b039091166004820152602490fd5b60011415613bb9565b6040513d6000823e3d90fd5b8015613c9e57600081805b613c8a5750613c1081612b88565b90613c1e6040519283612b67565b808252601f19613c2d82612b88565b013660208401375b80928015613c83576000198201918211612f5c578193600a926030908484068201809211612f5c57855111156136c35760f81b6001600160f81b03191660001a908401601f01530491613c35565b5050905090565b90613c96600a91613959565b910480613c02565b50604051613cab81612b4c565b60018152600360fc1b602082015290565b805115613ccb57602081519101fd5b60405163d6bda27560e01b8152600490fd5b60ff7ff0c57e16840df040f15088dc2f81fe391c3923bec73e23a9662efc9c229c6a005460401c1615613d0c57565b604051631afcd79f60e31b8152600490fd5b8151919060418303613d4f57613d4892506020820151906060604084015193015160001a90613de5565b9192909190565b505060009160029190565b613d6381612ced565b80613d6c575050565b613d7581612ced565b60018103613d8f5760405163f645eedf60e01b8152600490fd5b613d9881612ced565b60028103613db95760405163fce698f760e01b815260048101839052602490fd5b80613dc5600392612ced565b14613dcd5750565b602490604051906335e2f38360e21b82526004820152fd5b91906fa2a8918ca85bafe22016d0b997e4df60600160ff1b038411613e5357926020929160ff608095604051948552168484015260408301526060820152600092839182805260015afa156113145780516001600160a01b03811615613e4a57918190565b50809160019190565b50505060009160039190565b90613e6a5750613cbc565b81511580613e9d575b613e7b575090565b604051639996b31560e01b81526001600160a01b039091166004820152602490fd5b50803b15613e7356fe0e96d4a605e678a97e72f7f535b71de5b1e75739ab933bfa4119737557ea78a59016d09d72d40fdae2fd8ceac6b6234c7706214fd39c1cd1e609a0528c199300360894a13ba1a3210667c828492db98dca3e2076cc3735a920a3ca505d382bbc85798ae26be3eed58111a61863457cbeeb8ecae1a72df003a3182ccfea02b38e9b779b17422d0df92223018b32b4d1fa46e071723d6817e2486d003becc55f00a26474726f6e58221220f1099444ca28fd341a66ded8564d2cdf53b00411b6cf3ab5b7a8352a83cd093264736f6c63430008180033",
  "linkReferences": {},
  "deployedLinkReferences": {}
}