{
  "_format": "hh-sol-artifact-1",
  "contractName": "PayTheFlyProFactory",
  "sourceName": "contracts/PayTheFlyProFactory.sol",
  "abi": [
    {
      "inputs": [],
      "stateMutability": "nonpayable",
      "type": "constructor"
    },
    {
      "inputs": [
        {
          "internalType": "address",
          "name": "target",
          "type": "address"
        }
      ],
      "name": "AddressEmptyCode",
      "type": "error"
    },
    {
      "inputs": [
        {
          "internalType": "address",
          "name": "implementation",
          "type": "address"
        }
      ],
      "name": "ERC1967InvalidImplementation",
      "type": "error"
    },
    {
      "inputs": [],
      "name": "ERC1967NonPayable",
      "type": "error"
    },
    {
      "inputs": [],
      "name": "FailedCall",
      "type": "error"
    },
    {
      "inputs": [],
      "name": "FeeRateTooHigh",
      "type": "error"
    },
    {
      "inputs": [],
      "name": "InvalidAdminAddress",
      "type": "error"
    },
    {
      "inputs": [],
      "name": "InvalidFeeVault",
      "type": "error"
    },
    {
      "inputs": [],
      "name": "InvalidImplementation",
      "type": "error"
    },
    {
      "inputs": [],
      "name": "InvalidInitialization",
      "type": "error"
    },
    {
      "inputs": [],
      "name": "InvalidSignerAddress",
      "type": "error"
    },
    {
      "inputs": [],
      "name": "NotInitializing",
      "type": "error"
    },
    {
      "inputs": [
        {
          "internalType": "address",
          "name": "owner",
          "type": "address"
        }
      ],
      "name": "OwnableInvalidOwner",
      "type": "error"
    },
    {
      "inputs": [
        {
          "internalType": "address",
          "name": "account",
          "type": "address"
        }
      ],
      "name": "OwnableUnauthorizedAccount",
      "type": "error"
    },
    {
      "inputs": [],
      "name": "ProjectAlreadyExists",
      "type": "error"
    },
    {
      "inputs": [],
      "name": "ProjectIdEmpty",
      "type": "error"
    },
    {
      "inputs": [],
      "name": "ProjectIdTooLong",
      "type": "error"
    },
    {
      "inputs": [],
      "name": "UUPSUnauthorizedCallContext",
      "type": "error"
    },
    {
      "inputs": [
        {
          "internalType": "bytes32",
          "name": "slot",
          "type": "bytes32"
        }
      ],
      "name": "UUPSUnsupportedProxiableUUID",
      "type": "error"
    },
    {
      "anonymous": false,
      "inputs": [
        {
          "indexed": true,
          "internalType": "address",
          "name": "oldImpl",
          "type": "address"
        },
        {
          "indexed": true,
          "internalType": "address",
          "name": "newImpl",
          "type": "address"
        }
      ],
      "name": "BeaconUpgraded",
      "type": "event"
    },
    {
      "anonymous": false,
      "inputs": [
        {
          "indexed": false,
          "internalType": "uint256",
          "name": "oldRate",
          "type": "uint256"
        },
        {
          "indexed": false,
          "internalType": "uint256",
          "name": "newRate",
          "type": "uint256"
        }
      ],
      "name": "FeeRateUpdated",
      "type": "event"
    },
    {
      "anonymous": false,
      "inputs": [
        {
          "indexed": true,
          "internalType": "address",
          "name": "oldVault",
          "type": "address"
        },
        {
          "indexed": true,
          "internalType": "address",
          "name": "newVault",
          "type": "address"
        }
      ],
      "name": "FeeVaultUpdated",
      "type": "event"
    },
    {
      "anonymous": false,
      "inputs": [
        {
          "indexed": false,
          "internalType": "uint64",
          "name": "version",
          "type": "uint64"
        }
      ],
      "name": "Initialized",
      "type": "event"
    },
    {
      "anonymous": false,
      "inputs": [
        {
          "indexed": true,
          "internalType": "address",
          "name": "owner",
          "type": "address"
        }
      ],
      "name": "OwnershipTransferCancelled",
      "type": "event"
    },
    {
      "anonymous": false,
      "inputs": [
        {
          "indexed": true,
          "internalType": "address",
          "name": "previousOwner",
          "type": "address"
        },
        {
          "indexed": true,
          "internalType": "address",
          "name": "newOwner",
          "type": "address"
        }
      ],
      "name": "OwnershipTransferStarted",
      "type": "event"
    },
    {
      "anonymous": false,
      "inputs": [
        {
          "indexed": true,
          "internalType": "address",
          "name": "previousOwner",
          "type": "address"
        },
        {
          "indexed": true,
          "internalType": "address",
          "name": "newOwner",
          "type": "address"
        }
      ],
      "name": "OwnershipTransferred",
      "type": "event"
    },
    {
      "anonymous": false,
      "inputs": [
        {
          "indexed": true,
          "internalType": "string",
          "name": "projectId",
          "type": "string"
        },
        {
          "indexed": true,
          "internalType": "address",
          "name": "projectAddress",
          "type": "address"
        },
        {
          "indexed": true,
          "internalType": "address",
          "name": "creator",
          "type": "address"
        },
        {
          "indexed": false,
          "internalType": "address",
          "name": "admin",
          "type": "address"
        },
        {
          "indexed": false,
          "internalType": "string",
          "name": "name",
          "type": "string"
        }
      ],
      "name": "ProjectCreated",
      "type": "event"
    },
    {
      "anonymous": false,
      "inputs": [
        {
          "indexed": true,
          "internalType": "address",
          "name": "implementation",
          "type": "address"
        }
      ],
      "name": "Upgraded",
      "type": "event"
    },
    {
      "inputs": [],
      "name": "UPGRADE_INTERFACE_VERSION",
      "outputs": [
        {
          "internalType": "string",
          "name": "",
          "type": "string"
        }
      ],
      "stateMutability": "view",
      "type": "function"
    },
    {
      "inputs": [],
      "name": "acceptOwnership",
      "outputs": [],
      "stateMutability": "nonpayable",
      "type": "function"
    },
    {
      "inputs": [],
      "name": "beacon",
      "outputs": [
        {
          "internalType": "address",
          "name": "",
          "type": "address"
        }
      ],
      "stateMutability": "view",
      "type": "function"
    },
    {
      "inputs": [],
      "name": "cancelOwnershipTransfer",
      "outputs": [],
      "stateMutability": "nonpayable",
      "type": "function"
    },
    {
      "inputs": [
        {
          "internalType": "string",
          "name": "projectId",
          "type": "string"
        },
        {
          "internalType": "string",
          "name": "name",
          "type": "string"
        },
        {
          "internalType": "address",
          "name": "admin",
          "type": "address"
        },
        {
          "internalType": "address",
          "name": "signer",
          "type": "address"
        }
      ],
      "name": "createProject",
      "outputs": [
        {
          "internalType": "address",
          "name": "projectAddress",
          "type": "address"
        }
      ],
      "stateMutability": "nonpayable",
      "type": "function"
    },
    {
      "inputs": [],
      "name": "feeRate",
      "outputs": [
        {
          "internalType": "uint256",
          "name": "",
          "type": "uint256"
        }
      ],
      "stateMutability": "view",
      "type": "function"
    },
    {
      "inputs": [],
      "name": "feeVault",
      "outputs": [
        {
          "internalType": "address",
          "name": "",
          "type": "address"
        }
      ],
      "stateMutability": "view",
      "type": "function"
    },
    {
      "inputs": [
        {
          "internalType": "string",
          "name": "projectId",
          "type": "string"
        }
      ],
      "name": "getProject",
      "outputs": [
        {
          "internalType": "address",
          "name": "",
          "type": "address"
        }
      ],
      "stateMutability": "view",
      "type": "function"
    },
    {
      "inputs": [
        {
          "internalType": "address",
          "name": "projectImplementation",
          "type": "address"
        },
        {
          "internalType": "address",
          "name": "initialFeeVault",
          "type": "address"
        },
        {
          "internalType": "uint256",
          "name": "initialFeeRate",
          "type": "uint256"
        }
      ],
      "name": "initialize",
      "outputs": [],
      "stateMutability": "nonpayable",
      "type": "function"
    },
    {
      "inputs": [],
      "name": "owner",
      "outputs": [
        {
          "internalType": "address",
          "name": "",
          "type": "address"
        }
      ],
      "stateMutability": "view",
      "type": "function"
    },
    {
      "inputs": [],
      "name": "pendingOwner",
      "outputs": [
        {
          "internalType": "address",
          "name": "",
          "type": "address"
        }
      ],
      "stateMutability": "view",
      "type": "function"
    },
    {
      "inputs": [
        {
          "internalType": "string",
          "name": "projectId",
          "type": "string"
        }
      ],
      "name": "projectExists",
      "outputs": [
        {
          "internalType": "bool",
          "name": "",
          "type": "bool"
        }
      ],
      "stateMutability": "view",
      "type": "function"
    },
    {
      "inputs": [],
      "name": "proxiableUUID",
      "outputs": [
        {
          "internalType": "bytes32",
          "name": "",
          "type": "bytes32"
        }
      ],
      "stateMutability": "view",
      "type": "function"
    },
    {
      "inputs": [],
      "name": "renounceOwnership",
      "outputs": [],
      "stateMutability": "nonpayable",
      "type": "function"
    },
    {
      "inputs": [
        {
          "internalType": "uint256",
          "name": "newFeeRate",
          "type": "uint256"
        }
      ],
      "name": "setFeeRate",
      "outputs": [],
      "stateMutability": "nonpayable",
      "type": "function"
    },
    {
      "inputs": [
        {
          "internalType": "address",
          "name": "newFeeVault",
          "type": "address"
        }
      ],
      "name": "setFeeVault",
      "outputs": [],
      "stateMutability": "nonpayable",
      "type": "function"
    },
    {
      "inputs": [
        {
          "internalType": "address",
          "name": "newOwner",
          "type": "address"
        }
      ],
      "name": "transferOwnership",
      "outputs": [],
      "stateMutability": "nonpayable",
      "type": "function"
    },
    {
      "inputs": [
        {
          "internalType": "address",
          "name": "newImplementation",
          "type": "address"
        }
      ],
      "name": "upgradeBeacon",
      "outputs": [],
      "stateMutability": "nonpayable",
      "type": "function"
    },
    {
      "inputs": [
        {
          "internalType": "address",
          "name": "newImplementation",
          "type": "address"
        },
        {
          "internalType": "bytes",
          "name": "data",
          "type": "bytes"
        }
      ],
      "name": "upgradeToAndCall",
      "outputs": [],
      "stateMutability": "payable",
      "type": "function"
    }
  ],
  "bytecode": "0x60a080604052346100cc57306080527ff0c57e16840df040f15088dc2f81fe391c3923bec73e23a9662efc9c229c6a009081549060ff8260401c166100bd57506001600160401b036002600160401b031982821601610078575b604051611ac590816100d2823960805181818161074901526108810152f35b6001600160401b031990911681179091556040519081527fc7f505b2f371ae2175ee4913f4499e1f2633a7b5936321eed1cdaeb6115181d290602090a1388080610059565b63f92ee8a960e01b8152600490fd5b600080fdfe60806040818152600491823610156200001757600080fd5b600090813560e01c9081631794bb3c1462000cdf575080631bce45831462000b7157806323452b9c1462000b0257806345596e2e1462000a8e578063478222c21462000a635780634f1ef28614620007fc5780634fa691e2146200079d57806352d1902d146200073357806359659e901462000709578063715018a6146200068157806379ba509714620006235780637ee7d99a14620003945780638da5cb5b146200035b578063978bbdb9146200033a578063a591f97f14620002ae578063ad3cb1cc146200023b578063e30c397814620001fe578063f2fde38b14620001645763fcfa958e146200010957600080fd5b346200016157602036600319011262000161578235906001600160401b038211620001615750602092836200014460ff933690840162000f95565b928386519485938437820190815203019020541690519015158152f35b80fd5b50346200016157602036600319011262000161576200018262000f21565b6200018c62001028565b6200019662001028565b60008051602062001a7083398151915280546001600160a01b0319166001600160a01b0392831690811790915560008051602062001a30833981519152549091167f38d16b8cac22d99fc7c124b9cd0de2d3fa1faef420bfe791d8c362d765e227008380a380f35b509034620002375781600319360112620002375760008051602062001a708339815191525490516001600160a01b039091168152602090f35b5080fd5b50346200016157806003193601126200016157508051908082018281106001600160401b038211176200029957620002959350815260058252640352e302e360dc1b60208301525191829160208352602083019062000fc5565b0390f35b604184634e487b7160e01b6000525260246000fd5b509134620003365760203660031901126200033657620002cd62000f21565b90620002d862001028565b6001600160a01b0391821692831562000329575050600180546001600160a01b031981168417909155167f47ffc4777a9849fd88ac272225845f7bbcfa9920f222b459c2e6b28156ce72498380a380f35b5163423eca3760e11b8152fd5b8280fd5b50903462000237578160031936011262000237576020906002549051908152f35b509034620002375781600319360112620002375760008051602062001a308339815191525490516001600160a01b039091168152602090f35b5090346200023757608036600319011262000237576001600160401b039280358481116200061f57620003cb903690830162000f95565b91906024358681116200061b57620003e7903690840162000f95565b936001600160a81b0392604435848116810362000616576001600160a01b0390811694606435908116810362000616578116998315620006065760808411620005f65788519a84848d3760ff8c8681018a815260209e8f91030190205416620005e6578615620005d6578015620005c65789516306d876b560e51b818e015260a0602482015290620004be9082906200049d6200048960c484018a8a62001007565b8381036023190160448501528d8b62001007565b903360648401528a608484015260a483015203601f19810183528262000f41565b8a548a51926104c680850192861691831185841017620005b357620004f9928f8e929087969484926200117e89398352820152019062000fc5565b03908af08015620005a957907f16def9779e4c0db386fe693c3e1a733012537667db8306251d9f89a88f9c161b949392911698899689518484823760038582019081528190038d01902080546001600160a01b031916891790558951908c9082908686833786820190815203019020600160ff198254161790558289519384938437820190815203902092620005a087519283928352888b84015233978984019162001007565b0390a451908152f35b88513d8b823e3d90fd5b634e487b7160e01b8e5260418b5260248efd5b8951634501a91960e01b81528890fd5b895163016ed19f60e21b81528890fd5b8951632d8306b960e21b81528890fd5b88516348a5c19960e01b81528790fd5b8851635f98d5e560e11b81528790fd5b600080fd5b8580fd5b8380fd5b50919034620003365782600319360112620003365760008051602062001a7083398151915254336001600160a01b03909116036200066a5782620006673362001063565b80f35b60249250519063118cdaa760e01b82523390820152fd5b503462000161578060031936011262000161576200069e62001028565b60008051602062001a7083398151915280546001600160a01b031990811690915560008051602062001a30833981519152805491821690556000906001600160a01b03167f8be0079c531659141344cd1fd0a4f28419497f9722a3daafe3b4186f6b6457e08280a380f35b5090346200023757816003193601126200023757905490516001600160a01b039091168152602090f35b50346200016157806003193601126200016157507f00000000000000000000000000000000000000000000000000000000000000006001600160a01b0316300362000790576020905160008051602062001a508339815191528152f35b5163703e46dd60e11b8152fd5b50346200016157602036600319011262000161578235906001600160401b038211620001615750602092620007d59136910162000f95565b8083519283376003908201908152819003830190205490516001600160a01b039091168152f35b5091908060031936011262000336576200081562000f21565b9060249384356001600160401b038111620002375736602382011215620002375780850135620008458162000f79565b94620008548551968762000f41565b81865260209182870193368a83830101116200061b578186928b8693018737880101526001600160a01b037f0000000000000000000000000000000000000000000000000000000000000000811630811490811562000a45575b5062000a3557620008be62001028565b81169585516352d1902d60e01b815283818a818b5afa869181620009fc575b50620008fa575050505050505191634c9c8ce360e01b8352820152fd5b9088888894938c60008051602062001a5083398151915291828103620009e75750853b15620009d3575080546001600160a01b031916821790558451889392917fbc7cd75a20ee27fd9adebab32041f755214dbc6bffa90cc0225b39da2e5c2d3b8580a2825115620009b4575050620009a59582915190845af4913d15620009a9573d620009966200098c8262000f79565b9251928362000f41565b81528581943d92013e62001115565b5080f35b506060925062001115565b955095505050505034620009c757505080f35b63b398979f60e01b8152fd5b8651634c9c8ce360e01b8152808501849052fd5b8751632a87526960e21b815280860191909152fd5b9091508481813d831162000a2d575b62000a17818362000f41565b8101031262000a2957519038620008dd565b8680fd5b503d62000a0b565b855163703e46dd60e11b81528890fd5b90508160008051602062001a508339815191525416141538620008ae565b509034620002375781600319360112620002375760015490516001600160a01b039091168152602090f35b50913462000336576020366003190112620003365780359062000ab062001028565b6103e8821162000af45750907f14914da2bf76024616fbe1859783fcd4dbddcb179b1f3a854949fbf920dcb95791600254908060025582519182526020820152a180f35b8251637186728f60e11b8152fd5b5034620001615780600319360112620001615762000b1f62001028565b60008051602062001a3083398151915280546001600160a01b03919062000b4890831662001063565b54167f48a87225523c5fd46bf3b7da3223e5525f77b8136a962695d701a24699bef8f38280a280f35b5091903462000336576020366003190112620003365762000b9162000f21565b62000b9b62001028565b803b1562000cd15783548251635c60da1b60e01b81526001600160a01b03918216949193909286929060208583818a5afa94851562000cc457849562000c77575b50863b156200061f57856024859285519687938492631b2ce7f360e11b8452169a8b878401525af1801562000c6d5762000c3c575b505050167fc945ae30494f6ee00b9e4bf1fec5653ced7244b559666f44f9a88ea732e957b08380a380f35b6001600160401b03839794971162000c5a5750529238808062000c11565b634e487b7160e01b845260419052602483fd5b82513d89823e3d90fd5b9094506020813d60201162000cbb575b8162000c966020938362000f41565b810103126200061f57516001600160a81b03811681036200061f578516933862000bdc565b3d915062000c87565b50505051903d90823e3d90fd5b505163340aafcd60e11b8152fd5b91939050346200061f5760603660031901126200061f5762000d0062000f21565b906024356001600160a81b03811681036200061b5760018060a01b0380911690604435927ff0c57e16840df040f15088dc2f81fe391c3923bec73e23a9662efc9c229c6a009586549560ff878a1c1615966001600160401b03928382168015908162000f18575b600114908162000f0d575b15908162000f03575b5062000ef5575067ffffffffffffffff19811660011789558762000ed5575b5062000da5620010d3565b62000daf620010d3565b62000db9620010d3565b62000dc3620010d3565b331562000ebe5762000dd53362001063565b841562000eae576103e8861162000e9e578851926103ec90818501938585109085111762000e8b5750918484928b9462001644853916815230602082015203019088f090811562000e815760018060a01b0319911681885416178755600154161760015560025562000e45578280f35b805460ff60401b1916905551600181527fc7f505b2f371ae2175ee4913f4499e1f2633a7b5936321eed1cdaeb6115181d290602090a138808280f35b86513d89823e3d90fd5b634e487b7160e01b8c526041905260248bfd5b8851637186728f60e11b81528390fd5b885163423eca3760e11b81528390fd5b8851631e4fbdf760e01b81528084018b9052602490fd5b68ffffffffffffffffff1916680100000000000000011788553862000d9a565b63f92ee8a960e01b81528490fd5b9050153862000d7b565b303b15915062000d72565b8a915062000d67565b6004356001600160a81b038116810362000616576001600160a01b031690565b90601f801991011681019081106001600160401b0382111762000f6357604052565b634e487b7160e01b600052604160045260246000fd5b6001600160401b03811162000f6357601f01601f191660200190565b9181601f8401121562000616578235916001600160401b0383116200061657602083818601950101116200061657565b919082519283825260005b84811062000ff2575050826000602080949584010152601f8019910116010190565b60208183018101518483018201520162000fd0565b908060209392818452848401376000828201840152601f01601f1916010190565b60008051602062001a30833981519152546001600160a01b031633036200104b57565b60405163118cdaa760e01b8152336004820152602490fd5b60008051602062001a7083398151915280546001600160a01b031990811690915560008051602062001a3083398151915280549182166001600160a01b0393841690811790915591167f8be0079c531659141344cd1fd0a4f28419497f9722a3daafe3b4186f6b6457e0600080a3565b60ff7ff0c57e16840df040f15088dc2f81fe391c3923bec73e23a9662efc9c229c6a005460401c16156200110357565b604051631afcd79f60e31b8152600490fd5b906200113e57508051156200112c57602081519101fd5b60405163d6bda27560e01b8152600490fd5b8151158062001173575b62001151575090565b604051639996b31560e01b81526001600160a01b039091166004820152602490fd5b50803b156200114856fe60a06040908082526104c6803803809161001982856102ae565b8339810182828203126101e95761002f826102e7565b60208084015191939091906001600160401b0382116101e9570182601f820112156101e95780519061006082610304565b9361006d875195866102ae565b8285528383830101116101e957829060005b83811061029a57505060009184010152823b1561027a577fa3f0ad74e5423aebfd80d3ef4346578335a9a72aeaee59ff6cb3582b35133d5080546001600160a01b0319166001600160a01b038581169182179092558551635c60da1b60e01b8082529194928482600481895afa91821561026f57600092610238575b50813b1561021f5750508551847f1cf3b03a6cf19fa2baba4df148e9dcabedea7f8a5c07840e207e5c089be95d3e600080a282511561020057508290600487518096819382525afa9283156101f5576000936101b3575b5091600080848461019096519101845af4903d156101aa573d61017481610304565b90610181885192836102ae565b8152600081943d92013e61031f565b505b60805251610143908161038382396080518160180152f35b6060925061031f565b92508183813d83116101ee575b6101ca81836102ae565b810103126101e9576000806101e1610190956102e7565b945050610152565b600080fd5b503d6101c0565b85513d6000823e3d90fd5b9350505050346102105750610192565b63b398979f60e01b8152600490fd5b8751634c9c8ce360e01b81529116600482015260249150fd5b9091508481813d8311610268575b61025081836102ae565b810103126101e957610261906102e7565b90386100fb565b503d610246565b88513d6000823e3d90fd5b8351631933b43b60e21b81526001600160a01b0384166004820152602490fd5b81810183015186820184015284920161007f565b601f909101601f19168101906001600160401b038211908210176102d157604052565b634e487b7160e01b600052604160045260246000fd5b516001600160a81b03811681036101e9576001600160a01b031690565b6001600160401b0381116102d157601f01601f191660200190565b90610346575080511561033457602081519101fd5b60405163d6bda27560e01b8152600490fd5b81511580610379575b610357575090565b604051639996b31560e01b81526001600160a01b039091166004820152602490fd5b50803b1561034f56fe60806040819052635c60da1b60e01b81526020816004817f00000000000000000000000000000000000000000000000000000000000000006001600160a01b03165afa9081156100b257600091610057575b506100ee565b905060203d6020116100ab575b601f8101601f191682019167ffffffffffffffff8311818410176100955761008f92604052016100be565b38610051565b634e487b7160e01b600052604160045260246000fd5b503d610064565b6040513d6000823e3d90fd5b602090607f1901126100e9576080516001600160a81b03811681036100e9576001600160a01b031690565b600080fd5b6000808092368280378136915af43d82803e15610109573d90f35b3d90fdfea26474726f6e58221220dcbf54d4a49457d6946e2d88130184560279170e58c11f2388e58e318be267f964736f6c6343000818003360803461012057601f6103ec38819003918201601f19168301916001600160401b038311848410176101255780849260409485528339810103126101205760206100488261013b565b916001600160a01b0391829161005e910161013b565b1690811561010757600080546001600160a01b0319808216851783556040519295909490929184167f8be0079c531659141344cd1fd0a4f28419497f9722a3daafe3b4186f6b6457e08780a3813b156100f0575016809160015416176001557fbc7cd75a20ee27fd9adebab32041f755214dbc6bffa90cc0225b39da2e5c2d3b6040519280a261029390816101598239f35b63211eb15960e21b81529082166004820152602490fd5b604051631e4fbdf760e01b815260006004820152602490fd5b600080fd5b634e487b7160e01b600052604160045260246000fd5b516001600160a81b0381168103610120576001600160a01b03169056fe6080604052600436101561001257600080fd5b6000803560e01c80633659cfe61461017b5780635c60da1b14610152578063715018a6146100f85780638da5cb5b146100d15763f2fde38b1461005457600080fd5b346100ce5761006236610201565b61006a610231565b6001600160a01b039081169081156100b55782546001600160a01b0319811683178455167f8be0079c531659141344cd1fd0a4f28419497f9722a3daafe3b4186f6b6457e08380a380f35b604051631e4fbdf760e01b815260048101849052602490fd5b80fd5b50346100ce57806003193601126100ce57546040516001600160a01b039091168152602090f35b50346100ce57806003193601126100ce57610111610231565b80546001600160a01b03198116825581906001600160a01b03167f8be0079c531659141344cd1fd0a4f28419497f9722a3daafe3b4186f6b6457e08280a380f35b50346100ce57806003193601126100ce576001546040516001600160a01b039091168152602090f35b50346100ce5761018a36610201565b610192610231565b803b156101df57600180546001600160a01b0319166001600160a01b039290921691821790557fbc7cd75a20ee27fd9adebab32041f755214dbc6bffa90cc0225b39da2e5c2d3b8280a280f35b60405163211eb15960e21b81526001600160a01b039091166004820152602490fd5b602090600319011261022c576004356001600160a81b038116810361022c576001600160a01b031690565b600080fd5b6000546001600160a01b0316330361024557565b60405163118cdaa760e01b8152336004820152602490fdfea26474726f6e58221220a7c643422caf67f4c2c7c28c7016b38e67987b6d31b3e252d7cd45858f6a004b64736f6c634300081800339016d09d72d40fdae2fd8ceac6b6234c7706214fd39c1cd1e609a0528c199300360894a13ba1a3210667c828492db98dca3e2076cc3735a920a3ca505d382bbc237e158222e3e6968b72b9db0d8043aacf074ad9f650f0d1606b4d82ee432c00a26474726f6e58221220bca92c8f3cb5ca79a920f41678f617a24592c666f0b02a54477d89ea4f03a1dd64736f6c63430008180033",
  "linkReferences": {},
  "deployedLinkReferences": {}
}