{
  "_format": "hh-sol-artifact-1",
  "contractName": "PayTheFlyPro",
  "sourceName": "contracts/PayTheFlyPro.sol",
  "abi": [
    {
      "inputs": [],
      "stateMutability": "nonpayable",
      "type": "constructor"
    },
    {
      "inputs": [],
      "name": "AdminAlreadyExists",
      "type": "error"
    },
    {
      "inputs": [],
      "name": "AdminNotFound",
      "type": "error"
    },
    {
      "inputs": [],
      "name": "AlreadyConfirmed",
      "type": "error"
    },
    {
      "inputs": [],
      "name": "DirectTransferNotAllowed",
      "type": "error"
    },
    {
      "inputs": [],
      "name": "ECDSAInvalidSignature",
      "type": "error"
    },
    {
      "inputs": [
        {
          "internalType": "uint256",
          "name": "length",
          "type": "uint256"
        }
      ],
      "name": "ECDSAInvalidSignatureLength",
      "type": "error"
    },
    {
      "inputs": [
        {
          "internalType": "bytes32",
          "name": "s",
          "type": "bytes32"
        }
      ],
      "name": "ECDSAInvalidSignatureS",
      "type": "error"
    },
    {
      "inputs": [],
      "name": "ExpiredDeadline",
      "type": "error"
    },
    {
      "inputs": [],
      "name": "InsufficientBalance",
      "type": "error"
    },
    {
      "inputs": [],
      "name": "InvalidAddress",
      "type": "error"
    },
    {
      "inputs": [],
      "name": "InvalidAmount",
      "type": "error"
    },
    {
      "inputs": [],
      "name": "InvalidInitialization",
      "type": "error"
    },
    {
      "inputs": [],
      "name": "InvalidOperationType",
      "type": "error"
    },
    {
      "inputs": [],
      "name": "InvalidProposalDuration",
      "type": "error"
    },
    {
      "inputs": [],
      "name": "InvalidSignature",
      "type": "error"
    },
    {
      "inputs": [],
      "name": "InvalidThreshold",
      "type": "error"
    },
    {
      "inputs": [],
      "name": "MaxAdminsReached",
      "type": "error"
    },
    {
      "inputs": [],
      "name": "NameEmpty",
      "type": "error"
    },
    {
      "inputs": [],
      "name": "NameTooLong",
      "type": "error"
    },
    {
      "inputs": [],
      "name": "NotAdmin",
      "type": "error"
    },
    {
      "inputs": [],
      "name": "NotConfirmed",
      "type": "error"
    },
    {
      "inputs": [],
      "name": "NotFactory",
      "type": "error"
    },
    {
      "inputs": [],
      "name": "NotInitializing",
      "type": "error"
    },
    {
      "inputs": [],
      "name": "NotProposer",
      "type": "error"
    },
    {
      "inputs": [],
      "name": "ProjectPausedError",
      "type": "error"
    },
    {
      "inputs": [],
      "name": "ProposalAlreadyExecuted",
      "type": "error"
    },
    {
      "inputs": [],
      "name": "ProposalCancelledError",
      "type": "error"
    },
    {
      "inputs": [],
      "name": "ProposalExpired",
      "type": "error"
    },
    {
      "inputs": [],
      "name": "ProposalNotFound",
      "type": "error"
    },
    {
      "inputs": [],
      "name": "ReentrancyGuardReentrantCall",
      "type": "error"
    },
    {
      "inputs": [
        {
          "internalType": "address",
          "name": "token",
          "type": "address"
        }
      ],
      "name": "SafeERC20UniversalFailedOperation",
      "type": "error"
    },
    {
      "inputs": [],
      "name": "SerialNoEmpty",
      "type": "error"
    },
    {
      "inputs": [],
      "name": "SerialNoTooLong",
      "type": "error"
    },
    {
      "inputs": [],
      "name": "SerialNoUsed",
      "type": "error"
    },
    {
      "inputs": [],
      "name": "ThresholdNotReached",
      "type": "error"
    },
    {
      "inputs": [],
      "name": "ThresholdTooHigh",
      "type": "error"
    },
    {
      "inputs": [],
      "name": "TransferFailed",
      "type": "error"
    },
    {
      "anonymous": false,
      "inputs": [
        {
          "indexed": true,
          "internalType": "address",
          "name": "admin",
          "type": "address"
        },
        {
          "indexed": false,
          "internalType": "uint256",
          "name": "proposalId",
          "type": "uint256"
        }
      ],
      "name": "AdminAdded",
      "type": "event"
    },
    {
      "anonymous": false,
      "inputs": [
        {
          "indexed": false,
          "internalType": "string",
          "name": "projectId",
          "type": "string"
        },
        {
          "indexed": true,
          "internalType": "address",
          "name": "token",
          "type": "address"
        },
        {
          "indexed": true,
          "internalType": "address",
          "name": "recipient",
          "type": "address"
        },
        {
          "indexed": false,
          "internalType": "uint256",
          "name": "amount",
          "type": "uint256"
        },
        {
          "indexed": true,
          "internalType": "uint256",
          "name": "proposalId",
          "type": "uint256"
        },
        {
          "indexed": false,
          "internalType": "enum IPayTheFlyPro.AdminPoolOpType",
          "name": "opType",
          "type": "uint8"
        }
      ],
      "name": "AdminPoolOperation",
      "type": "event"
    },
    {
      "anonymous": false,
      "inputs": [
        {
          "indexed": true,
          "internalType": "address",
          "name": "admin",
          "type": "address"
        },
        {
          "indexed": false,
          "internalType": "uint256",
          "name": "proposalId",
          "type": "uint256"
        }
      ],
      "name": "AdminRemoved",
      "type": "event"
    },
    {
      "anonymous": false,
      "inputs": [],
      "name": "EIP712DomainChanged",
      "type": "event"
    },
    {
      "anonymous": false,
      "inputs": [
        {
          "indexed": false,
          "internalType": "uint64",
          "name": "version",
          "type": "uint64"
        }
      ],
      "name": "Initialized",
      "type": "event"
    },
    {
      "anonymous": false,
      "inputs": [
        {
          "indexed": false,
          "internalType": "string",
          "name": "projectId",
          "type": "string"
        },
        {
          "indexed": true,
          "internalType": "address",
          "name": "token",
          "type": "address"
        },
        {
          "indexed": true,
          "internalType": "address",
          "name": "account",
          "type": "address"
        },
        {
          "indexed": false,
          "internalType": "uint256",
          "name": "amount",
          "type": "uint256"
        },
        {
          "indexed": false,
          "internalType": "uint256",
          "name": "fee",
          "type": "uint256"
        },
        {
          "indexed": false,
          "internalType": "string",
          "name": "serialNo",
          "type": "string"
        },
        {
          "indexed": true,
          "internalType": "enum IPayTheFlyPro.TxType",
          "name": "txType",
          "type": "uint8"
        }
      ],
      "name": "PayTheFlyTransaction",
      "type": "event"
    },
    {
      "anonymous": false,
      "inputs": [
        {
          "indexed": false,
          "internalType": "string",
          "name": "oldName",
          "type": "string"
        },
        {
          "indexed": false,
          "internalType": "string",
          "name": "newName",
          "type": "string"
        }
      ],
      "name": "ProjectNameUpdated",
      "type": "event"
    },
    {
      "anonymous": false,
      "inputs": [
        {
          "indexed": false,
          "internalType": "uint256",
          "name": "proposalId",
          "type": "uint256"
        }
      ],
      "name": "ProjectPaused",
      "type": "event"
    },
    {
      "anonymous": false,
      "inputs": [
        {
          "indexed": false,
          "internalType": "uint256",
          "name": "proposalId",
          "type": "uint256"
        }
      ],
      "name": "ProjectUnpaused",
      "type": "event"
    },
    {
      "anonymous": false,
      "inputs": [
        {
          "indexed": true,
          "internalType": "uint256",
          "name": "proposalId",
          "type": "uint256"
        }
      ],
      "name": "ProposalCancelled",
      "type": "event"
    },
    {
      "anonymous": false,
      "inputs": [
        {
          "indexed": true,
          "internalType": "uint256",
          "name": "proposalId",
          "type": "uint256"
        },
        {
          "indexed": true,
          "internalType": "address",
          "name": "admin",
          "type": "address"
        }
      ],
      "name": "ProposalConfirmed",
      "type": "event"
    },
    {
      "anonymous": false,
      "inputs": [
        {
          "indexed": true,
          "internalType": "uint256",
          "name": "proposalId",
          "type": "uint256"
        },
        {
          "indexed": false,
          "internalType": "enum IPayTheFlyPro.OperationType",
          "name": "opType",
          "type": "uint8"
        },
        {
          "indexed": true,
          "internalType": "address",
          "name": "proposer",
          "type": "address"
        },
        {
          "indexed": false,
          "internalType": "uint256",
          "name": "deadline",
          "type": "uint256"
        }
      ],
      "name": "ProposalCreated",
      "type": "event"
    },
    {
      "anonymous": false,
      "inputs": [
        {
          "indexed": true,
          "internalType": "uint256",
          "name": "proposalId",
          "type": "uint256"
        }
      ],
      "name": "ProposalExecuted",
      "type": "event"
    },
    {
      "anonymous": false,
      "inputs": [
        {
          "indexed": true,
          "internalType": "uint256",
          "name": "proposalId",
          "type": "uint256"
        },
        {
          "indexed": true,
          "internalType": "address",
          "name": "admin",
          "type": "address"
        }
      ],
      "name": "ProposalRevoked",
      "type": "event"
    },
    {
      "anonymous": false,
      "inputs": [
        {
          "indexed": true,
          "internalType": "address",
          "name": "oldSigner",
          "type": "address"
        },
        {
          "indexed": true,
          "internalType": "address",
          "name": "newSigner",
          "type": "address"
        },
        {
          "indexed": false,
          "internalType": "uint256",
          "name": "proposalId",
          "type": "uint256"
        }
      ],
      "name": "SignerUpdated",
      "type": "event"
    },
    {
      "anonymous": false,
      "inputs": [
        {
          "indexed": false,
          "internalType": "uint256",
          "name": "oldThreshold",
          "type": "uint256"
        },
        {
          "indexed": false,
          "internalType": "uint256",
          "name": "newThreshold",
          "type": "uint256"
        },
        {
          "indexed": false,
          "internalType": "uint256",
          "name": "proposalId",
          "type": "uint256"
        }
      ],
      "name": "ThresholdChanged",
      "type": "event"
    },
    {
      "stateMutability": "payable",
      "type": "fallback"
    },
    {
      "inputs": [
        {
          "internalType": "uint256",
          "name": "proposalId",
          "type": "uint256"
        }
      ],
      "name": "cancelProposal",
      "outputs": [],
      "stateMutability": "nonpayable",
      "type": "function"
    },
    {
      "inputs": [
        {
          "internalType": "uint256",
          "name": "proposalId",
          "type": "uint256"
        }
      ],
      "name": "confirmProposal",
      "outputs": [],
      "stateMutability": "nonpayable",
      "type": "function"
    },
    {
      "inputs": [
        {
          "internalType": "enum IPayTheFlyPro.OperationType",
          "name": "opType",
          "type": "uint8"
        },
        {
          "internalType": "bytes",
          "name": "params",
          "type": "bytes"
        },
        {
          "internalType": "uint256",
          "name": "deadline",
          "type": "uint256"
        }
      ],
      "name": "createProposal",
      "outputs": [
        {
          "internalType": "uint256",
          "name": "proposalId",
          "type": "uint256"
        }
      ],
      "stateMutability": "nonpayable",
      "type": "function"
    },
    {
      "inputs": [
        {
          "internalType": "address",
          "name": "token",
          "type": "address"
        },
        {
          "internalType": "uint256",
          "name": "amount",
          "type": "uint256"
        }
      ],
      "name": "depositToWithdrawalPool",
      "outputs": [],
      "stateMutability": "payable",
      "type": "function"
    },
    {
      "inputs": [],
      "name": "eip712Domain",
      "outputs": [
        {
          "internalType": "bytes1",
          "name": "fields",
          "type": "bytes1"
        },
        {
          "internalType": "string",
          "name": "name",
          "type": "string"
        },
        {
          "internalType": "string",
          "name": "version",
          "type": "string"
        },
        {
          "internalType": "uint256",
          "name": "chainId",
          "type": "uint256"
        },
        {
          "internalType": "address",
          "name": "verifyingContract",
          "type": "address"
        },
        {
          "internalType": "bytes32",
          "name": "salt",
          "type": "bytes32"
        },
        {
          "internalType": "uint256[]",
          "name": "extensions",
          "type": "uint256[]"
        }
      ],
      "stateMutability": "view",
      "type": "function"
    },
    {
      "inputs": [
        {
          "internalType": "uint256",
          "name": "proposalId",
          "type": "uint256"
        }
      ],
      "name": "executeProposal",
      "outputs": [],
      "stateMutability": "nonpayable",
      "type": "function"
    },
    {
      "inputs": [],
      "name": "getAdmins",
      "outputs": [
        {
          "internalType": "address[]",
          "name": "",
          "type": "address[]"
        }
      ],
      "stateMutability": "view",
      "type": "function"
    },
    {
      "inputs": [
        {
          "internalType": "address",
          "name": "token",
          "type": "address"
        }
      ],
      "name": "getBalance",
      "outputs": [
        {
          "components": [
            {
              "internalType": "uint256",
              "name": "paymentBalance",
              "type": "uint256"
            },
            {
              "internalType": "uint256",
              "name": "withdrawalBalance",
              "type": "uint256"
            }
          ],
          "internalType": "struct IPayTheFlyPro.TokenBalance",
          "name": "",
          "type": "tuple"
        }
      ],
      "stateMutability": "view",
      "type": "function"
    },
    {
      "inputs": [
        {
          "internalType": "address[]",
          "name": "tokens",
          "type": "address[]"
        }
      ],
      "name": "getBalancesBatch",
      "outputs": [
        {
          "components": [
            {
              "internalType": "uint256",
              "name": "paymentBalance",
              "type": "uint256"
            },
            {
              "internalType": "uint256",
              "name": "withdrawalBalance",
              "type": "uint256"
            }
          ],
          "internalType": "struct IPayTheFlyPro.TokenBalance[]",
          "name": "",
          "type": "tuple[]"
        }
      ],
      "stateMutability": "view",
      "type": "function"
    },
    {
      "inputs": [],
      "name": "getProjectInfo",
      "outputs": [
        {
          "components": [
            {
              "internalType": "string",
              "name": "projectId",
              "type": "string"
            },
            {
              "internalType": "string",
              "name": "name",
              "type": "string"
            },
            {
              "internalType": "address",
              "name": "creator",
              "type": "address"
            },
            {
              "internalType": "address",
              "name": "signer",
              "type": "address"
            },
            {
              "internalType": "bool",
              "name": "paused",
              "type": "bool"
            },
            {
              "internalType": "address[]",
              "name": "admins",
              "type": "address[]"
            },
            {
              "internalType": "uint256",
              "name": "threshold",
              "type": "uint256"
            },
            {
              "internalType": "uint256",
              "name": "activeProposalCount",
              "type": "uint256"
            }
          ],
          "internalType": "struct IPayTheFlyPro.ProjectInfo",
          "name": "",
          "type": "tuple"
        }
      ],
      "stateMutability": "view",
      "type": "function"
    },
    {
      "inputs": [
        {
          "internalType": "uint256",
          "name": "proposalId",
          "type": "uint256"
        }
      ],
      "name": "getProposal",
      "outputs": [
        {
          "components": [
            {
              "internalType": "uint256",
              "name": "id",
              "type": "uint256"
            },
            {
              "internalType": "enum IPayTheFlyPro.OperationType",
              "name": "opType",
              "type": "uint8"
            },
            {
              "internalType": "bytes",
              "name": "params",
              "type": "bytes"
            },
            {
              "internalType": "address",
              "name": "proposer",
              "type": "address"
            },
            {
              "internalType": "uint256",
              "name": "deadline",
              "type": "uint256"
            },
            {
              "internalType": "uint256",
              "name": "confirmCount",
              "type": "uint256"
            },
            {
              "internalType": "bool",
              "name": "executed",
              "type": "bool"
            },
            {
              "internalType": "bool",
              "name": "cancelled",
              "type": "bool"
            },
            {
              "internalType": "address[]",
              "name": "confirmedBy",
              "type": "address[]"
            }
          ],
          "internalType": "struct IPayTheFlyPro.ProposalInfo",
          "name": "",
          "type": "tuple"
        }
      ],
      "stateMutability": "view",
      "type": "function"
    },
    {
      "inputs": [],
      "name": "getProposalCount",
      "outputs": [
        {
          "internalType": "uint256",
          "name": "",
          "type": "uint256"
        }
      ],
      "stateMutability": "view",
      "type": "function"
    },
    {
      "inputs": [
        {
          "internalType": "uint256",
          "name": "offset",
          "type": "uint256"
        },
        {
          "internalType": "uint256",
          "name": "limit",
          "type": "uint256"
        }
      ],
      "name": "getProposalsPaginated",
      "outputs": [
        {
          "components": [
            {
              "internalType": "uint256",
              "name": "id",
              "type": "uint256"
            },
            {
              "internalType": "enum IPayTheFlyPro.OperationType",
              "name": "opType",
              "type": "uint8"
            },
            {
              "internalType": "bytes",
              "name": "params",
              "type": "bytes"
            },
            {
              "internalType": "address",
              "name": "proposer",
              "type": "address"
            },
            {
              "internalType": "uint256",
              "name": "deadline",
              "type": "uint256"
            },
            {
              "internalType": "uint256",
              "name": "confirmCount",
              "type": "uint256"
            },
            {
              "internalType": "bool",
              "name": "executed",
              "type": "bool"
            },
            {
              "internalType": "bool",
              "name": "cancelled",
              "type": "bool"
            },
            {
              "internalType": "address[]",
              "name": "confirmedBy",
              "type": "address[]"
            }
          ],
          "internalType": "struct IPayTheFlyPro.ProposalInfo[]",
          "name": "proposals",
          "type": "tuple[]"
        },
        {
          "internalType": "uint256",
          "name": "total",
          "type": "uint256"
        }
      ],
      "stateMutability": "view",
      "type": "function"
    },
    {
      "inputs": [],
      "name": "getThreshold",
      "outputs": [
        {
          "internalType": "uint256",
          "name": "",
          "type": "uint256"
        }
      ],
      "stateMutability": "view",
      "type": "function"
    },
    {
      "inputs": [
        {
          "internalType": "uint256",
          "name": "proposalId",
          "type": "uint256"
        },
        {
          "internalType": "address",
          "name": "admin",
          "type": "address"
        }
      ],
      "name": "hasConfirmed",
      "outputs": [
        {
          "internalType": "bool",
          "name": "",
          "type": "bool"
        }
      ],
      "stateMutability": "view",
      "type": "function"
    },
    {
      "inputs": [
        {
          "internalType": "string",
          "name": "projectId",
          "type": "string"
        },
        {
          "internalType": "string",
          "name": "name",
          "type": "string"
        },
        {
          "internalType": "address",
          "name": "creator",
          "type": "address"
        },
        {
          "internalType": "address",
          "name": "admin",
          "type": "address"
        },
        {
          "internalType": "address",
          "name": "signer",
          "type": "address"
        }
      ],
      "name": "initialize",
      "outputs": [],
      "stateMutability": "nonpayable",
      "type": "function"
    },
    {
      "inputs": [
        {
          "internalType": "address",
          "name": "account",
          "type": "address"
        }
      ],
      "name": "isAdmin",
      "outputs": [
        {
          "internalType": "bool",
          "name": "",
          "type": "bool"
        }
      ],
      "stateMutability": "view",
      "type": "function"
    },
    {
      "inputs": [
        {
          "internalType": "string",
          "name": "serialNo",
          "type": "string"
        }
      ],
      "name": "isPaymentSerialNoUsed",
      "outputs": [
        {
          "internalType": "bool",
          "name": "",
          "type": "bool"
        }
      ],
      "stateMutability": "view",
      "type": "function"
    },
    {
      "inputs": [
        {
          "internalType": "string",
          "name": "serialNo",
          "type": "string"
        }
      ],
      "name": "isWithdrawalSerialNoUsed",
      "outputs": [
        {
          "internalType": "bool",
          "name": "",
          "type": "bool"
        }
      ],
      "stateMutability": "view",
      "type": "function"
    },
    {
      "inputs": [
        {
          "components": [
            {
              "internalType": "address",
              "name": "token",
              "type": "address"
            },
            {
              "internalType": "uint256",
              "name": "amount",
              "type": "uint256"
            },
            {
              "internalType": "string",
              "name": "serialNo",
              "type": "string"
            },
            {
              "internalType": "uint256",
              "name": "deadline",
              "type": "uint256"
            }
          ],
          "internalType": "struct IPayTheFlyPro.PaymentRequest",
          "name": "request",
          "type": "tuple"
        },
        {
          "internalType": "bytes",
          "name": "signature",
          "type": "bytes"
        }
      ],
      "name": "pay",
      "outputs": [],
      "stateMutability": "payable",
      "type": "function"
    },
    {
      "inputs": [
        {
          "internalType": "uint256",
          "name": "proposalId",
          "type": "uint256"
        }
      ],
      "name": "revokeConfirmation",
      "outputs": [],
      "stateMutability": "nonpayable",
      "type": "function"
    },
    {
      "inputs": [
        {
          "internalType": "string",
          "name": "newName",
          "type": "string"
        }
      ],
      "name": "setName",
      "outputs": [],
      "stateMutability": "nonpayable",
      "type": "function"
    },
    {
      "inputs": [
        {
          "components": [
            {
              "internalType": "address",
              "name": "user",
              "type": "address"
            },
            {
              "internalType": "address",
              "name": "token",
              "type": "address"
            },
            {
              "internalType": "uint256",
              "name": "amount",
              "type": "uint256"
            },
            {
              "internalType": "string",
              "name": "serialNo",
              "type": "string"
            },
            {
              "internalType": "uint256",
              "name": "deadline",
              "type": "uint256"
            }
          ],
          "internalType": "struct IPayTheFlyPro.WithdrawalRequest",
          "name": "request",
          "type": "tuple"
        },
        {
          "internalType": "bytes",
          "name": "signature",
          "type": "bytes"
        }
      ],
      "name": "withdraw",
      "outputs": [],
      "stateMutability": "nonpayable",
      "type": "function"
    },
    {
      "stateMutability": "payable",
      "type": "receive"
    }
  ],
  "bytecode": "0x60808060405234620000bd577ff0c57e16840df040f15088dc2f81fe391c3923bec73e23a9662efc9c229c6a009081549060ff8260401c16620000ae57506001600160401b036002600160401b03198282160162000068575b604051613a609081620000c38239f35b6001600160401b031990911681179091556040519081527fc7f505b2f371ae2175ee4913f4499e1f2633a7b5936321eed1cdaeb6115181d290602090a138808062000058565b63f92ee8a960e01b8152600490fd5b600080fdfe608080604052600436101561003a575b50361561002857604051633ee6509d60e01b8152600490fd5b604051633ee6509d60e01b8152600490fd5b60e0600035811c91826308aff93314612895575081630d61b519146120a457816320ea8d8614611fb557816324d7806c14611f7657816331ae450b14611f0f57816367a831ee14611c6857816367c897fe14611b135781636c5721c514611a8b57816378f4ee5314611919578163814a41781461153c57816384b0196e146113ff578163b6af3d5e14611319578163c08cc02d146112fb578163c47f002714611130578163c7f758a814611004578163db0ed6a01461081f578163e0a8f6f51461075e578163e38d8d6f146103d857508063e42decfa14610382578063e75235b814610364578063e88aff171461030e578063f4a4f4d2146101b85763f8b2cb4f14610146573861000f565b346101b3576020806003193601126101b3576040906101636128e9565b600082845161017181612d65565b828152015260018060a01b0316600052600d8152816000205490600e815282600020548184516101a081612d65565b8481520190815283519283525190820152f35b600080fd5b346101b3576020806003193601126101b35760043590336000526006815260ff60406000205416156102fc576000828152600b82526040902060038101546001600160a01b0316156102ea57600681015460ff81166102d85760081c60ff166102c657600481015442116102b45782600052600c8252604060002033600052825260ff604060002054166102a25760059183600052600c815260406000209033600052526040600020600160ff1982541617905501610277815461323a565b905533907ffde7b8a92c767d46da889d2526f0fa0dd074cc73fb01212122ad9368d18390a4600080a3005b604051635f8a9c0b60e01b8152600490fd5b6040516328a7237960e01b8152600490fd5b6040516309497d1960e41b8152600490fd5b6040516351618d5360e01b8152600490fd5b60405163635e873760e01b8152600490fd5b604051637bfa4b9f60e01b8152600490fd5b346101b35760203660031901126101b3576004356001600160401b0381116101b35760ff602061034381933690600401612908565b91908260405193849283378101600f81520301902054166040519015158152f35b346101b35760003660031901126101b3576020600854604051908152f35b346101b35760203660031901126101b3576004356001600160401b0381116101b35760ff60206103b781933690600401612908565b91908260405193849283378101601081520301902054166040519015158152f35b346101b35760603660031901126101b357600960043510156101b3576001600160401b03906024358281116101b357610415903690600401612908565b91909133600052600660205260ff60406000205416156102fc57610e10420180421161074857604435106107365762278d004201804211610748576044351161073657600954926104658461323a565b600955610473600a5461323a565b600a556104816004356129b2565b6104bb60ff6004351691610494836129b2565b604051936104a185612d49565b86855260208501936104b2816129b2565b84523691612e96565b91604081019283523360608201526044356080820152600160a082015260c0810193600085528101926000845285600052600b6020526040600020928251845560018401905161050a816129b2565b610513816129b2565b60ff80198354169116179055519586519081116107205760209661053a6002850154612a6a565b601f81116106e2575b508790601f831160011461066e578260a093600696959361057b93600092610663575b50508160011b916000199060031b1c19161790565b60028401555b60038301600180841b03606083015116600180851b0319825416179055608081015160048401550151600582015501915115159060ff61ff0084549251151560081b1692169061ffff19161717905580600052600c825260406000203360005282526040600020600160ff198254161790556040516106016004356129b2565b600435815260443583820152817fae129d0ee5ec486eee044a592fd4a3839d6499a9d016440a8f84b28973530b5e60403393a36040519033817ffde7b8a92c767d46da889d2526f0fa0dd074cc73fb01212122ad9368d18390a4600080a38152f35b015190508b80610566565b9060028501600052886000209160005b601f19851681106106cb575092600695949260019260a09583601f198116106106b2575b505050811b016002840155610581565b015160001960f88460031b161c191690558a80806106a2565b91928a60018192868501518155019401920161067e565b610710906002860160005289600020601f850160051c8101918b8610610716575b601f0160051c01906131ab565b88610543565b9091508190610703565b634e487b7160e01b600052604160045260246000fd5b604051632a4421b560e11b8152600490fd5b634e487b7160e01b600052601160045260246000fd5b346101b35760203660031901126101b35760043533600052600660205260ff60406000205416156102fc576000818152600b6020526040902060038101546001600160a01b03169081156102ea576006019081549060ff82166102d85760ff8260081c166102c657330361080d5761ff001916610100179055600a546107e390612a5d565b600a557f416e669c63d9a3a5e36ee7cc7e2104b8db28ccd286aa18966e98fa230c73b08c600080a2005b604051637d1b73b960e01b8152600490fd5b346101b35760a03660031901126101b3576004356001600160401b0381116101b35761084f903690600401612908565b906024356001600160401b0381116101b35761086f903690600401612908565b926001600160a81b03919060443580841690036101b3576064359280841684036101b35760843516608435036101b3576000805160206139eb83398151915254936001600160401b03851680159081610ff4575b6001149081610fea575b159081610fe1575b50610fcf5760016001600160401b03198616176000805160206139eb8339815191525560ff8560401c1615610fa2575b60405161091181612d65565b600c81526b506179546865466c7950726f60a01b60208201526040519061093782612d65565b60018252603160f81b602083015261094d61372f565b61095561372f565b8051906001600160401b0382116107205761097e60008051602061396b83398151915254612a6a565b601f8111610f46575b50602090601f8311600114610ea3576109b8929160009183610e985750508160011b916000199060031b1c19161790565b60008051602061396b833981519152555b8051906001600160401b038211610720576109f260008051602061398b83398151915254612a6a565b601f8111610e3c575b50602090601f8311600114610d9957610a2c929160009183610d8e5750508160011b916000199060031b1c19161790565b60008051602061398b833981519152555b60006000805160206139ab833981519152556000600080516020613a0b83398151915255610a6961372f565b610a7161372f565b60016000805160206139cb83398151915255600080546001600160a01b031916331790556001600160401b03821161072057610aae600154612a6a565b601f8111610d3f575b50600090601f8311600114610cb757610ae8929160009183610cac5750508160011b916000199060031b1c19161790565b6001555b6001600160401b03841161072057610b0e84610b09600254612a6a565b6131c2565b600090601f8511600114610c23579380610b419260ff96600092610c185750508160011b916000199060031b1c19161790565b6002555b600380546001600160a01b0319166044356001600160a01b0390811691909117909155600480546001600160a81b03191660843583161790556001600855610b8e908216613217565b60018060a01b0316600052600660205260406000206001831982541617905560076020526000604081205560401c1615610bc457005b60ff60401b196000805160206139eb83398151915254166000805160206139eb833981519152557fc7f505b2f371ae2175ee4913f4499e1f2633a7b5936321eed1cdaeb6115181d2602060405160018152a1005b013590508680610566565b600260009081527f405787fa12a823e0f2b7631cc41b3ba8828b3321ca811111fa75cd3aa3bb5ace9290601f198716905b818110610c94575091600193918760ff989410610c7a575b505050811b01600255610b45565b0135600019600384901b60f8161c19169055858080610c6c565b91936020600181928787013581550195019201610c54565b013590508780610566565b6001600090815292917fb10e2d527612073b26eecdfd717e6a320cf44b4afac2b0732d9fcbe2b7fa0cf691905b601f1984168510610d27576001945083601f19811610610d0d575b505050811b01600155610aec565b0135600019600384901b60f8161c19169055868080610cff565b81810135835560209485019460019093019201610ce4565b6001600052610d88907fb10e2d527612073b26eecdfd717e6a320cf44b4afac2b0732d9fcbe2b7fa0cf6601f850160051c8101916020861061071657601f0160051c01906131ab565b86610ab7565b015190508980610566565b60008051602061398b833981519152600090815292917f5f9ce34815f8e11431c7bb75a8e6886a91478f7ffc1dbb0a98dc240fddd76b75915b601f1984168510610e21576001945083601f19811610610e08575b505050811b0160008051602061398b83398151915255610a3d565b015160001960f88460031b161c19169055888080610ded565b81810151835560209485019460019093019290910190610dd2565b60008051602061398b833981519152600052610e92907f5f9ce34815f8e11431c7bb75a8e6886a91478f7ffc1dbb0a98dc240fddd76b75601f850160051c8101916020861061071657601f0160051c01906131ab565b886109fb565b015190508a80610566565b60008051602061396b833981519152600090815292917f42ad5d3e1f2e6e70edcf6d991b8a3023d3fca8047a131592f9edb9fd9b89d57d915b601f1984168510610f2b576001945083601f19811610610f12575b505050811b0160008051602061396b833981519152556109c9565b015160001960f88460031b161c19169055898080610ef7565b81810151835560209485019460019093019290910190610edc565b60008051602061396b833981519152600052610f9c907f42ad5d3e1f2e6e70edcf6d991b8a3023d3fca8047a131592f9edb9fd9b89d57d601f850160051c8101916020861061071657601f0160051c01906131ab565b89610987565b68ffffffffffffffffff19851668010000000000000001176000805160206139eb83398151915255610905565b60405163f92ee8a960e01b8152600490fd5b905015876108d5565b303b1591506108cd565b604087901c60ff161591506108c3565b346101b35760203660031901126101b35760043590611021612f42565b5081600052600b6020526040600020805491821580611127575b6102ea57831580611112575b6102ea5760ff61110e948160018501541693611062856129b2565b61106b856129b2565b60018060a01b0360038201541660048201549060026110cc600585015494611097600682015497613549565b996040519b6110a58d612d80565b8c526110b0816129b2565b60208c01526110c56040518094819301612cd3565b0382612db7565b60408901526060880152608087015260a0860152818116151560c086015260081c161515908301526101008201526040519182916020835260208301906129d2565b0390f35b5060038201546001600160a01b031615611047565b5083151561103b565b346101b3576020806003193601126101b3576001600160401b036004358181116101b357611162903690600401612908565b929092336000526006825260ff60406000205416156102fc5780156112e95761010081116112d757604051926111a28461119b81612b35565b0385612db7565b8111610720576111b781610b09600254612a6a565b6000601f82116001146112465791817feb5737051399fdbc98c635ea56e880e2cec801577be45781fd94c07555048c39956112118261123695611229989760009161123b575b508160011b916000199060031b1c19161790565b6002555b604051958695604087526040870190612935565b9285840390860152612f0a565b0390a1005b90508301358a6111fd565b601f198216906002600052836000209160005b8181106112c05750956112299594928492611236957feb5737051399fdbc98c635ea56e880e2cec801577be45781fd94c07555048c3999106112a6575b5050600182811b01600255611215565b820135600019600385901b60f8161c191690558780611296565b91928560018192868b013581550194019201611259565b60405163680b6caf60e01b8152600490fd5b604051631ff3ed9d60e01b8152600490fd5b346101b35760003660031901126101b3576020600954604051908152f35b60403660031901126101b35761132d6128e9565b6024359033600052600660205260ff60406000205416156102fc576001600160a01b031690816113b357505034156113a15760008052600e602052604060002061137834825461317c565b905560006040518160008051602061392b83398151915233928061139c3482613189565b0390a4005b60405163162908e360e11b8152600490fd5b80156113a1576000916113c88230338461362e565b808352600e602052604083206113df83825461317c565b905560008051602061392b8339815191526040518061139c339582613189565b346101b35760003660031901126101b3576000805160206139ab833981519152541580611525575b156114e857604051906114448261143d81612ba9565b0383612db7565b604051611454816110c581612c4e565b6040519061146182612d9c565b60008252611497602091611489604051968796600f60f81b8852806020890152870190612935565b908582036040870152612935565b466060850152306080850152600060a085015283810360c08501526020808451928381520193019160005b8281106114d157505050500390f35b8351855286955093810193928101926001016114c2565b60405162461bcd60e51b81526020600482015260156024820152741152540dcc4c8e88155b9a5b9a5d1a585b1a5e9959605a1b6044820152606490fd5b50600080516020613a0b8339815191525415611427565b6003196040368201126101b357600435916001600160401b038084116101b3576080846004019385360301126101b3576024358181116101b357611584903690600401612908565b94909160ff60045460a01c166119075761159c613249565b60448201956115b46115ae8888612e49565b90613279565b6064830135928342116118f557602401359384156113a157604051936115e4856115dd81612aa4565b0386612db7565b8451602080960120906115f689612e35565b9761160b6116048c8c612e49565b3691612e96565b8781519101209160405192888401947ff64ca923ee0c500d90db7e8041fb883cf771d9942df7f423f532e2286021e2718652604085015260018060a01b03809b16606085015289608085015260a084015260c083015260c0825281019481861090861117610720576116829460405251902061330a565b8061168d8686612e49565b91908260405193849283378101600f815203019020600160ff19825416179055826116b785612e35565b166118d3578134036113a1575b82600054169060405163978bbdb960e01b81528181600481865afa90811561189a576000916118a6575b5080840290848204036107485761271061170a91048094612ecd565b91836117a9575b509061179260008051602061394b8339815191529392611760600198876117378a612e35565b16600052600d8352604060002061174f86825461317c565b905561175a89612e35565b98612e49565b90966040519586956080875261177860808801612aa4565b948701526040860152848303606086015233981696612f0a565b0390a460016000805160206139cb83398151915255005b8160049160409594939551928380926323c1116160e11b82525afa90811561189a57600091611865575b50846117de87612e35565b1661183257600080808581945af16117f4612eda565b50156118205761179260008051602061394b833981519152936117606001985b98505091929350611711565b6040516312171d8360e31b8152600490fd5b60008051602061394b8339815191529361176060019861186086611792958a61185a8d612e35565b166133e3565b611814565b90508381813d8311611893575b61187c8183612db7565b810103126101b35761188d9061315f565b876117d3565b503d611872565b6040513d6000823e3d90fd5b90508181813d83116118cc575b6118bd8183612db7565b810103126101b35751876116ee565b503d6118b3565b346113a1576118f082846118e687612e35565b163090339061362e565b6116c4565b60405163f87d927160e01b8152600490fd5b604051633643e05760e21b8152600490fd5b346101b3576020806003193601126101b357600435906001600160401b038083116101b357366023840112156101b35782600401359081116101b3576024830192602436918360051b0101116101b35761197281612f2b565b926119806040519485612db7565b81845261198c82612f2b565b601f19018360005b828110611a675750505060005b8281106119ee57604080518581528651818701819052878701928201908760005b8281106119cf5784840385f35b85518051855282015184830152948101946040909301926001016119c2565b6001906001600160a01b0380611a0d611a0884888861314f565b612e35565b16600052600d865260406000205490611a2a611a0884888861314f565b16600052600e865260406000205460405191611a4583612d65565b825286820152611a558288612f86565b52611a608187612f86565b50016119a1565b604051611a7381612d65565b60008152600083820152828289010152018490611994565b346101b35760403660031901126101b357611aaa602435600435612fb0565b906040519060408201926040835281518094526060830160608560051b850101926020809101916000905b878210611ae9578680878760208301520390f35b909192948380611b05600193605f198b820301865289516129d2565b970192019201909291611ad5565b346101b35760003660031901126101b357611c33604051611b3381612d49565b60008360609283815283602082015282604082015282848201528260808201528360a08201528260c0820152015260018060a01b039283600354169160045491611c5960085494600a549360405190611b8b82612d49565b604051611b9b816110c581612aa4565b825260405196611bb588611bae81612b35565b0389612db7565b60208301978852604083019384528a828401818316815260ff608086019360a01c1615158352611be3612dd8565b9360a0860194855260c086019b8c52888601998a526040519d8e9d8e9760208952519c611c1e6101009e8f60208c01526101208b0190612935565b9051601f199960408b82850301910152612935565b975116908d0152511660808b015251151560a08a015251908883030160c0890152612975565b93519085015251908301520390f35b346101b3576003196040368201126101b3576004356001600160401b038082116101b35760a0826004019383360301126101b3576024359081116101b357611cb4903690600401612908565b91909360ff60045460a01c1661190757611ccc613249565b611cd584612e35565b6001600160a01b0391903390831603611efd576064830195611cfa6115ae8888612e49565b6084840135948542116118f55760448501359283156113a157611d1c88612e35565b906040519081611d2b81612aa4565b03611d369083612db7565b8151986020998a809401209860240198888d8d611d528d612e35565b91611d5c91612e49565b3690611d6792612e96565b8681519101209282604051978801987f817e76f3333a82f84312b4f85bcd6e12cc688fdb927f92902aa5cb7a9e0d24f08a5216604088015260608701521660808501528760a085015260c0840152818301528152611dc481612d49565b51902091611dd19261330a565b83611ddc8787612e49565b91908260405193849283378101601081520301902060ff19815416600117905581611e0684612e35565b16600052600e84528060406000205410611eeb5781611e2484612e35565b16600052600e84526040600020611e3c828254612ecd565b905581611e4884612e35565b16611ec057600080808084335af1611e5e612eda565b501561182057611792611e8b600297611e8560008051602061394b83398151915296612e35565b97612e49565b60409691965194859460808652611ea460808701612aa4565b9386015260006040860152848303606086015233981696612f0a565b611792611e8b600297611e8560008051602061394b83398151915296611a0886338961185a85612e35565b604051631e9acf1760e31b8152600490fd5b60405163e6c4247b60e01b8152600490fd5b346101b35760003660031901126101b357611f28612dd8565b6040518091602080830160208452825180915260206040850193019160005b828110611f5657505050500390f35b83516001600160a01b031685528695509381019392810192600101611f47565b346101b35760203660031901126101b3576001600160a01b03611f976128e9565b166000526006602052602060ff604060002054166040519015158152f35b346101b3576020806003193601126101b35760043590336000526006815260ff60406000205416156102fc576000828152600b82526040902060038101546001600160a01b0316156102ea57600681015460ff81166102d85760081c60ff166102c65782600052600c8252604060002033600052825260ff60406000205416156120925760059183600052600c81526040600020903360005252604060002060ff198154169055016120678154612a5d565b905533907f6a3eb8ca820be079fbd3fa6f657d5eb9882f642d01bf0ff5589af458d3331af7600080a3005b604051637238834d60e11b8152600490fd5b346101b3576020806003193601126101b3576004353360005260069182815260ff8060406000205416156102fc576120da613249565b6000838152600b83526040902060038101546001600160a01b0392908316156102ea578582019586548281166102d8576008918382841c166102c657600485015442116102b457600592838601548154116128835760029560019a8b60ff1980961617905561214a600a54612a5d565b600a5561216e868c8301541691612167604051809a819301612cd3565b0388612db7565b612177816129b2565b8061221b5750505050505082818051810103126101b35761219a8383920161315f565b16918215611efd57600480546001600160a01b0319811685179091556040518581529216917f1f7ac96092589d57f3849da3b217f6fba468ca69d0b18739550af34511973cbc9190a35b7f712ae1383f79ac853f8d882153778e0260ef8f03b504e2866e0593e04d2b291f600080a26000805160206139cb83398151915255005b61222d819998949699979395976129b2565b808b036122fb57505085818051810103126101b3578561224d910161315f565b16948515611efd5785600052818552604060002054166122e9576014835410156122d75761227a85613217565b8460005283528560406000209182541617905554906000198201918211610748577f723c2b747529ca7f5eb53a74808f4a8b9bf264f0fc450fd904900151da74548a918360005260078252604060002055604051848152a26121e4565b60405163f1eb89af60e01b8152600490fd5b6040516308a07bb960e41b8152600490fd5b6123098198979392986129b2565b6002810361246a575085818051810103126101b35761232a8684920161315f565b16968760005283865260406000205416156124585780549554861115612446578660005260078552604060002054600019968781019081116107485780849183036123f5575b50505080549586156123df577fa0726c73cf6ad18ddb855ba65d1ddd4d7fd37d320f4e52f6b154c13d386f5fd99601916123a9836131fc565b909182549160031b1b191690555584600052825260406000209081541690556007815260006040812055604051848152a26121e4565b634e487b7160e01b600052603160045260246000fd5b6123fe906131fc565b90549060031b1c1661243181612413846131fc565b90919060018060a01b038084549260031b9316831b921b1916179055565b60005260078652604060002055898281612370565b60405163e56d58cf60e01b8152600490fd5b604051630f43215f60e11b8152600490fd5b9197509495949350909161247d826129b2565b600382036125035750505082818051810103126101b3578201519283159081156124f8575b506124e657826060927fd0a3d921fa28d156ed1da58efea7728c1a86fff4982a2449847654867d7583bb9483549355604051928352820152836040820152a16121e4565b60405163aabd5a0960e01b8152600490fd5b9050548311866124a2565b909193929495612512836129b2565b600483036125ec575050505061253182848084955183010191016136c6565b929092169216908215611efd5780156113a15781600052600d84528060406000205410611eeb5781600052600d84526040600020612570828254612ecd565b905584826125cb5750600080808084875af161258a612eda565b501561182057849360008051602061392b833981519152915b604051918291606083526125b960608401612aa4565b918301528860408301520390a46121e4565b93816125e760008051602061392b8339815191529386866133e3565b6125a3565b6125f5836129b2565b82036126cd5750505061261182848084955183010191016136c6565b929092169216908215611efd5780156113a15781600052600e84528060406000205410611eeb5781600052600e84526040600020612650828254612ecd565b905584826126ac5750600080808084875af161266a612eda565b501561182057849360008051602061392b833981519152915b6040519182916060835261269960608401612aa4565b91830152600360408301520390a46121e4565b93816126c860008051602061392b8339815191529386866133e3565b612683565b6126d6826129b2565b81036127225750506004805460ff60a01b1916600160a01b17905550506040518281527f9f505f325627bdd7f5a6dd8bcceecdc48a989f647561427d61d35b7a50703f799190a16121e4565b61272b816129b2565b600781036127735750506004805460ff60a01b1916905550506040518281527ff87e623aca5b8bef3f4a5f8a900ecd4c0367b153c2d476a78b65a68661ba7a259190a16121e4565b61277c816129b2565b03612871576040828051810103126101b357806127a6604061279f86860161315f565b940161315f565b92169116908115611efd5780600052600d83526127d2604060002054600e85526040600020549061317c565b8015611eeb5781600052600d845260006040812055600e8452600060408120558482156000146128505750600080808084875af161280e612eda565b501561182057849360008051602061392b833981519152915b6040519182916060835261283d60608401612aa4565b91830152600460408301520390a46121e4565b938161286c60008051602061392b8339815191529386866133e3565b612827565b604051630ead561960e11b8152600490fd5b604051631b7c609b60e11b8152600490fd5b346101b35760403660031901126101b357602435906001600160a81b03821682036101b357602091600435600052600c835260406000209060018060a01b0316600052825260ff6040600020541615158152f35b6004356001600160a81b03811681036101b3576001600160a01b031690565b9181601f840112156101b3578235916001600160401b0383116101b357602083818601950101116101b357565b919082519283825260005b848110612961575050826000602080949584010152601f8019910116010190565b602081830181015184830182015201612940565b90815180825260208080930193019160005b828110612995575050505090565b83516001600160a01b031685529381019392810192600101612987565b600911156129bc57565b634e487b7160e01b600052602160045260246000fd5b90612a5a91612a086101208251845260208301516129ef816129b2565b6020850152604083015190806040860152840190612935565b9160018060a01b0360608301511660608201526080820151608082015260a082015160a082015260c0820151151560c082015260e0820151151560e08201526101008092015191818403910152612975565b90565b8015610748576000190190565b90600182811c92168015612a9a575b6020831014612a8457565b634e487b7160e01b600052602260045260246000fd5b91607f1691612a79565b906000916001805491612ab683612a6a565b91828252602093600181169081600014612b185750600114612ad9575b50505050565b929394509060016000528360002092846000945b838610612b04575050505001019038808080612ad3565b805485870183015294019385908201612aed565b60ff191685840152505090151560051b0101915038808080612ad3565b60025460009291612b4582612a6a565b90818152602092600190600181169081600014612b185750600114612b6a5750505050565b929394509060026000528360002092846000945b838610612b95575050505001019038808080612ad3565b805485870183015294019385908201612b7e565b60008051602061396b833981519152805460009392612bc782612a6a565b91828252602093600191600181169081600014612c2f5750600114612bee575b5050505050565b90939495506000929192528360002092846000945b838610612c1b57505050500101903880808080612be7565b805485870183015294019385908201612c03565b60ff19168685015250505090151560051b010191503880808080612be7565b60008051602061398b833981519152805460009392612c6c82612a6a565b91828252602093600191600181169081600014612c2f5750600114612c92575050505050565b90939495506000929192528360002092846000945b838610612cbf57505050500101903880808080612be7565b805485870183015294019385908201612ca7565b805460009392612ce282612a6a565b91828252602093600191600181169081600014612c2f5750600114612d08575050505050565b90939495506000929192528360002092846000945b838610612d3557505050500101903880808080612be7565b805485870183015294019385908201612d1d565b61010081019081106001600160401b0382111761072057604052565b604081019081106001600160401b0382111761072057604052565b61012081019081106001600160401b0382111761072057604052565b602081019081106001600160401b0382111761072057604052565b90601f801991011681019081106001600160401b0382111761072057604052565b6040519060055480835282602091602082019060056000526020600020936000905b828210612e1257505050612e1092500383612db7565b565b85546001600160a01b031684526001958601958895509381019390910190612dfa565b356001600160a81b03811681036101b35790565b903590601e19813603018212156101b357018035906001600160401b0382116101b3576020019181360383136101b357565b6001600160401b03811161072057601f01601f191660200190565b929192612ea282612e7b565b91612eb06040519384612db7565b8294818452818301116101b3578281602093846000960137010152565b9190820391821161074857565b3d15612f05573d90612eeb82612e7b565b91612ef96040519384612db7565b82523d6000602084013e565b606090565b908060209392818452848401376000828201840152601f01601f1916010190565b6001600160401b0381116107205760051b60200190565b60405190612f4f82612d80565b606061010083600080825280602083015283604083015280848301528060808301528060a08301528060c083015260e08201520152565b8051821015612f9a5760209160051b010190565b634e487b7160e01b600052603260045260246000fd5b9160095491828410801590613147575b61312f57612fce8484612ecd565b908082101561312857505b612fe281612f2b565b906040612ff26040519384612db7565b818352601f1961300183612f2b565b0160005b818110613111575050829560005b838110613021575050505050565b6130348161302f848a612ecd565b612ecd565b60001981019190821161074857816001926000526020600b81528560002080549260ff918883888301541691613069836129b2565b613072836129b2565b60026130c78a8060a01b03600384015416926110c56004820154956005830154976130a160068501549a613549565b9b82519d8e6130af81612d80565b526130b9826129b2565b8d0152518094819301612cd3565b8b8801526060870152608086015260a0850152818116151560c085015260081c16151560e08301526101008201526130ff8288612f86565b5261310a8187612f86565b5001613013565b60209061311c612f42565b82828801015201613005565b9050612fd9565b5090915060405161313f81612d9c565b600081529190565b508015612fc0565b9190811015612f9a5760051b0190565b516001600160a81b03811681036101b3576001600160a01b031690565b9190820180921161074857565b6040600291939293606081526131a160608201612aa4565b9460208201520152565b8181106131b6575050565b600081556001016131ab565b90601f82116131cf575050565b612e109160026000526020600020906020601f840160051c8301931061071657601f0160051c01906131ab565b600554811015612f9a57600560005260206000200190600090565b60055490600160401b82101561072057612413826001612e1094016005556131fc565b60001981146107485760010190565b6000805160206139cb83398151915260028154146132675760029055565b604051633ee5aeb560e01b8152600490fd5b9080156132f857608081116132e65760ff60405182848237602081848101600f81520301902054169182156132c3575b50506132b157565b60405163774ba26d60e11b8152600490fd5b60ff925060209082604051938492833781016010815203019020541638806132a9565b6040516338b4be8b60e21b8152600490fd5b604051637001042760e01b8152600490fd5b909161331461388f565b61331c6138ef565b936040519460208601927f8b73c3c69bb8fe3d512ecc4cf759cc79239f7b179b0ffacaa9a75d522b39400f8452604087015260608601524660808601523060a086015260a0855260c08501948086106001600160401b0387111761072057856133b19560e26042936133ab966133ba9a6040528151902061190160f01b855260c2820152015220923691612e96565b9061375e565b9092919261379a565b6004546001600160a01b039081169116036133d157565b604051638baa579f60e01b8152600490fd5b82156135445760409182519060209063a9059cbb60e01b8284015260018060a01b0380911695866024850152604484015260448352608083018381106001600160401b03821117610720578552308614613536578316948451926370a0823160e01b9485855282600486015283856024818b5afa94851561352b576000956134f8575b5090613471916136ec565b845193845260048401528083602481885afa9081156134ed576000916134bd575b5061349d9250612ecd565b156134a6575050565b602492505190631321be3f60e21b82526004820152fd5b905082813d83116134e6575b6134d38183612db7565b810103126101b35761349d915138613492565b503d6134c9565b84513d6000823e3d90fd5b919094508382813d8311613524575b6135118183612db7565b810103126101b357905193613471613466565b503d613507565b87513d6000823e3d90fd5b50509150612e1092506136ec565b505050565b600090808252602091600b60205260409360056040832001549361356c85612f2b565b9361357a6040519586612db7565b858552601f1961358987612f2b565b0136602087013783928496600554975b88811080613625575b15613618576135e990848852600c86528a88206135be826131fc565b9054600391821b1c6001600160a01b039081168b529188528c8a205460ff166135ee575b505061323a565b613599565b6135f7836131fc565b9054911b1c166136106136098961323a565b988b612f86565b5238806135e2565b5050965050505050905090565b508186106135a2565b908315612ad3576040928351916020916323b872dd60e01b8385015260018060a01b038080931691826024870152169687604486015260648501526064845260a08401908482106001600160401b03831117610720578791875214613536578316948451926370a0823160e01b9485855282600486015283856024818b5afa94851561352b576000956134f8575090613471916136ec565b908160609103126101b3576136da8161315f565b91612a5a60406020840151930161315f565b81516001600160a01b0390911691600091829160200182855af161370e612eda565b50156137175750565b60249060405190631321be3f60e21b82526004820152fd5b60ff6000805160206139eb8339815191525460401c161561374c57565b604051631afcd79f60e31b8152600490fd5b815191906041830361378f5761378892506020820151906060604084015193015160001a90613809565b9192909190565b505060009160029190565b60048110156129bc57806137ac575050565b600181036137c65760405163f645eedf60e01b8152600490fd5b600281036137e75760405163fce698f760e01b815260048101839052602490fd5b6003146137f15750565b602490604051906335e2f38360e21b82526004820152fd5b91906fa2a8918ca85bafe22016d0b997e4df60600160ff1b03841161388357926020929160ff608095604051948552168484015260408301526060820152600092839182805260015afa156138775780516001600160a01b0381161561386e57918190565b50809160019190565b604051903d90823e3d90fd5b50505060009160039190565b60405161389f816110c581612ba9565b80519081156138af576020012090565b50506000805160206139ab8339815191525480156138ca5790565b507fc5d2460186f7233c927e7db2dcc703c0e500b653ca82273b7bfad8045d85a47090565b6040516138ff816110c581612c4e565b805190811561390f576020012090565b5050600080516020613a0b8339815191525480156138ca579056fed32434b3eb37b33ad7c3c3ea37ea1726e991e936234300d0447428bcdcab98cf95fb9a9bf887aa4ac067e0aafe5285c97d2e0212855aac95cf4612fb1ad9bb26a16a46d94261c7517cc8ff89f61c0ce93598e3c849801011dee649a6a557d102a16a46d94261c7517cc8ff89f61c0ce93598e3c849801011dee649a6a557d103a16a46d94261c7517cc8ff89f61c0ce93598e3c849801011dee649a6a557d1009b779b17422d0df92223018b32b4d1fa46e071723d6817e2486d003becc55f00f0c57e16840df040f15088dc2f81fe391c3923bec73e23a9662efc9c229c6a00a16a46d94261c7517cc8ff89f61c0ce93598e3c849801011dee649a6a557d101a26474726f6e58221220a527012e2dec256a46bdeb201714a9a90fe661eb95902b43cbec22f45b8f5bf064736f6c63430008180033",
  "linkReferences": {},
  "deployedLinkReferences": {}
}