{
  "_format": "hh-sol-artifact-1",
  "contractName": "MockFeeOnTransferToken",
  "sourceName": "contracts/mock/MockFeeOnTransferToken.sol",
  "abi": [
    {
      "inputs": [
        {
          "internalType": "string",
          "name": "name_",
          "type": "string"
        },
        {
          "internalType": "string",
          "name": "symbol_",
          "type": "string"
        },
        {
          "internalType": "uint8",
          "name": "decimals_",
          "type": "uint8"
        }
      ],
      "stateMutability": "nonpayable",
      "type": "constructor"
    },
    {
      "anonymous": false,
      "inputs": [
        {
          "indexed": true,
          "internalType": "address",
          "name": "owner",
          "type": "address"
        },
        {
          "indexed": true,
          "internalType": "address",
          "name": "spender",
          "type": "address"
        },
        {
          "indexed": false,
          "internalType": "uint256",
          "name": "value",
          "type": "uint256"
        }
      ],
      "name": "Approval",
      "type": "event"
    },
    {
      "anonymous": false,
      "inputs": [
        {
          "indexed": true,
          "internalType": "address",
          "name": "from",
          "type": "address"
        },
        {
          "indexed": true,
          "internalType": "address",
          "name": "to",
          "type": "address"
        },
        {
          "indexed": false,
          "internalType": "uint256",
          "name": "value",
          "type": "uint256"
        }
      ],
      "name": "Transfer",
      "type": "event"
    },
    {
      "inputs": [
        {
          "internalType": "address",
          "name": "",
          "type": "address"
        },
        {
          "internalType": "address",
          "name": "",
          "type": "address"
        }
      ],
      "name": "allowance",
      "outputs": [
        {
          "internalType": "uint256",
          "name": "",
          "type": "uint256"
        }
      ],
      "stateMutability": "view",
      "type": "function"
    },
    {
      "inputs": [
        {
          "internalType": "address",
          "name": "spender",
          "type": "address"
        },
        {
          "internalType": "uint256",
          "name": "amount",
          "type": "uint256"
        }
      ],
      "name": "approve",
      "outputs": [
        {
          "internalType": "bool",
          "name": "",
          "type": "bool"
        }
      ],
      "stateMutability": "nonpayable",
      "type": "function"
    },
    {
      "inputs": [
        {
          "internalType": "address",
          "name": "",
          "type": "address"
        }
      ],
      "name": "balanceOf",
      "outputs": [
        {
          "internalType": "uint256",
          "name": "",
          "type": "uint256"
        }
      ],
      "stateMutability": "view",
      "type": "function"
    },
    {
      "inputs": [],
      "name": "decimals",
      "outputs": [
        {
          "internalType": "uint8",
          "name": "",
          "type": "uint8"
        }
      ],
      "stateMutability": "view",
      "type": "function"
    },
    {
      "inputs": [],
      "name": "feePercent",
      "outputs": [
        {
          "internalType": "uint256",
          "name": "",
          "type": "uint256"
        }
      ],
      "stateMutability": "view",
      "type": "function"
    },
    {
      "inputs": [
        {
          "internalType": "address",
          "name": "to",
          "type": "address"
        },
        {
          "internalType": "uint256",
          "name": "amount",
          "type": "uint256"
        }
      ],
      "name": "mint",
      "outputs": [],
      "stateMutability": "nonpayable",
      "type": "function"
    },
    {
      "inputs": [],
      "name": "name",
      "outputs": [
        {
          "internalType": "string",
          "name": "",
          "type": "string"
        }
      ],
      "stateMutability": "view",
      "type": "function"
    },
    {
      "inputs": [
        {
          "internalType": "uint256",
          "name": "fee",
          "type": "uint256"
        }
      ],
      "name": "setFeePercent",
      "outputs": [],
      "stateMutability": "nonpayable",
      "type": "function"
    },
    {
      "inputs": [],
      "name": "symbol",
      "outputs": [
        {
          "internalType": "string",
          "name": "",
          "type": "string"
        }
      ],
      "stateMutability": "view",
      "type": "function"
    },
    {
      "inputs": [],
      "name": "totalSupply",
      "outputs": [
        {
          "internalType": "uint256",
          "name": "",
          "type": "uint256"
        }
      ],
      "stateMutability": "view",
      "type": "function"
    },
    {
      "inputs": [
        {
          "internalType": "address",
          "name": "to",
          "type": "address"
        },
        {
          "internalType": "uint256",
          "name": "amount",
          "type": "uint256"
        }
      ],
      "name": "transfer",
      "outputs": [
        {
          "internalType": "bool",
          "name": "",
          "type": "bool"
        }
      ],
      "stateMutability": "nonpayable",
      "type": "function"
    },
    {
      "inputs": [
        {
          "internalType": "address",
          "name": "from",
          "type": "address"
        },
        {
          "internalType": "address",
          "name": "to",
          "type": "address"
        },
        {
          "internalType": "uint256",
          "name": "amount",
          "type": "uint256"
        }
      ],
      "name": "transferFrom",
      "outputs": [
        {
          "internalType": "bool",
          "name": "",
          "type": "bool"
        }
      ],
      "stateMutability": "nonpayable",
      "type": "function"
    }
  ],
  "bytecode": "0x6080604052346200033f5762000c00803803806200001d8162000344565b9283398101906060818303126200033f5780516001600160401b0391908281116200033f5783620000509183016200036a565b91602093848301518281116200033f57604091620000709185016200036a565b9201519260ff84168094036200033f5760019283600455815183811162000329576000908154938685811c951680156200031e575b898610146200030a578190601f95868111620002b7575b5089908683116001146200025357849262000247575b5050600019600383901b1c191690861b1781555b8151938411620002335784548581811c9116801562000228575b888210146200021457838111620001cc575b508692841160011462000166578394959650926200015a575b5050600019600383901b1c191690821b1790555b60ff1960025416176002556040516108239081620003dd8239f35b0151905038806200012b565b9190601f1984169685845280842093905b888210620001b457505083859697106200019a575b505050811b0190556200013f565b015160001960f88460031b161c191690553880806200018c565b80878596829496860151815501950193019062000177565b8582528782208480870160051c8201928a88106200020a575b0160051c019086905b828110620001fe57505062000112565b838155018690620001ee565b92508192620001e5565b634e487b7160e01b82526022600452602482fd5b90607f169062000100565b634e487b7160e01b81526041600452602490fd5b015190503880620000d2565b8480528a85208994509190601f198416865b8d828210620002a0575050841162000286575b505050811b018155620000e6565b015160001960f88460031b161c1916905538808062000278565b8385015186558c9790950194938401930162000265565b9091508380528984208680850160051c8201928c861062000300575b918a91869594930160051c01915b828110620002f1575050620000bc565b8681558594508a9101620002e1565b92508192620002d3565b634e487b7160e01b83526022600452602483fd5b94607f1694620000a5565b634e487b7160e01b600052604160045260246000fd5b600080fd5b6040519190601f01601f191682016001600160401b038111838210176200032957604052565b919080601f840112156200033f5782516001600160401b0381116200032957602090620003a0601f8201601f1916830162000344565b928184528282870101116200033f5760005b818110620003c857508260009394955001015290565b8581018301518482018401528201620003b256fe608060408181526004918236101561001657600080fd5b600092833560e01c91826306fdde03146105b957508163095ea7b31461054857816318160ddd1461052957816323b872dd146103f2578163313ce567146103d057816340c10f191461036957816370a08231146103315781637ce3489b146102dc5781637fd6f15c146102be57816395d89b41146101b8578163a9059cbb146100f4575063dd62ed3e146100a957600080fd5b346100f057806003193601126100f057806020926100c56106bd565b6100cd6106e1565b6001600160a01b0391821683526006865283832091168252845220549051908152f35b5080fd5b9050346101b457816003193601126101b4576020926101926101146106bd565b918460646101516024359533855260058a5261013587858720541015610700565b6001600160a01b03169661014a881515610743565b548661078a565b049161015d83866107b3565b94338252600589526101738383209182546107b3565b905585815260058852206101888482546107c0565b90556003546107b3565b60035582519081526000805160206107ce833981519152843392a35160018152f35b8280fd5b8383346100f057816003193601126100f0578051908260018054908160011c90600183169283156102b4575b60209384841081146102a157838852908115610285575060011461024c575b505050829003601f01601f191682019267ffffffffffffffff8411838510176102395750829182610235925282610674565b0390f35b634e487b7160e01b815260418552602490fd5b91925060018652828620918387935b8385106102715750505050830101858080610203565b80548886018301529301928490820161025b565b60ff1916878501525050151560051b8401019050858080610203565b634e487b7160e01b895260228a52602489fd5b91607f16916101e4565b9050346101b457826003193601126101b45760209250549051908152f35b9050346101b45760203660031901126101b457803591603283116102ff57505580f35b906020606492519162461bcd60e51b8352820152600c60248201526b08ccaca40e8dede40d0d2ced60a31b6044820152fd5b5050346100f05760203660031901126100f05760209181906001600160a01b036103596106bd565b1681526005845220549051908152f35b5050346100f057806003193601126100f057816000805160206107ce83398151915260206103956106bd565b6024359060018060a01b031694858552600583528085206103b78382546107c0565b90556103c5826003546107c0565b60035551908152a380f35b5050346100f057816003193601126100f05760209060ff600254169051908152f35b9050346101b45760603660031901126101b45761040d6106bd565b6104156106e1565b9360443560018060a01b03809316928383526020966005885261043d83888620541015610700565b8484526006885286842033855288528287852054106104ed57879260646104866000805160206107ce83398151915296946104dd94169861047f8a1515610743565b548361078a565b04906101888961049684846107b3565b95898152600588528181206104ac8582546107b3565b90558a8152600588528181206104c38882546107c0565b9055898152600688528181203382528852209182546107b3565b6003558551908152a35160018152f35b865162461bcd60e51b81528087018990526016602482015275496e73756666696369656e7420616c6c6f77616e636560501b6044820152606490fd5b5050346100f057816003193601126100f0576020906003549051908152f35b5050346100f057806003193601126100f057602091816105666106bd565b91602435918291338152600687528181209460018060a01b0316948582528752205582519081527f8c5be1e5ebec7d5bd14f71427d1e84f3dd0314c0f7b2291e5b200ac8c7c3b925843392a35160018152f35b849084346101b457826003193601126101b45782835460018160011c906001831692831561066a575b60209384841081146102a157838852908115610285575060011461063257505050829003601f01601f191682019267ffffffffffffffff8411838510176102395750829182610235925282610674565b919250858052828620918387935b8385106106565750505050830101858080610203565b805488860183015293019284908201610640565b91607f16916105e2565b6020808252825181830181905290939260005b8281106106a957505060409293506000838284010152601f8019910116010190565b818101860151848201604001528501610687565b6004356001600160a81b03811681036106dc576001600160a01b031690565b600080fd5b6024356001600160a81b03811681036106dc576001600160a01b031690565b1561070757565b60405162461bcd60e51b8152602060048201526014602482015273496e73756666696369656e742062616c616e636560601b6044820152606490fd5b1561074a57565b60405162461bcd60e51b81526020600482015260186024820152775472616e7366657220746f207a65726f206164647265737360401b6044820152606490fd5b8181029291811591840414171561079d57565b634e487b7160e01b600052601160045260246000fd5b9190820391821161079d57565b9190820180921161079d5756feddf252ad1be2c89b69c2b068fc378daa952ba7f163c4a11628f55a4df523b3efa26474726f6e58221220a289d655f6bb285112e206185dc75def78405329c10005b85b3f4a87e2343fc364736f6c63430008180033",
  "linkReferences": {},
  "deployedLinkReferences": {}
}