{
  "_format": "hh-sol-artifact-1",
  "contractName": "SimpleTransparentProxy",
  "sourceName": "contracts/test/SimpleProxy.sol",
  "abi": [
    {
      "inputs": [
        {
          "internalType": "address",
          "name": "implementation_",
          "type": "address"
        },
        {
          "internalType": "address",
          "name": "admin_",
          "type": "address"
        },
        {
          "internalType": "bytes",
          "name": "data_",
          "type": "bytes"
        }
      ],
      "stateMutability": "nonpayable",
      "type": "constructor"
    },
    {
      "stateMutability": "payable",
      "type": "fallback"
    },
    {
      "inputs": [],
      "name": "admin",
      "outputs": [
        {
          "internalType": "address",
          "name": "",
          "type": "address"
        }
      ],
      "stateMutability": "view",
      "type": "function"
    },
    {
      "inputs": [],
      "name": "implementation",
      "outputs": [
        {
          "internalType": "address",
          "name": "",
          "type": "address"
        }
      ],
      "stateMutability": "view",
      "type": "function"
    },
    {
      "inputs": [
        {
          "internalType": "address",
          "name": "newImplementation",
          "type": "address"
        }
      ],
      "name": "upgradeTo",
      "outputs": [],
      "stateMutability": "nonpayable",
      "type": "function"
    },
    {
      "inputs": [
        {
          "internalType": "address",
          "name": "newImplementation",
          "type": "address"
        },
        {
          "internalType": "bytes",
          "name": "data",
          "type": "bytes"
        }
      ],
      "name": "upgradeToAndCall",
      "outputs": [],
      "stateMutability": "nonpayable",
      "type": "function"
    },
    {
      "stateMutability": "payable",
      "type": "receive"
    }
  ],
  "bytecode": "0x608060405234610173576105ad8038038061001981610178565b928339810160608282031261017357610031826101b3565b906020926100408482016101b3565b604082015190916001600160401b038211610173570182601f8201121561017357805161007461006f826101d0565b610178565b9381855286828401011161017357859160005b82811061016057505090600091840101527fb53127684a568b3173ae13b9f8a6016e243e63b6e8ee1178d6a717850b5d610355817f360894a13ba1a3210667c828492db98dca3e2076cc3735a920a3ca505d382bbc558051806100f4575b6040516103c190816101ec8239f35b60009284849301905af43d1561015b573d61011161006f826101d0565b9081526000833d92013e5b15610129578080806100e5565b6064906040519062461bcd60e51b82526004820152600b60248201526a125b9a5d0819985a5b195960aa1b6044820152fd5b61011c565b8181018401518682018501528301610087565b600080fd5b6040519190601f01601f191682016001600160401b0381118382101761019d57604052565b634e487b7160e01b600052604160045260246000fd5b516001600160a81b0381168103610173576001600160a01b031690565b6001600160401b03811161019d57601f01601f19166020019056fe60806040526004361015610015575b3661031c57005b6000803560e01c9081633659cfe614610058575080634f1ef286146100535780635c60da1b1461004e5763f851a4400361000e576101f3565b6101a4565b61012a565b346100a65760203660031901126100a6576100716100a9565b61009360018060a01b0360008051602061034c83398151915254163314610233565b60008051602061036c8339815191525580f35b80fd5b6004356001600160a81b03811681036100c8576001600160a01b031690565b600080fd5b634e487b7160e01b600052604160045260246000fd5b6040519190601f01601f1916820167ffffffffffffffff81118382101761010957604052565b6100cd565b67ffffffffffffffff811161010957601f01601f191660200190565b346100c85760403660031901126100c8576101436100a9565b6024359067ffffffffffffffff82116100c857366023830112156100c8578160040135906101786101738361010e565b6100e3565b9180835236602482860101116100c85760208160009260246101a29701838701378401015261026b565b005b346100c85760003660031901126100c857602060018060a01b036101da8160008051602061034c83398151915254163314610233565b60008051602061036c8339815191525460405191168152f35b346100c85760003660031901126100c85760008051602061034c833981519152546020906001600160a01b031661022b338214610233565b604051908152f35b1561023a57565b60405162461bcd60e51b81526020600482015260096024820152682737ba1030b236b4b760b91b6044820152606490fd5b9061028e60018060a01b0360008051602061034c83398151915254163314610233565b8160008051602061036c833981519152558051806102ab57505050565b6000926020849301905af43d15610317573d6102c96101738261010e565b908152600060203d92013e5b156102dc57565b60405162461bcd60e51b8152602060048201526013602482015272155c19dc9859194818d85b1b0819985a5b1959606a1b6044820152606490fd5b6102d5565b60008051602061036c833981519152546000808092368280378136915af43d82803e15610347573d90f35b3d90fdfeb53127684a568b3173ae13b9f8a6016e243e63b6e8ee1178d6a717850b5d6103360894a13ba1a3210667c828492db98dca3e2076cc3735a920a3ca505d382bbca26474726f6e5822122003a6dec5079937ba0ff9595f5cd2b435f703c4ae856fefb1f31b642de7bbfb6064736f6c63430008180033",
  "linkReferences": {},
  "deployedLinkReferences": {}
}