{
  "_format": "hh-sol-artifact-1",
  "contractName": "SimpleBeacon",
  "sourceName": "contracts/test/SimpleProxy.sol",
  "abi": [
    {
      "inputs": [
        {
          "internalType": "address",
          "name": "implementation_",
          "type": "address"
        },
        {
          "internalType": "address",
          "name": "owner_",
          "type": "address"
        }
      ],
      "stateMutability": "nonpayable",
      "type": "constructor"
    },
    {
      "anonymous": false,
      "inputs": [
        {
          "indexed": true,
          "internalType": "address",
          "name": "implementation",
          "type": "address"
        }
      ],
      "name": "Upgraded",
      "type": "event"
    },
    {
      "inputs": [],
      "name": "implementation",
      "outputs": [
        {
          "internalType": "address",
          "name": "",
          "type": "address"
        }
      ],
      "stateMutability": "view",
      "type": "function"
    },
    {
      "inputs": [
        {
          "internalType": "address",
          "name": "newImplementation",
          "type": "address"
        }
      ],
      "name": "upgradeTo",
      "outputs": [],
      "stateMutability": "nonpayable",
      "type": "function"
    }
  ],
  "bytecode": "0x60803461008d57601f61020738819003918201601f19168301916001600160401b0383118484101761009257808492604094855283398101031261008d57610052602061004b836100a8565b92016100a8565b600080546001600160a01b039384166001600160a01b0319918216179091556001805492909316911617905560405161014190816100c68239f35b600080fd5b634e487b7160e01b600052604160045260246000fd5b516001600160a81b038116810361008d576001600160a01b03169056fe608080604052600436101561001357600080fd5b600090813560e01c9081633659cfe6146100605750635c60da1b1461003757600080fd5b3461005d578060031936011261005d57546040516001600160a01b039091168152602090f35b80fd5b90503461010757602036600319011261010757600435906001600160a81b0382168203610103576001546001600160a01b03928316921633036100d5575081546001600160a01b031916811782557fbc7cd75a20ee27fd9adebab32041f755214dbc6bffa90cc0225b39da2e5c2d3b8280a280f35b62461bcd60e51b81526020600482015260096024820152682737ba1037bbb732b960b91b6044820152606490fd5b8280fd5b5080fdfea26474726f6e58221220a7bb9f15a4820f1d9412ded81a872090bd3c665b527eda295e64a3ec550da6c664736f6c63430008180033",
  "linkReferences": {},
  "deployedLinkReferences": {}
}