{
  "_format": "hh-sol-artifact-1",
  "contractName": "BoxV1",
  "sourceName": "contracts/test/BoxV1.sol",
  "abi": [
    {
      "inputs": [],
      "stateMutability": "nonpayable",
      "type": "constructor"
    },
    {
      "inputs": [],
      "name": "InvalidInitialization",
      "type": "error"
    },
    {
      "inputs": [],
      "name": "NotInitializing",
      "type": "error"
    },
    {
      "inputs": [
        {
          "internalType": "address",
          "name": "owner",
          "type": "address"
        }
      ],
      "name": "OwnableInvalidOwner",
      "type": "error"
    },
    {
      "inputs": [
        {
          "internalType": "address",
          "name": "account",
          "type": "address"
        }
      ],
      "name": "OwnableUnauthorizedAccount",
      "type": "error"
    },
    {
      "anonymous": false,
      "inputs": [
        {
          "indexed": false,
          "internalType": "uint64",
          "name": "version",
          "type": "uint64"
        }
      ],
      "name": "Initialized",
      "type": "event"
    },
    {
      "anonymous": false,
      "inputs": [
        {
          "indexed": true,
          "internalType": "address",
          "name": "previousOwner",
          "type": "address"
        },
        {
          "indexed": true,
          "internalType": "address",
          "name": "newOwner",
          "type": "address"
        }
      ],
      "name": "OwnershipTransferred",
      "type": "event"
    },
    {
      "inputs": [
        {
          "internalType": "address",
          "name": "initialOwner",
          "type": "address"
        }
      ],
      "name": "initialize",
      "outputs": [],
      "stateMutability": "nonpayable",
      "type": "function"
    },
    {
      "inputs": [],
      "name": "owner",
      "outputs": [
        {
          "internalType": "address",
          "name": "",
          "type": "address"
        }
      ],
      "stateMutability": "view",
      "type": "function"
    },
    {
      "inputs": [],
      "name": "renounceOwnership",
      "outputs": [],
      "stateMutability": "nonpayable",
      "type": "function"
    },
    {
      "inputs": [],
      "name": "retrieve",
      "outputs": [
        {
          "internalType": "uint256",
          "name": "",
          "type": "uint256"
        }
      ],
      "stateMutability": "view",
      "type": "function"
    },
    {
      "inputs": [
        {
          "internalType": "uint256",
          "name": "value",
          "type": "uint256"
        }
      ],
      "name": "store",
      "outputs": [],
      "stateMutability": "nonpayable",
      "type": "function"
    },
    {
      "inputs": [
        {
          "internalType": "address",
          "name": "newOwner",
          "type": "address"
        }
      ],
      "name": "transferOwnership",
      "outputs": [],
      "stateMutability": "nonpayable",
      "type": "function"
    },
    {
      "inputs": [],
      "name": "version",
      "outputs": [
        {
          "internalType": "string",
          "name": "",
          "type": "string"
        }
      ],
      "stateMutability": "pure",
      "type": "function"
    }
  ],
  "bytecode": "0x608080604052346100b8577ff0c57e16840df040f15088dc2f81fe391c3923bec73e23a9662efc9c229c6a009081549060ff8260401c166100a957506001600160401b036002600160401b031982821601610064575b6040516104a290816100be8239f35b6001600160401b031990911681179091556040519081527fc7f505b2f371ae2175ee4913f4499e1f2633a7b5936321eed1cdaeb6115181d290602090a1388080610055565b63f92ee8a960e01b8152600490fd5b600080fdfe6080604090808252600436101561001557600080fd5b600091823560e01c9182632e64cec1146103145750816354fd4d501461027a5781636057361d14610260578163715018a6146101f65781638da5cb5b146101c0578163c4d66de814610095575063f2fde38b1461007157600080fd5b346100925761008f6100823661032e565b61008a6103d2565b61035e565b80f35b80fd5b9050346101bc576100a53661032e565b7ff0c57e16840df040f15088dc2f81fe391c3923bec73e23a9662efc9c229c6a009081549060ff82851c16159167ffffffffffffffff8116801590816101b4575b60011490816101aa575b1590816101a1575b506101905767ffffffffffffffff198116600117845561012a919083610171575b5061012261040b565b61008a61040b565b838055610135578280f35b805460ff60401b1916905551600181527fc7f505b2f371ae2175ee4913f4499e1f2633a7b5936321eed1cdaeb6115181d290602090a138808280f35b68ffffffffffffffffff19166801000000000000000117845538610119565b845163f92ee8a960e01b8152600490fd5b905015386100f8565b303b1591506100f0565b8491506100e6565b5080fd5b9050346101bc57816003193601126101bc5760008051602061044d8339815191525490516001600160a01b039091168152602090f35b823461009257806003193601126100925761020f6103d2565b60008051602061044d83398151915280546001600160a01b0319811690915581906001600160a01b03167f8be0079c531659141344cd1fd0a4f28419497f9722a3daafe3b4186f6b6457e08280a380f35b823461009257602036600319011261009257600435815580f35b9050346101bc57816003193601126101bc57805181810181811067ffffffffffffffff8211176103005782526002815260209061563160f01b6020820152825193849260208452825192836020860152825b8481106102ea57505050828201840152601f01601f19168101030190f35b81810183015188820188015287955082016102cc565b634e487b7160e01b84526041600452602484fd5b8390346101bc57816003193601126101bc57602091548152f35b6020906003190112610359576004356001600160a81b0381168103610359576001600160a01b031690565b600080fd5b6001600160a01b039081169081156103b95760008051602061044d83398151915280546001600160a01b031981168417909155167f8be0079c531659141344cd1fd0a4f28419497f9722a3daafe3b4186f6b6457e0600080a3565b604051631e4fbdf760e01b815260006004820152602490fd5b60008051602061044d833981519152546001600160a01b031633036103f357565b60405163118cdaa760e01b8152336004820152602490fd5b60ff7ff0c57e16840df040f15088dc2f81fe391c3923bec73e23a9662efc9c229c6a005460401c161561043a57565b604051631afcd79f60e31b8152600490fdfe9016d09d72d40fdae2fd8ceac6b6234c7706214fd39c1cd1e609a0528c199300a26474726f6e582212201921871a0e3bafbb90adc47b4403ca358c09028de872e473f69f36d8549b8d0664736f6c63430008180033",
  "linkReferences": {},
  "deployedLinkReferences": {}
}