{
  "_format": "hh-sol-artifact-1",
  "contractName": "BoxUUPSV1",
  "sourceName": "contracts/test/BoxUUPSV1.sol",
  "abi": [
    {
      "inputs": [],
      "stateMutability": "nonpayable",
      "type": "constructor"
    },
    {
      "inputs": [
        {
          "internalType": "address",
          "name": "target",
          "type": "address"
        }
      ],
      "name": "AddressEmptyCode",
      "type": "error"
    },
    {
      "inputs": [
        {
          "internalType": "address",
          "name": "implementation",
          "type": "address"
        }
      ],
      "name": "ERC1967InvalidImplementation",
      "type": "error"
    },
    {
      "inputs": [],
      "name": "ERC1967NonPayable",
      "type": "error"
    },
    {
      "inputs": [],
      "name": "FailedCall",
      "type": "error"
    },
    {
      "inputs": [],
      "name": "InvalidInitialization",
      "type": "error"
    },
    {
      "inputs": [],
      "name": "NotInitializing",
      "type": "error"
    },
    {
      "inputs": [
        {
          "internalType": "address",
          "name": "owner",
          "type": "address"
        }
      ],
      "name": "OwnableInvalidOwner",
      "type": "error"
    },
    {
      "inputs": [
        {
          "internalType": "address",
          "name": "account",
          "type": "address"
        }
      ],
      "name": "OwnableUnauthorizedAccount",
      "type": "error"
    },
    {
      "inputs": [],
      "name": "UUPSUnauthorizedCallContext",
      "type": "error"
    },
    {
      "inputs": [
        {
          "internalType": "bytes32",
          "name": "slot",
          "type": "bytes32"
        }
      ],
      "name": "UUPSUnsupportedProxiableUUID",
      "type": "error"
    },
    {
      "anonymous": false,
      "inputs": [
        {
          "indexed": false,
          "internalType": "uint64",
          "name": "version",
          "type": "uint64"
        }
      ],
      "name": "Initialized",
      "type": "event"
    },
    {
      "anonymous": false,
      "inputs": [
        {
          "indexed": true,
          "internalType": "address",
          "name": "previousOwner",
          "type": "address"
        },
        {
          "indexed": true,
          "internalType": "address",
          "name": "newOwner",
          "type": "address"
        }
      ],
      "name": "OwnershipTransferred",
      "type": "event"
    },
    {
      "anonymous": false,
      "inputs": [
        {
          "indexed": true,
          "internalType": "address",
          "name": "implementation",
          "type": "address"
        }
      ],
      "name": "Upgraded",
      "type": "event"
    },
    {
      "inputs": [],
      "name": "UPGRADE_INTERFACE_VERSION",
      "outputs": [
        {
          "internalType": "string",
          "name": "",
          "type": "string"
        }
      ],
      "stateMutability": "view",
      "type": "function"
    },
    {
      "inputs": [
        {
          "internalType": "address",
          "name": "initialOwner",
          "type": "address"
        }
      ],
      "name": "initialize",
      "outputs": [],
      "stateMutability": "nonpayable",
      "type": "function"
    },
    {
      "inputs": [],
      "name": "owner",
      "outputs": [
        {
          "internalType": "address",
          "name": "",
          "type": "address"
        }
      ],
      "stateMutability": "view",
      "type": "function"
    },
    {
      "inputs": [],
      "name": "proxiableUUID",
      "outputs": [
        {
          "internalType": "bytes32",
          "name": "",
          "type": "bytes32"
        }
      ],
      "stateMutability": "view",
      "type": "function"
    },
    {
      "inputs": [],
      "name": "renounceOwnership",
      "outputs": [],
      "stateMutability": "nonpayable",
      "type": "function"
    },
    {
      "inputs": [],
      "name": "retrieve",
      "outputs": [
        {
          "internalType": "uint256",
          "name": "",
          "type": "uint256"
        }
      ],
      "stateMutability": "view",
      "type": "function"
    },
    {
      "inputs": [
        {
          "internalType": "uint256",
          "name": "value",
          "type": "uint256"
        }
      ],
      "name": "store",
      "outputs": [],
      "stateMutability": "nonpayable",
      "type": "function"
    },
    {
      "inputs": [
        {
          "internalType": "address",
          "name": "newOwner",
          "type": "address"
        }
      ],
      "name": "transferOwnership",
      "outputs": [],
      "stateMutability": "nonpayable",
      "type": "function"
    },
    {
      "inputs": [
        {
          "internalType": "address",
          "name": "newImplementation",
          "type": "address"
        },
        {
          "internalType": "bytes",
          "name": "data",
          "type": "bytes"
        }
      ],
      "name": "upgradeToAndCall",
      "outputs": [],
      "stateMutability": "payable",
      "type": "function"
    },
    {
      "inputs": [],
      "name": "version",
      "outputs": [
        {
          "internalType": "string",
          "name": "",
          "type": "string"
        }
      ],
      "stateMutability": "pure",
      "type": "function"
    }
  ],
  "bytecode": "0x60a080604052346100cc57306080527ff0c57e16840df040f15088dc2f81fe391c3923bec73e23a9662efc9c229c6a009081549060ff8260401c166100bd57506001600160401b036002600160401b031982821601610078575b6040516108a990816100d2823960805181818161035301526104200152f35b6001600160401b031990911681179091556040519081527fc7f505b2f371ae2175ee4913f4499e1f2633a7b5936321eed1cdaeb6115181d290602090a1388080610059565b63f92ee8a960e01b8152600490fd5b600080fdfe60806040908082526004918236101561001757600080fd5b600092833560e01c9283632e64cec1146105eb575082634f1ef286146103a557826352d1902d1461033e57826354fd4d50146102ff5782636057361d146102e6578263715018a61461027c5782638da5cb5b14610246578263ad3cb1cc14610201578263c4d66de8146100c457505063f2fde38b1461009557600080fd5b346100c15760203660031901126100c1576100be6100b1610605565b6100b9610756565b6106e2565b80f35b80fd5b909150346101fd5760203660031901126101fd576100e0610605565b907ff0c57e16840df040f15088dc2f81fe391c3923bec73e23a9662efc9c229c6a0091825460ff81861c16159267ffffffffffffffff8216801590816101f5575b60011490816101eb575b1590816101e2575b506101d4575067ffffffffffffffff19811660011784556101669190836101b5575b5061015e61078f565b6100b961078f565b61016e61078f565b838055610179578280f35b805460ff60401b1916905551600181527fc7f505b2f371ae2175ee4913f4499e1f2633a7b5936321eed1cdaeb6115181d290602090a138808280f35b68ffffffffffffffffff19166801000000000000000117845538610155565b855163f92ee8a960e01b8152fd5b90501538610133565b303b15915061012b565b859150610121565b8280fd5b838234610242578160031936011261024257805161023e9161022282610629565b60058252640352e302e360dc1b60208301525191829182610699565b0390f35b5080fd5b8382346102425781600319360112610242576000805160206108348339815191525490516001600160a01b039091168152602090f35b83346100c157806003193601126100c157610295610756565b60008051602061083483398151915280546001600160a01b0319811690915581906001600160a01b03167f8be0079c531659141344cd1fd0a4f28419497f9722a3daafe3b4186f6b6457e08280a380f35b8390346102425760203660031901126102425735815580f35b838234610242578160031936011261024257805161023e9161032082610629565b6007825266555550532d563160c81b60208301525191829182610699565b9083346100c157806003193601126100c157507f00000000000000000000000000000000000000000000000000000000000000006001600160a01b0316300361039857602090516000805160206108548339815191528152f35b5163703e46dd60e11b8152fd5b9150806003193601126101fd576103ba610605565b90602493843567ffffffffffffffff8111610242573660238201121561024257808501356103e78161067d565b946103f48551968761065b565b81865260209182870193368a83830101116105e7578186928b8693018737880101526001600160a01b037f000000000000000000000000000000000000000000000000000000000000000081163081149081156105cb575b506105bb57610459610756565b81169585516352d1902d60e01b815283818a818b5afa869181610588575b50610493575050505050505191634c9c8ce360e01b8352820152fd5b9088888894938c600080516020610854833981519152918281036105735750853b1561055f575080546001600160a01b031916821790558451889392917fbc7cd75a20ee27fd9adebab32041f755214dbc6bffa90cc0225b39da2e5c2d3b8580a28251156105415750506105339582915190845af4913d15610537573d61052561051c8261067d565b9251928361065b565b81528581943d92013e6107d0565b5080f35b50606092506107d0565b95509550505050503461055357505080f35b63b398979f60e01b8152fd5b8651634c9c8ce360e01b8152808501849052fd5b8751632a87526960e21b815280860191909152fd5b9091508481813d83116105b4575b6105a0818361065b565b810103126105b057519038610477565b8680fd5b503d610596565b855163703e46dd60e11b81528890fd5b905081600080516020610854833981519152541614153861044c565b8580fd5b849034610242578160031936011261024257602091548152f35b6004356001600160a81b0381168103610624576001600160a01b031690565b600080fd5b6040810190811067ffffffffffffffff82111761064557604052565b634e487b7160e01b600052604160045260246000fd5b90601f8019910116810190811067ffffffffffffffff82111761064557604052565b67ffffffffffffffff811161064557601f01601f191660200190565b6020808252825181830181905290939260005b8281106106ce57505060409293506000838284010152601f8019910116010190565b8181018601518482016040015285016106ac565b6001600160a01b0390811690811561073d5760008051602061083483398151915280546001600160a01b031981168417909155167f8be0079c531659141344cd1fd0a4f28419497f9722a3daafe3b4186f6b6457e0600080a3565b604051631e4fbdf760e01b815260006004820152602490fd5b600080516020610834833981519152546001600160a01b0316330361077757565b60405163118cdaa760e01b8152336004820152602490fd5b60ff7ff0c57e16840df040f15088dc2f81fe391c3923bec73e23a9662efc9c229c6a005460401c16156107be57565b604051631afcd79f60e31b8152600490fd5b906107f757508051156107e557602081519101fd5b60405163d6bda27560e01b8152600490fd5b8151158061082a575b610808575090565b604051639996b31560e01b81526001600160a01b039091166004820152602490fd5b50803b1561080056fe9016d09d72d40fdae2fd8ceac6b6234c7706214fd39c1cd1e609a0528c199300360894a13ba1a3210667c828492db98dca3e2076cc3735a920a3ca505d382bbca26474726f6e58221220665e96dc3686514e614332a99e018bc799bfa1a6e5e86e2f29a2828af0f640c464736f6c63430008180033",
  "linkReferences": {},
  "deployedLinkReferences": {}
}