{
  "_format": "hh-sol-artifact-1",
  "contractName": "SafeERC20Test",
  "sourceName": "contracts/test/SafeERC20Test.sol",
  "abi": [
    {
      "inputs": [
        {
          "internalType": "address",
          "name": "token",
          "type": "address"
        }
      ],
      "name": "SafeERC20FailedOperation",
      "type": "error"
    },
    {
      "anonymous": false,
      "inputs": [
        {
          "indexed": false,
          "internalType": "string",
          "name": "method",
          "type": "string"
        },
        {
          "indexed": false,
          "internalType": "bool",
          "name": "success",
          "type": "bool"
        },
        {
          "indexed": false,
          "internalType": "bytes",
          "name": "returnData",
          "type": "bytes"
        }
      ],
      "name": "TestResult",
      "type": "event"
    },
    {
      "anonymous": false,
      "inputs": [
        {
          "indexed": false,
          "internalType": "string",
          "name": "method",
          "type": "string"
        },
        {
          "indexed": false,
          "internalType": "address",
          "name": "token",
          "type": "address"
        },
        {
          "indexed": false,
          "internalType": "address",
          "name": "to",
          "type": "address"
        },
        {
          "indexed": false,
          "internalType": "uint256",
          "name": "amount",
          "type": "uint256"
        }
      ],
      "name": "TransferAttempted",
      "type": "event"
    },
    {
      "inputs": [
        {
          "internalType": "address",
          "name": "token",
          "type": "address"
        },
        {
          "internalType": "address",
          "name": "to",
          "type": "address"
        },
        {
          "internalType": "uint256",
          "name": "amount",
          "type": "uint256"
        }
      ],
      "name": "analyzeTransferReturn",
      "outputs": [
        {
          "internalType": "bool",
          "name": "callSuccess",
          "type": "bool"
        },
        {
          "internalType": "uint256",
          "name": "returnSize",
          "type": "uint256"
        },
        {
          "internalType": "uint256",
          "name": "returnValue",
          "type": "uint256"
        },
        {
          "internalType": "bytes",
          "name": "fullReturnData",
          "type": "bytes"
        }
      ],
      "stateMutability": "nonpayable",
      "type": "function"
    },
    {
      "inputs": [
        {
          "internalType": "address",
          "name": "token",
          "type": "address"
        },
        {
          "internalType": "address",
          "name": "spender",
          "type": "address"
        },
        {
          "internalType": "uint256",
          "name": "amount",
          "type": "uint256"
        }
      ],
      "name": "approve",
      "outputs": [],
      "stateMutability": "nonpayable",
      "type": "function"
    },
    {
      "inputs": [
        {
          "internalType": "address",
          "name": "token",
          "type": "address"
        },
        {
          "internalType": "address",
          "name": "to",
          "type": "address"
        },
        {
          "internalType": "uint256",
          "name": "amount",
          "type": "uint256"
        }
      ],
      "name": "customSafeTransfer",
      "outputs": [
        {
          "internalType": "bool",
          "name": "",
          "type": "bool"
        }
      ],
      "stateMutability": "nonpayable",
      "type": "function"
    },
    {
      "inputs": [
        {
          "internalType": "address",
          "name": "token",
          "type": "address"
        },
        {
          "internalType": "address",
          "name": "owner",
          "type": "address"
        },
        {
          "internalType": "address",
          "name": "spender",
          "type": "address"
        }
      ],
      "name": "getAllowance",
      "outputs": [
        {
          "internalType": "uint256",
          "name": "",
          "type": "uint256"
        }
      ],
      "stateMutability": "view",
      "type": "function"
    },
    {
      "inputs": [
        {
          "internalType": "address",
          "name": "token",
          "type": "address"
        },
        {
          "internalType": "address",
          "name": "account",
          "type": "address"
        }
      ],
      "name": "getBalance",
      "outputs": [
        {
          "internalType": "uint256",
          "name": "",
          "type": "uint256"
        }
      ],
      "stateMutability": "view",
      "type": "function"
    },
    {
      "inputs": [
        {
          "internalType": "address",
          "name": "token",
          "type": "address"
        },
        {
          "internalType": "address",
          "name": "to",
          "type": "address"
        },
        {
          "internalType": "uint256",
          "name": "amount",
          "type": "uint256"
        }
      ],
      "name": "permissiveTransfer",
      "outputs": [
        {
          "internalType": "bool",
          "name": "",
          "type": "bool"
        }
      ],
      "stateMutability": "nonpayable",
      "type": "function"
    },
    {
      "inputs": [
        {
          "internalType": "address",
          "name": "token",
          "type": "address"
        },
        {
          "internalType": "address",
          "name": "to",
          "type": "address"
        },
        {
          "internalType": "uint256",
          "name": "amount",
          "type": "uint256"
        }
      ],
      "name": "testRawTransfer",
      "outputs": [
        {
          "internalType": "bool",
          "name": "success",
          "type": "bool"
        },
        {
          "internalType": "bytes",
          "name": "returnData",
          "type": "bytes"
        }
      ],
      "stateMutability": "nonpayable",
      "type": "function"
    },
    {
      "inputs": [
        {
          "internalType": "address",
          "name": "token",
          "type": "address"
        },
        {
          "internalType": "address",
          "name": "from",
          "type": "address"
        },
        {
          "internalType": "address",
          "name": "to",
          "type": "address"
        },
        {
          "internalType": "uint256",
          "name": "amount",
          "type": "uint256"
        }
      ],
      "name": "testRawTransferFrom",
      "outputs": [
        {
          "internalType": "bool",
          "name": "success",
          "type": "bool"
        },
        {
          "internalType": "bytes",
          "name": "returnData",
          "type": "bytes"
        }
      ],
      "stateMutability": "nonpayable",
      "type": "function"
    },
    {
      "inputs": [
        {
          "internalType": "address",
          "name": "token",
          "type": "address"
        },
        {
          "internalType": "address",
          "name": "to",
          "type": "address"
        },
        {
          "internalType": "uint256",
          "name": "amount",
          "type": "uint256"
        }
      ],
      "name": "testSafeTransfer",
      "outputs": [],
      "stateMutability": "nonpayable",
      "type": "function"
    },
    {
      "inputs": [
        {
          "internalType": "address",
          "name": "token",
          "type": "address"
        },
        {
          "internalType": "address",
          "name": "from",
          "type": "address"
        },
        {
          "internalType": "address",
          "name": "to",
          "type": "address"
        },
        {
          "internalType": "uint256",
          "name": "amount",
          "type": "uint256"
        }
      ],
      "name": "testSafeTransferFrom",
      "outputs": [],
      "stateMutability": "nonpayable",
      "type": "function"
    },
    {
      "stateMutability": "payable",
      "type": "receive"
    }
  ],
  "bytecode": "0x6080806040523461001657610bff908161001c8239f35b600080fdfe6080604052600436101561001b575b361561001957600080fd5b005b60003560e01c8063112b63c8146100bb5780631f9ec725146100b657806333fd262f146100b157806375231e61146100ac578063c215d3e9146100a7578063cfff8000146100a2578063d4fac45d1461009d578063e1f21c6714610098578063e7092b41146100935763f705d9610361000e57610856565b6107b9565b610745565b6106ae565b610640565b610566565b610474565b6103ae565b6102df565b610163565b6004356001600160a81b03811681036100df576001600160a01b031690565b600080fd5b6024356001600160a81b03811681036100df576001600160a01b031690565b6044356001600160a81b03811681036100df576001600160a01b031690565b60609060031901126100df576001600160a81b039060043582811681036100df576001600160a01b039081169260243590811681036100df57169060443590565b346100df5761023b6000806101e66101f48261017e36610122565b600080516020610baa83398151915260409693969592955160808152806101a7608082016108e8565b6001600160a01b038a8116602084015289166040830152606082018590520390a1604051928391602083019663a9059cbb60e01b88526024840161090d565b03601f19810183528261093e565b51925af1610200610981565b8161023f575b610226600080516020610b8a8339815191529160405191829185836109c9565b0390a160405190151581529081906020820190565b0390f35b9050600080516020610b8a83398151915261022682518015908115610269575b5092915050610206565b61027d9150602090850101602085016109b1565b3861025f565b919082519283825260005b8481106102af575050826000602080949584010152601f8019910116010190565b60208183018101518483018201520161028e565b6040906102dc9392151581528160208201520190610283565b90565b346100df576000806101e6610320826102f736610122565b600080516020610baa83398151915260409693969592955160808152806101a7608082016109f3565b51925af161032c610981565b90600080516020610b8a8339815191526040518061034b858583610a16565b0390a161023b604051928392836102c3565b60809060031901126100df57600435906001600160a81b039081831683036100df576001600160a01b039283169260243583811681036100df5781169260443590811681036100df57169060643590565b346100df57600080610449816103c33661035d565b9193929490600080516020610baa83398151915260405160808152806103eb60808201610a2b565b6001600160a01b038a8116602084015285166040830152606082018790520390a16040516323b872dd60e01b602082019081526001600160a01b039687166024830152959091166044820152606481019290925281608481016101e6565b51925af1610455610981565b90600080516020610b8a8339815191526040518061034b858583610a52565b346100df5761001961053c61052e61048b3661035d565b600080516020610baa83398151915260c0604097959693975160808152601a60808201527f5361666545524332302e736166655472616e7366657246726f6d00000000000060a082015260018060a01b038098169788602083015289166040820152836060820152a16040516323b872dd60e01b60208201526001600160a01b039384166024820152959092166044860152606485019190915283906084820190565b03601f19810184528361093e565b610b2d565b90926080926102dc959415158352602083015260408201528160608201520190610283565b346100df5761059d602060008061057c36610122565b604093919293519687918783019463a9059cbb60e01b86526024840161090d565b03956105b1601f199788810183528261093e565b51925af161023b3d92600051600080516020610b8a8339815191526106316105d887610965565b936105e6604051958661093e565b8785526105f288610965565b8160208701910136823760003d913e610624604051918261061888888d60208501610a67565b0390810183528261093e565b6040519182918883610a83565b0390a160405194859485610541565b346100df5761023b6000806101e66106848261065b36610122565b600080516020610baa83398151915260409693969592955160808152806101a760808201610ac2565b51925af1610690610981565b50600080516020610b8a833981519152604051806102268482610ae7565b346100df5760403660031901126100df576106c76100c0565b60206106d16100e4565b6040516370a0823160e01b81526001600160a01b0391821660048201529283916024918391165afa801561074057602091600091610713575b50604051908152f35b6107339150823d8411610739575b61072b818361093e565b810190610b12565b3861070a565b503d610721565b610b21565b346100df57610778602061075836610122565b9190600060405180968195829463095ea7b360e01b84526004840161090d565b03926001600160a01b03165af180156107405761079157005b6100199060203d6020116107b2575b6107aa818361093e565b8101906109b1565b503d6107a0565b346100df5760603660031901126100df576107d26100c0565b60206107dc6100e4565b9160446107e7610103565b604051636eb1769f60e11b81526001600160a01b03958616600482015290851660248201529384928391165afa80156107405761023b91600091610837575b506040519081529081906020820190565b610850915060203d6020116107395761072b818361093e565b38610826565b346100df5761001961053c61086a36610122565b9290600080516020610baa83398151915260c060405160808152601660808201527529b0b332a2a92199181739b0b332aa3930b739b332b960511b60a082015260018060a01b038096169586602083015284166040820152866060820152a161052e60405194859263a9059cbb60e01b60208501526024840161090d565b601281527131bab9ba37b6a9b0b332aa3930b739b332b960711b602082015260400190565b6001600160a01b039091168152602081019190915260400190565b634e487b7160e01b600052604160045260246000fd5b90601f8019910116810190811067ffffffffffffffff82111761096057604052565b610928565b67ffffffffffffffff811161096057601f01601f191660200190565b3d156109ac573d9061099282610965565b916109a0604051938461093e565b82523d6000602084013e565b606090565b908160209103126100df575180151581036100df5790565b916102dc92606081526109de606082016108e8565b92151560208201526040818403910152610283565b601081526f3930bba1b0b636173a3930b739b332b960811b602082015260400190565b916102dc92606081526109de606082016109f3565b601481527372617743616c6c2e7472616e7366657246726f6d60601b602082015260400190565b916102dc92606081526109de60608201610a2b565b6102dc9392606092825260208201528160408201520190610283565b60a0906102dc939260608252600f60608301526e30b730b63cbd32aa3930b739b332b960891b6080830152151560208201528160408201520190610283565b60128152713832b936b4b9b9b4bb32aa3930b739b332b960711b602082015260400190565b9060209160608152610afb60608201610ac2565b911515838201526040818303910152600081520190565b908160209103126100df575190565b6040513d6000823e3d90fd5b906000602091828151910182855af115610b21576000513d610b8057506001600160a01b0381163b155b610b5e5750565b604051635274afe760e01b81526001600160a01b039091166004820152602490fd5b60011415610b5756fe44031838cfc13c6c7d639a6fa62e23c577296221cdcb5276e674a5bd35a8072672fd8869f602994b3c651c1f8735ed7a9e8c0dec0ffa66f73f34cb4c8394b6e6a26474726f6e582212200b6bba52a7eba67f5c386bc25932688897f3c6792eb69a1c8423924026e4477f64736f6c63430008180033",
  "linkReferences": {},
  "deployedLinkReferences": {}
}