{
  "_format": "hh-sol-artifact-1",
  "contractName": "ChainIdHelper",
  "sourceName": "contracts/v1/tvm/ChainIdHelper.sol",
  "abi": [
    {
      "inputs": [],
      "name": "getChainId",
      "outputs": [
        {
          "internalType": "uint256",
          "name": "",
          "type": "uint256"
        }
      ],
      "stateMutability": "view",
      "type": "function"
    }
  ],
  "bytecode": "0x608080604052346014576078908161001a8239f35b600080fdfe6080806040526004361015601257600080fd5b600090813560e01c633408e47014602857600080fd5b34603e5781600319360112603e57602090468152f35b5080fdfea26474726f6e58221220ec61ed1ca3b074444e4d81e10d33e1b75ae3239fbf194c17d43686196d8cc9f564736f6c63430008180033",
  "linkReferences": {},
  "deployedLinkReferences": {}
}