{"contracts/test/SimpleBox.sol":{"SimpleBox":{"abi":[{"inputs":[{"internalType":"address","name":"owner_","type":"address"}],"name":"initialize","outputs":[],"stateMutability":"nonpayable","type":"function"},{"inputs":[],"name":"owner","outputs":[{"internalType":"address","name":"","type":"address"}],"stateMutability":"view","type":"function"},{"inputs":[],"name":"retrieve","outputs":[{"internalType":"uint256","name":"","type":"uint256"}],"stateMutability":"view","type":"function"},{"inputs":[{"internalType":"uint256","name":"value","type":"uint256"}],"name":"store","outputs":[],"stateMutability":"nonpayable","type":"function"},{"inputs":[],"name":"version","outputs":[{"internalType":"string","name":"","type":"string"}],"stateMutability":"pure","type":"function"}],"devdoc":{"kind":"dev","methods":{},"title":"SimpleBox - Simple implementation contract for proxy testing","version":1},"evm":{"bytecode":{"linkReferences":{},"object":"608080604052346100165761021f908161001c8239f35b600080fdfe60806040818152600436101561001457600080fd5b600091823560e01c9081632e64cec1146101cf5750806354fd4d50146101365780636057361d146101195780638da5cb5b146100f15763c4d66de81461005957600080fd5b346100ed5760203660031901126100ed57600435906001600160a81b03821682036100e9576001549060ff8260a01c166100b057506001600160a81b0319166001600160a01b0390911617600160a01b1760015580f35b5162461bcd60e51b8152602060048201526013602482015272105b1c9958591e481a5b9a5d1a585b1a5e9959606a1b6044820152606490fd5b8280fd5b5080fd5b50346100ed57816003193601126100ed5760015490516001600160a01b039091168152602090f35b823461013357602036600319011261013357600435815580f35b80fd5b50346100ed57816003193601126100ed57805181810181811067ffffffffffffffff8211176101bb5782526002815260209061563160f01b6020820152825193849260208452825192836020860152825b8481106101a557505050828201840152601f01601f19168101030190f35b8181018301518882018801528795508201610187565b634e487b7160e01b84526041600452602484fd5b8390346100ed57816003193601126100ed57602091548152f3fea26474726f6e58221220a181cead1029d2f6e3f475c1c40788f9e2b0715c777f71c54cb55a45527e1cde64736f6c63430008180033","opcodes":"PUSH1 0x80 DUP1 PUSH1 0x40 MSTORE CALLVALUE PUSH2 0x16 JUMPI PUSH2 0x21F SWAP1 DUP2 PUSH2 0x1C DUP3 CODECOPY RETURN JUMPDEST PUSH1 0x0 DUP1 REVERT INVALID PUSH1 0x80 PUSH1 0x40 DUP2 DUP2 MSTORE PUSH1 0x4 CALLDATASIZE LT ISZERO PUSH2 0x14 JUMPI PUSH1 0x0 DUP1 REVERT JUMPDEST PUSH1 0x0 SWAP2 DUP3 CALLDATALOAD PUSH1 0xE0 SHR SWAP1 DUP2 PUSH4 0x2E64CEC1 EQ PUSH2 0x1CF JUMPI POP DUP1 PUSH4 0x54FD4D50 EQ PUSH2 0x136 JUMPI DUP1 PUSH4 0x6057361D EQ PUSH2 0x119 JUMPI DUP1 PUSH4 0x8DA5CB5B EQ PUSH2 0xF1 JUMPI PUSH4 0xC4D66DE8 EQ PUSH2 0x59 JUMPI PUSH1 0x0 DUP1 REVERT JUMPDEST CALLVALUE PUSH2 0xED JUMPI PUSH1 0x20 CALLDATASIZE PUSH1 0x3 NOT ADD SLT PUSH2 0xED JUMPI PUSH1 0x4 CALLDATALOAD SWAP1 PUSH1 0x1 PUSH1 0x1 PUSH1 0xA8 SHL SUB DUP3 AND DUP3 SUB PUSH2 0xE9 JUMPI PUSH1 0x1 SLOAD SWAP1 PUSH1 0xFF DUP3 PUSH1 0xA0 SHR AND PUSH2 0xB0 JUMPI POP PUSH1 0x1 PUSH1 0x1 PUSH1 0xA8 SHL SUB NOT AND PUSH1 0x1 PUSH1 0x1 PUSH1 0xA0 SHL SUB SWAP1 SWAP2 AND OR PUSH1 0x1 PUSH1 0xA0 SHL OR PUSH1 0x1 SSTORE DUP1 RETURN JUMPDEST MLOAD PUSH3 0x461BCD PUSH1 0xE5 SHL DUP2 MSTORE PUSH1 0x20 PUSH1 0x4 DUP3 ADD MSTORE PUSH1 0x13 PUSH1 0x24 DUP3 ADD MSTORE PUSH19 0x105B1C9958591E481A5B9A5D1A585B1A5E9959 PUSH1 0x6A SHL PUSH1 0x44 DUP3 ADD MSTORE PUSH1 0x64 SWAP1 REVERT JUMPDEST DUP3 DUP1 REVERT JUMPDEST POP DUP1 REVERT JUMPDEST POP CALLVALUE PUSH2 0xED JUMPI DUP2 PUSH1 0x3 NOT CALLDATASIZE ADD SLT PUSH2 0xED JUMPI PUSH1 0x1 SLOAD SWAP1 MLOAD PUSH1 0x1 PUSH1 0x1 PUSH1 0xA0 SHL SUB SWAP1 SWAP2 AND DUP2 MSTORE PUSH1 0x20 SWAP1 RETURN JUMPDEST DUP3 CALLVALUE PUSH2 0x133 JUMPI PUSH1 0x20 CALLDATASIZE PUSH1 0x3 NOT ADD SLT PUSH2 0x133 JUMPI PUSH1 0x4 CALLDATALOAD DUP2 SSTORE DUP1 RETURN JUMPDEST DUP1 REVERT JUMPDEST POP CALLVALUE PUSH2 0xED JUMPI DUP2 PUSH1 0x3 NOT CALLDATASIZE ADD SLT PUSH2 0xED JUMPI DUP1 MLOAD DUP2 DUP2 ADD DUP2 DUP2 LT PUSH8 0xFFFFFFFFFFFFFFFF DUP3 GT OR PUSH2 0x1BB JUMPI DUP3 MSTORE PUSH1 0x2 DUP2 MSTORE PUSH1 0x20 SWAP1 PUSH2 0x5631 PUSH1 0xF0 SHL PUSH1 0x20 DUP3 ADD MSTORE DUP3 MLOAD SWAP4 DUP5 SWAP3 PUSH1 0x20 DUP5 MSTORE DUP3 MLOAD SWAP3 DUP4 PUSH1 0x20 DUP7 ADD MSTORE DUP3 JUMPDEST DUP5 DUP2 LT PUSH2 0x1A5 JUMPI POP POP POP DUP3 DUP3 ADD DUP5 ADD MSTORE PUSH1 0x1F ADD PUSH1 0x1F NOT AND DUP2 ADD SUB ADD SWAP1 RETURN JUMPDEST DUP2 DUP2 ADD DUP4 ADD MLOAD DUP9 DUP3 ADD DUP9 ADD MSTORE DUP8 SWAP6 POP DUP3 ADD PUSH2 0x187 JUMP JUMPDEST PUSH4 0x4E487B71 PUSH1 0xE0 SHL DUP5 MSTORE PUSH1 0x41 PUSH1 0x4 MSTORE PUSH1 0x24 DUP5 REVERT JUMPDEST DUP4 SWAP1 CALLVALUE PUSH2 0xED JUMPI DUP2 PUSH1 0x3 NOT CALLDATASIZE ADD SLT PUSH2 0xED JUMPI PUSH1 0x20 SWAP2 SLOAD DUP2 MSTORE RETURN INVALID LOG2 PUSH5 0x74726F6E58 0x22 SLT KECCAK256 LOG1 DUP2 0xCE 0xAD LT 0x29 CALLTOKENVALUE 0xF6 0xE3 DELEGATECALL PUSH22 0xC1C40788F9E2B0715C777F71C54CB55A45527E1CDE64 PUSH20 0x6F6C634300081800330000000000000000000000 "},"gasEstimates":{"creation":{"codeDepositCost":"108600","executionCost":"159","totalCost":"108759"},"external":{"initialize(address)":"24576","owner()":"2359","retrieve()":"2262","store(uint256)":"22299","version()":"infinite"}},"methodIdentifiers":{"initialize(address)":"c4d66de8","owner()":"8da5cb5b","retrieve()":"2e64cec1","store(uint256)":"6057361d","version()":"54fd4d50"}},"storageLayout":{"storage":[{"astId":1708,"contract":"contracts/test/SimpleBox.sol:SimpleBox","label":"_value","offset":0,"slot":"0","type":"t_uint256"},{"astId":1710,"contract":"contracts/test/SimpleBox.sol:SimpleBox","label":"_owner","offset":0,"slot":"1","type":"t_address"},{"astId":1712,"contract":"contracts/test/SimpleBox.sol:SimpleBox","label":"_initialized","offset":20,"slot":"1","type":"t_bool"}],"types":{"t_address":{"encoding":"inplace","label":"address","numberOfBytes":"20"},"t_bool":{"encoding":"inplace","label":"bool","numberOfBytes":"1"},"t_uint256":{"encoding":"inplace","label":"uint256","numberOfBytes":"32"}}},"userdoc":{"kind":"user","methods":{},"version":1}}}}