{"contracts/test/SimpleProxy.sol":{"SimpleTransparentProxy":{"abi":[{"inputs":[{"internalType":"address","name":"implementation_","type":"address"},{"internalType":"address","name":"admin_","type":"address"},{"internalType":"bytes","name":"data_","type":"bytes"}],"stateMutability":"nonpayable","type":"constructor"},{"stateMutability":"payable","type":"fallback"},{"inputs":[],"name":"admin","outputs":[{"internalType":"address","name":"","type":"address"}],"stateMutability":"view","type":"function"},{"inputs":[],"name":"implementation","outputs":[{"internalType":"address","name":"","type":"address"}],"stateMutability":"view","type":"function"},{"inputs":[{"internalType":"address","name":"newImplementation","type":"address"}],"name":"upgradeTo","outputs":[],"stateMutability":"nonpayable","type":"function"},{"inputs":[{"internalType":"address","name":"newImplementation","type":"address"},{"internalType":"bytes","name":"data","type":"bytes"}],"name":"upgradeToAndCall","outputs":[],"stateMutability":"nonpayable","type":"function"},{"stateMutability":"payable","type":"receive"}],"devdoc":{"details":"ERC1967 storage slots for implementation and admin","kind":"dev","methods":{},"title":"SimpleTransparentProxy - Simplified Transparent Proxy for testing","version":1},"evm":{"bytecode":{"linkReferences":{},"object":"608060405234610173576105ad8038038061001981610178565b928339810160608282031261017357610031826101b3565b906020926100408482016101b3565b604082015190916001600160401b038211610173570182601f8201121561017357805161007461006f826101d0565b610178565b9381855286828401011161017357859160005b82811061016057505090600091840101527fb53127684a568b3173ae13b9f8a6016e243e63b6e8ee1178d6a717850b5d610355817f360894a13ba1a3210667c828492db98dca3e2076cc3735a920a3ca505d382bbc558051806100f4575b6040516103c190816101ec8239f35b60009284849301905af43d1561015b573d61011161006f826101d0565b9081526000833d92013e5b15610129578080806100e5565b6064906040519062461bcd60e51b82526004820152600b60248201526a125b9a5d0819985a5b195960aa1b6044820152fd5b61011c565b8181018401518682018501528301610087565b600080fd5b6040519190601f01601f191682016001600160401b0381118382101761019d57604052565b634e487b7160e01b600052604160045260246000fd5b516001600160a81b0381168103610173576001600160a01b031690565b6001600160401b03811161019d57601f01601f19166020019056fe60806040526004361015610015575b3661031c57005b6000803560e01c9081633659cfe614610058575080634f1ef286146100535780635c60da1b1461004e5763f851a4400361000e576101f3565b6101a4565b61012a565b346100a65760203660031901126100a6576100716100a9565b61009360018060a01b0360008051602061034c83398151915254163314610233565b60008051602061036c8339815191525580f35b80fd5b6004356001600160a81b03811681036100c8576001600160a01b031690565b600080fd5b634e487b7160e01b600052604160045260246000fd5b6040519190601f01601f1916820167ffffffffffffffff81118382101761010957604052565b6100cd565b67ffffffffffffffff811161010957601f01601f191660200190565b346100c85760403660031901126100c8576101436100a9565b6024359067ffffffffffffffff82116100c857366023830112156100c8578160040135906101786101738361010e565b6100e3565b9180835236602482860101116100c85760208160009260246101a29701838701378401015261026b565b005b346100c85760003660031901126100c857602060018060a01b036101da8160008051602061034c83398151915254163314610233565b60008051602061036c8339815191525460405191168152f35b346100c85760003660031901126100c85760008051602061034c833981519152546020906001600160a01b031661022b338214610233565b604051908152f35b1561023a57565b60405162461bcd60e51b81526020600482015260096024820152682737ba1030b236b4b760b91b6044820152606490fd5b9061028e60018060a01b0360008051602061034c83398151915254163314610233565b8160008051602061036c833981519152558051806102ab57505050565b6000926020849301905af43d15610317573d6102c96101738261010e565b908152600060203d92013e5b156102dc57565b60405162461bcd60e51b8152602060048201526013602482015272155c19dc9859194818d85b1b0819985a5b1959606a1b6044820152606490fd5b6102d5565b60008051602061036c833981519152546000808092368280378136915af43d82803e15610347573d90f35b3d90fdfeb53127684a568b3173ae13b9f8a6016e243e63b6e8ee1178d6a717850b5d6103360894a13ba1a3210667c828492db98dca3e2076cc3735a920a3ca505d382bbca26474726f6e5822122003a6dec5079937ba0ff9595f5cd2b435f703c4ae856fefb1f31b642de7bbfb6064736f6c63430008180033","opcodes":"PUSH1 0x80 PUSH1 0x40 MSTORE CALLVALUE PUSH2 0x173 JUMPI PUSH2 0x5AD DUP1 CODESIZE SUB DUP1 PUSH2 0x19 DUP2 PUSH2 0x178 JUMP JUMPDEST SWAP3 DUP4 CODECOPY DUP2 ADD PUSH1 0x60 DUP3 DUP3 SUB SLT PUSH2 0x173 JUMPI PUSH2 0x31 DUP3 PUSH2 0x1B3 JUMP JUMPDEST SWAP1 PUSH1 0x20 SWAP3 PUSH2 0x40 DUP5 DUP3 ADD PUSH2 0x1B3 JUMP JUMPDEST PUSH1 0x40 DUP3 ADD MLOAD SWAP1 SWAP2 PUSH1 0x1 PUSH1 0x1 PUSH1 0x40 SHL SUB DUP3 GT PUSH2 0x173 JUMPI ADD DUP3 PUSH1 0x1F DUP3 ADD SLT ISZERO PUSH2 0x173 JUMPI DUP1 MLOAD PUSH2 0x74 PUSH2 0x6F DUP3 PUSH2 0x1D0 JUMP JUMPDEST PUSH2 0x178 JUMP JUMPDEST SWAP4 DUP2 DUP6 MSTORE DUP7 DUP3 DUP5 ADD ADD GT PUSH2 0x173 JUMPI DUP6 SWAP2 PUSH1 0x0 JUMPDEST DUP3 DUP2 LT PUSH2 0x160 JUMPI POP POP SWAP1 PUSH1 0x0 SWAP2 DUP5 ADD ADD MSTORE PUSH32 0xB53127684A568B3173AE13B9F8A6016E243E63B6E8EE1178D6A717850B5D6103 SSTORE DUP2 PUSH32 0x360894A13BA1A3210667C828492DB98DCA3E2076CC3735A920A3CA505D382BBC SSTORE DUP1 MLOAD DUP1 PUSH2 0xF4 JUMPI JUMPDEST PUSH1 0x40 MLOAD PUSH2 0x3C1 SWAP1 DUP2 PUSH2 0x1EC DUP3 CODECOPY RETURN JUMPDEST PUSH1 0x0 SWAP3 DUP5 DUP5 SWAP4 ADD SWAP1 GAS DELEGATECALL RETURNDATASIZE ISZERO PUSH2 0x15B JUMPI RETURNDATASIZE PUSH2 0x111 PUSH2 0x6F DUP3 PUSH2 0x1D0 JUMP JUMPDEST SWAP1 DUP2 MSTORE PUSH1 0x0 DUP4 RETURNDATASIZE SWAP3 ADD RETURNDATACOPY JUMPDEST ISZERO PUSH2 0x129 JUMPI DUP1 DUP1 DUP1 PUSH2 0xE5 JUMP JUMPDEST PUSH1 0x64 SWAP1 PUSH1 0x40 MLOAD SWAP1 PUSH3 0x461BCD PUSH1 0xE5 SHL DUP3 MSTORE PUSH1 0x4 DUP3 ADD MSTORE PUSH1 0xB PUSH1 0x24 DUP3 ADD MSTORE PUSH11 0x125B9A5D0819985A5B1959 PUSH1 0xAA SHL PUSH1 0x44 DUP3 ADD MSTORE REVERT JUMPDEST PUSH2 0x11C JUMP JUMPDEST DUP2 DUP2 ADD DUP5 ADD MLOAD DUP7 DUP3 ADD DUP6 ADD MSTORE DUP4 ADD PUSH2 0x87 JUMP JUMPDEST PUSH1 0x0 DUP1 REVERT JUMPDEST PUSH1 0x40 MLOAD SWAP2 SWAP1 PUSH1 0x1F ADD PUSH1 0x1F NOT AND DUP3 ADD PUSH1 0x1 PUSH1 0x1 PUSH1 0x40 SHL SUB DUP2 GT DUP4 DUP3 LT OR PUSH2 0x19D JUMPI PUSH1 0x40 MSTORE JUMP JUMPDEST PUSH4 0x4E487B71 PUSH1 0xE0 SHL PUSH1 0x0 MSTORE PUSH1 0x41 PUSH1 0x4 MSTORE PUSH1 0x24 PUSH1 0x0 REVERT JUMPDEST MLOAD PUSH1 0x1 PUSH1 0x1 PUSH1 0xA8 SHL SUB DUP2 AND DUP2 SUB PUSH2 0x173 JUMPI PUSH1 0x1 PUSH1 0x1 PUSH1 0xA0 SHL SUB AND SWAP1 JUMP JUMPDEST PUSH1 0x1 PUSH1 0x1 PUSH1 0x40 SHL SUB DUP2 GT PUSH2 0x19D JUMPI PUSH1 0x1F ADD PUSH1 0x1F NOT AND PUSH1 0x20 ADD SWAP1 JUMP INVALID PUSH1 0x80 PUSH1 0x40 MSTORE PUSH1 0x4 CALLDATASIZE LT ISZERO PUSH2 0x15 JUMPI JUMPDEST CALLDATASIZE PUSH2 0x31C JUMPI STOP JUMPDEST PUSH1 0x0 DUP1 CALLDATALOAD PUSH1 0xE0 SHR SWAP1 DUP2 PUSH4 0x3659CFE6 EQ PUSH2 0x58 JUMPI POP DUP1 PUSH4 0x4F1EF286 EQ PUSH2 0x53 JUMPI DUP1 PUSH4 0x5C60DA1B EQ PUSH2 0x4E JUMPI PUSH4 0xF851A440 SUB PUSH2 0xE JUMPI PUSH2 0x1F3 JUMP JUMPDEST PUSH2 0x1A4 JUMP JUMPDEST PUSH2 0x12A JUMP JUMPDEST CALLVALUE PUSH2 0xA6 JUMPI PUSH1 0x20 CALLDATASIZE PUSH1 0x3 NOT ADD SLT PUSH2 0xA6 JUMPI PUSH2 0x71 PUSH2 0xA9 JUMP JUMPDEST PUSH2 0x93 PUSH1 0x1 DUP1 PUSH1 0xA0 SHL SUB PUSH1 0x0 DUP1 MLOAD PUSH1 0x20 PUSH2 0x34C DUP4 CODECOPY DUP2 MLOAD SWAP2 MSTORE SLOAD AND CALLER EQ PUSH2 0x233 JUMP JUMPDEST PUSH1 0x0 DUP1 MLOAD PUSH1 0x20 PUSH2 0x36C DUP4 CODECOPY DUP2 MLOAD SWAP2 MSTORE SSTORE DUP1 RETURN JUMPDEST DUP1 REVERT JUMPDEST PUSH1 0x4 CALLDATALOAD PUSH1 0x1 PUSH1 0x1 PUSH1 0xA8 SHL SUB DUP2 AND DUP2 SUB PUSH2 0xC8 JUMPI PUSH1 0x1 PUSH1 0x1 PUSH1 0xA0 SHL SUB AND SWAP1 JUMP JUMPDEST PUSH1 0x0 DUP1 REVERT JUMPDEST PUSH4 0x4E487B71 PUSH1 0xE0 SHL PUSH1 0x0 MSTORE PUSH1 0x41 PUSH1 0x4 MSTORE PUSH1 0x24 PUSH1 0x0 REVERT JUMPDEST PUSH1 0x40 MLOAD SWAP2 SWAP1 PUSH1 0x1F ADD PUSH1 0x1F NOT AND DUP3 ADD PUSH8 0xFFFFFFFFFFFFFFFF DUP2 GT DUP4 DUP3 LT OR PUSH2 0x109 JUMPI PUSH1 0x40 MSTORE JUMP JUMPDEST PUSH2 0xCD JUMP JUMPDEST PUSH8 0xFFFFFFFFFFFFFFFF DUP2 GT PUSH2 0x109 JUMPI PUSH1 0x1F ADD PUSH1 0x1F NOT AND PUSH1 0x20 ADD SWAP1 JUMP JUMPDEST CALLVALUE PUSH2 0xC8 JUMPI PUSH1 0x40 CALLDATASIZE PUSH1 0x3 NOT ADD SLT PUSH2 0xC8 JUMPI PUSH2 0x143 PUSH2 0xA9 JUMP JUMPDEST PUSH1 0x24 CALLDATALOAD SWAP1 PUSH8 0xFFFFFFFFFFFFFFFF DUP3 GT PUSH2 0xC8 JUMPI CALLDATASIZE PUSH1 0x23 DUP4 ADD SLT ISZERO PUSH2 0xC8 JUMPI DUP2 PUSH1 0x4 ADD CALLDATALOAD SWAP1 PUSH2 0x178 PUSH2 0x173 DUP4 PUSH2 0x10E JUMP JUMPDEST PUSH2 0xE3 JUMP JUMPDEST SWAP2 DUP1 DUP4 MSTORE CALLDATASIZE PUSH1 0x24 DUP3 DUP7 ADD ADD GT PUSH2 0xC8 JUMPI PUSH1 0x20 DUP2 PUSH1 0x0 SWAP3 PUSH1 0x24 PUSH2 0x1A2 SWAP8 ADD DUP4 DUP8 ADD CALLDATACOPY DUP5 ADD ADD MSTORE PUSH2 0x26B JUMP JUMPDEST STOP JUMPDEST CALLVALUE PUSH2 0xC8 JUMPI PUSH1 0x0 CALLDATASIZE PUSH1 0x3 NOT ADD SLT PUSH2 0xC8 JUMPI PUSH1 0x20 PUSH1 0x1 DUP1 PUSH1 0xA0 SHL SUB PUSH2 0x1DA DUP2 PUSH1 0x0 DUP1 MLOAD PUSH1 0x20 PUSH2 0x34C DUP4 CODECOPY DUP2 MLOAD SWAP2 MSTORE SLOAD AND CALLER EQ PUSH2 0x233 JUMP JUMPDEST PUSH1 0x0 DUP1 MLOAD PUSH1 0x20 PUSH2 0x36C DUP4 CODECOPY DUP2 MLOAD SWAP2 MSTORE SLOAD PUSH1 0x40 MLOAD SWAP2 AND DUP2 MSTORE RETURN JUMPDEST CALLVALUE PUSH2 0xC8 JUMPI PUSH1 0x0 CALLDATASIZE PUSH1 0x3 NOT ADD SLT PUSH2 0xC8 JUMPI PUSH1 0x0 DUP1 MLOAD PUSH1 0x20 PUSH2 0x34C DUP4 CODECOPY DUP2 MLOAD SWAP2 MSTORE SLOAD PUSH1 0x20 SWAP1 PUSH1 0x1 PUSH1 0x1 PUSH1 0xA0 SHL SUB AND PUSH2 0x22B CALLER DUP3 EQ PUSH2 0x233 JUMP JUMPDEST PUSH1 0x40 MLOAD SWAP1 DUP2 MSTORE RETURN JUMPDEST ISZERO PUSH2 0x23A JUMPI JUMP JUMPDEST PUSH1 0x40 MLOAD PUSH3 0x461BCD PUSH1 0xE5 SHL DUP2 MSTORE PUSH1 0x20 PUSH1 0x4 DUP3 ADD MSTORE PUSH1 0x9 PUSH1 0x24 DUP3 ADD MSTORE PUSH9 0x2737BA1030B236B4B7 PUSH1 0xB9 SHL PUSH1 0x44 DUP3 ADD MSTORE PUSH1 0x64 SWAP1 REVERT JUMPDEST SWAP1 PUSH2 0x28E PUSH1 0x1 DUP1 PUSH1 0xA0 SHL SUB PUSH1 0x0 DUP1 MLOAD PUSH1 0x20 PUSH2 0x34C DUP4 CODECOPY DUP2 MLOAD SWAP2 MSTORE SLOAD AND CALLER EQ PUSH2 0x233 JUMP JUMPDEST DUP2 PUSH1 0x0 DUP1 MLOAD PUSH1 0x20 PUSH2 0x36C DUP4 CODECOPY DUP2 MLOAD SWAP2 MSTORE SSTORE DUP1 MLOAD DUP1 PUSH2 0x2AB JUMPI POP POP POP JUMP JUMPDEST PUSH1 0x0 SWAP3 PUSH1 0x20 DUP5 SWAP4 ADD SWAP1 GAS DELEGATECALL RETURNDATASIZE ISZERO PUSH2 0x317 JUMPI RETURNDATASIZE PUSH2 0x2C9 PUSH2 0x173 DUP3 PUSH2 0x10E JUMP JUMPDEST SWAP1 DUP2 MSTORE PUSH1 0x0 PUSH1 0x20 RETURNDATASIZE SWAP3 ADD RETURNDATACOPY JUMPDEST ISZERO PUSH2 0x2DC JUMPI JUMP JUMPDEST PUSH1 0x40 MLOAD PUSH3 0x461BCD PUSH1 0xE5 SHL DUP2 MSTORE PUSH1 0x20 PUSH1 0x4 DUP3 ADD MSTORE PUSH1 0x13 PUSH1 0x24 DUP3 ADD MSTORE PUSH19 0x155C19DC9859194818D85B1B0819985A5B1959 PUSH1 0x6A SHL PUSH1 0x44 DUP3 ADD MSTORE PUSH1 0x64 SWAP1 REVERT JUMPDEST PUSH2 0x2D5 JUMP JUMPDEST PUSH1 0x0 DUP1 MLOAD PUSH1 0x20 PUSH2 0x36C DUP4 CODECOPY DUP2 MLOAD SWAP2 MSTORE SLOAD PUSH1 0x0 DUP1 DUP1 SWAP3 CALLDATASIZE DUP3 DUP1 CALLDATACOPY DUP2 CALLDATASIZE SWAP2 GAS DELEGATECALL RETURNDATASIZE DUP3 DUP1 RETURNDATACOPY ISZERO PUSH2 0x347 JUMPI RETURNDATASIZE SWAP1 RETURN JUMPDEST RETURNDATASIZE SWAP1 REVERT INVALID 0xB5 BALANCE 0x27 PUSH9 0x4A568B3173AE13B9F8 0xA6 ADD PUSH15 0x243E63B6E8EE1178D6A717850B5D61 SUB CALLDATASIZE ADDMOD SWAP5 LOG1 EXTCODESIZE LOG1 LOG3 0x21 MOD PUSH8 0xC828492DB98DCA3E KECCAK256 PUSH23 0xCC3735A920A3CA505D382BBCA26474726F6E5822122003 0xA6 NATIVEDELEGATERESOURCE 0xC5 SMOD SWAP10 CALLDATACOPY 0xBA 0xF 0xF9 MSIZE PUSH0 TLOAD CALLTOKENVALUE 0xB4 CALLDATALOAD 0xF7 SUB 0xC4 0xAE DUP6 PUSH16 0xEFB1F31B642DE7BBFB6064736F6C6343 STOP ADDMOD XOR STOP CALLER "},"gasEstimates":{"creation":{"codeDepositCost":"192200","executionCost":"infinite","totalCost":"infinite"},"external":{"":"infinite","admin()":"infinite","implementation()":"infinite","upgradeTo(address)":"infinite","upgradeToAndCall(address,bytes)":"infinite"},"internal":{"_getAdmin()":"infinite","_getImplementation()":"infinite","_setAdmin(address)":"infinite","_setImplementation(address)":"infinite"}},"methodIdentifiers":{"admin()":"f851a440","implementation()":"5c60da1b","upgradeTo(address)":"3659cfe6","upgradeToAndCall(address,bytes)":"4f1ef286"}},"storageLayout":{"storage":[],"types":null},"userdoc":{"kind":"user","methods":{},"version":1}}}}