{"contracts/test/SimpleBox.sol":{"SimpleBoxV2":{"abi":[{"inputs":[],"name":"increment","outputs":[],"stateMutability":"nonpayable","type":"function"},{"inputs":[{"internalType":"address","name":"owner_","type":"address"}],"name":"initialize","outputs":[],"stateMutability":"nonpayable","type":"function"},{"inputs":[],"name":"owner","outputs":[{"internalType":"address","name":"","type":"address"}],"stateMutability":"view","type":"function"},{"inputs":[],"name":"retrieve","outputs":[{"internalType":"uint256","name":"","type":"uint256"}],"stateMutability":"view","type":"function"},{"inputs":[{"internalType":"uint256","name":"value","type":"uint256"}],"name":"store","outputs":[],"stateMutability":"nonpayable","type":"function"},{"inputs":[],"name":"version","outputs":[{"internalType":"string","name":"","type":"string"}],"stateMutability":"pure","type":"function"}],"devdoc":{"kind":"dev","methods":{},"title":"SimpleBoxV2 - Upgraded version","version":1},"evm":{"bytecode":{"linkReferences":{},"object":"6080806040523461001657610343908161001c8239f35b600080fdfe608060408181526004908136101561001657600080fd5b600092833560e01c9081632e64cec1146102f35750806354fd4d50146102575780636057361d1461023e5780638da5cb5b14610211578063c4d66de8146101805763d09de08a1461006657600080fd5b3461017c578260031936011261017c578051632e64cec160e01b8152916020838281305afa9283156100ff578493610120575b506001830180931161010d57303b1561010957815192636057361d60e01b845281840152838360248183305af180156100ff576100d4578380f35b67ffffffffffffffff83116100ec5750523880808380f35b634e487b7160e01b845260419052602483fd5b82513d86823e3d90fd5b8380fd5b634e487b7160e01b845260119052602483fd5b90925060203d602011610175575b601f8101601f1916820167ffffffffffffffff81118382101761016257602091839185528101031261010957519138610099565b634e487b7160e01b865260418552602486fd5b503d61012e565b8280fd5b503461017c57602036600319011261017c578135916001600160a81b0383168303610109576001549160ff8360a01c166101d85750506001600160a81b0319166001600160a01b0390911617600160a01b1760015580f35b906020606492519162461bcd60e51b83528201526013602482015272105b1c9958591e481a5b9a5d1a585b1a5e9959606a1b6044820152fd5b83823461023a578160031936011261023a5760015490516001600160a01b039091168152602090f35b5080fd5b50503461023a57602036600319011261023a5735815580f35b50903461017c578260031936011261017c578151908282019082821067ffffffffffffffff8311176102e05750825260028152602090612b1960f11b6020820152825193849260208452825192836020860152825b8481106102ca57505050828201840152601f01601f19168101030190f35b81810183015188820188015287955082016102ac565b634e487b7160e01b855260419052602484fd5b84903461023a578160031936011261023a57602091548152f3fea26474726f6e582212205cc3d6617284281bfc0931e62b9144e0073c2fef741c3172ebef7fe47f5606cb64736f6c63430008180033","opcodes":"PUSH1 0x80 DUP1 PUSH1 0x40 MSTORE CALLVALUE PUSH2 0x16 JUMPI PUSH2 0x343 SWAP1 DUP2 PUSH2 0x1C DUP3 CODECOPY RETURN JUMPDEST PUSH1 0x0 DUP1 REVERT INVALID PUSH1 0x80 PUSH1 0x40 DUP2 DUP2 MSTORE PUSH1 0x4 SWAP1 DUP2 CALLDATASIZE LT ISZERO PUSH2 0x16 JUMPI PUSH1 0x0 DUP1 REVERT JUMPDEST PUSH1 0x0 SWAP3 DUP4 CALLDATALOAD PUSH1 0xE0 SHR SWAP1 DUP2 PUSH4 0x2E64CEC1 EQ PUSH2 0x2F3 JUMPI POP DUP1 PUSH4 0x54FD4D50 EQ PUSH2 0x257 JUMPI DUP1 PUSH4 0x6057361D EQ PUSH2 0x23E JUMPI DUP1 PUSH4 0x8DA5CB5B EQ PUSH2 0x211 JUMPI DUP1 PUSH4 0xC4D66DE8 EQ PUSH2 0x180 JUMPI PUSH4 0xD09DE08A EQ PUSH2 0x66 JUMPI PUSH1 0x0 DUP1 REVERT JUMPDEST CALLVALUE PUSH2 0x17C JUMPI DUP3 PUSH1 0x3 NOT CALLDATASIZE ADD SLT PUSH2 0x17C JUMPI DUP1 MLOAD PUSH4 0x2E64CEC1 PUSH1 0xE0 SHL DUP2 MSTORE SWAP2 PUSH1 0x20 DUP4 DUP3 DUP2 ADDRESS GAS STATICCALL SWAP3 DUP4 ISZERO PUSH2 0xFF JUMPI DUP5 SWAP4 PUSH2 0x120 JUMPI JUMPDEST POP PUSH1 0x1 DUP4 ADD DUP1 SWAP4 GT PUSH2 0x10D JUMPI ADDRESS EXTCODESIZE ISZERO PUSH2 0x109 JUMPI DUP2 MLOAD SWAP3 PUSH4 0x6057361D PUSH1 0xE0 SHL DUP5 MSTORE DUP2 DUP5 ADD MSTORE DUP4 DUP4 PUSH1 0x24 DUP2 DUP4 ADDRESS GAS CALL DUP1 ISZERO PUSH2 0xFF JUMPI PUSH2 0xD4 JUMPI DUP4 DUP1 RETURN JUMPDEST PUSH8 0xFFFFFFFFFFFFFFFF DUP4 GT PUSH2 0xEC JUMPI POP MSTORE CODESIZE DUP1 DUP1 DUP4 DUP1 RETURN JUMPDEST PUSH4 0x4E487B71 PUSH1 0xE0 SHL DUP5 MSTORE PUSH1 0x41 SWAP1 MSTORE PUSH1 0x24 DUP4 REVERT JUMPDEST DUP3 MLOAD RETURNDATASIZE DUP7 DUP3 RETURNDATACOPY RETURNDATASIZE SWAP1 REVERT JUMPDEST DUP4 DUP1 REVERT JUMPDEST PUSH4 0x4E487B71 PUSH1 0xE0 SHL DUP5 MSTORE PUSH1 0x11 SWAP1 MSTORE PUSH1 0x24 DUP4 REVERT JUMPDEST SWAP1 SWAP3 POP PUSH1 0x20 RETURNDATASIZE PUSH1 0x20 GT PUSH2 0x175 JUMPI JUMPDEST PUSH1 0x1F DUP2 ADD PUSH1 0x1F NOT AND DUP3 ADD PUSH8 0xFFFFFFFFFFFFFFFF DUP2 GT DUP4 DUP3 LT OR PUSH2 0x162 JUMPI PUSH1 0x20 SWAP2 DUP4 SWAP2 DUP6 MSTORE DUP2 ADD SUB SLT PUSH2 0x109 JUMPI MLOAD SWAP2 CODESIZE PUSH2 0x99 JUMP JUMPDEST PUSH4 0x4E487B71 PUSH1 0xE0 SHL DUP7 MSTORE PUSH1 0x41 DUP6 MSTORE PUSH1 0x24 DUP7 REVERT JUMPDEST POP RETURNDATASIZE PUSH2 0x12E JUMP JUMPDEST DUP3 DUP1 REVERT JUMPDEST POP CALLVALUE PUSH2 0x17C JUMPI PUSH1 0x20 CALLDATASIZE PUSH1 0x3 NOT ADD SLT PUSH2 0x17C JUMPI DUP2 CALLDATALOAD SWAP2 PUSH1 0x1 PUSH1 0x1 PUSH1 0xA8 SHL SUB DUP4 AND DUP4 SUB PUSH2 0x109 JUMPI PUSH1 0x1 SLOAD SWAP2 PUSH1 0xFF DUP4 PUSH1 0xA0 SHR AND PUSH2 0x1D8 JUMPI POP POP PUSH1 0x1 PUSH1 0x1 PUSH1 0xA8 SHL SUB NOT AND PUSH1 0x1 PUSH1 0x1 PUSH1 0xA0 SHL SUB SWAP1 SWAP2 AND OR PUSH1 0x1 PUSH1 0xA0 SHL OR PUSH1 0x1 SSTORE DUP1 RETURN JUMPDEST SWAP1 PUSH1 0x20 PUSH1 0x64 SWAP3 MLOAD SWAP2 PUSH3 0x461BCD PUSH1 0xE5 SHL DUP4 MSTORE DUP3 ADD MSTORE PUSH1 0x13 PUSH1 0x24 DUP3 ADD MSTORE PUSH19 0x105B1C9958591E481A5B9A5D1A585B1A5E9959 PUSH1 0x6A SHL PUSH1 0x44 DUP3 ADD MSTORE REVERT JUMPDEST DUP4 DUP3 CALLVALUE PUSH2 0x23A JUMPI DUP2 PUSH1 0x3 NOT CALLDATASIZE ADD SLT PUSH2 0x23A JUMPI PUSH1 0x1 SLOAD SWAP1 MLOAD PUSH1 0x1 PUSH1 0x1 PUSH1 0xA0 SHL SUB SWAP1 SWAP2 AND DUP2 MSTORE PUSH1 0x20 SWAP1 RETURN JUMPDEST POP DUP1 REVERT JUMPDEST POP POP CALLVALUE PUSH2 0x23A JUMPI PUSH1 0x20 CALLDATASIZE PUSH1 0x3 NOT ADD SLT PUSH2 0x23A JUMPI CALLDATALOAD DUP2 SSTORE DUP1 RETURN JUMPDEST POP SWAP1 CALLVALUE PUSH2 0x17C JUMPI DUP3 PUSH1 0x3 NOT CALLDATASIZE ADD SLT PUSH2 0x17C JUMPI DUP2 MLOAD SWAP1 DUP3 DUP3 ADD SWAP1 DUP3 DUP3 LT PUSH8 0xFFFFFFFFFFFFFFFF DUP4 GT OR PUSH2 0x2E0 JUMPI POP DUP3 MSTORE PUSH1 0x2 DUP2 MSTORE PUSH1 0x20 SWAP1 PUSH2 0x2B19 PUSH1 0xF1 SHL PUSH1 0x20 DUP3 ADD MSTORE DUP3 MLOAD SWAP4 DUP5 SWAP3 PUSH1 0x20 DUP5 MSTORE DUP3 MLOAD SWAP3 DUP4 PUSH1 0x20 DUP7 ADD MSTORE DUP3 JUMPDEST DUP5 DUP2 LT PUSH2 0x2CA JUMPI POP POP POP DUP3 DUP3 ADD DUP5 ADD MSTORE PUSH1 0x1F ADD PUSH1 0x1F NOT AND DUP2 ADD SUB ADD SWAP1 RETURN JUMPDEST DUP2 DUP2 ADD DUP4 ADD MLOAD DUP9 DUP3 ADD DUP9 ADD MSTORE DUP8 SWAP6 POP DUP3 ADD PUSH2 0x2AC JUMP JUMPDEST PUSH4 0x4E487B71 PUSH1 0xE0 SHL DUP6 MSTORE PUSH1 0x41 SWAP1 MSTORE PUSH1 0x24 DUP5 REVERT JUMPDEST DUP5 SWAP1 CALLVALUE PUSH2 0x23A JUMPI DUP2 PUSH1 0x3 NOT CALLDATASIZE ADD SLT PUSH2 0x23A JUMPI PUSH1 0x20 SWAP2 SLOAD DUP2 MSTORE RETURN INVALID LOG2 PUSH5 0x74726F6E58 0x22 SLT KECCAK256 TLOAD 0xC3 NATIVEUNFREEZE PUSH2 0x7284 0x28 SHL 0xFC MULMOD BALANCE 0xE6 0x2B SWAP2 PREVRANDAO 0xE0 SMOD EXTCODECOPY 0x2F 0xEF PUSH21 0x1C3172EBEF7FE47F5606CB64736F6C634300081800 CALLER "},"gasEstimates":{"creation":{"codeDepositCost":"167000","executionCost":"220","totalCost":"167220"},"external":{"increment()":"infinite","initialize(address)":"24589","owner()":"2369","retrieve()":"2268","store(uint256)":"22303","version()":"infinite"}},"methodIdentifiers":{"increment()":"d09de08a","initialize(address)":"c4d66de8","owner()":"8da5cb5b","retrieve()":"2e64cec1","store(uint256)":"6057361d","version()":"54fd4d50"}},"storageLayout":{"storage":[{"astId":1708,"contract":"contracts/test/SimpleBox.sol:SimpleBoxV2","label":"_value","offset":0,"slot":"0","type":"t_uint256"},{"astId":1710,"contract":"contracts/test/SimpleBox.sol:SimpleBoxV2","label":"_owner","offset":0,"slot":"1","type":"t_address"},{"astId":1712,"contract":"contracts/test/SimpleBox.sol:SimpleBoxV2","label":"_initialized","offset":20,"slot":"1","type":"t_bool"}],"types":{"t_address":{"encoding":"inplace","label":"address","numberOfBytes":"20"},"t_bool":{"encoding":"inplace","label":"bool","numberOfBytes":"1"},"t_uint256":{"encoding":"inplace","label":"uint256","numberOfBytes":"32"}}},"userdoc":{"kind":"user","methods":{},"version":1}}}}