{"contracts/test/SafeERC20Test.sol":{"SafeERC20Test":{"abi":[{"inputs":[{"internalType":"address","name":"token","type":"address"}],"name":"SafeERC20FailedOperation","type":"error"},{"anonymous":false,"inputs":[{"indexed":false,"internalType":"string","name":"method","type":"string"},{"indexed":false,"internalType":"bool","name":"success","type":"bool"},{"indexed":false,"internalType":"bytes","name":"returnData","type":"bytes"}],"name":"TestResult","type":"event"},{"anonymous":false,"inputs":[{"indexed":false,"internalType":"string","name":"method","type":"string"},{"indexed":false,"internalType":"address","name":"token","type":"address"},{"indexed":false,"internalType":"address","name":"to","type":"address"},{"indexed":false,"internalType":"uint256","name":"amount","type":"uint256"}],"name":"TransferAttempted","type":"event"},{"inputs":[{"internalType":"address","name":"token","type":"address"},{"internalType":"address","name":"to","type":"address"},{"internalType":"uint256","name":"amount","type":"uint256"}],"name":"analyzeTransferReturn","outputs":[{"internalType":"bool","name":"callSuccess","type":"bool"},{"internalType":"uint256","name":"returnSize","type":"uint256"},{"internalType":"uint256","name":"returnValue","type":"uint256"},{"internalType":"bytes","name":"fullReturnData","type":"bytes"}],"stateMutability":"nonpayable","type":"function"},{"inputs":[{"internalType":"address","name":"token","type":"address"},{"internalType":"address","name":"spender","type":"address"},{"internalType":"uint256","name":"amount","type":"uint256"}],"name":"approve","outputs":[],"stateMutability":"nonpayable","type":"function"},{"inputs":[{"internalType":"address","name":"token","type":"address"},{"internalType":"address","name":"to","type":"address"},{"internalType":"uint256","name":"amount","type":"uint256"}],"name":"customSafeTransfer","outputs":[{"internalType":"bool","name":"","type":"bool"}],"stateMutability":"nonpayable","type":"function"},{"inputs":[{"internalType":"address","name":"token","type":"address"},{"internalType":"address","name":"owner","type":"address"},{"internalType":"address","name":"spender","type":"address"}],"name":"getAllowance","outputs":[{"internalType":"uint256","name":"","type":"uint256"}],"stateMutability":"view","type":"function"},{"inputs":[{"internalType":"address","name":"token","type":"address"},{"internalType":"address","name":"account","type":"address"}],"name":"getBalance","outputs":[{"internalType":"uint256","name":"","type":"uint256"}],"stateMutability":"view","type":"function"},{"inputs":[{"internalType":"address","name":"token","type":"address"},{"internalType":"address","name":"to","type":"address"},{"internalType":"uint256","name":"amount","type":"uint256"}],"name":"permissiveTransfer","outputs":[{"internalType":"bool","name":"","type":"bool"}],"stateMutability":"nonpayable","type":"function"},{"inputs":[{"internalType":"address","name":"token","type":"address"},{"internalType":"address","name":"to","type":"address"},{"internalType":"uint256","name":"amount","type":"uint256"}],"name":"testRawTransfer","outputs":[{"internalType":"bool","name":"success","type":"bool"},{"internalType":"bytes","name":"returnData","type":"bytes"}],"stateMutability":"nonpayable","type":"function"},{"inputs":[{"internalType":"address","name":"token","type":"address"},{"internalType":"address","name":"from","type":"address"},{"internalType":"address","name":"to","type":"address"},{"internalType":"uint256","name":"amount","type":"uint256"}],"name":"testRawTransferFrom","outputs":[{"internalType":"bool","name":"success","type":"bool"},{"internalType":"bytes","name":"returnData","type":"bytes"}],"stateMutability":"nonpayable","type":"function"},{"inputs":[{"internalType":"address","name":"token","type":"address"},{"internalType":"address","name":"to","type":"address"},{"internalType":"uint256","name":"amount","type":"uint256"}],"name":"testSafeTransfer","outputs":[],"stateMutability":"nonpayable","type":"function"},{"inputs":[{"internalType":"address","name":"token","type":"address"},{"internalType":"address","name":"from","type":"address"},{"internalType":"address","name":"to","type":"address"},{"internalType":"uint256","name":"amount","type":"uint256"}],"name":"testSafeTransferFrom","outputs":[],"stateMutability":"nonpayable","type":"function"},{"stateMutability":"payable","type":"receive"}],"devdoc":{"details":"Test contract to diagnose SafeERC20 issues with non-standard tokens (like Tron USDT)","errors":{"SafeERC20FailedOperation(address)":[{"details":"An operation with an ERC-20 token failed."}]},"kind":"dev","methods":{"analyzeTransferReturn(address,address,uint256)":{"details":"Test 5: Check return data size and value (same logic as SafeERC20)"},"approve(address,address,uint256)":{"details":"Approve tokens (needed before transferFrom tests)"},"customSafeTransfer(address,address,uint256)":{"details":"Test 6: Custom safe transfer that handles non-standard tokens More permissive: only requires call success, ignores return data"},"getAllowance(address,address,address)":{"details":"Get token allowance"},"getBalance(address,address)":{"details":"Get token balance"},"permissiveTransfer(address,address,uint256)":{"details":"Test 7: Most permissive transfer - only checks call success WARNING: Less safe, but works with all tokens"},"testRawTransfer(address,address,uint256)":{"details":"Test 3: Direct low-level call to check return data Returns raw return data for analysis"},"testRawTransferFrom(address,address,address,uint256)":{"details":"Test 4: Direct low-level call for transferFrom"},"testSafeTransfer(address,address,uint256)":{"details":"Test 1: Use SafeERC20.safeTransfer (OpenZeppelin standard) This may fail with non-standard tokens"},"testSafeTransferFrom(address,address,address,uint256)":{"details":"Test 2: Use SafeERC20.safeTransferFrom (OpenZeppelin standard) This may fail with non-standard tokens"}},"title":"SafeERC20Test","version":1},"evm":{"bytecode":{"linkReferences":{},"object":"6080806040523461001657610bff908161001c8239f35b600080fdfe6080604052600436101561001b575b361561001957600080fd5b005b60003560e01c8063112b63c8146100bb5780631f9ec725146100b657806333fd262f146100b157806375231e61146100ac578063c215d3e9146100a7578063cfff8000146100a2578063d4fac45d1461009d578063e1f21c6714610098578063e7092b41146100935763f705d9610361000e57610856565b6107b9565b610745565b6106ae565b610640565b610566565b610474565b6103ae565b6102df565b610163565b6004356001600160a81b03811681036100df576001600160a01b031690565b600080fd5b6024356001600160a81b03811681036100df576001600160a01b031690565b6044356001600160a81b03811681036100df576001600160a01b031690565b60609060031901126100df576001600160a81b039060043582811681036100df576001600160a01b039081169260243590811681036100df57169060443590565b346100df5761023b6000806101e66101f48261017e36610122565b600080516020610baa83398151915260409693969592955160808152806101a7608082016108e8565b6001600160a01b038a8116602084015289166040830152606082018590520390a1604051928391602083019663a9059cbb60e01b88526024840161090d565b03601f19810183528261093e565b51925af1610200610981565b8161023f575b610226600080516020610b8a8339815191529160405191829185836109c9565b0390a160405190151581529081906020820190565b0390f35b9050600080516020610b8a83398151915261022682518015908115610269575b5092915050610206565b61027d9150602090850101602085016109b1565b3861025f565b919082519283825260005b8481106102af575050826000602080949584010152601f8019910116010190565b60208183018101518483018201520161028e565b6040906102dc9392151581528160208201520190610283565b90565b346100df576000806101e6610320826102f736610122565b600080516020610baa83398151915260409693969592955160808152806101a7608082016109f3565b51925af161032c610981565b90600080516020610b8a8339815191526040518061034b858583610a16565b0390a161023b604051928392836102c3565b60809060031901126100df57600435906001600160a81b039081831683036100df576001600160a01b039283169260243583811681036100df5781169260443590811681036100df57169060643590565b346100df57600080610449816103c33661035d565b9193929490600080516020610baa83398151915260405160808152806103eb60808201610a2b565b6001600160a01b038a8116602084015285166040830152606082018790520390a16040516323b872dd60e01b602082019081526001600160a01b039687166024830152959091166044820152606481019290925281608481016101e6565b51925af1610455610981565b90600080516020610b8a8339815191526040518061034b858583610a52565b346100df5761001961053c61052e61048b3661035d565b600080516020610baa83398151915260c0604097959693975160808152601a60808201527f5361666545524332302e736166655472616e7366657246726f6d00000000000060a082015260018060a01b038098169788602083015289166040820152836060820152a16040516323b872dd60e01b60208201526001600160a01b039384166024820152959092166044860152606485019190915283906084820190565b03601f19810184528361093e565b610b2d565b90926080926102dc959415158352602083015260408201528160608201520190610283565b346100df5761059d602060008061057c36610122565b604093919293519687918783019463a9059cbb60e01b86526024840161090d565b03956105b1601f199788810183528261093e565b51925af161023b3d92600051600080516020610b8a8339815191526106316105d887610965565b936105e6604051958661093e565b8785526105f288610965565b8160208701910136823760003d913e610624604051918261061888888d60208501610a67565b0390810183528261093e565b6040519182918883610a83565b0390a160405194859485610541565b346100df5761023b6000806101e66106848261065b36610122565b600080516020610baa83398151915260409693969592955160808152806101a760808201610ac2565b51925af1610690610981565b50600080516020610b8a833981519152604051806102268482610ae7565b346100df5760403660031901126100df576106c76100c0565b60206106d16100e4565b6040516370a0823160e01b81526001600160a01b0391821660048201529283916024918391165afa801561074057602091600091610713575b50604051908152f35b6107339150823d8411610739575b61072b818361093e565b810190610b12565b3861070a565b503d610721565b610b21565b346100df57610778602061075836610122565b9190600060405180968195829463095ea7b360e01b84526004840161090d565b03926001600160a01b03165af180156107405761079157005b6100199060203d6020116107b2575b6107aa818361093e565b8101906109b1565b503d6107a0565b346100df5760603660031901126100df576107d26100c0565b60206107dc6100e4565b9160446107e7610103565b604051636eb1769f60e11b81526001600160a01b03958616600482015290851660248201529384928391165afa80156107405761023b91600091610837575b506040519081529081906020820190565b610850915060203d6020116107395761072b818361093e565b38610826565b346100df5761001961053c61086a36610122565b9290600080516020610baa83398151915260c060405160808152601660808201527529b0b332a2a92199181739b0b332aa3930b739b332b960511b60a082015260018060a01b038096169586602083015284166040820152866060820152a161052e60405194859263a9059cbb60e01b60208501526024840161090d565b601281527131bab9ba37b6a9b0b332aa3930b739b332b960711b602082015260400190565b6001600160a01b039091168152602081019190915260400190565b634e487b7160e01b600052604160045260246000fd5b90601f8019910116810190811067ffffffffffffffff82111761096057604052565b610928565b67ffffffffffffffff811161096057601f01601f191660200190565b3d156109ac573d9061099282610965565b916109a0604051938461093e565b82523d6000602084013e565b606090565b908160209103126100df575180151581036100df5790565b916102dc92606081526109de606082016108e8565b92151560208201526040818403910152610283565b601081526f3930bba1b0b636173a3930b739b332b960811b602082015260400190565b916102dc92606081526109de606082016109f3565b601481527372617743616c6c2e7472616e7366657246726f6d60601b602082015260400190565b916102dc92606081526109de60608201610a2b565b6102dc9392606092825260208201528160408201520190610283565b60a0906102dc939260608252600f60608301526e30b730b63cbd32aa3930b739b332b960891b6080830152151560208201528160408201520190610283565b60128152713832b936b4b9b9b4bb32aa3930b739b332b960711b602082015260400190565b9060209160608152610afb60608201610ac2565b911515838201526040818303910152600081520190565b908160209103126100df575190565b6040513d6000823e3d90fd5b906000602091828151910182855af115610b21576000513d610b8057506001600160a01b0381163b155b610b5e5750565b604051635274afe760e01b81526001600160a01b039091166004820152602490fd5b60011415610b5756fe44031838cfc13c6c7d639a6fa62e23c577296221cdcb5276e674a5bd35a8072672fd8869f602994b3c651c1f8735ed7a9e8c0dec0ffa66f73f34cb4c8394b6e6a26474726f6e582212200b6bba52a7eba67f5c386bc25932688897f3c6792eb69a1c8423924026e4477f64736f6c63430008180033","opcodes":"PUSH1 0x80 DUP1 PUSH1 0x40 MSTORE CALLVALUE PUSH2 0x16 JUMPI PUSH2 0xBFF SWAP1 DUP2 PUSH2 0x1C DUP3 CODECOPY RETURN JUMPDEST PUSH1 0x0 DUP1 REVERT INVALID PUSH1 0x80 PUSH1 0x40 MSTORE PUSH1 0x4 CALLDATASIZE LT ISZERO PUSH2 0x1B JUMPI JUMPDEST CALLDATASIZE ISZERO PUSH2 0x19 JUMPI PUSH1 0x0 DUP1 REVERT JUMPDEST STOP JUMPDEST PUSH1 0x0 CALLDATALOAD PUSH1 0xE0 SHR DUP1 PUSH4 0x112B63C8 EQ PUSH2 0xBB JUMPI DUP1 PUSH4 0x1F9EC725 EQ PUSH2 0xB6 JUMPI DUP1 PUSH4 0x33FD262F EQ PUSH2 0xB1 JUMPI DUP1 PUSH4 0x75231E61 EQ PUSH2 0xAC JUMPI DUP1 PUSH4 0xC215D3E9 EQ PUSH2 0xA7 JUMPI DUP1 PUSH4 0xCFFF8000 EQ PUSH2 0xA2 JUMPI DUP1 PUSH4 0xD4FAC45D EQ PUSH2 0x9D JUMPI DUP1 PUSH4 0xE1F21C67 EQ PUSH2 0x98 JUMPI DUP1 PUSH4 0xE7092B41 EQ PUSH2 0x93 JUMPI PUSH4 0xF705D961 SUB PUSH2 0xE JUMPI PUSH2 0x856 JUMP JUMPDEST PUSH2 0x7B9 JUMP JUMPDEST PUSH2 0x745 JUMP JUMPDEST PUSH2 0x6AE JUMP JUMPDEST PUSH2 0x640 JUMP JUMPDEST PUSH2 0x566 JUMP JUMPDEST PUSH2 0x474 JUMP JUMPDEST PUSH2 0x3AE JUMP JUMPDEST PUSH2 0x2DF JUMP JUMPDEST PUSH2 0x163 JUMP JUMPDEST PUSH1 0x4 CALLDATALOAD PUSH1 0x1 PUSH1 0x1 PUSH1 0xA8 SHL SUB DUP2 AND DUP2 SUB PUSH2 0xDF JUMPI PUSH1 0x1 PUSH1 0x1 PUSH1 0xA0 SHL SUB AND SWAP1 JUMP JUMPDEST PUSH1 0x0 DUP1 REVERT JUMPDEST PUSH1 0x24 CALLDATALOAD PUSH1 0x1 PUSH1 0x1 PUSH1 0xA8 SHL SUB DUP2 AND DUP2 SUB PUSH2 0xDF JUMPI PUSH1 0x1 PUSH1 0x1 PUSH1 0xA0 SHL SUB AND SWAP1 JUMP JUMPDEST PUSH1 0x44 CALLDATALOAD PUSH1 0x1 PUSH1 0x1 PUSH1 0xA8 SHL SUB DUP2 AND DUP2 SUB PUSH2 0xDF JUMPI PUSH1 0x1 PUSH1 0x1 PUSH1 0xA0 SHL SUB AND SWAP1 JUMP JUMPDEST PUSH1 0x60 SWAP1 PUSH1 0x3 NOT ADD SLT PUSH2 0xDF JUMPI PUSH1 0x1 PUSH1 0x1 PUSH1 0xA8 SHL SUB SWAP1 PUSH1 0x4 CALLDATALOAD DUP3 DUP2 AND DUP2 SUB PUSH2 0xDF JUMPI PUSH1 0x1 PUSH1 0x1 PUSH1 0xA0 SHL SUB SWAP1 DUP2 AND SWAP3 PUSH1 0x24 CALLDATALOAD SWAP1 DUP2 AND DUP2 SUB PUSH2 0xDF JUMPI AND SWAP1 PUSH1 0x44 CALLDATALOAD SWAP1 JUMP JUMPDEST CALLVALUE PUSH2 0xDF JUMPI PUSH2 0x23B PUSH1 0x0 DUP1 PUSH2 0x1E6 PUSH2 0x1F4 DUP3 PUSH2 0x17E CALLDATASIZE PUSH2 0x122 JUMP JUMPDEST PUSH1 0x0 DUP1 MLOAD PUSH1 0x20 PUSH2 0xBAA DUP4 CODECOPY DUP2 MLOAD SWAP2 MSTORE PUSH1 0x40 SWAP7 SWAP4 SWAP7 SWAP6 SWAP3 SWAP6 MLOAD PUSH1 0x80 DUP2 MSTORE DUP1 PUSH2 0x1A7 PUSH1 0x80 DUP3 ADD PUSH2 0x8E8 JUMP JUMPDEST PUSH1 0x1 PUSH1 0x1 PUSH1 0xA0 SHL SUB DUP11 DUP2 AND PUSH1 0x20 DUP5 ADD MSTORE DUP10 AND PUSH1 0x40 DUP4 ADD MSTORE PUSH1 0x60 DUP3 ADD DUP6 SWAP1 MSTORE SUB SWAP1 LOG1 PUSH1 0x40 MLOAD SWAP3 DUP4 SWAP2 PUSH1 0x20 DUP4 ADD SWAP7 PUSH4 0xA9059CBB PUSH1 0xE0 SHL DUP9 MSTORE PUSH1 0x24 DUP5 ADD PUSH2 0x90D JUMP JUMPDEST SUB PUSH1 0x1F NOT DUP2 ADD DUP4 MSTORE DUP3 PUSH2 0x93E JUMP JUMPDEST MLOAD SWAP3 GAS CALL PUSH2 0x200 PUSH2 0x981 JUMP JUMPDEST DUP2 PUSH2 0x23F JUMPI JUMPDEST PUSH2 0x226 PUSH1 0x0 DUP1 MLOAD PUSH1 0x20 PUSH2 0xB8A DUP4 CODECOPY DUP2 MLOAD SWAP2 MSTORE SWAP2 PUSH1 0x40 MLOAD SWAP2 DUP3 SWAP2 DUP6 DUP4 PUSH2 0x9C9 JUMP JUMPDEST SUB SWAP1 LOG1 PUSH1 0x40 MLOAD SWAP1 ISZERO ISZERO DUP2 MSTORE SWAP1 DUP2 SWAP1 PUSH1 0x20 DUP3 ADD SWAP1 JUMP JUMPDEST SUB SWAP1 RETURN JUMPDEST SWAP1 POP PUSH1 0x0 DUP1 MLOAD PUSH1 0x20 PUSH2 0xB8A DUP4 CODECOPY DUP2 MLOAD SWAP2 MSTORE PUSH2 0x226 DUP3 MLOAD DUP1 ISZERO SWAP1 DUP2 ISZERO PUSH2 0x269 JUMPI JUMPDEST POP SWAP3 SWAP2 POP POP PUSH2 0x206 JUMP JUMPDEST PUSH2 0x27D SWAP2 POP PUSH1 0x20 SWAP1 DUP6 ADD ADD PUSH1 0x20 DUP6 ADD PUSH2 0x9B1 JUMP JUMPDEST CODESIZE PUSH2 0x25F JUMP JUMPDEST SWAP2 SWAP1 DUP3 MLOAD SWAP3 DUP4 DUP3 MSTORE PUSH1 0x0 JUMPDEST DUP5 DUP2 LT PUSH2 0x2AF JUMPI POP POP DUP3 PUSH1 0x0 PUSH1 0x20 DUP1 SWAP5 SWAP6 DUP5 ADD ADD MSTORE PUSH1 0x1F DUP1 NOT SWAP2 ADD AND ADD ADD SWAP1 JUMP JUMPDEST PUSH1 0x20 DUP2 DUP4 ADD DUP2 ADD MLOAD DUP5 DUP4 ADD DUP3 ADD MSTORE ADD PUSH2 0x28E JUMP JUMPDEST PUSH1 0x40 SWAP1 PUSH2 0x2DC SWAP4 SWAP3 ISZERO ISZERO DUP2 MSTORE DUP2 PUSH1 0x20 DUP3 ADD MSTORE ADD SWAP1 PUSH2 0x283 JUMP JUMPDEST SWAP1 JUMP JUMPDEST CALLVALUE PUSH2 0xDF JUMPI PUSH1 0x0 DUP1 PUSH2 0x1E6 PUSH2 0x320 DUP3 PUSH2 0x2F7 CALLDATASIZE PUSH2 0x122 JUMP JUMPDEST PUSH1 0x0 DUP1 MLOAD PUSH1 0x20 PUSH2 0xBAA DUP4 CODECOPY DUP2 MLOAD SWAP2 MSTORE PUSH1 0x40 SWAP7 SWAP4 SWAP7 SWAP6 SWAP3 SWAP6 MLOAD PUSH1 0x80 DUP2 MSTORE DUP1 PUSH2 0x1A7 PUSH1 0x80 DUP3 ADD PUSH2 0x9F3 JUMP JUMPDEST MLOAD SWAP3 GAS CALL PUSH2 0x32C PUSH2 0x981 JUMP JUMPDEST SWAP1 PUSH1 0x0 DUP1 MLOAD PUSH1 0x20 PUSH2 0xB8A DUP4 CODECOPY DUP2 MLOAD SWAP2 MSTORE PUSH1 0x40 MLOAD DUP1 PUSH2 0x34B DUP6 DUP6 DUP4 PUSH2 0xA16 JUMP JUMPDEST SUB SWAP1 LOG1 PUSH2 0x23B PUSH1 0x40 MLOAD SWAP3 DUP4 SWAP3 DUP4 PUSH2 0x2C3 JUMP JUMPDEST PUSH1 0x80 SWAP1 PUSH1 0x3 NOT ADD SLT PUSH2 0xDF JUMPI PUSH1 0x4 CALLDATALOAD SWAP1 PUSH1 0x1 PUSH1 0x1 PUSH1 0xA8 SHL SUB SWAP1 DUP2 DUP4 AND DUP4 SUB PUSH2 0xDF JUMPI PUSH1 0x1 PUSH1 0x1 PUSH1 0xA0 SHL SUB SWAP3 DUP4 AND SWAP3 PUSH1 0x24 CALLDATALOAD DUP4 DUP2 AND DUP2 SUB PUSH2 0xDF JUMPI DUP2 AND SWAP3 PUSH1 0x44 CALLDATALOAD SWAP1 DUP2 AND DUP2 SUB PUSH2 0xDF JUMPI AND SWAP1 PUSH1 0x64 CALLDATALOAD SWAP1 JUMP JUMPDEST CALLVALUE PUSH2 0xDF JUMPI PUSH1 0x0 DUP1 PUSH2 0x449 DUP2 PUSH2 0x3C3 CALLDATASIZE PUSH2 0x35D JUMP JUMPDEST SWAP2 SWAP4 SWAP3 SWAP5 SWAP1 PUSH1 0x0 DUP1 MLOAD PUSH1 0x20 PUSH2 0xBAA DUP4 CODECOPY DUP2 MLOAD SWAP2 MSTORE PUSH1 0x40 MLOAD PUSH1 0x80 DUP2 MSTORE DUP1 PUSH2 0x3EB PUSH1 0x80 DUP3 ADD PUSH2 0xA2B JUMP JUMPDEST PUSH1 0x1 PUSH1 0x1 PUSH1 0xA0 SHL SUB DUP11 DUP2 AND PUSH1 0x20 DUP5 ADD MSTORE DUP6 AND PUSH1 0x40 DUP4 ADD MSTORE PUSH1 0x60 DUP3 ADD DUP8 SWAP1 MSTORE SUB SWAP1 LOG1 PUSH1 0x40 MLOAD PUSH4 0x23B872DD PUSH1 0xE0 SHL PUSH1 0x20 DUP3 ADD SWAP1 DUP2 MSTORE PUSH1 0x1 PUSH1 0x1 PUSH1 0xA0 SHL SUB SWAP7 DUP8 AND PUSH1 0x24 DUP4 ADD MSTORE SWAP6 SWAP1 SWAP2 AND PUSH1 0x44 DUP3 ADD MSTORE PUSH1 0x64 DUP2 ADD SWAP3 SWAP1 SWAP3 MSTORE DUP2 PUSH1 0x84 DUP2 ADD PUSH2 0x1E6 JUMP JUMPDEST MLOAD SWAP3 GAS CALL PUSH2 0x455 PUSH2 0x981 JUMP JUMPDEST SWAP1 PUSH1 0x0 DUP1 MLOAD PUSH1 0x20 PUSH2 0xB8A DUP4 CODECOPY DUP2 MLOAD SWAP2 MSTORE PUSH1 0x40 MLOAD DUP1 PUSH2 0x34B DUP6 DUP6 DUP4 PUSH2 0xA52 JUMP JUMPDEST CALLVALUE PUSH2 0xDF JUMPI PUSH2 0x19 PUSH2 0x53C PUSH2 0x52E PUSH2 0x48B CALLDATASIZE PUSH2 0x35D JUMP JUMPDEST PUSH1 0x0 DUP1 MLOAD PUSH1 0x20 PUSH2 0xBAA DUP4 CODECOPY DUP2 MLOAD SWAP2 MSTORE PUSH1 0xC0 PUSH1 0x40 SWAP8 SWAP6 SWAP7 SWAP4 SWAP8 MLOAD PUSH1 0x80 DUP2 MSTORE PUSH1 0x1A PUSH1 0x80 DUP3 ADD MSTORE PUSH32 0x5361666545524332302E736166655472616E7366657246726F6D000000000000 PUSH1 0xA0 DUP3 ADD MSTORE PUSH1 0x1 DUP1 PUSH1 0xA0 SHL SUB DUP1 SWAP9 AND SWAP8 DUP9 PUSH1 0x20 DUP4 ADD MSTORE DUP10 AND PUSH1 0x40 DUP3 ADD MSTORE DUP4 PUSH1 0x60 DUP3 ADD MSTORE LOG1 PUSH1 0x40 MLOAD PUSH4 0x23B872DD PUSH1 0xE0 SHL PUSH1 0x20 DUP3 ADD MSTORE PUSH1 0x1 PUSH1 0x1 PUSH1 0xA0 SHL SUB SWAP4 DUP5 AND PUSH1 0x24 DUP3 ADD MSTORE SWAP6 SWAP1 SWAP3 AND PUSH1 0x44 DUP7 ADD MSTORE PUSH1 0x64 DUP6 ADD SWAP2 SWAP1 SWAP2 MSTORE DUP4 SWAP1 PUSH1 0x84 DUP3 ADD SWAP1 JUMP JUMPDEST SUB PUSH1 0x1F NOT DUP2 ADD DUP5 MSTORE DUP4 PUSH2 0x93E JUMP JUMPDEST PUSH2 0xB2D JUMP JUMPDEST SWAP1 SWAP3 PUSH1 0x80 SWAP3 PUSH2 0x2DC SWAP6 SWAP5 ISZERO ISZERO DUP4 MSTORE PUSH1 0x20 DUP4 ADD MSTORE PUSH1 0x40 DUP3 ADD MSTORE DUP2 PUSH1 0x60 DUP3 ADD MSTORE ADD SWAP1 PUSH2 0x283 JUMP JUMPDEST CALLVALUE PUSH2 0xDF JUMPI PUSH2 0x59D PUSH1 0x20 PUSH1 0x0 DUP1 PUSH2 0x57C CALLDATASIZE PUSH2 0x122 JUMP JUMPDEST PUSH1 0x40 SWAP4 SWAP2 SWAP3 SWAP4 MLOAD SWAP7 DUP8 SWAP2 DUP8 DUP4 ADD SWAP5 PUSH4 0xA9059CBB PUSH1 0xE0 SHL DUP7 MSTORE PUSH1 0x24 DUP5 ADD PUSH2 0x90D JUMP JUMPDEST SUB SWAP6 PUSH2 0x5B1 PUSH1 0x1F NOT SWAP8 DUP9 DUP2 ADD DUP4 MSTORE DUP3 PUSH2 0x93E JUMP JUMPDEST MLOAD SWAP3 GAS CALL PUSH2 0x23B RETURNDATASIZE SWAP3 PUSH1 0x0 MLOAD PUSH1 0x0 DUP1 MLOAD PUSH1 0x20 PUSH2 0xB8A DUP4 CODECOPY DUP2 MLOAD SWAP2 MSTORE PUSH2 0x631 PUSH2 0x5D8 DUP8 PUSH2 0x965 JUMP JUMPDEST SWAP4 PUSH2 0x5E6 PUSH1 0x40 MLOAD SWAP6 DUP7 PUSH2 0x93E JUMP JUMPDEST DUP8 DUP6 MSTORE PUSH2 0x5F2 DUP9 PUSH2 0x965 JUMP JUMPDEST DUP2 PUSH1 0x20 DUP8 ADD SWAP2 ADD CALLDATASIZE DUP3 CALLDATACOPY PUSH1 0x0 RETURNDATASIZE SWAP2 RETURNDATACOPY PUSH2 0x624 PUSH1 0x40 MLOAD SWAP2 DUP3 PUSH2 0x618 DUP9 DUP9 DUP14 PUSH1 0x20 DUP6 ADD PUSH2 0xA67 JUMP JUMPDEST SUB SWAP1 DUP2 ADD DUP4 MSTORE DUP3 PUSH2 0x93E JUMP JUMPDEST PUSH1 0x40 MLOAD SWAP2 DUP3 SWAP2 DUP9 DUP4 PUSH2 0xA83 JUMP JUMPDEST SUB SWAP1 LOG1 PUSH1 0x40 MLOAD SWAP5 DUP6 SWAP5 DUP6 PUSH2 0x541 JUMP JUMPDEST CALLVALUE PUSH2 0xDF JUMPI PUSH2 0x23B PUSH1 0x0 DUP1 PUSH2 0x1E6 PUSH2 0x684 DUP3 PUSH2 0x65B CALLDATASIZE PUSH2 0x122 JUMP JUMPDEST PUSH1 0x0 DUP1 MLOAD PUSH1 0x20 PUSH2 0xBAA DUP4 CODECOPY DUP2 MLOAD SWAP2 MSTORE PUSH1 0x40 SWAP7 SWAP4 SWAP7 SWAP6 SWAP3 SWAP6 MLOAD PUSH1 0x80 DUP2 MSTORE DUP1 PUSH2 0x1A7 PUSH1 0x80 DUP3 ADD PUSH2 0xAC2 JUMP JUMPDEST MLOAD SWAP3 GAS CALL PUSH2 0x690 PUSH2 0x981 JUMP JUMPDEST POP PUSH1 0x0 DUP1 MLOAD PUSH1 0x20 PUSH2 0xB8A DUP4 CODECOPY DUP2 MLOAD SWAP2 MSTORE PUSH1 0x40 MLOAD DUP1 PUSH2 0x226 DUP5 DUP3 PUSH2 0xAE7 JUMP JUMPDEST CALLVALUE PUSH2 0xDF JUMPI PUSH1 0x40 CALLDATASIZE PUSH1 0x3 NOT ADD SLT PUSH2 0xDF JUMPI PUSH2 0x6C7 PUSH2 0xC0 JUMP JUMPDEST PUSH1 0x20 PUSH2 0x6D1 PUSH2 0xE4 JUMP JUMPDEST PUSH1 0x40 MLOAD PUSH4 0x70A08231 PUSH1 0xE0 SHL DUP2 MSTORE PUSH1 0x1 PUSH1 0x1 PUSH1 0xA0 SHL SUB SWAP2 DUP3 AND PUSH1 0x4 DUP3 ADD MSTORE SWAP3 DUP4 SWAP2 PUSH1 0x24 SWAP2 DUP4 SWAP2 AND GAS STATICCALL DUP1 ISZERO PUSH2 0x740 JUMPI PUSH1 0x20 SWAP2 PUSH1 0x0 SWAP2 PUSH2 0x713 JUMPI JUMPDEST POP PUSH1 0x40 MLOAD SWAP1 DUP2 MSTORE RETURN JUMPDEST PUSH2 0x733 SWAP2 POP DUP3 RETURNDATASIZE DUP5 GT PUSH2 0x739 JUMPI JUMPDEST PUSH2 0x72B DUP2 DUP4 PUSH2 0x93E JUMP JUMPDEST DUP2 ADD SWAP1 PUSH2 0xB12 JUMP JUMPDEST CODESIZE PUSH2 0x70A JUMP JUMPDEST POP RETURNDATASIZE PUSH2 0x721 JUMP JUMPDEST PUSH2 0xB21 JUMP JUMPDEST CALLVALUE PUSH2 0xDF JUMPI PUSH2 0x778 PUSH1 0x20 PUSH2 0x758 CALLDATASIZE PUSH2 0x122 JUMP JUMPDEST SWAP2 SWAP1 PUSH1 0x0 PUSH1 0x40 MLOAD DUP1 SWAP7 DUP2 SWAP6 DUP3 SWAP5 PUSH4 0x95EA7B3 PUSH1 0xE0 SHL DUP5 MSTORE PUSH1 0x4 DUP5 ADD PUSH2 0x90D JUMP JUMPDEST SUB SWAP3 PUSH1 0x1 PUSH1 0x1 PUSH1 0xA0 SHL SUB AND GAS CALL DUP1 ISZERO PUSH2 0x740 JUMPI PUSH2 0x791 JUMPI STOP JUMPDEST PUSH2 0x19 SWAP1 PUSH1 0x20 RETURNDATASIZE PUSH1 0x20 GT PUSH2 0x7B2 JUMPI JUMPDEST PUSH2 0x7AA DUP2 DUP4 PUSH2 0x93E JUMP JUMPDEST DUP2 ADD SWAP1 PUSH2 0x9B1 JUMP JUMPDEST POP RETURNDATASIZE PUSH2 0x7A0 JUMP JUMPDEST CALLVALUE PUSH2 0xDF JUMPI PUSH1 0x60 CALLDATASIZE PUSH1 0x3 NOT ADD SLT PUSH2 0xDF JUMPI PUSH2 0x7D2 PUSH2 0xC0 JUMP JUMPDEST PUSH1 0x20 PUSH2 0x7DC PUSH2 0xE4 JUMP JUMPDEST SWAP2 PUSH1 0x44 PUSH2 0x7E7 PUSH2 0x103 JUMP JUMPDEST PUSH1 0x40 MLOAD PUSH4 0x6EB1769F PUSH1 0xE1 SHL DUP2 MSTORE PUSH1 0x1 PUSH1 0x1 PUSH1 0xA0 SHL SUB SWAP6 DUP7 AND PUSH1 0x4 DUP3 ADD MSTORE SWAP1 DUP6 AND PUSH1 0x24 DUP3 ADD MSTORE SWAP4 DUP5 SWAP3 DUP4 SWAP2 AND GAS STATICCALL DUP1 ISZERO PUSH2 0x740 JUMPI PUSH2 0x23B SWAP2 PUSH1 0x0 SWAP2 PUSH2 0x837 JUMPI JUMPDEST POP PUSH1 0x40 MLOAD SWAP1 DUP2 MSTORE SWAP1 DUP2 SWAP1 PUSH1 0x20 DUP3 ADD SWAP1 JUMP JUMPDEST PUSH2 0x850 SWAP2 POP PUSH1 0x20 RETURNDATASIZE PUSH1 0x20 GT PUSH2 0x739 JUMPI PUSH2 0x72B DUP2 DUP4 PUSH2 0x93E JUMP JUMPDEST CODESIZE PUSH2 0x826 JUMP JUMPDEST CALLVALUE PUSH2 0xDF JUMPI PUSH2 0x19 PUSH2 0x53C PUSH2 0x86A CALLDATASIZE PUSH2 0x122 JUMP JUMPDEST SWAP3 SWAP1 PUSH1 0x0 DUP1 MLOAD PUSH1 0x20 PUSH2 0xBAA DUP4 CODECOPY DUP2 MLOAD SWAP2 MSTORE PUSH1 0xC0 PUSH1 0x40 MLOAD PUSH1 0x80 DUP2 MSTORE PUSH1 0x16 PUSH1 0x80 DUP3 ADD MSTORE PUSH22 0x29B0B332A2A92199181739B0B332AA3930B739B332B9 PUSH1 0x51 SHL PUSH1 0xA0 DUP3 ADD MSTORE PUSH1 0x1 DUP1 PUSH1 0xA0 SHL SUB DUP1 SWAP7 AND SWAP6 DUP7 PUSH1 0x20 DUP4 ADD MSTORE DUP5 AND PUSH1 0x40 DUP3 ADD MSTORE DUP7 PUSH1 0x60 DUP3 ADD MSTORE LOG1 PUSH2 0x52E PUSH1 0x40 MLOAD SWAP5 DUP6 SWAP3 PUSH4 0xA9059CBB PUSH1 0xE0 SHL PUSH1 0x20 DUP6 ADD MSTORE PUSH1 0x24 DUP5 ADD PUSH2 0x90D JUMP JUMPDEST PUSH1 0x12 DUP2 MSTORE PUSH18 0x31BAB9BA37B6A9B0B332AA3930B739B332B9 PUSH1 0x71 SHL PUSH1 0x20 DUP3 ADD MSTORE PUSH1 0x40 ADD SWAP1 JUMP JUMPDEST PUSH1 0x1 PUSH1 0x1 PUSH1 0xA0 SHL SUB SWAP1 SWAP2 AND DUP2 MSTORE PUSH1 0x20 DUP2 ADD SWAP2 SWAP1 SWAP2 MSTORE PUSH1 0x40 ADD SWAP1 JUMP JUMPDEST PUSH4 0x4E487B71 PUSH1 0xE0 SHL PUSH1 0x0 MSTORE PUSH1 0x41 PUSH1 0x4 MSTORE PUSH1 0x24 PUSH1 0x0 REVERT JUMPDEST SWAP1 PUSH1 0x1F DUP1 NOT SWAP2 ADD AND DUP2 ADD SWAP1 DUP2 LT PUSH8 0xFFFFFFFFFFFFFFFF DUP3 GT OR PUSH2 0x960 JUMPI PUSH1 0x40 MSTORE JUMP JUMPDEST PUSH2 0x928 JUMP JUMPDEST PUSH8 0xFFFFFFFFFFFFFFFF DUP2 GT PUSH2 0x960 JUMPI PUSH1 0x1F ADD PUSH1 0x1F NOT AND PUSH1 0x20 ADD SWAP1 JUMP JUMPDEST RETURNDATASIZE ISZERO PUSH2 0x9AC JUMPI RETURNDATASIZE SWAP1 PUSH2 0x992 DUP3 PUSH2 0x965 JUMP JUMPDEST SWAP2 PUSH2 0x9A0 PUSH1 0x40 MLOAD SWAP4 DUP5 PUSH2 0x93E JUMP JUMPDEST DUP3 MSTORE RETURNDATASIZE PUSH1 0x0 PUSH1 0x20 DUP5 ADD RETURNDATACOPY JUMP JUMPDEST PUSH1 0x60 SWAP1 JUMP JUMPDEST SWAP1 DUP2 PUSH1 0x20 SWAP2 SUB SLT PUSH2 0xDF JUMPI MLOAD DUP1 ISZERO ISZERO DUP2 SUB PUSH2 0xDF JUMPI SWAP1 JUMP JUMPDEST SWAP2 PUSH2 0x2DC SWAP3 PUSH1 0x60 DUP2 MSTORE PUSH2 0x9DE PUSH1 0x60 DUP3 ADD PUSH2 0x8E8 JUMP JUMPDEST SWAP3 ISZERO ISZERO PUSH1 0x20 DUP3 ADD MSTORE PUSH1 0x40 DUP2 DUP5 SUB SWAP2 ADD MSTORE PUSH2 0x283 JUMP JUMPDEST PUSH1 0x10 DUP2 MSTORE PUSH16 0x3930BBA1B0B636173A3930B739B332B9 PUSH1 0x81 SHL PUSH1 0x20 DUP3 ADD MSTORE PUSH1 0x40 ADD SWAP1 JUMP JUMPDEST SWAP2 PUSH2 0x2DC SWAP3 PUSH1 0x60 DUP2 MSTORE PUSH2 0x9DE PUSH1 0x60 DUP3 ADD PUSH2 0x9F3 JUMP JUMPDEST PUSH1 0x14 DUP2 MSTORE PUSH20 0x72617743616C6C2E7472616E7366657246726F6D PUSH1 0x60 SHL PUSH1 0x20 DUP3 ADD MSTORE PUSH1 0x40 ADD SWAP1 JUMP JUMPDEST SWAP2 PUSH2 0x2DC SWAP3 PUSH1 0x60 DUP2 MSTORE PUSH2 0x9DE PUSH1 0x60 DUP3 ADD PUSH2 0xA2B JUMP JUMPDEST PUSH2 0x2DC SWAP4 SWAP3 PUSH1 0x60 SWAP3 DUP3 MSTORE PUSH1 0x20 DUP3 ADD MSTORE DUP2 PUSH1 0x40 DUP3 ADD MSTORE ADD SWAP1 PUSH2 0x283 JUMP JUMPDEST PUSH1 0xA0 SWAP1 PUSH2 0x2DC SWAP4 SWAP3 PUSH1 0x60 DUP3 MSTORE PUSH1 0xF PUSH1 0x60 DUP4 ADD MSTORE PUSH15 0x30B730B63CBD32AA3930B739B332B9 PUSH1 0x89 SHL PUSH1 0x80 DUP4 ADD MSTORE ISZERO ISZERO PUSH1 0x20 DUP3 ADD MSTORE DUP2 PUSH1 0x40 DUP3 ADD MSTORE ADD SWAP1 PUSH2 0x283 JUMP JUMPDEST PUSH1 0x12 DUP2 MSTORE PUSH18 0x3832B936B4B9B9B4BB32AA3930B739B332B9 PUSH1 0x71 SHL PUSH1 0x20 DUP3 ADD MSTORE PUSH1 0x40 ADD SWAP1 JUMP JUMPDEST SWAP1 PUSH1 0x20 SWAP2 PUSH1 0x60 DUP2 MSTORE PUSH2 0xAFB PUSH1 0x60 DUP3 ADD PUSH2 0xAC2 JUMP JUMPDEST SWAP2 ISZERO ISZERO DUP4 DUP3 ADD MSTORE PUSH1 0x40 DUP2 DUP4 SUB SWAP2 ADD MSTORE PUSH1 0x0 DUP2 MSTORE ADD SWAP1 JUMP JUMPDEST SWAP1 DUP2 PUSH1 0x20 SWAP2 SUB SLT PUSH2 0xDF JUMPI MLOAD SWAP1 JUMP JUMPDEST PUSH1 0x40 MLOAD RETURNDATASIZE PUSH1 0x0 DUP3 RETURNDATACOPY RETURNDATASIZE SWAP1 REVERT JUMPDEST SWAP1 PUSH1 0x0 PUSH1 0x20 SWAP2 DUP3 DUP2 MLOAD SWAP2 ADD DUP3 DUP6 GAS CALL ISZERO PUSH2 0xB21 JUMPI PUSH1 0x0 MLOAD RETURNDATASIZE PUSH2 0xB80 JUMPI POP PUSH1 0x1 PUSH1 0x1 PUSH1 0xA0 SHL SUB DUP2 AND EXTCODESIZE ISZERO JUMPDEST PUSH2 0xB5E JUMPI POP JUMP JUMPDEST PUSH1 0x40 MLOAD PUSH4 0x5274AFE7 PUSH1 0xE0 SHL DUP2 MSTORE PUSH1 0x1 PUSH1 0x1 PUSH1 0xA0 SHL SUB SWAP1 SWAP2 AND PUSH1 0x4 DUP3 ADD MSTORE PUSH1 0x24 SWAP1 REVERT JUMPDEST PUSH1 0x1 EQ ISZERO PUSH2 0xB57 JUMP INVALID PREVRANDAO SUB XOR CODESIZE 0xCF 0xC1 EXTCODECOPY PUSH13 0x7D639A6FA62E23C577296221CD 0xCB MSTORE PUSH23 0xE674A5BD35A8072672FD8869F602994B3C651C1F8735ED PUSH27 0x9E8C0DEC0FFA66F73F34CB4C8394B6E6A26474726F6E582212200B PUSH12 0xBA52A7EBA67F5C386BC25932 PUSH9 0x8897F3C6792EB69A1C DUP5 0x23 SWAP3 BLOCKHASH 0x26 0xE4 SELFBALANCE PUSH32 0x64736F6C63430008180033000000000000000000000000000000000000000000 "},"gasEstimates":{"creation":{"codeDepositCost":"614200","executionCost":"652","totalCost":"614852"},"external":{"analyzeTransferReturn(address,address,uint256)":"infinite","approve(address,address,uint256)":"infinite","customSafeTransfer(address,address,uint256)":"infinite","getAllowance(address,address,address)":"infinite","getBalance(address,address)":"infinite","permissiveTransfer(address,address,uint256)":"infinite","testRawTransfer(address,address,uint256)":"infinite","testRawTransferFrom(address,address,address,uint256)":"infinite","testSafeTransfer(address,address,uint256)":"infinite","testSafeTransferFrom(address,address,address,uint256)":"infinite"}},"methodIdentifiers":{"analyzeTransferReturn(address,address,uint256)":"c215d3e9","approve(address,address,uint256)":"e1f21c67","customSafeTransfer(address,address,uint256)":"112b63c8","getAllowance(address,address,address)":"e7092b41","getBalance(address,address)":"d4fac45d","permissiveTransfer(address,address,uint256)":"cfff8000","testRawTransfer(address,address,uint256)":"1f9ec725","testRawTransferFrom(address,address,address,uint256)":"33fd262f","testSafeTransfer(address,address,uint256)":"f705d961","testSafeTransferFrom(address,address,address,uint256)":"75231e61"}},"storageLayout":{"storage":[],"types":null},"userdoc":{"kind":"user","methods":{},"version":1}}}}