{
  "_format": "hh-sol-artifact-1",
  "contractName": "MockBuggyUSDT",
  "sourceName": "contracts/mock/MockBuggyUSDT.sol",
  "abi": [
    {
      "inputs": [
        {
          "internalType": "string",
          "name": "name_",
          "type": "string"
        },
        {
          "internalType": "string",
          "name": "symbol_",
          "type": "string"
        },
        {
          "internalType": "uint8",
          "name": "decimals_",
          "type": "uint8"
        }
      ],
      "stateMutability": "nonpayable",
      "type": "constructor"
    },
    {
      "anonymous": false,
      "inputs": [
        {
          "indexed": true,
          "internalType": "address",
          "name": "owner",
          "type": "address"
        },
        {
          "indexed": true,
          "internalType": "address",
          "name": "spender",
          "type": "address"
        },
        {
          "indexed": false,
          "internalType": "uint256",
          "name": "value",
          "type": "uint256"
        }
      ],
      "name": "Approval",
      "type": "event"
    },
    {
      "anonymous": false,
      "inputs": [
        {
          "indexed": true,
          "internalType": "address",
          "name": "from",
          "type": "address"
        },
        {
          "indexed": true,
          "internalType": "address",
          "name": "to",
          "type": "address"
        },
        {
          "indexed": false,
          "internalType": "uint256",
          "name": "value",
          "type": "uint256"
        }
      ],
      "name": "Transfer",
      "type": "event"
    },
    {
      "inputs": [
        {
          "internalType": "address",
          "name": "",
          "type": "address"
        },
        {
          "internalType": "address",
          "name": "",
          "type": "address"
        }
      ],
      "name": "allowance",
      "outputs": [
        {
          "internalType": "uint256",
          "name": "",
          "type": "uint256"
        }
      ],
      "stateMutability": "view",
      "type": "function"
    },
    {
      "inputs": [
        {
          "internalType": "address",
          "name": "spender",
          "type": "address"
        },
        {
          "internalType": "uint256",
          "name": "amount",
          "type": "uint256"
        }
      ],
      "name": "approve",
      "outputs": [
        {
          "internalType": "bool",
          "name": "",
          "type": "bool"
        }
      ],
      "stateMutability": "nonpayable",
      "type": "function"
    },
    {
      "inputs": [
        {
          "internalType": "address",
          "name": "",
          "type": "address"
        }
      ],
      "name": "balanceOf",
      "outputs": [
        {
          "internalType": "uint256",
          "name": "",
          "type": "uint256"
        }
      ],
      "stateMutability": "view",
      "type": "function"
    },
    {
      "inputs": [
        {
          "internalType": "address",
          "name": "from",
          "type": "address"
        },
        {
          "internalType": "uint256",
          "name": "amount",
          "type": "uint256"
        }
      ],
      "name": "burn",
      "outputs": [],
      "stateMutability": "nonpayable",
      "type": "function"
    },
    {
      "inputs": [],
      "name": "decimals",
      "outputs": [
        {
          "internalType": "uint8",
          "name": "",
          "type": "uint8"
        }
      ],
      "stateMutability": "view",
      "type": "function"
    },
    {
      "inputs": [
        {
          "internalType": "address",
          "name": "to",
          "type": "address"
        },
        {
          "internalType": "uint256",
          "name": "amount",
          "type": "uint256"
        }
      ],
      "name": "mint",
      "outputs": [],
      "stateMutability": "nonpayable",
      "type": "function"
    },
    {
      "inputs": [],
      "name": "name",
      "outputs": [
        {
          "internalType": "string",
          "name": "",
          "type": "string"
        }
      ],
      "stateMutability": "view",
      "type": "function"
    },
    {
      "inputs": [],
      "name": "requireZeroAllowanceFirst",
      "outputs": [
        {
          "internalType": "bool",
          "name": "",
          "type": "bool"
        }
      ],
      "stateMutability": "view",
      "type": "function"
    },
    {
      "inputs": [],
      "name": "returnFalseOnApprove",
      "outputs": [
        {
          "internalType": "bool",
          "name": "",
          "type": "bool"
        }
      ],
      "stateMutability": "view",
      "type": "function"
    },
    {
      "inputs": [],
      "name": "returnFalseOnTransfer",
      "outputs": [
        {
          "internalType": "bool",
          "name": "",
          "type": "bool"
        }
      ],
      "stateMutability": "view",
      "type": "function"
    },
    {
      "inputs": [
        {
          "internalType": "bool",
          "name": "value",
          "type": "bool"
        }
      ],
      "name": "setRequireZeroAllowanceFirst",
      "outputs": [],
      "stateMutability": "nonpayable",
      "type": "function"
    },
    {
      "inputs": [
        {
          "internalType": "bool",
          "name": "value",
          "type": "bool"
        }
      ],
      "name": "setReturnFalseOnApprove",
      "outputs": [],
      "stateMutability": "nonpayable",
      "type": "function"
    },
    {
      "inputs": [
        {
          "internalType": "bool",
          "name": "value",
          "type": "bool"
        }
      ],
      "name": "setReturnFalseOnTransfer",
      "outputs": [],
      "stateMutability": "nonpayable",
      "type": "function"
    },
    {
      "inputs": [],
      "name": "symbol",
      "outputs": [
        {
          "internalType": "string",
          "name": "",
          "type": "string"
        }
      ],
      "stateMutability": "view",
      "type": "function"
    },
    {
      "inputs": [],
      "name": "totalSupply",
      "outputs": [
        {
          "internalType": "uint256",
          "name": "",
          "type": "uint256"
        }
      ],
      "stateMutability": "view",
      "type": "function"
    },
    {
      "inputs": [
        {
          "internalType": "address",
          "name": "to",
          "type": "address"
        },
        {
          "internalType": "uint256",
          "name": "amount",
          "type": "uint256"
        }
      ],
      "name": "transfer",
      "outputs": [
        {
          "internalType": "bool",
          "name": "",
          "type": "bool"
        }
      ],
      "stateMutability": "nonpayable",
      "type": "function"
    },
    {
      "inputs": [
        {
          "internalType": "address",
          "name": "from",
          "type": "address"
        },
        {
          "internalType": "address",
          "name": "to",
          "type": "address"
        },
        {
          "internalType": "uint256",
          "name": "amount",
          "type": "uint256"
        }
      ],
      "name": "transferFrom",
      "outputs": [
        {
          "internalType": "bool",
          "name": "",
          "type": "bool"
        }
      ],
      "stateMutability": "nonpayable",
      "type": "function"
    }
  ],
  "bytecode": "0x608060405234620003495762000daa803803806200001d816200034e565b928339810190606081830312620003495780516001600160401b0391908281116200034957836200005091830162000374565b916020938483015182811162000349576040916200007091850162000374565b9201519260ff841680940362000349576001928362ffffff196006541617600655815183811162000333576000908154938685811c9516801562000328575b8986101462000314578190601f95868111620002c1575b5089908683116001146200025d57849262000251575b5050600019600383901b1c191690861b1781555b81519384116200023d5784548581811c9116801562000232575b888210146200021e57838111620001d6575b5086928411600114620001705783949596509262000164575b5050600019600383901b1c191690821b1790555b60ff1960025416176002556040516109c39081620003e78239f35b01519050388062000135565b9190601f1984169685845280842093905b888210620001be5750508385969710620001a4575b505050811b01905562000149565b015160001960f88460031b161c1916905538808062000196565b80878596829496860151815501950193019062000181565b8582528782208480870160051c8201928a881062000214575b0160051c019086905b828110620002085750506200011c565b838155018690620001f8565b92508192620001ef565b634e487b7160e01b82526022600452602482fd5b90607f16906200010a565b634e487b7160e01b81526041600452602490fd5b015190503880620000dc565b8480528a85208994509190601f198416865b8d828210620002aa575050841162000290575b505050811b018155620000f0565b015160001960f88460031b161c1916905538808062000282565b8385015186558c979095019493840193016200026f565b9091508380528984208680850160051c8201928c86106200030a575b918a91869594930160051c01915b828110620002fb575050620000c6565b8681558594508a9101620002eb565b92508192620002dd565b634e487b7160e01b83526022600452602483fd5b94607f1694620000af565b634e487b7160e01b600052604160045260246000fd5b600080fd5b6040519190601f01601f191682016001600160401b038111838210176200033357604052565b919080601f84011215620003495782516001600160401b0381116200033357602090620003aa601f8201601f191683016200034e565b92818452828287010111620003495760005b818110620003d257508260009394955001015290565b8581018301518482018401528201620003bc56fe60806040908082526004908136101561001757600080fd5b600092833560e01c9182630462bc87146108035750816306fdde0314610745578163095ea7b31461063957816318160ddd1461061a57816323b872dd146104fb578163313ce567146104d95783826340c10f191461047a57508163565924001461044457816370a082311461040d5781638cf3a01e146103e657816395d89b41146102df578382639dc29fac1461025c57508163a9059cbb146101bb578163a9df7f7714610197578163bf9fee4314610168578163dd62ed3e1461011f575063fbf1945b146100e557600080fd5b3461011b57602036600319011261011b573580151580910361011b5762ff00006006549160101b169062ff000019161760065580f35b5080fd5b83903461011b578060031936011261011b578060209261013d610870565b610145610894565b6001600160a01b0391821683526005865283832091168252845220549051908152f35b50503461011b57602036600319011261011b573580151580910361011b5760ff80196006541691161760065580f35b83903461011b578160031936011261011b5760209060ff6006541690519015158152f35b91905034610258578160031936011261025857602092826101da610870565b91602435923382528487526101f4848484205410156108b3565b6001600160a01b0316936102098515156108f6565b33825280875282822061021d85825461093d565b9055848252865220610230828254610960565b9055825190815260008051602061096e833981519152843392a360ff60065416159051908152f35b8280fd5b929150346102db57806003193601126102db57602060008051602061096e83398151915291610289610870565b6001600160a01b031680865284835281862054909460243592916102af908411156108b3565b85875283528086206102c283825461093d565b90556102d08260035461093d565b60035551908152a380f35b5050fd5b8391503461011b578160031936011261011b578051908260018054908160011c90600183169283156103dc575b60209384841081146103c9578388529081156103ad5750600114610374575b505050829003601f01601f191682019267ffffffffffffffff841183851017610361575082918261035d925282610827565b0390f35b634e487b7160e01b815260418552602490fd5b91925060018652828620918387935b838510610399575050505083010185808061032b565b805488860183015293019284908201610383565b60ff1916878501525050151560051b840101905085808061032b565b634e487b7160e01b895260228a52602489fd5b91607f169161030c565b83903461011b578160031936011261011b5760209060ff60065460101c1690519015158152f35b919050346102585760203660031901126102585760209282916001600160a01b03610436610870565b168252845220549051908152f35b50503461011b57602036600319011261011b573580151580910361011b5761ff006006549160081b169061ff0019161760065580f35b91503461011b578060031936011261011b57602060008051602061096e833981519152916104a6610870565b6001600160a01b031680855294825280842080546024359291906104cb908490610960565b90556102d082600354610960565b83903461011b578160031936011261011b5760209060ff600254169051908152f35b9190503461025857606036600319011261025857610517610870565b61051f610894565b936044359060018060a01b0380931692838252602096858852610547848885205410156108b3565b8483526005885286832033845288528387842054106105de57879260008051602061096e8339815191529492889216966105828815156108f6565b86825280855282822061059685825461093d565b905587825284528181206105ab848254610960565b9055858152600584528181203382528452206105c882825461093d565b90558551908152a360ff60065416159051908152f35b865162461bcd60e51b81528087018990526016602482015275496e73756666696369656e7420616c6c6f77616e636560501b6044820152606490fd5b83903461011b578160031936011261011b576020906003549051908152f35b90508234610742578160031936011261074257610654610870565b906024359060ff60065460101c1680610739575b80610712575b6106cf5760209450838291338152600587528181209460018060a01b0316948582528752205582519081527f8c5be1e5ebec7d5bd14f71427d1e84f3dd0314c0f7b2291e5b200ac8c7c3b925843392a360ff60065460081c16159051908152f35b835162461bcd60e51b8152602081870152601d60248201527f4d7573742073657420616c6c6f77616e636520746f20302066697273740000006044820152606490fd5b50338152600560209081528482206001600160a01b0385168352905283812054151561066e565b50811515610668565b80fd5b8391503461011b578160031936011261011b5780519082835460018160011c90600183169283156107f9575b60209384841081146103c9578388529081156103ad57506001146107c157505050829003601f01601f191682019267ffffffffffffffff841183851017610361575082918261035d925282610827565b919250858052828620918387935b8385106107e5575050505083010185808061032b565b8054888601830152930192849082016107cf565b91607f1691610771565b84903461011b578160031936011261011b5760209060ff60065460081c1615158152f35b6020808252825181830181905290939260005b82811061085c57505060409293506000838284010152601f8019910116010190565b81810186015184820160400152850161083a565b6004356001600160a81b038116810361088f576001600160a01b031690565b600080fd5b6024356001600160a81b038116810361088f576001600160a01b031690565b156108ba57565b60405162461bcd60e51b8152602060048201526014602482015273496e73756666696369656e742062616c616e636560601b6044820152606490fd5b156108fd57565b60405162461bcd60e51b81526020600482015260186024820152775472616e7366657220746f207a65726f206164647265737360401b6044820152606490fd5b9190820391821161094a57565b634e487b7160e01b600052601160045260246000fd5b9190820180921161094a5756feddf252ad1be2c89b69c2b068fc378daa952ba7f163c4a11628f55a4df523b3efa26474726f6e58221220b155b3ac33a0307f3a3f8e6c18df1619196420e3f95f343567272b78d56af03864736f6c63430008180033",
  "linkReferences": {},
  "deployedLinkReferences": {}
}