{
  "_format": "hh-sol-artifact-1",
  "contractName": "BoxUUPSV2",
  "sourceName": "contracts/test/BoxUUPSV2.sol",
  "abi": [
    {
      "inputs": [
        {
          "internalType": "address",
          "name": "target",
          "type": "address"
        }
      ],
      "name": "AddressEmptyCode",
      "type": "error"
    },
    {
      "inputs": [
        {
          "internalType": "address",
          "name": "implementation",
          "type": "address"
        }
      ],
      "name": "ERC1967InvalidImplementation",
      "type": "error"
    },
    {
      "inputs": [],
      "name": "ERC1967NonPayable",
      "type": "error"
    },
    {
      "inputs": [],
      "name": "FailedCall",
      "type": "error"
    },
    {
      "inputs": [],
      "name": "InvalidInitialization",
      "type": "error"
    },
    {
      "inputs": [],
      "name": "NotInitializing",
      "type": "error"
    },
    {
      "inputs": [
        {
          "internalType": "address",
          "name": "owner",
          "type": "address"
        }
      ],
      "name": "OwnableInvalidOwner",
      "type": "error"
    },
    {
      "inputs": [
        {
          "internalType": "address",
          "name": "account",
          "type": "address"
        }
      ],
      "name": "OwnableUnauthorizedAccount",
      "type": "error"
    },
    {
      "inputs": [],
      "name": "UUPSUnauthorizedCallContext",
      "type": "error"
    },
    {
      "inputs": [
        {
          "internalType": "bytes32",
          "name": "slot",
          "type": "bytes32"
        }
      ],
      "name": "UUPSUnsupportedProxiableUUID",
      "type": "error"
    },
    {
      "anonymous": false,
      "inputs": [
        {
          "indexed": false,
          "internalType": "uint64",
          "name": "version",
          "type": "uint64"
        }
      ],
      "name": "Initialized",
      "type": "event"
    },
    {
      "anonymous": false,
      "inputs": [
        {
          "indexed": true,
          "internalType": "address",
          "name": "previousOwner",
          "type": "address"
        },
        {
          "indexed": true,
          "internalType": "address",
          "name": "newOwner",
          "type": "address"
        }
      ],
      "name": "OwnershipTransferred",
      "type": "event"
    },
    {
      "anonymous": false,
      "inputs": [
        {
          "indexed": true,
          "internalType": "address",
          "name": "implementation",
          "type": "address"
        }
      ],
      "name": "Upgraded",
      "type": "event"
    },
    {
      "inputs": [],
      "name": "UPGRADE_INTERFACE_VERSION",
      "outputs": [
        {
          "internalType": "string",
          "name": "",
          "type": "string"
        }
      ],
      "stateMutability": "view",
      "type": "function"
    },
    {
      "inputs": [],
      "name": "increment",
      "outputs": [],
      "stateMutability": "nonpayable",
      "type": "function"
    },
    {
      "inputs": [
        {
          "internalType": "address",
          "name": "initialOwner",
          "type": "address"
        }
      ],
      "name": "initialize",
      "outputs": [],
      "stateMutability": "nonpayable",
      "type": "function"
    },
    {
      "inputs": [],
      "name": "owner",
      "outputs": [
        {
          "internalType": "address",
          "name": "",
          "type": "address"
        }
      ],
      "stateMutability": "view",
      "type": "function"
    },
    {
      "inputs": [],
      "name": "proxiableUUID",
      "outputs": [
        {
          "internalType": "bytes32",
          "name": "",
          "type": "bytes32"
        }
      ],
      "stateMutability": "view",
      "type": "function"
    },
    {
      "inputs": [],
      "name": "renounceOwnership",
      "outputs": [],
      "stateMutability": "nonpayable",
      "type": "function"
    },
    {
      "inputs": [],
      "name": "retrieve",
      "outputs": [
        {
          "internalType": "uint256",
          "name": "",
          "type": "uint256"
        }
      ],
      "stateMutability": "view",
      "type": "function"
    },
    {
      "inputs": [
        {
          "internalType": "uint256",
          "name": "value",
          "type": "uint256"
        }
      ],
      "name": "store",
      "outputs": [],
      "stateMutability": "nonpayable",
      "type": "function"
    },
    {
      "inputs": [
        {
          "internalType": "address",
          "name": "newOwner",
          "type": "address"
        }
      ],
      "name": "transferOwnership",
      "outputs": [],
      "stateMutability": "nonpayable",
      "type": "function"
    },
    {
      "inputs": [
        {
          "internalType": "address",
          "name": "newImplementation",
          "type": "address"
        },
        {
          "internalType": "bytes",
          "name": "data",
          "type": "bytes"
        }
      ],
      "name": "upgradeToAndCall",
      "outputs": [],
      "stateMutability": "payable",
      "type": "function"
    },
    {
      "inputs": [],
      "name": "version",
      "outputs": [
        {
          "internalType": "string",
          "name": "",
          "type": "string"
        }
      ],
      "stateMutability": "pure",
      "type": "function"
    }
  ],
  "bytecode": "0x60a080604052346100cc57306080527ff0c57e16840df040f15088dc2f81fe391c3923bec73e23a9662efc9c229c6a009081549060ff8260401c166100bd57506001600160401b036002600160401b031982821601610078575b6040516108eb90816100d2823960805181818161039401526104620152f35b6001600160401b031990911681179091556040519081527fc7f505b2f371ae2175ee4913f4499e1f2633a7b5936321eed1cdaeb6115181d290602090a1388080610059565b63f92ee8a960e01b8152600490fd5b600080fdfe608060409080825260048036101561001657600080fd5b600092833560e01c9283632e64cec11461062d575082634f1ef286146103e657826352d1902d1461038057826354fd4d50146103415782636057361d14610328578263715018a6146102be5782638da5cb5b14610288578263ad3cb1cc14610247578263c4d66de81461010b57508163d09de08a146100ce575063f2fde38b1461009f57600080fd5b346100cb5760203660031901126100cb576100c86100bb610647565b6100c3610798565b610724565b80f35b80fd5b905034610107578160031936011261010757815490600182018092116100f45750815580f35b634e487b7160e01b835260119052602482fd5b5080fd5b91503461024357602036600319011261024357610126610647565b907ff0c57e16840df040f15088dc2f81fe391c3923bec73e23a9662efc9c229c6a0091825460ff81861c16159267ffffffffffffffff82168015908161023b575b6001149081610231575b159081610228575b5061021a575067ffffffffffffffff19811660011784556101ac9190836101fb575b506101a46107d1565b6100c36107d1565b6101b46107d1565b8380556101bf578280f35b805460ff60401b1916905551600181527fc7f505b2f371ae2175ee4913f4499e1f2633a7b5936321eed1cdaeb6115181d290602090a138808280f35b68ffffffffffffffffff1916680100000000000000011784553861019b565b855163f92ee8a960e01b8152fd5b90501538610179565b303b159150610171565b859150610167565b8280fd5b8390346101075781600319360112610107578051610284916102688261066b565b60058252640352e302e360dc1b602083015251918291826106db565b0390f35b8390346101075781600319360112610107576000805160206108768339815191525490516001600160a01b039091168152602090f35b83346100cb57806003193601126100cb576102d7610798565b60008051602061087683398151915280546001600160a01b0319811690915581906001600160a01b03167f8be0079c531659141344cd1fd0a4f28419497f9722a3daafe3b4186f6b6457e08280a380f35b8382346101075760203660031901126101075735815580f35b8390346101075781600319360112610107578051610284916103628261066b565b60078252662aaaa82996ab1960c91b602083015251918291826106db565b83346100cb57806003193601126100cb57507f00000000000000000000000000000000000000000000000000000000000000006001600160a01b031630036103d957602090516000805160206108968339815191528152f35b5163703e46dd60e11b8152fd5b80919250600319360112610243576103fc610647565b90602493843567ffffffffffffffff811161010757366023820112156101075780850135610429816106bf565b946104368551968761069d565b81865260209182870193368a8383010111610629578186928b8693018737880101526001600160a01b037f0000000000000000000000000000000000000000000000000000000000000000811630811490811561060d575b506105fd5761049b610798565b81169585516352d1902d60e01b815283818a818b5afa8691816105ca575b506104d5575050505050505191634c9c8ce360e01b8352820152fd5b9088888894938c600080516020610896833981519152918281036105b55750853b156105a1575080546001600160a01b031916821790558451889392917fbc7cd75a20ee27fd9adebab32041f755214dbc6bffa90cc0225b39da2e5c2d3b8580a28251156105835750506105759582915190845af4913d15610579573d61056761055e826106bf565b9251928361069d565b81528581943d92013e610812565b5080f35b5060609250610812565b95509550505050503461059557505080f35b63b398979f60e01b8152fd5b8651634c9c8ce360e01b8152808501849052fd5b8751632a87526960e21b815280860191909152fd5b9091508481813d83116105f6575b6105e2818361069d565b810103126105f2575190386104b9565b8680fd5b503d6105d8565b855163703e46dd60e11b81528890fd5b905081600080516020610896833981519152541614153861048e565b8580fd5b849034610107578160031936011261010757602091548152f35b6004356001600160a81b0381168103610666576001600160a01b031690565b600080fd5b6040810190811067ffffffffffffffff82111761068757604052565b634e487b7160e01b600052604160045260246000fd5b90601f8019910116810190811067ffffffffffffffff82111761068757604052565b67ffffffffffffffff811161068757601f01601f191660200190565b6020808252825181830181905290939260005b82811061071057505060409293506000838284010152601f8019910116010190565b8181018601518482016040015285016106ee565b6001600160a01b0390811690811561077f5760008051602061087683398151915280546001600160a01b031981168417909155167f8be0079c531659141344cd1fd0a4f28419497f9722a3daafe3b4186f6b6457e0600080a3565b604051631e4fbdf760e01b815260006004820152602490fd5b600080516020610876833981519152546001600160a01b031633036107b957565b60405163118cdaa760e01b8152336004820152602490fd5b60ff7ff0c57e16840df040f15088dc2f81fe391c3923bec73e23a9662efc9c229c6a005460401c161561080057565b604051631afcd79f60e31b8152600490fd5b90610839575080511561082757602081519101fd5b60405163d6bda27560e01b8152600490fd5b8151158061086c575b61084a575090565b604051639996b31560e01b81526001600160a01b039091166004820152602490fd5b50803b1561084256fe9016d09d72d40fdae2fd8ceac6b6234c7706214fd39c1cd1e609a0528c199300360894a13ba1a3210667c828492db98dca3e2076cc3735a920a3ca505d382bbca26474726f6e58221220403cd10a0be2eeae94de0f6ff275f333c40bcddbb0866c3df205a24d3555557764736f6c63430008180033",
  "linkReferences": {},
  "deployedLinkReferences": {}
}