{
  "_format": "hh-sol-artifact-1",
  "contractName": "PayTheFly",
  "sourceName": "contracts/v1/tvm/PayTheFly.sol",
  "abi": [
    {
      "inputs": [],
      "stateMutability": "nonpayable",
      "type": "constructor"
    },
    {
      "inputs": [
        {
          "internalType": "address",
          "name": "target",
          "type": "address"
        }
      ],
      "name": "AddressEmptyCode",
      "type": "error"
    },
    {
      "inputs": [],
      "name": "ECDSAInvalidSignature",
      "type": "error"
    },
    {
      "inputs": [
        {
          "internalType": "uint256",
          "name": "length",
          "type": "uint256"
        }
      ],
      "name": "ECDSAInvalidSignatureLength",
      "type": "error"
    },
    {
      "inputs": [
        {
          "internalType": "bytes32",
          "name": "s",
          "type": "bytes32"
        }
      ],
      "name": "ECDSAInvalidSignatureS",
      "type": "error"
    },
    {
      "inputs": [
        {
          "internalType": "address",
          "name": "implementation",
          "type": "address"
        }
      ],
      "name": "ERC1967InvalidImplementation",
      "type": "error"
    },
    {
      "inputs": [],
      "name": "ERC1967NonPayable",
      "type": "error"
    },
    {
      "inputs": [],
      "name": "FailedCall",
      "type": "error"
    },
    {
      "inputs": [
        {
          "internalType": "uint256",
          "name": "balance",
          "type": "uint256"
        },
        {
          "internalType": "uint256",
          "name": "needed",
          "type": "uint256"
        }
      ],
      "name": "InsufficientBalance",
      "type": "error"
    },
    {
      "inputs": [],
      "name": "InvalidInitialization",
      "type": "error"
    },
    {
      "inputs": [],
      "name": "NotInitializing",
      "type": "error"
    },
    {
      "inputs": [
        {
          "internalType": "address",
          "name": "owner",
          "type": "address"
        }
      ],
      "name": "OwnableInvalidOwner",
      "type": "error"
    },
    {
      "inputs": [
        {
          "internalType": "address",
          "name": "account",
          "type": "address"
        }
      ],
      "name": "OwnableUnauthorizedAccount",
      "type": "error"
    },
    {
      "inputs": [],
      "name": "ReentrancyGuardReentrantCall",
      "type": "error"
    },
    {
      "inputs": [
        {
          "internalType": "address",
          "name": "token",
          "type": "address"
        }
      ],
      "name": "TronSafeERC20FailedOperation",
      "type": "error"
    },
    {
      "inputs": [],
      "name": "UUPSUnauthorizedCallContext",
      "type": "error"
    },
    {
      "inputs": [
        {
          "internalType": "bytes32",
          "name": "slot",
          "type": "bytes32"
        }
      ],
      "name": "UUPSUnsupportedProxiableUUID",
      "type": "error"
    },
    {
      "anonymous": false,
      "inputs": [
        {
          "indexed": false,
          "internalType": "string",
          "name": "projectId",
          "type": "string"
        },
        {
          "indexed": true,
          "internalType": "address",
          "name": "token",
          "type": "address"
        },
        {
          "indexed": false,
          "internalType": "uint256",
          "name": "feeAmount",
          "type": "uint256"
        },
        {
          "indexed": true,
          "internalType": "address",
          "name": "feeVault",
          "type": "address"
        },
        {
          "indexed": false,
          "internalType": "string",
          "name": "serialNo",
          "type": "string"
        }
      ],
      "name": "FeeCollected",
      "type": "event"
    },
    {
      "anonymous": false,
      "inputs": [
        {
          "indexed": false,
          "internalType": "uint256",
          "name": "oldRate",
          "type": "uint256"
        },
        {
          "indexed": false,
          "internalType": "uint256",
          "name": "newRate",
          "type": "uint256"
        }
      ],
      "name": "FeeRateChanged",
      "type": "event"
    },
    {
      "anonymous": false,
      "inputs": [
        {
          "indexed": true,
          "internalType": "address",
          "name": "oldVault",
          "type": "address"
        },
        {
          "indexed": true,
          "internalType": "address",
          "name": "newVault",
          "type": "address"
        }
      ],
      "name": "FeeVaultChanged",
      "type": "event"
    },
    {
      "anonymous": false,
      "inputs": [
        {
          "indexed": false,
          "internalType": "uint64",
          "name": "version",
          "type": "uint64"
        }
      ],
      "name": "Initialized",
      "type": "event"
    },
    {
      "anonymous": false,
      "inputs": [
        {
          "indexed": true,
          "internalType": "address",
          "name": "previousOwner",
          "type": "address"
        },
        {
          "indexed": true,
          "internalType": "address",
          "name": "newOwner",
          "type": "address"
        }
      ],
      "name": "OwnershipTransferred",
      "type": "event"
    },
    {
      "anonymous": false,
      "inputs": [
        {
          "indexed": false,
          "internalType": "enum PayTheFly.PauseLevel",
          "name": "oldLevel",
          "type": "uint8"
        },
        {
          "indexed": false,
          "internalType": "enum PayTheFly.PauseLevel",
          "name": "newLevel",
          "type": "uint8"
        }
      ],
      "name": "PauseLevelChanged",
      "type": "event"
    },
    {
      "anonymous": false,
      "inputs": [
        {
          "indexed": false,
          "internalType": "address",
          "name": "account",
          "type": "address"
        }
      ],
      "name": "Paused",
      "type": "event"
    },
    {
      "anonymous": false,
      "inputs": [
        {
          "indexed": false,
          "internalType": "string",
          "name": "projectId",
          "type": "string"
        },
        {
          "indexed": false,
          "internalType": "string",
          "name": "name",
          "type": "string"
        },
        {
          "indexed": false,
          "internalType": "address",
          "name": "creator",
          "type": "address"
        },
        {
          "indexed": false,
          "internalType": "address",
          "name": "signer",
          "type": "address"
        }
      ],
      "name": "ProjectCreated",
      "type": "event"
    },
    {
      "anonymous": false,
      "inputs": [
        {
          "indexed": false,
          "internalType": "string",
          "name": "projectId",
          "type": "string"
        },
        {
          "indexed": false,
          "internalType": "bool",
          "name": "active",
          "type": "bool"
        }
      ],
      "name": "ProjectStatusChanged",
      "type": "event"
    },
    {
      "anonymous": false,
      "inputs": [
        {
          "indexed": false,
          "internalType": "string",
          "name": "projectId",
          "type": "string"
        },
        {
          "indexed": false,
          "internalType": "string",
          "name": "name",
          "type": "string"
        },
        {
          "indexed": false,
          "internalType": "address",
          "name": "signer",
          "type": "address"
        }
      ],
      "name": "ProjectUpdated",
      "type": "event"
    },
    {
      "anonymous": false,
      "inputs": [
        {
          "indexed": false,
          "internalType": "string",
          "name": "projectId",
          "type": "string"
        },
        {
          "indexed": false,
          "internalType": "address",
          "name": "token",
          "type": "address"
        },
        {
          "indexed": false,
          "internalType": "address",
          "name": "account",
          "type": "address"
        },
        {
          "indexed": false,
          "internalType": "uint256",
          "name": "amount",
          "type": "uint256"
        },
        {
          "indexed": false,
          "internalType": "uint256",
          "name": "fee",
          "type": "uint256"
        },
        {
          "indexed": false,
          "internalType": "string",
          "name": "serialNo",
          "type": "string"
        },
        {
          "indexed": false,
          "internalType": "enum IPayTheFly.TxType",
          "name": "txType",
          "type": "uint8"
        }
      ],
      "name": "Transaction",
      "type": "event"
    },
    {
      "anonymous": false,
      "inputs": [
        {
          "indexed": false,
          "internalType": "address",
          "name": "account",
          "type": "address"
        }
      ],
      "name": "Unpaused",
      "type": "event"
    },
    {
      "anonymous": false,
      "inputs": [
        {
          "indexed": true,
          "internalType": "address",
          "name": "implementation",
          "type": "address"
        }
      ],
      "name": "Upgraded",
      "type": "event"
    },
    {
      "stateMutability": "payable",
      "type": "fallback"
    },
    {
      "inputs": [],
      "name": "DOMAIN_SEPARATOR",
      "outputs": [
        {
          "internalType": "bytes32",
          "name": "",
          "type": "bytes32"
        }
      ],
      "stateMutability": "view",
      "type": "function"
    },
    {
      "inputs": [],
      "name": "UPGRADE_INTERFACE_VERSION",
      "outputs": [
        {
          "internalType": "string",
          "name": "",
          "type": "string"
        }
      ],
      "stateMutability": "view",
      "type": "function"
    },
    {
      "inputs": [
        {
          "internalType": "string",
          "name": "projectId",
          "type": "string"
        },
        {
          "internalType": "address",
          "name": "token",
          "type": "address"
        },
        {
          "internalType": "uint256",
          "name": "amount",
          "type": "uint256"
        },
        {
          "internalType": "address",
          "name": "recipient",
          "type": "address"
        }
      ],
      "name": "adminWithdraw",
      "outputs": [],
      "stateMutability": "nonpayable",
      "type": "function"
    },
    {
      "inputs": [
        {
          "internalType": "string",
          "name": "projectId",
          "type": "string"
        },
        {
          "internalType": "string",
          "name": "name",
          "type": "string"
        },
        {
          "internalType": "address",
          "name": "signer",
          "type": "address"
        }
      ],
      "name": "createProject",
      "outputs": [],
      "stateMutability": "nonpayable",
      "type": "function"
    },
    {
      "inputs": [
        {
          "internalType": "string",
          "name": "projectId",
          "type": "string"
        },
        {
          "internalType": "address",
          "name": "token",
          "type": "address"
        },
        {
          "internalType": "uint256",
          "name": "amount",
          "type": "uint256"
        }
      ],
      "name": "depositToWithdrawalPool",
      "outputs": [],
      "stateMutability": "payable",
      "type": "function"
    },
    {
      "inputs": [
        {
          "internalType": "string",
          "name": "projectId",
          "type": "string"
        }
      ],
      "name": "doesProjectExist",
      "outputs": [
        {
          "internalType": "bool",
          "name": "",
          "type": "bool"
        }
      ],
      "stateMutability": "view",
      "type": "function"
    },
    {
      "inputs": [],
      "name": "feeRate",
      "outputs": [
        {
          "internalType": "uint256",
          "name": "",
          "type": "uint256"
        }
      ],
      "stateMutability": "view",
      "type": "function"
    },
    {
      "inputs": [],
      "name": "feeVault",
      "outputs": [
        {
          "internalType": "address",
          "name": "",
          "type": "address"
        }
      ],
      "stateMutability": "view",
      "type": "function"
    },
    {
      "inputs": [
        {
          "internalType": "address",
          "name": "creator",
          "type": "address"
        }
      ],
      "name": "getCreatorProjectCount",
      "outputs": [
        {
          "internalType": "uint256",
          "name": "",
          "type": "uint256"
        }
      ],
      "stateMutability": "view",
      "type": "function"
    },
    {
      "inputs": [
        {
          "internalType": "address",
          "name": "creator",
          "type": "address"
        }
      ],
      "name": "getCreatorProjects",
      "outputs": [
        {
          "internalType": "string[]",
          "name": "",
          "type": "string[]"
        }
      ],
      "stateMutability": "view",
      "type": "function"
    },
    {
      "inputs": [
        {
          "internalType": "address",
          "name": "creator",
          "type": "address"
        },
        {
          "internalType": "uint256",
          "name": "offset",
          "type": "uint256"
        },
        {
          "internalType": "uint256",
          "name": "limit",
          "type": "uint256"
        }
      ],
      "name": "getCreatorProjectsPaginated",
      "outputs": [
        {
          "internalType": "string[]",
          "name": "projectIds",
          "type": "string[]"
        },
        {
          "internalType": "uint256",
          "name": "total",
          "type": "uint256"
        }
      ],
      "stateMutability": "view",
      "type": "function"
    },
    {
      "inputs": [
        {
          "internalType": "string",
          "name": "projectId",
          "type": "string"
        }
      ],
      "name": "getProject",
      "outputs": [
        {
          "components": [
            {
              "internalType": "string",
              "name": "projectId",
              "type": "string"
            },
            {
              "internalType": "string",
              "name": "name",
              "type": "string"
            },
            {
              "internalType": "address",
              "name": "creator",
              "type": "address"
            },
            {
              "internalType": "address",
              "name": "signer",
              "type": "address"
            },
            {
              "internalType": "bool",
              "name": "active",
              "type": "bool"
            }
          ],
          "internalType": "struct IPayTheFly.Project",
          "name": "",
          "type": "tuple"
        }
      ],
      "stateMutability": "view",
      "type": "function"
    },
    {
      "inputs": [
        {
          "internalType": "string",
          "name": "projectId",
          "type": "string"
        },
        {
          "internalType": "address",
          "name": "token",
          "type": "address"
        }
      ],
      "name": "getProjectBalance",
      "outputs": [
        {
          "components": [
            {
              "internalType": "uint256",
              "name": "paymentBalance",
              "type": "uint256"
            },
            {
              "internalType": "uint256",
              "name": "withdrawalBalance",
              "type": "uint256"
            }
          ],
          "internalType": "struct IPayTheFly.ProjectBalance",
          "name": "",
          "type": "tuple"
        }
      ],
      "stateMutability": "view",
      "type": "function"
    },
    {
      "inputs": [],
      "name": "initialize",
      "outputs": [],
      "stateMutability": "nonpayable",
      "type": "function"
    },
    {
      "inputs": [
        {
          "internalType": "string",
          "name": "projectId",
          "type": "string"
        },
        {
          "internalType": "string",
          "name": "serialNo",
          "type": "string"
        }
      ],
      "name": "isPaymentSerialNoUsed",
      "outputs": [
        {
          "internalType": "bool",
          "name": "",
          "type": "bool"
        }
      ],
      "stateMutability": "view",
      "type": "function"
    },
    {
      "inputs": [
        {
          "internalType": "string",
          "name": "projectId",
          "type": "string"
        },
        {
          "internalType": "string",
          "name": "withdrawalSerialNo",
          "type": "string"
        }
      ],
      "name": "isWithdrawalSerialNoUsed",
      "outputs": [
        {
          "internalType": "bool",
          "name": "",
          "type": "bool"
        }
      ],
      "stateMutability": "view",
      "type": "function"
    },
    {
      "inputs": [],
      "name": "owner",
      "outputs": [
        {
          "internalType": "address",
          "name": "",
          "type": "address"
        }
      ],
      "stateMutability": "view",
      "type": "function"
    },
    {
      "inputs": [],
      "name": "pause",
      "outputs": [],
      "stateMutability": "nonpayable",
      "type": "function"
    },
    {
      "inputs": [],
      "name": "pauseLevel",
      "outputs": [
        {
          "internalType": "enum PayTheFly.PauseLevel",
          "name": "",
          "type": "uint8"
        }
      ],
      "stateMutability": "view",
      "type": "function"
    },
    {
      "inputs": [
        {
          "components": [
            {
              "internalType": "string",
              "name": "projectId",
              "type": "string"
            },
            {
              "internalType": "address",
              "name": "token",
              "type": "address"
            },
            {
              "internalType": "uint256",
              "name": "amount",
              "type": "uint256"
            },
            {
              "internalType": "string",
              "name": "serialNo",
              "type": "string"
            },
            {
              "internalType": "uint256",
              "name": "deadline",
              "type": "uint256"
            }
          ],
          "internalType": "struct IPayTheFly.PaymentRequest",
          "name": "request",
          "type": "tuple"
        },
        {
          "internalType": "bytes",
          "name": "signature",
          "type": "bytes"
        }
      ],
      "name": "pay",
      "outputs": [],
      "stateMutability": "payable",
      "type": "function"
    },
    {
      "inputs": [
        {
          "components": [
            {
              "internalType": "string",
              "name": "projectId",
              "type": "string"
            },
            {
              "internalType": "address",
              "name": "token",
              "type": "address"
            },
            {
              "internalType": "uint256",
              "name": "amount",
              "type": "uint256"
            },
            {
              "internalType": "string",
              "name": "serialNo",
              "type": "string"
            },
            {
              "internalType": "uint256",
              "name": "deadline",
              "type": "uint256"
            }
          ],
          "internalType": "struct IPayTheFly.PaymentRequest",
          "name": "request",
          "type": "tuple"
        },
        {
          "internalType": "bytes",
          "name": "signature",
          "type": "bytes"
        }
      ],
      "name": "payWithSign",
      "outputs": [],
      "stateMutability": "payable",
      "type": "function"
    },
    {
      "inputs": [],
      "name": "proxiableUUID",
      "outputs": [
        {
          "internalType": "bytes32",
          "name": "",
          "type": "bytes32"
        }
      ],
      "stateMutability": "view",
      "type": "function"
    },
    {
      "inputs": [],
      "name": "renounceOwnership",
      "outputs": [],
      "stateMutability": "nonpayable",
      "type": "function"
    },
    {
      "inputs": [
        {
          "internalType": "uint256",
          "name": "newFeeRate",
          "type": "uint256"
        }
      ],
      "name": "setFeeRate",
      "outputs": [],
      "stateMutability": "nonpayable",
      "type": "function"
    },
    {
      "inputs": [
        {
          "internalType": "address",
          "name": "newFeeVault",
          "type": "address"
        }
      ],
      "name": "setFeeVault",
      "outputs": [],
      "stateMutability": "nonpayable",
      "type": "function"
    },
    {
      "inputs": [
        {
          "internalType": "enum PayTheFly.PauseLevel",
          "name": "level",
          "type": "uint8"
        }
      ],
      "name": "setPauseLevel",
      "outputs": [],
      "stateMutability": "nonpayable",
      "type": "function"
    },
    {
      "inputs": [
        {
          "internalType": "string",
          "name": "projectId",
          "type": "string"
        },
        {
          "internalType": "bool",
          "name": "active",
          "type": "bool"
        }
      ],
      "name": "setProjectStatus",
      "outputs": [],
      "stateMutability": "nonpayable",
      "type": "function"
    },
    {
      "inputs": [
        {
          "internalType": "address",
          "name": "newOwner",
          "type": "address"
        }
      ],
      "name": "transferOwnership",
      "outputs": [],
      "stateMutability": "nonpayable",
      "type": "function"
    },
    {
      "inputs": [],
      "name": "unpause",
      "outputs": [],
      "stateMutability": "nonpayable",
      "type": "function"
    },
    {
      "inputs": [
        {
          "internalType": "string",
          "name": "projectId",
          "type": "string"
        },
        {
          "internalType": "string",
          "name": "name",
          "type": "string"
        },
        {
          "internalType": "address",
          "name": "signer",
          "type": "address"
        }
      ],
      "name": "updateProject",
      "outputs": [],
      "stateMutability": "nonpayable",
      "type": "function"
    },
    {
      "inputs": [
        {
          "internalType": "address",
          "name": "newImplementation",
          "type": "address"
        },
        {
          "internalType": "bytes",
          "name": "data",
          "type": "bytes"
        }
      ],
      "name": "upgradeToAndCall",
      "outputs": [],
      "stateMutability": "payable",
      "type": "function"
    },
    {
      "inputs": [
        {
          "components": [
            {
              "internalType": "address",
              "name": "user",
              "type": "address"
            },
            {
              "internalType": "string",
              "name": "projectId",
              "type": "string"
            },
            {
              "internalType": "address",
              "name": "token",
              "type": "address"
            },
            {
              "internalType": "uint256",
              "name": "amount",
              "type": "uint256"
            },
            {
              "internalType": "string",
              "name": "serialNo",
              "type": "string"
            },
            {
              "internalType": "uint256",
              "name": "deadline",
              "type": "uint256"
            }
          ],
          "internalType": "struct IPayTheFly.WithdrawalRequest",
          "name": "request",
          "type": "tuple"
        },
        {
          "internalType": "bytes",
          "name": "signature",
          "type": "bytes"
        }
      ],
      "name": "withdraw",
      "outputs": [],
      "stateMutability": "nonpayable",
      "type": "function"
    },
    {
      "inputs": [
        {
          "internalType": "string",
          "name": "projectId",
          "type": "string"
        },
        {
          "internalType": "address",
          "name": "token",
          "type": "address"
        },
        {
          "internalType": "uint256",
          "name": "amount",
          "type": "uint256"
        },
        {
          "internalType": "address",
          "name": "recipient",
          "type": "address"
        }
      ],
      "name": "withdrawFromWithdrawalPool",
      "outputs": [],
      "stateMutability": "nonpayable",
      "type": "function"
    },
    {
      "stateMutability": "payable",
      "type": "receive"
    }
  ],
  "bytecode": "0x60a08060405234620000d157306080527ff0c57e16840df040f15088dc2f81fe391c3923bec73e23a9662efc9c229c6a009081549060ff8260401c16620000c257506001600160401b036002600160401b0319828216016200007c575b604051613e659081620000d7823960805181818161180501526119db0152f35b6001600160401b031990911681179091556040519081527fc7f505b2f371ae2175ee4913f4499e1f2633a7b5936321eed1cdaeb6115181d290602090a13880806200005c565b63f92ee8a960e01b8152600490fd5b600080fdfe60406080815260048036101561001c575b50503661356e5761356e565b600091823560e01c9182630439e24d1461204a5782631eda82ed14611d825782631f45712214611d355782633644e51514611d115782633f4ba83a14611c4d57826345596e2e14611ba8578263478222c214611b7f5782634f1ef2861461198c5782634fa691e21461185757826352d1902d146117f057826353fc732a146117b857826360ae1e921461152f578263715018a6146114c55782637342918814611490578263765f39f91461130b5782638129fc1c146111b25782638456cb59146110e05782638a2fa6071461109f5782638b2bbdd41461102e5782638da5cb5b14610ff857826391059ec314610dc2578263978bbdb914610da3578263a4944cc614610ceb578263a591f97f14610c33578263aae435dd14610a55578263ad3cb1cc14610a0c578263c5b42dcf14610410578263c86e61d0146103ba578263e5b14e4d14610370578263e61399b814610343578263e7e4a8581461022e5750508063f2fde38b146101fe5763fca74463146101975780610010565b6101d46101a3366121ec565b916101ac6135b3565b6101cf60ff8654166101bd81612420565b600181141590816101e9575b50612536565b6127fb565b6001600080516020613e108339815191525580f35b600391506101f681612420565b1415386101c9565b503461022b57602036600319011261022b5761022861021b6120d7565b610223613a9b565b6134fa565b80f35b80fd5b9091503461033f578160031936011261033f578035906001600160401b03821161033b5761025e913691016121bf565b909160243580151590818103610337577f65a79a54a7224229f26031445ebd354312b3a2c7934c9433255f2499fdda08279461031b61032b926102b760ff8751898682376020818b81016002815203019020541661259b565b6102e58651888582376001898201908152602090829003019020600201546001600160a01b031633146125f1565b60038651888582376001898201908152819003602001902001805460ff60a01b191691151560a01b60ff60a01b16919091179055565b835194848695865285019161275d565b9060208301520390a180f35b8580fd5b8380fd5b8280fd5b83823461036c578160031936011261036c5760ff602092541690519061036881612420565b8152f35b5080fd5b50823461022b57606036600319011261022b575061039c61038f6120d7565b60443590602435906133be565b82518381529283926103b091840190612162565b9060208301520390f35b90833461022b57602036600319011261022b578235906001600160401b03821161022b575060206103f1819460ff933691016121bf565b9190828551938492833781016002815203019020541690519015158152f35b83823461036c5760031990808236011261033f578335936001600160401b03851161033b5760c085820193863603011261033b576024356001600160401b038111610a085761046290369083016121bf565b9161046b6135b3565b61048e60ff87541661047c81612420565b600281141590816109f3575b50613280565b60248701906104e360ff600360206104a6868b61277e565b91906104c6858c518584823784818781016002815203019020541661259b565b828b51938492833781016001815203019020015460a01c166127b0565b6001600160a01b0393846104f688612fdc565b16156109b55761050587612fdc565b85339116036109785760648901359361051f85151561263d565b61052f4260a48c01351015612eed565b61053c60848b018961277e565b80151591508161096c575b50156109125760ff6105868b61058060848b60206105668f8c9061277e565b80935193849283378101600581520301902092018c61277e565b90612582565b54166108ba5761059860418314612f2e565b85600360206105a7878c61277e565b9190828c51938492833781016001815203019020015416926105ca841515612f86565b886105d481612fdc565b918c8961060f6105ea6105f16105ea8c8861277e565b36916122da565b6020815191012095608461060760448701612fdc565b95019061277e565b60208151910120918c51948d8360208801987f817e76f3333a82f84312b4f85bcd6e12cc688fdb927f92902aa5cb7a9e0d24f08a52169087015260608601521660808401528860a084015260c083015260a48d013560e083015260e082526101008201908282106001600160401b038311176108a75750948861075461074b600080516020613df08339815191529e9f9a976107456108159861082e9f61086b9f9c610700829f9b6107669b6106f29385525190206106cc61381e565b9351928391602083019586909160429261190160f01b8352600283015260228201520190565b03601f19810183528261229e565b5190208d516020810191770caa2927a71029b4b3b732b21026b2b9b9b0b3b29d05199960411b835260388201526038815261073a81612283565b5190209236916122da565b90613b99565b90929192613bd5565b16610760811515612ff0565b1461303c565b6107966020610775838c61277e565b9190828951938492833781016005815203019020610580608489018c61277e565b805460ff1916600117905560206107ad828b61277e565b9190828851938492833781016003815203019020846107ce60448901612fdc565b168c526020526001858c20016107f18482546107ec82821015613318565b612682565b90558361080060448801612fdc565b1661088a5761080f8333613a4b565b8861277e565b969097608461082660448801612fdc565b96019061277e565b9390926108478251998a9960e08b5260e08b019161275d565b951660208801523390870152606086015287608086015284830360a086015261275d565b600260c08301520390a16001600080516020613e108339815191525580f35b6108a283338661089c60448b01612fdc565b166138c3565b61080f565b634e487b7160e01b8d526041905260248cfd5b865162461bcd60e51b8152602081850152602c60248201527f506179546865466c793a207769746864726177616c2073657269616c206e6f2060448201526b185b1c9958591e481d5cd95960a21b6064820152608490fd5b865162461bcd60e51b8152602081850152602e60248201527f506179546865466c793a20696e76616c6964207769746864726177616c20736560448201526d0e4d2c2d840dcde40d8cadccee8d60931b6064820152608490fd5b6080915011158b610547565b855162461bcd60e51b815260208184015260176024820152762830bcaa3432a3363c9d1034b73b30b634b2103ab9b2b960491b6044820152606490fd5b855162461bcd60e51b8152602081840152601860248201527714185e551a19519b1e4e881d5cd95c881c995c5d5a5c995960421b6044820152606490fd5b60039150610a0081612420565b141589610488565b8480fd5b83823461036c578160031936011261036c578051610a5191610a2d82612268565b60058252640352e302e360dc1b60208301525191829160208352602083019061213d565b0390f35b83903461036c57610a65366123be565b91929394610a716135b3565b610a9360ff885416610a8281612420565b60028114159081610c1e5750613280565b87519385878637610ab760ff8688810160028152602098899103019020541661259b565b88519186888437610ae4878401600181526002858960018060a01b039788940301902001541633146125f1565b610aef84151561263d565b82851692610afe8415156132cc565b8a51888a823787818a81016003815203019020921691828a52865289892090815490858210610bcb575091600080516020613df0833981519152999a91610b4c86610b9d9998979695612682565b9055610b566137a1565b948482610bbc57610b68915084613a4b565b610b7e8251998a9960e08b5260e08b019161275d565b95880152860152606085015286608085015283820360a085015261213d565b600360c08301520390a16001600080516020613e108339815191525580f35b610bc691836138c3565b610b68565b8b5162461bcd60e51b8152908101889052602760248201527f506179546865466c793a20696e73756666696369656e74207061796d656e742060448201526662616c616e636560c81b6064820152608490fd5b60039150610c2b81612420565b14158a610488565b9091503461033f57602036600319011261033f57610c4f6120d7565b90610c58613a9b565b6001600160a01b03918216928315610ca8575050600980546001600160a01b031981168417909155167f25c55b2215d19a9695a5d1f34bb79d819da18da1964a380e66bd4a440e4186178380a380f35b906020606492519162461bcd60e51b8352820152601c60248201527f506179546865466c793a20696e76616c696420666565207661756c74000000006044820152fd5b83903461036c578260031936011261036c5780356001600160401b03811161033f57610d1c849284923691016121bf565b610d246120fb565b91845190610d3182612268565b8482526020968780930152610d5b60ff87518584823784818781016002815203019020541661259b565b8286519384928337810160038152030190209060018060a01b03168252835220908251610d8781612268565b8160018454948584520154910190815283519283525190820152f35b83823461036c578160031936011261036c576020906008549051908152f35b83903461036c57610dd236612311565b9692939491610dee60ff885416610de881612420565b15613088565b83519785878a378589019060028252610e1460ff8b6020809d819603019020541661259b565b85519087898337610e4288830160028460019687845260018060a01b039687940301902001541633146125f1565b84151580610fec575b610e54906130c8565b1693610e61851515613113565b818651888a82378b818a81018481520301902001906001600160401b038511610fd95750610e9984610e938354612457565b8361315b565b88601f8511600114610f525784928a9b9492610ef285610f3d986003957fed738a3707ab8a62363fb0eea6752cb06a7997777e8e7189410c7573b55b86209f91610f47575b508160011b916000199060031b1c19161790565b90555b84885180928b8d8337818c01908152030190200180546001600160a01b031916861790558551606080825290988998610f30928a019161275d565b928784039088015261275d565b918301520390a180f35b905086013538610ede565b818a528a8a2090601f1986168b5b818110610fc4575092600392879592610f3d987fed738a3707ab8a62363fb0eea6752cb06a7997777e8e7189410c7573b55b86209e9f989610610fac575b50508185811b019055610ef5565b85013560001987861b60f8161c191690558d80610f9e565b86830135845592850192918d01918d01610f60565b634e487b7160e01b8a5260419052602489fd5b50610100851115610e4b565b83823461036c578160031936011261036c57600080516020613db08339815191525490516001600160a01b039091168152602090f35b91503461033f57602036600319011261033f5781359182101561033f57600080516020613d9083398151915291611063613a9b565b83549060ff82169161107482612420565b60ff191660ff821617855582519161108b81612420565b825261109681612420565b6020820152a180f35b90833461022b575060ff6110d5602093846110b936612378565b9391929094838951948593843782019081520301902091612582565b541690519015158152f35b83903461036c578160031936011261036c576110fa613a9b565b815460ff81169161110a83612420565b6003831461116f575083600080516020613d90833981519152817f62e78cea01bee320cd4e420270b5ea74000d11b0c9f74754ebdbfc544b05a25894600360209560ff191617875581519061115e81612420565b8152600385820152a151338152a180f35b606490602086519162461bcd60e51b8352820152601f60248201527f506179546865466c793a20616c72656164792066756c6c7920706175736564006044820152fd5b9091503461033f578260031936011261033f577ff0c57e16840df040f15088dc2f81fe391c3923bec73e23a9662efc9c229c6a0090815460ff81851c1615916001600160401b03821680159081611303575b60011490816112f9575b1590816112f0575b506112e2575067ffffffffffffffff1981166001178355816112c3575b5061123c613c81565b611244613c81565b6001600080516020613e108339815191525561125e613c81565b611266613c81565b61126f336134fa565b611277613c81565b835460ff19168455611287578280f35b805460ff60401b1916905551600181527fc7f505b2f371ae2175ee4913f4499e1f2633a7b5936321eed1cdaeb6115181d290602090a138808280f35b68ffffffffffffffffff19166801000000000000000117825538611233565b845163f92ee8a960e01b8152fd5b90501538611216565b303b15915061120e565b849150611204565b83823461036c57600080516020613df08339815191529061144d61132e366123be565b919294939561133b6135b3565b61135d60ff8a541661134c81612420565b6002811415908161147b5750613280565b61137d60ff8251888a82376020818a81016002815203019020541661259b565b805190868883376113ab87830160018152600284602060018060a01b039687940301902001541633146125f1565b6113b683151561263d565b818416916113c58315156132cc565b8151888a82376020818a81016003815203019020951694858b526020526001818b20016113fa8482546107ec82821015613318565b90556114046137a1565b93838661146c57611416915083613a4b565b61142c815198899860e08a5260e08a019161275d565b946020880152860152606085015286608085015283820360a085015261213d565b600560c08301520390a16001600080516020613e108339815191525580f35b61147691876138c3565b611416565b6003915061148881612420565b14158b610488565b83823461036c5760209060ff6110d5836114a936612378565b9282889592955193849283378101600581520301902091612582565b833461022b578060031936011261022b576114de613a9b565b600080516020613db083398151915280546001600160a01b0319811690915581906001600160a01b03167f8be0079c531659141344cd1fd0a4f28419497f9722a3daafe3b4186f6b6457e08280a380f35b83823461036c5761153f36612311565b9161155560ff88979596975416610de881612420565b841515806117ad575b611567906130c8565b811515806117a1575b611579906130c8565b8351928587853760ff84878101600281526020968791030190205416611754576001600160a01b039081169392919061167e90859087908a906115bd841515613113565b600383516115ca81612237565b6115d5368e866122da565b815261162b8d6116216115e9368d8d6122da565b918d85019283528d89860198338a52606087019b8c5282608088019b60018d52519384928337810160018152030190209351846131b1565b51600183016131b1565b92516002840180549184166001600160a01b03199092169190911790559351939091018054925160ff60a01b90151560a01b166001600160a81b03199093169390911660ff60a01b191692909217179055565b84518688823783818881016002815203019020600160ff198254161790556116a73687896122da565b33895260078452858920805490600160401b82101561174157906116d09160018201815561337c565b61172f577f97ebeb37c95acc6fea5391d9bf850ab044171437c8742de9358297f2968bf684999a5061171e94939291611708916131b1565b610f30865198899860808a5260808a019161275d565b91339084015260608301520390a180f35b634e487b7160e01b8a52898b5260248afd5b634e487b7160e01b8b5260418c5260248bfd5b845162461bcd60e51b8152808a01859052602160248201527f506179546865466c793a2070726f6a65637420616c72656164792065786973746044820152607360f81b6064820152608490fd5b50610100821115611570565b50608085111561155e565b83823461036c57602036600319011261036c5760209181906001600160a01b036117e06120d7565b1681526007845220549051908152f35b90833461022b578060031936011261022b57507f00000000000000000000000000000000000000000000000000000000000000006001600160a01b0316300361184a5760209051600080516020613dd08339815191528152f35b5163703e46dd60e11b8152fd5b91503461033f576020918260031936011261033b5780356001600160401b038111610a085761188d60a0959285923691016121bf565b926080855161189b81612237565b60608152606085820152828782015282606082015201526118d160ff85518584823784818781016002815203019020541661259b565b828451938492833781016001815203019020906119718151936118f385612237565b6118fc84612491565b855261190a60018501612491565b818601908152600180881b0392839160038360028901541697878a0198895201549561195e60608a0195858916875260ff60808c01998d1c161515895282519b8c9b828d5251918c015260c08b019061213d565b915190601f198a840301908a015261213d565b94511660608601525116608084015251151560a08301520390f35b91508060031936011261033f576119a16120d7565b906024356001600160401b038111610a085736602382011215610a08576119d190369060248187013591016122da565b6001600160a01b037f00000000000000000000000000000000000000000000000000000000000000008116308114908115611b63575b50611b5357611a14613a9b565b83169282516352d1902d60e01b81526020818781885afa879181611b1b575b50611a4f578351634c9c8ce360e01b8152808701869052602490fd5b8487948792600080516020613dd083398151915290818103611b055750843b15611aef5780546001600160a01b03191683179055518592917fbc7cd75a20ee27fd9adebab32041f755214dbc6bffa90cc0225b39da2e5c2d3b8480a2845115611ad457505080836020611ad095519101845af4611aca6135e3565b91613d48565b5080f35b925092505034611ae357505080f35b63b398979f60e01b8152fd5b5051634c9c8ce360e01b81529182015260249150fd5b84602491845191632a87526960e21b8352820152fd5b9091506020813d602011611b4b575b81611b376020938361229e565b81010312611b4757519038611a33565b8780fd5b3d9150611b2a565b825163703e46dd60e11b81528590fd5b905081600080516020613dd08339815191525416141538611a07565b83823461036c578160031936011261036c5760095490516001600160a01b039091168152602090f35b9091503461033f57602036600319011261033f57803590611bc7613a9b565b6103e88211611c0a5750907fb9ffe02e89fee6f5544ee152a08c2cafbc3a4a89a66737ef42115dcd508aea1091600854908060085582519182526020820152a180f35b606490602084519162461bcd60e51b8352820152601c60248201527f506179546865466c793a20666565207261746520746f6f2068696768000000006044820152fd5b83903461036c578160031936011261036c57611c67613a9b565b815460ff811691611c7783612420565b8215611cd6575083600080516020613d90833981519152817f5db9ee0a495bf2e6ff9c91a7834c1ba4fdd244a5e8aa4e537bd38aeae4b073aa9460209460ff19168755815190611cc681612420565b81528685820152a151338152a180f35b606490602086519162461bcd60e51b8352820152601560248201527414185e551a19519b1e4e881b9bdd081c185d5cd959605a1b6044820152fd5b83823461036c578160031936011261036c57602090611d2e61381e565b9051908152f35b836101d4611d42366121ec565b91611d4b6135b3565b6101cf60ff865416611d5c81612420565b60018114159081611d6d5750612536565b60039150611d7a81612420565b1415876101c9565b909150606036600319011261033f5780356001600160401b03811161033b57611dae90369083016121bf565b9091611db86120fb565b60443594611dc46135b3565b611dd560ff8854166101bd81612420565b80519184868437611df960ff8487810160028152602096879103019020541661259b565b81519085878337611e26868301600181526002848760018060a01b039687940301902001541633146125f1565b169081611ee45790611ec6929187611e4e600080516020613df083398151915299151561263d565b611e59813414612704565b905b80518789823784818981016003815203019020838b5284526001818b2001611e84838254612750565b9055611e8e6137a1565b92611ea58251998a9960e08b5260e08b019161275d565b948801523390870152606086015287608086015284820360a086015261213d565b9060c08301520390a16001600080516020613e108339815191525580f35b34611ff257611ef487151561263d565b80516370a0823160e01b808252308683015297908481602481875afa908115611fbb578a91611fc5575b50611f2b82303387613613565b825198895230868a01528489602481875afa988915611fbb578a99611f7c575b5090611f7681611f70611ec697969594600080516020613df08339815191529c612682565b146126a5565b90611e5b565b9850939291908389813d8311611fb4575b611f97818361229e565b81010312611fb057975197929391929091611f76611f4b565b8980fd5b503d611f8d565b83513d8c823e3d90fd5b90508481813d8311611feb575b611fdc818361229e565b81010312611fb0575138611f1e565b503d611fd2565b5162461bcd60e51b8152808401839052602d60248201527f506179546865466c793a20545258206e6f7420616363657074656420666f722060448201526c1d1bdad95b8819195c1bdcda5d609a1b6064820152608490fd5b83823461036c576020908160031936011261033f576001600160a01b0361206f6120d7565b1683526007825280832080549061208582612440565b946120928451968761229e565b828652908152838120848087015b8484106120b957855182815280610a518185018b612162565b60019182916120c785612491565b81520192019201919085906120a0565b6004356001600160a81b03811681036120f6576001600160a01b031690565b600080fd5b6024356001600160a81b03811681036120f6576001600160a01b031690565b60005b83811061212d5750506000910152565b818101518382015260200161211d565b906020916121568151809281855285808601910161211a565b601f01601f1916010190565b90808251908181526020809101926020808460051b8301019501936000915b8483106121915750505050505090565b90919293949584806121af600193601f198682030187528a5161213d565b9801930193019194939290612181565b9181601f840112156120f6578235916001600160401b0383116120f657602083818601950101116120f657565b906003196040818401126120f6576004356001600160401b03918282116120f65760a09082860301126120f657600401926024359182116120f657612233916004016121bf565b9091565b60a081019081106001600160401b0382111761225257604052565b634e487b7160e01b600052604160045260246000fd5b604081019081106001600160401b0382111761225257604052565b606081019081106001600160401b0382111761225257604052565b90601f801991011681019081106001600160401b0382111761225257604052565b6001600160401b03811161225257601f01601f191660200190565b9291926122e6826122bf565b916122f4604051938461229e565b8294818452818301116120f6578281602093846000960137010152565b60606003198201126120f6576001600160401b03916004358381116120f6578261233d916004016121bf565b939093926024359182116120f657612357916004016121bf565b90916044356001600160a81b03811681036120f6576001600160a01b031690565b60406003198201126120f6576001600160401b03916004358381116120f657826123a4916004016121bf565b939093926024359182116120f657612233916004016121bf565b60806003198201126120f657600435906001600160401b0382116120f6576123e8916004016121bf565b9091602435906001600160a81b039081831683036120f6576001600160a01b03928316926044359260643590811681036120f6571690565b6004111561242a57565b634e487b7160e01b600052602160045260246000fd5b6001600160401b0381116122525760051b60200190565b90600182811c92168015612487575b602083101461247157565b634e487b7160e01b600052602260045260246000fd5b91607f1691612466565b906040519182600082546124a481612457565b9081845260209460019160018116908160001461251457506001146124d5575b5050506124d39250038361229e565b565b600090815285812095935091905b8183106124fc5750506124d393508201013880806124c4565b855488840185015294850194879450918301916124e3565b925050506124d394925060ff191682840152151560051b8201013880806124c4565b1561253d57565b60405162461bcd60e51b815260206004820152601a60248201527f506179546865466c793a206465706f73697473207061757365640000000000006044820152606490fd5b6020919283604051948593843782019081520301902090565b156125a257565b60405162461bcd60e51b815260206004820152602160248201527f506179546865466c793a2070726f6a65637420646f6573206e6f7420657869736044820152601d60fa1b6064820152608490fd5b156125f857565b60405162461bcd60e51b815260206004820152601e60248201527f506179546865466c793a206e6f742070726f6a6563742063726561746f7200006044820152606490fd5b1561264457565b60405162461bcd60e51b815260206004820152601660248201527514185e551a19519b1e4e881e995c9bc8185b5bdd5b9d60521b6044820152606490fd5b9190820391821161268f57565b634e487b7160e01b600052601160045260246000fd5b156126ac57565b60405162461bcd60e51b815260206004820152602a60248201527f506179546865466c793a20696e636f727265637420746f6b656e20616d6f756e6044820152691d081c9958d95a5d995960b21b6064820152608490fd5b1561270b57565b60405162461bcd60e51b815260206004820152601f60248201527f506179546865466c793a20696e636f72726563742054525820616d6f756e74006044820152606490fd5b9190820180921161268f57565b908060209392818452848401376000828201840152601f01601f1916010190565b903590601e19813603018212156120f657018035906001600160401b0382116120f6576020019181360383136120f657565b156127b757565b606460405162461bcd60e51b815260206004820152602060248201527f506179546865466c793a2070726f6a656374206973206e6f74206163746976656044820152fd5b92919092612809818061277e565b9261285660ff600360409687519581818837818701906002825261283985896020809b819603019020541661259b565b828a51938492833781016001815203019020015460a01c166127b0565b838301359361286685151561263d565b60808401359461287842871015612eed565b6060850197612887898761277e565b801515915081612ee1575b5015612e9157906128cb929160ff6128aa888061277e565b85519691819088378601958881600498898152030190206105808d8b61277e565b5416612e3c576128dd60418614612f2e565b6128e7878061277e565b845196918190883760019087019081528690038701909520600301546001600160a01b03959086169161291b831515612f86565b612925898061277e565b3690612930926122da565b8881519101208c898b019b6129448d612fdc565b9161294f908d61277e565b369061295a926122da565b8b81519101208a8951938d8501957ff64ca923ee0c500d90db7e8041fb883cf771d9942df7f423f532e2286021e27187528b86015216606084015287608084015260a083015260c082015260c0815260e081018181106001600160401b03821117612e2757936107458a94898d612a0c6107549761074b97612a469c9b8552519020916106f26129e861381e565b945193849283019586909160429261190160f01b8352600283015260228201520190565b5190208d8b5190810191770caa2927a71029b4b3b732b21026b2b9b9b0b3b29d05199960411b835260388201526038815261073a81612283565b600084612a5289612fdc565b16612cbf5750612a63813414612704565b905b612a9085612a73888061277e565b919082855193849283378101878152030190206105808b8961277e565b805460ff19166001179055600854600093839180151580612cb2575b612b74575b505091859391612b2d600080516020613df08339815191529a9b87958b8b99612afe612b689c612ae4612b279f8061277e565b9190828a5193849283378101600381520301902092612fdc565b166000528852612b1384600020918254612750565b9055612b1f888061277e565b9a909b612fdc565b9761277e565b959094612b4683519b8c9b60e08d5260e08d019161275d565b97169089015233908801526060870152608086015284830360a086015261275d565b600160c08301520390a1565b809250849b95919b02918483041484151715612c9f5750600080516020613df083398151915298995091612b68959391612b2d612710612b2799979504938a888489612bc08989612682565b93898b81612bdf575b5050505096989a505093959799509b9a50612ab1565b7f7a02b4deff3edfde3ad93177f54882008050e0cf01740ca799372bc31a7364c593612c6082612c3b94612c7294612c1688612fdc565b16612c8057612c29818360095416613a4b565b612c338a8061277e565b969097612fdc565b90612c4b8d84600954169c61277e565b94909a5198899860608a5260608a019161275d565b948701528584038e870152169661275d565b0390a38884898e898b612bc9565b612c9a8183612c8e8a612fdc565b168460095416906138c3565b612c29565b634e487b7160e01b815260118b52602490fd5b5086600954161515612aac565b34612dce5784612cce89612fdc565b169083519187836024816370a0823160e01b94858252308b8301525afa928315612dc4578293612d95575b50612d128488612d088d612fdc565b1630903390613613565b8787612d1d8c612fdc565b169160248751809481938252308b8301525afa918215612d8a5790818593612d55575b5050612d4f92611f7091612682565b90612a65565b915091508782813d8311612d83575b612d6e818361229e565b8101031261022b575051829082611f70612d40565b503d612d64565b8551903d90823e3d90fd5b9092508781813d8311612dbd575b612dad818361229e565b8101031261036c57519138612cf9565b503d612da3565b85513d84823e3d90fd5b825162461bcd60e51b8152808501879052602d60248201527f506179546865466c793a20545258206e6f7420616363657074656420666f722060448201526c1d1bdad95b881c185e5b595b9d609a1b6064820152608490fd5b604189634e487b7160e01b6000525260246000fd5b825162461bcd60e51b8152808501879052602960248201527f506179546865466c793a207061796d656e742073657269616c206e6f20616c726044820152681958591e481d5cd95960ba1b6064820152608490fd5b825162461bcd60e51b815260048101869052602360248201527f506179546865466c793a20696e76616c69642073657269616c206e6f206c656e6044820152620cee8d60eb1b6064820152608490fd5b60809150111538612892565b15612ef457565b60405162461bcd60e51b815260206004820152601260248201527114185e551a19519b1e4e88195e1c1a5c995960721b6044820152606490fd5b15612f3557565b60405162461bcd60e51b815260206004820152602360248201527f506179546865466c793a20696e76616c6964207369676e6174757265206c656e6044820152620cee8d60eb1b6064820152608490fd5b15612f8d57565b60405162461bcd60e51b815260206004820152602160248201527f506179546865466c793a20696e76616c69642070726f6a656374207369676e656044820152603960f91b6064820152608490fd5b356001600160a81b03811681036120f65790565b15612ff757565b60405162461bcd60e51b815260206004820152601c60248201527f506179546865466c793a20696e76616c6964207369676e6174757265000000006044820152606490fd5b1561304357565b60405162461bcd60e51b815260206004820152601a60248201527f506179546865466c793a207369676e6572206d69736d617463680000000000006044820152606490fd5b1561308f57565b60405162461bcd60e51b815260206004820152601160248201527014185e551a19519b1e4e881c185d5cd959607a1b6044820152606490fd5b156130cf57565b606460405162461bcd60e51b815260206004820152602060248201527f506179546865466c793a20696e76616c696420737472696e67206c656e6774686044820152fd5b1561311a57565b60405162461bcd60e51b81526020600482015260196024820152782830bcaa3432a3363c9d1034b73b30b634b21039b4b3b732b960391b6044820152606490fd5b90601f811161316957505050565b6000916000526020600020906020601f850160051c830194106131a7575b601f0160051c01915b82811061319c57505050565b818155600101613190565b9092508290613187565b91909182516001600160401b038111612252576131d8816131d28454612457565b8461315b565b602080601f831160011461321b5750819061320c939495600092613210575b50508160011b916000199060031b1c19161790565b9055565b0151905038806131f7565b90601f19831695846000526020600020926000905b8882106132685750508360019596971061324f575b505050811b019055565b015160001960f88460031b161c19169055388080613245565b80600185968294968601518155019501930190613230565b1561328757565b60405162461bcd60e51b815260206004820152601d60248201527f506179546865466c793a207769746864726177616c73207061757365640000006044820152606490fd5b156132d357565b60405162461bcd60e51b815260206004820152601c60248201527f506179546865466c793a20696e76616c696420726563697069656e74000000006044820152606490fd5b1561331f57565b60405162461bcd60e51b815260206004820152602f60248201527f506179546865466c793a20696e73756666696369656e7420776974686472617760448201526e616c20706f6f6c2062616c616e636560881b6064820152608490fd5b80548210156133945760005260206000200190600090565b634e487b7160e01b600052603260045260246000fd5b80518210156133945760209160051b010190565b92919260018060a01b031690600090828252600760209260076020526040916040822054978885108015906134f2575b6134b4576133fc9085612750565b848982116134ac575b61340e91612682565b9461341886612440565b96613426604051988961229e565b868852601f1961343588612440565b0182855b82811061349c57505050835b8781106134585750505050505050509190565b60019082865284845261348061347a888820613474848c612750565b9061337c565b50612491565b61348a828c6133aa565b52613495818b6133aa565b5001613445565b606082828d010152018390613439565b899150613405565b5050935050505060405190602082018281106001600160401b038211176134de5760405281529190565b634e487b7160e01b82526041600452602482fd5b5080156133ee565b6001600160a01b0390811690811561355557600080516020613db083398151915280546001600160a01b031981168417909155167f8be0079c531659141344cd1fd0a4f28419497f9722a3daafe3b4186f6b6457e0600080a3565b604051631e4fbdf760e01b815260006004820152602490fd5b60405162461bcd60e51b815260206004820152601b60248201527f506179546865466c793a20757365207061792066756e6374696f6e00000000006044820152606490fd5b600080516020613e1083398151915260028154146135d15760029055565b604051633ee5aeb560e01b8152600490fd5b3d1561360e573d906135f4826122bf565b91613602604051938461229e565b82523d6000602084013e565b606090565b604080516370a0823160e01b8082526001600160a01b0395861660048301819052938616969295929490939192602092919083856024818c5afa94851561378757600095613757575b506000918291895190868201926323b872dd60e01b84521660248201528460448201528860648201526064815261369281612237565b5190828b5af16136a06135e3565b501561373f57855193845260048401528083602481895afa90811561373457600091613704575b506136d29250612682565b1590816136fa575b506136e3575050565b6024925051906362ca658b60e11b82526004820152fd5b90501515386136da565b905082813d831161372d575b61371a818361229e565b810103126120f6576136d29151386136c7565b503d613710565b85513d6000823e3d90fd5b85516362ca658b60e11b815260048101889052602490fd5b9094508381813d8311613780575b61376f818361229e565b810103126120f6575193600061365c565b503d613765565b88513d6000823e3d90fd5b600019811461268f5760010190565b6137ac600654613792565b8060065561381b60236137c76137c146613ad4565b93613ad4565b9260405193849161575f60f01b60208401526137ed81518092602060228701910161211a565b8201605f60f81b602282015261380c825180936020878501910161211a565b0103600381018452018261229e565b90565b6009602060405161382e81612268565b8281520168506179546865466c7960b81b8152206001602060405161385281612268565b82815201603160f81b8152206040519060208201927f8b73c3c69bb8fe3d512ecc4cf759cc79239f7b179b0ffacaa9a75d522b39400f8452604083015260608201524660808201523060a082015260a0815260c081018181106001600160401b038211176122525760405251902090565b604080516370a0823160e01b8082526001600160a01b039485166004830181905260249695909416949293909190602090818389818a5afa928315613a4057600093613a11575b5085518281019063a9059cbb60e01b8252828a82015286604482015260448152608081018181106001600160401b038211176139fc57885251600091829190828b5af16139556135e3565b50156139e5578551938452600484015280838881895afa908115613734576000916139b5575b506139869250612682565b1590816139ab575b5061399857505050565b51906362ca658b60e11b82526004820152fd5b905015153861398e565b905082813d83116139de575b6139cb818361229e565b810103126120f65761398691513861397b565b503d6139c1565b85516362ca658b60e11b8152600481018890528890fd5b8a634e487b7160e01b60005260416004526000fd5b9092508181813d8311613a39575b613a29818361229e565b810103126120f65751913861390a565b503d613a1f565b86513d6000823e3d90fd5b814710613a7c576000918291829182916001600160a01b03165af1613a6e6135e3565b9015613a775750565b613c60565b60405163cf47918160e01b815247600482015260248101839052604490fd5b600080516020613db0833981519152546001600160a01b03163303613abc57565b60405163118cdaa760e01b8152336004820152602490fd5b8015613b7b57600081805b613b675750613aed816122bf565b90613afb604051928361229e565b808252601f19613b0a826122bf565b013660208401375b80928015613b6057600019820191821161268f578193600a92603090848406820180921161268f57855111156133945760f81b6001600160f81b03191660001a908401601f01530491613b12565b5050905090565b90613b73600a91613792565b910480613adf565b50604051613b8881612268565b60018152600360fc1b602082015290565b8151919060418303613bca57613bc392506020820151906060604084015193015160001a90613cc2565b9192909190565b505060009160029190565b613bde81612420565b80613be7575050565b613bf081612420565b60018103613c0a5760405163f645eedf60e01b8152600490fd5b613c1381612420565b60028103613c345760405163fce698f760e01b815260048101839052602490fd5b80613c40600392612420565b14613c485750565b602490604051906335e2f38360e21b82526004820152fd5b805115613c6f57602081519101fd5b60405163d6bda27560e01b8152600490fd5b60ff7ff0c57e16840df040f15088dc2f81fe391c3923bec73e23a9662efc9c229c6a005460401c1615613cb057565b604051631afcd79f60e31b8152600490fd5b91906fa2a8918ca85bafe22016d0b997e4df60600160ff1b038411613d3c57926020929160ff608095604051948552168484015260408301526060820152600092839182805260015afa15613d305780516001600160a01b03811615613d2757918190565b50809160019190565b604051903d90823e3d90fd5b50505060009160039190565b90613d535750613c60565b81511580613d86575b613d64575090565b604051639996b31560e01b81526001600160a01b039091166004820152602490fd5b50803b15613d5c56fe0e96d4a605e678a97e72f7f535b71de5b1e75739ab933bfa4119737557ea78a59016d09d72d40fdae2fd8ceac6b6234c7706214fd39c1cd1e609a0528c199300360894a13ba1a3210667c828492db98dca3e2076cc3735a920a3ca505d382bbc85798ae26be3eed58111a61863457cbeeb8ecae1a72df003a3182ccfea02b38e9b779b17422d0df92223018b32b4d1fa46e071723d6817e2486d003becc55f00a26474726f6e582212206c80290dedd11324858ccaf48619f7552e40f7dd4e7ab94f4a6f12f51935f89964736f6c63430008180033",
  "linkReferences": {},
  "deployedLinkReferences": {}
}